:020000040801F1
:1000000020270020A5020108531E0108D51701086A
:10001000511E010853050108652201080000000077
:100020000000000000000000000000000D020108B8
:10003000810501080000000051020108ED1F0108C0
:10004000BF020108BF020108BF020108BF02010888
:10005000BF020108BF020108BF020108BF02010878
:10006000BF020108BF020108BF020108BF02010868
:10007000BF020108BF020108BF020108BF02010858
:10008000BF020108BF020108BF020108BF02010848
:10009000BF020108BF020108BF020108BF02010838
:1000A000BF020108BF020108BF020108BF02010828
:1000B0008D20010899200108BF020108BF02010834
:1000C000BF020108BF020108BF020108BF02010808
:1000D000BF020108592201085D22010861220108BE
:1000E000BF020108BF020108BF020108BF020108E8
:1000F000BF020108BF020108BF020108BF020108D8
:10010000BF020108BF020108BF020108BF020108C7
:10011000972101089B2101089D200108BF020108C9
:10012000BF020108BF020108BF020108BF020108A7
:1001300000F002F800F05AF80AA090E8000C82449F
:100140008344AAF10107DA4501D100F04FF8AFF27C
:10015000090EBAE80F0013F0010F18BFFB1A43F0A5
:10016000010318471C4A00003C4A00000A444FF0B3
:10017000000C10F8013B13F0070408BF10F8014B06
:100180001D1108BF10F8015B641E05D010F8016B4B
:10019000641E01F8016BF9D113F0080F1EBF10F8AF
:1001A000014BAD1C0C1B09D16D1E58BF01F801CBD2
:1001B000FAD505E014F8016B01F8016B6D1EF9D555
:1001C0009142D6D37047000000230024002500266A
:1001D000103A28BF78C1FBD8520728BF30C148BFAA
:1001E0000B6070471FB51FBD10B510BD00F077F94B
:1001F0001146FFF7F7FF02F083F800F095F903B41A
:10020000FFF7F2FF03BC00F09DF90000224B1968D4
:100210000868B0E8F00F80F30988BFF36F8F4FF0E4
:10022000000080F311884EF00D0E704700000000B2
:1002300006480068006880F3088862B661B6BFF3BC
:100240004F8FBFF36F8F00DF00BF00BF08ED00E0EE
:10025000EFF30980BFF36F8F0F4B1A6820E9F00F9F
:10026000106008B54FF0500080F31188BFF34F8F36
:10027000BFF36F8F03F03EFD4FF0000080F3118855
:10028000BDE8084019680868B0E8F00F80F30988F5
:10029000BFF36F8F704700BFE8000020EFF30580C9
:1002A000704700000948804709480047FEE7FEE71D
:1002B000FEE7FEE7FEE7FEE7FEE7FEE7FEE7FEE716
:1002C00004480549054A064B704700007D20010897
:1002D00031010108202100202027002020230020B8
:1002E00020230020B2F120030AD5C2F1200320FA16
:1002F00002F001FA03F321FA02F140EA0300704729
:1003000021FA03F04FF00001704710B5431C02E0E2
:1003100010F8011B71B18107FAD14FF0013202C808
:100320008C1A8C4314EAC211F9D0C01A0A0603D001
:10033000C01E10BDC01A10BD0A0401D0801E10BD21
:100340000902FCD0401E10BD032A40F2308010F09C
:10035000030C00F0158011F8013BBCF1020F624460
:1003600098BF11F801CB00F8013B38BF11F8013BF1
:10037000A2F1040298BF00F801CB38BF00F8013B9E
:1003800011F0030300F05780083AC0F0088051F8DC
:10039000043B083A51F804CBA0E80810F5E7121D19
:1003A0005CBF51F8043B40F8043BAFF30080D20738
:1003B00024BF11F8013B11F801CB48BF11F8012B04
:1003C00024BF00F8013B00F801CB48BF00F8012B27
:1003D000704702F0FF0343EA032242EA024200F0C0
:1003E0005EB84FF0000200B5134694469646203999
:1003F00022BFA0E80C50A0E80C50B1F12001BFF4DE
:10040000F7AF090728BFA0E80C5048BF0CC05DF843
:1004100004EB890028BF40F8042B08BF704748BF91
:1004200020F8022B11F0804F18BF00F8012B704705
:1004300070477047704710B5203AC0F00B80B1E8A4
:100440001850203AA0E81850B1E81850A0E8185009
:10045000BFF4F5AF5FEA027C24BFB1E81850A0E812
:10046000185044BF18C918C0BDE810405FEA827C2C
:1004700024BF51F8043B40F8043B08BF7047D20743
:1004800028BF31F8023B48BF11F8012B28BF20F8E4
:10049000023B48BF00F8012B70474FF000020429CF
:1004A000C0F0128010F0030C3FF49DAFCCF1040CAF
:1004B000BCF1020F18BF00F8012BA8BF20F8022BD7
:1004C000A1EB0C01FFF78FBF5FEAC17C24BF00F8EE
:1004D000012B00F8012B48BF00F8012B704775462F
:1004E00000F02CF8AE4605006946534620F00700A0
:1004F000854618B020B5FFF7E3FEBDE820404FF079
:1005000000064FF000074FF000084FF0000B21F0FD
:100510000701AC46ACE8C009ACE8C009ACE8C009CA
:10052000ACE8C0098D46704710B50446AFF30080B3
:100530002046BDE81040FFF762BE0000004870474B
:10054000BC20002001491820ABBEFEE726000200B7
:100550007047FEE770B5094DFF22134605F580761A
:1005600006E000BF10F8014B54402A5D5A40335D4D
:10057000491E89B2F6D243EA022070BDE84801085C
:10058000704772B6FEE7000006490020C8610648C1
:10059000016941F004010161016941F0400101611B
:1005A00070470000C807002000200240064A0021D2
:1005B000D16106490A6942F002020A61486108698C
:1005C00040F0400008617047C8070020002002404A
:1005D000044B0022DA61044A136943F001031361FA
:1005E00001807047C8070020002002401448002204
:1005F000C168CB06134904D5CA6942F00202CA6138
:100600001022C3685B0705D5CB6943F00103CB61BA
:1006100042F00402C369DB0707D0CB6943F004034F
:10062000CB61C16921F00101C161A2F5807101397D
:1006300001D0C2607047C16921F00101C1617047FA
:1006400000200240C807002070B5054600F0EAF916
:100650000646114C09E0681C07D025B100F0E2F90C
:10066000801BA84201D9032070BDE068C007F2D109
:10067000E068800601D52020E060E068C00605D46F
:10068000E069C00702D1E068400703D5FFF7AEFF7D
:10069000012070BD002070BD00200240064810B54A
:1006A0004FF0FF31016100220261C160C26000F0C1
:1006B00025FA002010BD0000001002402DE9F0478F
:1006C000054626480F460126017E01290FD001214B
:1006D000814601762868DFF888804CF25034022881
:1006E00008D0A2462046FFF7AFFFA8B131E00220B4
:1006F000BDE8F0872046FFF7A7FF08BB0120FFF702
:1007000043FF2046FFF7A0FFD8F81010064621F05F
:100710000401C8F810101CE04FF0FF303860AC68DE
:1007200011E02046FFF742FF5046FFF78DFFD8F853
:100730001010060021F00201C8F8101001D03C6032
:1007400007E004F50064D5E9020100EBC120A042F6
:10075000E7D8002189F818103046C9E7C8070020FB
:10076000002002400348016941F08001016100203E
:1007700070470000002002402DE9F05F07461C484A
:1007800088460024017E15461E46012909D0012114
:10079000814601764CF2503A5046FFF755FF18B1AA
:1007A00022E00220BDE8F09F012F02D0022F00D0EE
:1007B0000427D346DFF83CA0220128463146FFF744
:1007C00091FD81B208EB4400FFF702FF5846FFF7A6
:1007D0003BFFDAF8102022F00102CAF8102018B905
:1007E000641CE4B2BC42E7D3002289F81820D9E7A0
:1007F000C807002000200240064900200A691206AE
:1008000007D5054A4A60054A4A600969090600D5C4
:10081000012070470020024023016745AB89EFCDDE
:100820002DE9F84FDFF8C8910024A9F1040B234605
:100830000F2709F1040AABF1040ED1E00125A54010
:1008400006EA0502AA4276D1DFF8A8C14E68A6EBF7
:100850000C0866452BD00DDC032E34D005DC36B3F6
:10086000012E19D0022E2FD11BE0112E16D0122EE0
:100870002AD119E0B8F5881F19D006DCB8F5803FF9
:1008800015D0B8F5801F1FD111E0B8F5001F0ED0AC
:10089000B8F5041F18D10AE0CB6815E0CB681B1D22
:1008A00012E0CB6808330FE0CB680C330CE08B68A8
:1008B0002BB1012B4FF0080303D0456104E0042362
:1008C00002E0056100E00023FF2A01D8064601E0AE
:1008D00000F104064FEA840501D9A5F12005D6F8F8
:1008E000008007FA05FC28EA0C0803FA05F548EA37
:1008F0000508C6F800804D68ED0070D53E4DAE6924
:1009000046F00106AE61AD6924F0030605F001056D
:1009100000953A4D06EB050CDCF80850A607360F9B
:1009200007FA06F825EA0805DFF8D480404503D128
:100930004FF0000825E052E0DFF8C880404502D1C2
:100940004FF001081DE0DFF8C080404502D14FF0B4
:10095000020816E0DFF8B480404502D14FF00308EA
:100960000FE0DFF8AC80404502D14FF0040808E00A
:10097000DFF8A080404502D14FF0050801E04FF0BC
:10098000060808FA06F848EA0508CCF808804D6819
:10099000D9F80060ED024D4601D5164300E09643BC
:1009A0002E604D68DAF80060AD02554601D5164359
:1009B00000E096432E604D68DBF80060AD035D46B5
:1009C00001D5164300E096432E604D68DEF80060C6
:1009D000ED03754601D5164300E096432E60641C76
:1009E0000A681646E2407FF429AFBDE8F88F0000A0
:1009F00008040140000011100010024000000140F6
:100A000000080140000C01400010014000140140AA
:100A100000180140001C01400AB10161704709043F
:100A2000FBE700000148806870470000D800002004
:100A3000024881680278114481607047D800002024
:100A4000074810B5016841F010010160032000F073
:100A5000C7F80F2000F006F800F052F8002010BD93
:100A60000020024030B50546204887B0C16941F0FA
:100A70000101C161C06906A900F00100009001A850
:100A800000F068F90498B8B100F084F94000184902
:100A90004FF08042B0FBF1F11648491E0260416000
:100AA00040F2E7320021C0E903218160816100F05A
:100AB00087FB040003D015E000F06CF9E7E70D4870
:100AC00000F0DEFB04000DD11C2000F05BF8102DBF
:100AD00007D2002229461C2000F062F80648056073
:100AE00000E0012407B0204630BD000000100240A5
:100AF00040420F007C070020DC000020704700000F
:100B00000F4808B5816941F001018161816901F0F7
:100B100001010091C16941F08051C161C0690022A9
:100B200000F0805000900F21901E00F039F8054829
:100B3000416821F0E06141F00071416008BD0000B2
:100B40000010024000000140002809DB00F01F02F5
:100B5000012191404009800000F1E020C0F880129E
:100B6000704700280DDB00F01F0201219140400971
:100B7000800000F1E020C0F88011BFF34F8FBFF379
:100B80006F8F7047002809DB00F01F0201219140A0
:100B90004009800000F1E020C0F80011704700001B
:100BA000F0B40E4B1B680C46C3F30223C3F10705D8
:100BB000042D00D90425191D072901D2002300E0C6
:100BC000DB1E012606FA05F1491E214099409E4090
:100BD000761E16403143F0BC01F045BB0CED00E041
:100BE000064900F0070208684FF6FF03184040EA84
:100BF0000220034A10430860704700000CED00E03B
:100C00000000FA05BFF34F8F05480168054A01F45B
:100C1000E06111430160BFF34F8F00BFFDE70000AB
:100C20000CED00E00400FA052DE9F0470F46050041
:100C300061D0434E306800F00700B84209D23068F6
:100C400020F0070038433060306800F00700B842F9
:100C500051D128683B4C810712D5400703D5606805
:100C600040F4E06060602878000703D5606840F4D5
:100C7000605060606068A96820F0F0000843606020
:100C80002878C00728D06868012810D02168022879
:100C900010D0890700292EDA616821F00301014391
:100CA0006160FFF7BFFE804641F288390DE02168A0
:100CB0008903EFE78901EDE7FFF7B4FEA0EB080138
:100CC000494502D90320BDE8F0876068696800F0F3
:100CD0000C00B0EB810FEFD1306800F00700B84294
:100CE0000BD9306820F0070038433060306800F0DE
:100CF0000700B84201D00120E5E72878400705D574
:100D00006068E96820F4E0600843606028780007C4
:100D100006D56068296920F4605040EAC10060602F
:100D200000F058F86168084AC1F30311515CC840EB
:100D30000649086006480068FFF794FE0020C2E7F5
:100D400000200240001002401E4B0108E400002079
:100D5000DC0000200F2202600C4A536803F00303FA
:100D60004360536803F0F0038360536803F4E06367
:100D7000C36052684FF4E06303EAD20202610448A0
:100D8000006800F007000860704700000010024093
:100D9000002002400448054900684968044AC1F33C
:100DA0000221515CC8407047E4000020001002405E
:100DB0002E4B01080448054900684968044AC1F3FC
:100DC000C221515CC8407047E4000020001002407E
:100DD0002E4B01080E4A51680E4801F00C03042BFB
:100DE00011D0082B0FD10C48C1F38343C903C05C59
:100DF0000AD55168084AC1F34041921E515C054A28
:100E00005043B0FBF1F0704704494843704700007D
:100E10000010024000127A000E4B010800093D004C
:100E20002DE9F84F040070D02078C04DC00749D09C
:100E30006868C0F38100012807D06868C0F38100AA
:100E4000022809D16868C00306D52868800339D50F
:100E500060680028E7D035E06068B0F5803F0BD0CF
:100E600010B1B0F5A02F11D0286820F48030286090
:100E7000286820F4802002E0286840F48030286050
:100E8000606890B1FFF7CEFD06460AE0286840F49E
:100E900080202860F0E700BFFFF7C4FD801B6428B6
:100EA00073D828688003F7D50CE0FFF7BBFD064632
:100EB00005E000BFFFF7B6FD801B6428F0D8286866
:100EC0008003F7D420789A4E80074FF001094FF045
:100ED000000839D5686810F00C0F07D06868C0F3B7
:100EE0008100022809D16868C00306D428688007F9
:100EF00014D52069012808D110E02069B0B1C6F8E6
:100F00000090FFF78FFD074605E00AE1FFF78AFD35
:100F1000C01B0228C4D828688007F7D528686169F3
:100F200020F0F80040EAC10028600DE0C6F800801B
:100F3000FFF778FD074604E0FFF774FDC01B0228A9
:100F400023D828688007F7D4207800072CD5794863
:100F5000A169D9B1C0F80090FFF764FD074604E02D
:100F6000FFF760FDC01B02280FD8686A8007F7D51D
:100F700071484FF4FA510068B0FBF1F0009000BFE7
:100F80000098411E0091FAD20EE080E0C0F8008087
:100F9000FFF748FD074604E0FFF744FDC01B0228A9
:100FA00075D8686A8007F7D42078400760D5E8696B
:100FB0000027C00008D4E86940F08050E861E86983
:100FC000012700F0805000905C480168C90513D4E7
:100FD0000168834641F480710160FFF723FD82467A
:100FE00006E000BFFFF71EFDA0EB0A0064284ED804
:100FF000DBF80000C005F5D5E06801280AD008B18B
:10100000052813D0286A20F001002862286A20F001
:10101000040002E0286A40F001002862E06841F222
:10102000883B98B1FFF7FEFC82460BE0286A40F04F
:1010300004002862EEE700BFFFF7F4FCA0EB0A0112
:1010400059455AD8286A8007F6D50CE0FFF7EAFC24
:10105000824605E0FFF7E6FCA0EB0A0159454CD8B3
:10106000286A8007F6D41FB1E86920F08050E86153
:10107000E06988B36968C1F38101022944D002287C
:10108000C6F8608004D0FFF7CDFC044638E034E0B9
:10109000FFF7C8FC074604E0FFF7C4FCC01B0228AA
:1010A0002BD828688001F7D4206AB0F5803F05D19D
:1010B0006868A16820F4003008436860D4E908013A
:1010C0000843696821F4741108436860C6F86090A9
:1010D000FFF7A8FC044606E025E000BFFFF7A2FCEE
:1010E000001B022809D828688001F7D51BE000BF43
:1010F000FFF798FC001B022802D90320BDE8F88FF7
:1011000028688001F4D40EE00128F7D06868226ACC
:1011100000F48031914204D1616A00F47010884279
:1011200001D00120EAE70020E8E7000000100240BB
:101130000000424280044242E4000020007000406F
:101140007047704770B590F83C20012A2CD00124DC
:1011500080F83C40022280F83D2003685A689D6870
:1011600022F070060A6832435A60104B02689A42B5
:101170000ED00F4B9A420BD0B2F1804F08D00D4BDE
:101180009A4205D00C4B9A4202D00C4B9A4204D1A1
:10119000496825F080031943916080F83D400021A3
:1011A00080F83C10084670BD022070BD002C014044
:1011B000003401400004004000080040000C0040E2
:1011C00010B5040003D094F83D0010B107E00120F1
:1011D00010BD002084F83C00204600F01FF80220DB
:1011E00084F83D00211D206800F05AFF012084F89A
:1011F000460084F83E0084F83F0084F8400084F8FC
:10120000410084F8420084F8430084F8440084F8E4
:10121000450084F83D00002010BD000008B5154AC7
:101220000168154891420ED1C16941F00201C161C6
:10123000C069002200F00200009005211D20FFF788
:10124000AFFC1D2010E00D4A914211D1C16941F05F
:101250001001C161C069002200F01000009005215A
:101260003620FFF79DFC3620BDE80840FFF78ABC1A
:1012700008BD0000000400400010024000100040C3
:1012800090F83D10012901D001207047022180F81B
:101290003D100168CA6842F00102CA6000680E4948
:1012A00088420ED00D4988420BD0B0F1804F08D053
:1012B0000B49884205D00B49884202D00A4988422E
:1012C00004D1816801F00701062903D0016841F0CB
:1012D0000101016000207047002C014000340140F2
:1012E0000004004000080040000C00400168CA688B
:1012F00022F00102CA6001680A6A41F211131A421F
:1013000007D10A6A9B101A4203D10A6822F001022F
:101310000A60012180F83D100020704770B5044636
:1013200090F83C000025012817D0012684F83C6085
:10133000022084F83D002068826822F0770222F4BF
:101340007F4282600868502838D00DDC20284FD0BA
:1013500005DC90B3102811D14AE0022070BD30287E
:1013600046D040280AD13BE060282FD070280DD00D
:10137000B0F5805F03D0B0F5005F12D0012584F88E
:101380003D60002084F83C00284670BDCB68D1E960
:101390000121206800F0CAFE2068816841F07701D1
:1013A00009E0CB68D1E90121206800F0BFFE206888
:1013B000816841F480418160E1E719E0CA684968C9
:1013C000206800F0C5FE5021206806E0CA68496820
:1013D000206800F0CEFE6021206800F0B1FECEE76C
:1013E000CA684968206800F0B3FE40212068F4E72D
:1013F000226801461046F0E7704770B50446006861
:1014000001694FF00005C943890715D4C168C94374
:10141000890711D4E91E01610120207720688069C5
:101420008007204602D0FFF7E7FF04E000F098F8BD
:10143000204600F096F8257720680169C9434907DE
:1014400017D4C168C943490713D46FF0040101617F
:10145000022020772068806910F4407F204602D067
:10146000FFF7CAFF04E000F07BF8204600F079F8AF
:10147000257720680169C943090716D4C168C943A3
:10148000090712D46FF00801016104202077206859
:10149000C0698007204602D0FFF7AEFF04E000F0ED
:1014A0005FF8204600F05DF8257720680169C943A0
:1014B000C90617D4C168C943C90613D46FF0100117
:1014C0000161082020772068C06910F4407F204621
:1014D00002D0FFF791FF04E000F042F8204600F050
:1014E00040F8257720680169C943C90708D1C16858
:1014F000C943C90704D1891E0161204600F032F8B2
:1015000020680169C943090609D4C168C9430906AD
:1015100005D46FF0800101612046FFF711FE2068BD
:101520000169C943490609D4C168C943490605D4BC
:101530006FF040010161204600F01BF8206801694E
:10154000C94389060BD4C168C943890607D46FF023
:10155000200101612046BDE87040FFF7F2BD70BD7B
:10156000704770470068B0F1804F01D1FFF760BA53
:101570007047704770B5040004D094F8410000250E
:1015800010B106E0012070BD84F84050204600F004
:1015900023F8242084F841002068C16821F4005118
:1015A000C160204600F0FCFD2068016921F49041F3
:1015B00001612068416921F02A0141612068C16808
:1015C00041F40051C1606564202084F8410084F832
:1015D00042006563002070BDF0B585B00024009422
:1015E000019402940394D0F800C0714971486F4F80
:1015F0000D1502220323C614BC4524D1CF6947F43C
:101600000027CF61CF6907F4002704978F6947F05F
:1016100010078F61896901F01001CDE90331CDE92F
:10162000005269460546FFF7FBF8CDE900646946BC
:1016300028460294FFF7F4F8002205213420FFF732
:10164000AFFA342030E0DFF870E10427F4452FD101
:10165000CD6945F48015CD61CD6905F480150495FB
:101660008D6945F010058D618D6905F010050495B3
:101670008D6945F020058D618969039301F0200192
:101680000491B902CDE900126946FFF7C9F8CDE926
:101690000074694649480294FFF7C2F80022052108
:1016A0003520FFF77DFA3520FFF76CFA05B0F0BD65
:1016B000DFF80CE14348F44525D1CD6945F4003508
:1016C000CD61CD6905F4003504958D6945F00405BB
:1016D0008D618969054601F00401CDE90331CDE949
:1016E00000726946FFF79CF80820CDE900046946BE
:1016F00028460294FFF794F8002205212620FFF7E0
:101700004FFA2620D0E7304FBC4525D1C86940F4B8
:101710008020C861C86900F480200490886940F086
:10172000080088618869CDE9005200F00800CDE921
:101730000330264D69462846FFF772F8CDE900646C
:10174000694628460294FFF76BF8002205212720FE
:10175000FFF726FA2720A7E71D4EB445A6D18E69CC
:1017600046F480468E618E6906F4804604968E6942
:1017700046F004068E618969039301F00401049127
:101780004FF40071CDE9001269460646FFF748F8AC
:10179000CDE90054694630460294FFF741F8002233
:1017A00005212520FFF7FCF925207DE7004C0040AE
:1017B00000100240001001400050004000140140A1
:1017C000004400400008014000480040000C014077
:1017D00000380140FEE70000074910B509686FF0C6
:1017E000010008610448FFF781FD044801210068F9
:1017F000BDE8104000F02CBE840500203C00002015
:10180000F0B518496FF0010009680861164A1748D9
:1018100000211368834200D91160154B1C68844273
:1018200000D91960134D2C68844200D92960124EEA
:101830003468844200D93160104C2768874200D94F
:1018400021602068401C20601068401C10601868EF
:10185000401C18602868401C28603068401C3060BC
:10186000F0BD0000CC050020100000203F420F001A
:1018700014000020180000200C00002008000020A8
:10188000184830B40268041D20685106C3B21648D7
:1018900010D5C18C41B1016A11F8015B256001626C
:1018A000C18C491EC18405E00E490C310C6824F03E
:1018B00040040C6091060AD5C18D846A0C44491C11
:1018C000C1852370C18D632901D30021C185D00654
:1018D00005D506480121006830BC00F0B9BD30BC18
:1018E000704700000038014034070020400000200D
:1018F000184830B40268041D20685106C3B2164867
:1019000010D5C18C41B1016A11F8015B25600162FB
:10191000C18C491EC18405E00E490C310C6824F0CD
:1019200040040C6091060AD5C18D846A0C44491CA0
:10193000C1852370C18D632901D30021C185D006E3
:1019400005D506480121006830BC00F081BD30BCDF
:101950007047000000440040A4060020380000202A
:10196000184830B40268041D20685106C3B21648F6
:1019700010D5C18C41B1016A11F8015B256001628B
:10198000C18C491EC18405E00E490C310C6824F05D
:1019900040040C6091060AD5C18D846A0C44491C30
:1019A000C1852370C18D632901D30021C185D00673
:1019B00005D506480121006830BC00F049BD30BCA7
:1019C0007047000000480040EC0600203000002076
:1019D000184830B40268041D20685106C3B2164886
:1019E00010D5C18C41B1016A11F8015B256001621B
:1019F000C18C491EC18405E00E490C310C6824F0ED
:101A000040040C6091060AD5C18D846A0C44491CBF
:101A1000C1852370C18D632901D30021C185D00602
:101A200005D506480121006830BC00F011BD30BC6E
:101A300070470000004C00401406002034000020D5
:101A400070B51B48056841681A4CCEB2690613D5BB
:101A5000E18C41B1216A11F8012B42602162E08CD6
:101A6000401EE08408E0C16821F04001C16000220E
:101A700040211148FEF7D0FFA80618D50F496FF096
:101A800001000A6810610A681061E08DA26A0244D0
:101A9000401CE0851670E28D0020632A00D3E085AB
:101AA00009684862BDE870400448FFF7E9BB70BDB3
:101AB000005000405C060020000C0140840500201E
:101AC00010B5002000F0A2FC184C6061002000F06E
:101AD0009DFCE061002000F099FCA061002000F076
:101AE00095FC2062002000F091FC6062104A002109
:101AF000104800F05DFDA06204F1740200210E4860
:101B000000F056FD04F1500200210C4800F050FD99
:101B100004F12C0200210A4800F04AFD04F1980269
:101B2000BDE810400021074800F042BD1C00002025
:101B3000E84A0108551E0108493401084D320108E0
:101B40004D3601084130010870B586B000252348A4
:101B50000095019502950395816941F0200181610D
:101B6000816901F020010491816941F004018161E2
:101B7000816901F004010491816941F008018161EA
:101B8000816901F008010491816941F010018161CE
:101B90008069134E00F0100004900022402130466E
:101BA000FEF73AFF402001248DE831000225694606
:101BB00030460395FEF734FE0320CDE90054CDE90D
:101BC0000240084C69462046FEF72AFE0122022107
:101BD0002046FEF721FF06B070BD00000010024055
:101BE000000C01400008014010B586B000241748E1
:101BF00000940194029403940494134905940160A1
:101C00003221C0E9011441F61F41C0E90314846187
:101C1000FFF7D6FA08B1FEF7B4FC4FF480500090FD
:101C200069460A48FFF77AFB08B1FEF7AAFC04945C
:101C300004A906480594FFF785FA002801D0FEF7AD
:101C4000A0FC06B010BD0000000400408405002088
:101C500010B586B0002417480094019402940394B0
:101C600004941349059401600921C0E9011441F667
:101C70001F41C0E903148461FFF7A2FA08B1FEF71F
:101C800080FC4FF48050009069460A48FFF746FBFD
:101C900008B1FEF776FC049404A906480594FFF702
:101CA00051FA002801D0FEF76CFC06B010BD000010
:101CB00000100040CC05002010B5134C11480C2139
:101CC00020604FF4612060600020A060E060C4E903
:101CD0000401A061E0612046FFF74CFC08B1FEF76B
:101CE00050FC08480C30016821F040010160206878
:101CF000C16841F02001C1602068C16841F0100155
:101D0000C16010BD004C00401406002070B5104C9E
:101D10000E4D4FF4E130C4E900500020A0600C21CA
:101D2000E060C4E90401A061E0612046FFF722FC05
:101D300008B1FEF726FCE86820F04000E860206863
:101D4000C16841F02001C16070BD0000005000403A
:101D50005C06002010B5134C11480C2120604FF494
:101D6000612060600020A060E060C4E90401A0611F
:101D7000E0612046FFF7FEFB08B1FEF702FC0848D1
:101D80000C30016821F0400101602068C16841F019
:101D90002001C1602068C16841F01001C16010BD20
:101DA000003801403407002010B5134C11480C21B5
:101DB00020604FF4612060600020A060E060C4E912
:101DC0000401A061E0612046FFF7D4FB08B1FEF7F3
:101DD000D8FB08480C30016821F040010160206800
:101DE000C16841F02001C1602068C16841F0100164
:101DF000C16010BD00440040A406002010B5134C83
:101E000011480C2120604FF4612060600020A06028
:101E1000E060C4E90401A061E0612046FFF7AAFB8D
:101E200008B1FEF7AEFB08480C30016821F0400114
:101E300001602068C16841F02001C1602068C1686C
:101E400041F01001C16010BD00480040EC060020C8
:101E5000FEE7FEE74FF4FA6000F0BEFADFF86C919F
:101E60005B4D5C4CA9F1140AA9F10A0B5A4F4FF0D3
:101E7000FF3300220121386A00F020FB01F014F842
:101E80000026EE85F8780028F0D0544800782070BD
:101E900039786170B978A17000297CD0BE4697F876
:101EA00001C04F4F002100BF01EB0C0204EB4100C9
:101EB00037F81230491C4FEA132880F80380037169
:101EC00039F81230C9B24FEA132880F809808372BA
:101ED0003AF812304FEA132880F80F8003743BF869
:101EE0001220130A437582750329DDD3E6769EF826
:101EF00005009EF80610B04608439EF80710764687
:101F000008439EF80810084342D001202077314949
:101F100030691D3101F086F884F82580012084F8AD
:101F200026003889010A84F8271084F82800B9F8B7
:101F30000800010A84F8291084F82A00BAF8080079
:101F4000010A84F82B1084F82C00BBF80800010A61
:101F500084F82D1084F82E00B1781E48C91CFEF7B5
:101F6000F9FAB178020A2144CA70087101224021AD
:101F70001C482C62FEF750FDB078401DE8841A48DA
:101F8000C16841F04001C16086F803806EE702E05D
:101F900084F81C80BBE739792170E6702671607186
:101FA00006210C48FEF7D6FA010AA171E071012260
:101FB00040210C482C62FEF72FFD0820E8840A48D7
:101FC000C16841F04001C160FE704FE77805002014
:101FD0005C060020800400201C000020000000207F
:101FE00048050020000C01400050004010B5502072
:101FF00080F31188BFF34F8FBFF36F8F02F0BEFAEB
:1020000018B104494FF080500860002080F3118817
:1020100010BD000004ED00E030B58FB02821684607
:10202000FEF7DFF914210AA8FEF7DBF909200121E8
:1020300000904FF48030002404910691CDE9010412
:102040000225CDE907504FF4E01009906846FEF7ED
:10205000E7FE08B172B6FEE70F20CDE90A054FF49E
:102060008060CDE90C4002210AA80E94FEF7DCFD49
:10207000002801D072B6FEE70FB030BD024901481A
:10208000086070470000010808ED00E00148FFF714
:10209000B4B900007C070020FFF79EBBFFF7B0BB80
:1020A000F0B502681C4B1D4D1D4E1E4F1E4C4FF0CF
:1020B000804C984209D0A04207D0604505D0A84284
:1020C00003D0B04201D0B84204D122F0700E4A6869
:1020D00042EA0E02984209D0A04207D0604505D0DE
:1020E000A84203D0B04201D0B84203D122F44075D7
:1020F000CA682A434D6922F080022A4302608A6836
:10210000C2620A688262984201D0A04201D1096984
:10211000016301214161F0BD002C01400004004039
:1021200000080040000C00400034014010B58468F5
:1021300042EA032224F47F440A432243826010BD12
:10214000826822F070020A4342F007018160704702
:1021500010B5036A046A24F001040462846924F05F
:10216000F00444EA021423F00A020A438461026282
:1021700010BD10B5036A046A24F010040462846977
:1021800023F0A00324F4704444EA023243EA01112C
:102190008261016210BDFFF71BBCFFF751BC00005C
:1021A00070B5044600680169E26821F440511143AA
:1021B00001612169A0680843616908432168CA6810
:1021C00041F20C639A430243CA6020684169A269E4
:1021D00021F44071114341611E492068884202D1B7
:1021E000FEF7E8FD01E0FEF7D5FD00EBC00101EBD5
:1021F0000012606864218000B2FBF0F3B3FBF1F3DE
:102200006FF018067343B2FBF0F5B2FBF0F605EB86
:102210008305322303EB0515B5FBF1F5B6FBF1F6AB
:1022200005F0F00505EB0615B2FBF0F6B2FBF0F099
:10223000B0FBF1F06FF01802504306EB800003EBA7
:102240000010B0FBF1F0216800F00F002844886016
:1022500070BD000000380140FFF712BBFFF748BB1C
:10226000FFF77EBBFEE70907090E002804DB00F13B
:10227000E02080F80014704700F00F0000F1E0202B
:1022800080F8141D7047000070B517481B4C4FF0C4
:102290000005027815482168007802431448007848
:1022A0000243144800780243134807D0C82912D2C9
:1022B000BDE8704000220221FEF7AEBBB1F57A7F87
:1022C000F6D301220221FEF7A7FB2068B0F5FA6FD2
:1022D00000D9256070BD01220221FEF79DFB206818
:1022E000B0F5967FF5D870BD0100002002000020F7
:1022F0000300002004000020000801400800002026
:1023000010B562B6FEF79CFBFFF786FE2B4A2A4803
:102310006421106264309062918491850020D084A1
:10232000D085254B264AC833136264339362918467
:102330009185D084D085234A6433136264339362D9
:1023400091849185D084D0851F4A643313626433AD
:10235000936291849185D084D0851C4A6433136242
:102360006433936291849185D084D085184C6070D9
:10237000A070E0702071FFF7E7FBFFF73FFDFFF76C
:10238000C5FCFFF731FCFFF763FCFFF795FCFFF797
:102390000BFDFFF7DFFC0F4800782070022802D009
:1023A0000120207062B600F0C7F8FFF789FB00F04B
:1023B000DFF8002010BD000060010020340700207D
:1023C000A4060020EC060020140600205C06002075
:1023D0000000002000F8030810B5EFF3058149B9AB
:1023E000EFF3108131B908490968022905D1EFF3EB
:1023F000118111B16FF0050403E0002408B101F070
:1024000065FB204610BD00003801002010B54FF0DC
:102410000001EFF30582BAB9EFF31082A2B90B4ABB
:102420001268022A02D1EFF311826AB948B1D0E9E9
:1024300002202AB1202807D3104601F09BFC02E0BD
:1024400010B901F089FC0146084610BD3801002092
:1024500038B50C4610B1210E002902D06FF00300F0
:1024600038BDEFF3058149B9EFF3108131B9114956
:102470000968022919D1EFF31181B1B1002100914E
:102480006A46214601F0D2FC10B16FF0020038BD5F
:10249000009920460029FAD0074A4FF08051116078
:1024A000BFF34F8FBFF36F8F38BD214601F078FC2B
:1024B00038BD00003801002004ED00E0F8B51D46ED
:1024C00016460C4610B1210E002902D06FF0030011
:1024D000F8BDEFF3058149B9EFF3108131B9154922
:1024E0000968022905D1EFF3118111B16FF00500E0
:1024F000F8BDF10701D0012300E00023B10701D5A9
:10250000002200E001222146009501F097FCF3072C
:102510006FF001016FF0020206D0844206D1F8BDCF
:102520000846F8BD1046F8BD0442FCD1002DF9D094
:10253000F6E7000038010020EFF3058058B9EFF30B
:10254000108040B909490868022801D030B109E07B
:10255000EFF3118030B16FF0050070470120086083
:10256000002070474FF0FF30704700003801002016
:1025700010B5EFF3058060B9EFF3108048B90B494F
:102580000868022802D0012806D00BE0EFF3118082
:1025900040B16FF0050010BD0220086001F05EFB45
:1025A000002010BD4FF0FF3010BD000038010020AA
:1025B000F0B585B04FEA01034FF00004EFF3058159
:1025C0000394A1BBEFF3108189BB2149096802295B
:1025D00002D1EFF3118151BB48B3802618218DF849
:1025E000104004AD42B3176807B13D4697691FB16B
:1025F00039467F1E382F02D21779FF0702D00020FC
:1026000005B0F0BD576907B1BE08D2F808C0BCF1EB
:10261000000F0DD0D4685C2C18D312693AB137B1D1
:102620008DE806103246294601F069FF03900DE05F
:10263000D7685FB912694AB903AACDE90012B2B2EC
:10264000294601F02FFF012800D003940398D7E713
:10265000380100202DE9F041134C0F46054666690C
:102660002068001D01F0F4F8681C07D137B121681B
:10267000BDE8F0410D48091D01F048B92068354416
:10268000B5424560216805D2A068BDE8F041091D4A
:1026900001F024B96068091D01F020F9206B854222
:1026A00000D22563BDE8F081E8000020D80C0020AE
:1026B0002DE9F041054601F035F92D4C2069401C0B
:1026C000206120682B4F10B1E06930B32BE025600A
:1026D0002069012827D1002606EB860007EB800041
:1026E00001F0EEF8761C382EF6D3234801F0E8F816
:1026F0002148143001F0E4F81F48283001F0E0F8D8
:102700001D483C3001F0DCF81B48503001F0D8F88F
:10271000194860601430A06005E02068E96AC06A6A
:10272000884200D82560E06A401CE0626864E86A7C
:10273000A169884200D9A06100EB800007EB80000E
:10274000291D01F0E3F801F00DF9E06900280CD033
:102750002068E96AC06A884207D208494FF0805071
:102760000860BFF34F8FBFF36F8FBDE8F0810000AB
:10277000E800002028080020880C002004ED00E07C
:1027800038B501F0CFF8104CA068C8B90F4801F077
:1027900097F80E48143001F093F80C48206014307C
:1027A00060600A4B00202833009003F15002102192
:1027B0000A2001F01BFCA06010B105A101F050F946
:1027C000BDE8384001F0CEB824010020EC0C002018
:1027D000546D72510000000030B4026C0B46002AA8
:1027E0000BD0C1681144C1604468A14201D30168A3
:1027F000C16030BC1846FDF7A7BD30BC70472DE95D
:10280000F041856B174604460026026C82B1C7B1C1
:10281000E068FDF799FDE168206C091AE160226823
:10282000914202D26168081AE060022F16D017E0C8
:102830002068A8B9606801F005FF064600206060C6
:102840000EE0A068FDF780FD216CA0680844A06040
:102850006168884204D32068A06001E005B16D1E64
:102860006D1CA5633046BDE8F08110B5044690F8B4
:10287000590058B101280CD002280FD0502080F305
:102880001188BFF34F8FBFF36F8FFEE7206B01F00E
:102890007DF82046BDE8104001F078B810BD00007A
:1028A00010484FF44061420706D0C01D0D4920F08A
:1028B0000700411AC1F540610B4A00230144C2E9F7
:1028C00000030839103A21F0070111604B600B60DA
:1028D0000B1AC0E9001393604FF000405360D060C2
:1028E00070470000BC1400204C010020144E154C11
:1028F000A6F29C474FF08058DFF84C9012E000BFE2
:1029000001F010F8F068C568281D00F0A1FF2069EB
:10291000401E2061E068401EE06001F023F8284678
:10292000FFF7A3FFE0680028EAD138680128F9D949
:10293000C9F80080BFF34F8FBFF36F8FF2E700003D
:10294000C40C0020E800002004ED00E070B51D4636
:10295000049C51B1C4F80020C4E90F0101212046B4
:1029600001F078FB84F84C5070BD2460F4E72DE949
:10297000F0470E46DDE909841746824691009946E4
:10298000089DA522206BFDF724FD6FF00301206B4D
:1029900001EB8701084420F00707780707D0502093
:1029A00080F31188BFF34F8FBFF36F8FFEE72218BC
:1029B000315C82F83410315C11B1401C1028F6D320
:1029C000002684F84360382D00D33725E562C4E93A
:1029D0001356201D00F07FFF04F1180000F07BFF6C
:1029E0002461C5F138006462A061666584F85860AE
:1029F0004A465146384600F045FA2060B8F1000FCB
:102A000001D0C8F80040BDE8F087000030B511499A
:102A100000E011460A688242FBD34B685C1884428E
:102A200003D1406818444860084643681C18944223
:102A300009D1084C103C2468A24209D052681A44BB
:102A400042600A6812680260814200D0086030BDAE
:102A50000460F9E74C01002070B5002441600B4D83
:102A60000061914206D8D11A8269914206D2011DB5
:102A7000686807E09A4203D2994201D3012403E037
:102A8000011D286800F02AFF204670BD24010020A7
:102A900010B5044600F046FFA06B28B15FF00004BB
:102AA00000F060FF204610BD0124F9E730B589B081
:102AB000304D55E00498002806DADDE90601059A54
:102AC0009047049800284BDB069C606910B1201DDC
:102AD00000F0BEFE02A800F0B9F8024604980A28E9
:102AE0003ED2DFE800F00505053D263705053D2609
:102AF0000598A169034601442046FFF7ADFF00B3E6
:102B0000616A20468847E069012829D100200090A9
:102B10000598A169002342181946204601F09CFE41
:102B200078B9502080F31188BFF34F8FBFF36F8FB8
:102B3000FEE70598A06128B1811813462046FFF7EB
:102B40008BFF0DE0502080F31188BFF34F8FBFF350
:102B50006F8FFEE794F82C0010B9204600F016FFA6
:102B6000002204A9A86801F0C7FB0028A2D109B07F
:102B700030BD0000240100202DE9FC410F46054630
:102B800001F0B0F801A800F061F80446019818B10E
:102B900001F0D0FDBDE8FC81224EAFB17068006845
:102BA000A8B30027291B3A46B06800F06DFF01F07A
:102BB000C1FD0028EED11C494FF080500860BFF3E2
:102BC0004F8FBFF36F8FE5E7A542EBD801F0B2FD61
:102BD00030682746C068C468201D00F039FEE069EF
:102BE000012810D1A0692B4641193A462046FFF72B
:102BF00033FF40B100200346014600902A4620469C
:102C000001F02AFE20B1616A20468847C2E707E04A
:102C1000502080F31188BFF34F8FBFF36F8FFEE713
:102C20000127BFE72401002004ED00E006484168C9
:102C3000096829B14168C968C96849680163704772
:102C40004FF0FF31FAE70000E800002070B50546BC
:102C500001F08EFC064E04463069844203D200F037
:102C600009F8012000E0002028602046346170BD92
:102C700024010020F8B5194D1FE0C068C46806683B
:102C8000201D00F0E5FD616A20468847E0690128C3
:102C900013D1A0693044B04206D924616060211D7F
:102CA000286800F01BFE08E0002003460146009063
:102CB0003246204601F0D0FD38B12868016800296D
:102CC000DBD16968C5E90010F8BD502080F3118898
:102CD000BFF34F8FBFF36F8FFEE70000240100208A
:102CE00008484068401C4FF0500080F3118804D021
:102CF000BFF34F8FBFF36F8FFEE7BFF34F8FBFF36D
:102D00006F8FFEE7540100200346002012B1994363
:102D100002D070470B42FCD001207047074C20685E
:102D2000016841B1C0680021D0F80000FFF724FF1E
:102D3000FFF7BCFEF3E701210020F7E724010020A4
:102D40002DE9F041044600F0EDFD94F9455004F101
:102D5000240609E0606A48B1304601F0B3FC08B1CE
:102D600000F0E2FE6D1E6DB2002DF3DC4FF0FF3679
:102D700084F8456000F0F6FD00F0D4FD94F944506D
:102D800004F1100709E0206948B1384601F09AFCC7
:102D900008B100F0C9FE6D1E6DB2002DF3DC84F8A1
:102DA0004460BDE8F04100F0DDBD00002DE9F041D8
:102DB0000546002700F096FF314E306808B9FFF74E
:102DC0006FFDF06805424BD1C5B3083568070ED0DA
:102DD00005F00700C0F108000544680707D050203F
:102DE00080F31188BFF34F8FBFF36F8FFEE72DB3D2
:102DF0007068854234D82248103001460C6801E0E2
:102E000020460C466168A94202D221680029F7D108
:102E100031688C4224D007682168016060680837F7
:102E2000411B10290FD96019420708D0502080F3A8
:102E30001188BFF34F8FBFF36F8FFEE710E0416043
:102E40006560FFF7E3FD61687068401A7060B26802
:102E5000904200D2B060F06801430020C4E9000154
:102E600001F068FC780707D0502080F31188BFF389
:102E70004F8FBFF36F8FFEE73846BDE8F08100004B
:102E80003C01002010B5031F4FF080741C601B1F15
:102E900021F001011960191F024B0B6014394038F1
:102EA0000A6010BDE12C01082DE9F84F0024DFF87D
:102EB0005CA12746564E574D58E03770A86A9AF8DD
:102EC0000010025D8A4202D1A31CC35C13B17E2AAA
:102ED00013D049E00621FDF73DFB010AC2B2A86A02
:102EE000A31DC35C8B423FD1E11D405C90423BD1AE
:102EF000A96A601C085C30703BE0621C825C8A42FC
:102F000032D1A11C415C80292ED1E11C415CA12958
:102F10002AD1211D415C012926D1E11D415C7F2977
:102F200022D120440521FDF715FB4FEA1028A86A9D
:102F300005212044FDF70EFBC1B2A86A621D835C27
:102F4000434511D1A21D805C88420DD1FDF7A6FB3F
:102F50004FF0FF384046FDF704FE4046FDF7F4FD14
:102F600072B6FDF74FFE04E0641CE4B2E88DA042A7
:102F7000A3D83078DFF8A0B04FF00108032833D091
:102F800006282FD1A86A015D3171641DB770045DF8
:102F9000012C01D0022C25D172B6FDF72DFC1F4863
:102FA000DFF87C9069460760C0E90298FDF786FB70
:102FB0004FF47A70FDF748FB224600234946012072
:102FC000FDF7DAFB4FF47A70FDF73EFBFDF7CAFB25
:102FD00062B68BF80070EF8586F8038099F80010D0
:102FE0008AF80010BDE8F88FA86AE11C415C717096
:102FF000042900D37770641D005D4000B0708BF829
:103000000070EF8586F80380ECE7000000000020E8
:103010001C0000205C060020050000205405002054
:1030200000F8030870B50C460546FDF76EF900225E
:1030300002E0A95CA154521C8242FADB70BD000080
:1030400000244FF4FA60FFF7C7F9754800780128AB
:1030500073D04FF4FA5000BFFFF7BEF97148002754
:103060000755641CE4B2642CFAD3DFF8BC814FF03E
:10307000A50B032188F800B088F80110202188F8FA
:1030800002104FF0010A88F803A088F8047088F84D
:10309000057088F80670654C88F8077088F8087025
:1030A0000920C4F82080E084DFF88491D9F800106A
:1030B00041F04001C9F800105E48FEF7E1F85E4DAE
:1030C0005E4E306864282CD95D4885F808A003223C
:1030D00080F800A05B48A221878088F800B088F8BB
:1030E0000120202288F80220122288F8032088F884
:1030F000047088F8057088F806A088F8071088F82A
:10310000087088F809700A20C4F82080E084D9F893
:10311000001041F04001C9F800106420FFF75CF98D
:10312000376000220121EB68686AFFF7C7F90128C0
:10313000C7D10020A16A1EE0FFE74FF47A608BE759
:103140000A5CA52A15D1421C8A5C032A11D1821C73
:103150008A5C202A0DD1C21C8A5C012A02D0122A64
:1031600036D006E0421D8A5C1AB9821D8A5C0E2A9E
:1031700005D0401CC0B2E28D8242A2D9E0E700F146
:1031800011022F728B5C521C8A5C03EB02222E4BC5
:103190009A80C21D8B5C521C8A5C03EB02222A4B74
:1031A0000A3B9A8000F10D028B5C521C8A5C03EB97
:1031B0000222244B9A8000F10B020C308A5C085CDE
:1031C000214902EB002014398880E785376078E7D1
:1031D0004FF47A70FFF700F9E785376088F800B0A0
:1031E000032188F80110202188F8021088F803A034
:1031F00088F8047088F8057088F8067088F80770F9
:1032000088F808700920C4F82080E084D9F80010FC
:1032100041F04001C9F800106420FFF7DDF850E7E5
:1032200000000020C40100206001002034070020BD
:103230000C380140CC0500201C0000200C000020B0
:103240000400002048050020780500204FF4FA65AE
:1032500000242846FFF7C0F87148007801286CD098
:1032600041F27070FFF7B8F86E4800270755641CEC
:10327000E4B2642CFAD3DFF8B0814FF0A50B032140
:1032800088F800B088F80110202188F802104FF06B
:10329000010A88F803A088F8047088F8057088F897
:1032A0000670624C88F8077088F808700920C4F826
:1032B0002080E084DFF87891D9F8001041F04001D7
:1032C000C9F800105B4D5C4E306864282CD95B480F
:1032D00085F806A0032280F800A05948A221C780E3
:1032E00088F800B088F80120202288F802201222F5
:1032F00088F8032088F8047088F8057088F806A01C
:1033000088F8071088F8087088F809700A20C4F84F
:103310002080E084D9F8001041F04001C9F8001085
:103320006420FFF759F8376000220121EB68E86953
:10333000FFF7C4F80020A16A1CE0284692E70A5C67
:10334000A52A15D1421C8A5C032A11D1821C8A5CF1
:10335000202A0DD1C21C8A5C012A02D0122A36D042
:1033600006E0421D8A5C1AB9821D8A5C0E2A05D0CD
:10337000401CC0B2E28D8242A6D9E0E700F1110202
:10338000AF718B5C521C8A5C03EB02222D4BDA80FE
:10339000C21D8B5C521C8A5C03EB0222294B0A3B48
:1033A000DA8000F10D028B5C521C8A5C03EB022276
:1033B000234BDA8000F10B020C308A5C085C214957
:1033C00002EB00201439C880E78537607CE74FF4B2
:1033D0007A70FFF701F8E785376088F800B00321BD
:1033E00088F80110202188F8021088F803A088F8D6
:1033F000047088F8057088F8067088F8077088F8F7
:1034000008700920C4F82080E084D9F8001041F049
:103410004001C9F800106420FEF7DEFF54E7000009
:10342000000000208C02002028020020A4060020BA
:103430000C4400401C00002010000020020000206E
:10344000480500207805002000244FF4FA60FEF7BC
:10345000C3FF74480078012870D041F2883000BF63
:10346000FEF7BAFF704800270755641CE4B2642CCD
:10347000FAD3DFF8B8814FF0A50B032188F800B02C
:1034800088F80110202188F802104FF0010A88F80E
:1034900003A088F8047088F8057088F80670644CFA
:1034A00088F8077088F808700920C4F82080E08444
:1034B000DFF88091D9F8001041F04001C9F8001000
:1034C0005D4D5E4EFEF7E0FE306864282CD95C4806
:1034D0000322A22180F800A05A4885F805A00781A0
:1034E00088F800B088F80120202288F802201222F3
:1034F00088F8032088F8047088F8057088F806A01A
:1035000088F8071088F8087088F809700A20C4F84D
:103510002080E084D9F8001041F04001C9F8001083
:103520006420FEF759FF376000220121EB686869CB
:10353000FEF7C4FF0020A16A1EE0FFE74FF47A7097
:103540008EE70A5CA52A15D1421C8A5C032A11D198
:10355000821C8A5C202A0DD1C21C8A5C012A02D0FE
:10356000122A36D006E0421D8A5C1AB9821D8A5C96
:103570000E2A05D0401CC0B2E28D8242A2D9E0E7FB
:1035800000F111026F718B5C521C8A5C03EB02220A
:103590002D4B1A81C21D8B5C521C8A5C03EB0222EC
:1035A000294B0A3B1A8100F10D028B5C521C8A5C8C
:1035B00003EB0222234B1A8100F10B020C308A5CD0
:1035C000085C214902EB002014390881E785376047
:1035D00078E74FF47A70FEF7FFFEE785376088F8EA
:1035E00000B0032188F80110202188F8021088F823
:1035F00003A088F8047088F8057088F8067088F8C9
:10360000077088F808700920C4F82080E084D9F891
:10361000001041F04001C9F800106420FEF7DCFE04
:1036200050E700000000002054030020F0020020BA
:10363000EC0600200C4800401C0000201400002074
:1036400001000020480500207805002000244FF4E8
:10365000FA60FEF7C1FE74480078012870D041F688
:10366000583000BFFEF7B8FE704800270755641CAD
:10367000E4B2642CFAD3DFF8B8814FF0A50B032134
:1036800088F800B088F80110202188F802104FF067
:10369000010A88F803A088F8047088F8057088F893
:1036A0000670644C88F8077088F808700920C4F820
:1036B0002080E084DFF88091D9F8001041F04001CB
:1036C000C9F800105D4D5E4E306864282CD95D4805
:1036D00085F807A0032280F800A05B48A22147805C
:1036E00088F800B088F80120202288F802201222F1
:1036F00088F8032088F8047088F8057088F806A018
:1037000088F8071088F8087088F809700A20C4F84B
:103710002080E084D9F8001041F04001C9F8001081
:103720006420FEF759FE376000220121EB68A8698A
:10373000FEF7C4FE0128C7D10020A16A1EE0FFE702
:1037400040F6B8308EE70A5CA52A15D1421C8A5C87
:10375000032A11D1821C8A5C202A0DD1C21C8A5CEA
:10376000012A02D0122A36D006E0421D8A5C1AB91C
:10377000821D8A5C0E2A05D0401CC0B2E28D8242B6
:10378000A2D9E0E700F11102EF718B5C521C8A5C58
:1037900003EB02222D4B5A80C21D8B5C521C8A5CAB
:1037A00003EB0222294B0A3B5A8000F10D028B5C8D
:1037B000521C8A5C03EB0222234B5A8000F10B025D
:1037C0000C308A5C085C214902EB002014394880E7
:1037D000E785376078E74FF47A70FEF7FDFDE785FF
:1037E000376088F800B0032188F80110202188F89C
:1037F000021088F803A088F8047088F8057088F82B
:10380000067088F8077088F808700920C4F82080CE
:10381000E084D9F8001041F04001C9F8001064209C
:10382000FEF7DAFD50E70000000000201C04002035
:10383000B8030020140600200C4C00401C0000209F
:103840001800002003000020480500207805002013
:10385000D0E9013201699A60D0E901235A604A68CF
:10386000824201D182684A60002202610868401EDB
:103870000860086870470000044908680A688069A1
:10388000D26A0968C2F138028A617047E8000020F4
:10389000034B036003F15C000860802010607047F8
:1038A000040E0020044B036003F15C0008604FF439
:1038B00080701060704700006010002000F070BA47
:1038C00000F108014FF0FF32C0E90112C16001614F
:1038D00000210160704700210161704730B50B681D
:1038E0005A1C02D000F1080202E0026904E02246FC
:1038F000546825689D42FAD953684B6099608A6084
:10390000516008610168491C016030BD42684A602D
:1039100093688B6093685960916008610168491CE5
:1039200001607047502080F31188BFF34F8FBFF3C1
:103930006F8F0A494868401C486001280CD108482C
:10394000006810F0FF0F07D0502080F31188BFF3FC
:103950004F8FBFF36F8FFEE77047000054010020C8
:1039600004ED00E00849486828B1401E486001D1D4
:1039700080F311887047502080F31188BFF34F8F78
:10398000BFF36F8FFEE700005401002070B50028E0
:1039900027D0144DA0F108046168E868014207D1FE
:1039A000502080F31188BFF34F8FBFF36F8FFEE776
:1039B00022683AB1502080F31188BFF34F8FBFF3D4
:1039C0006F8FFEE78143616000F08CF96068696881
:1039D000084468602046FFF719F8BDE8704000F021
:1039E000A9BE70BD3C0100204FF0E0200021016124
:1039F000816105494FF47A720968B1FBF2F1491E01
:103A00004161072101617047E400002010B5FCF717
:103A100045FC114910280ED300F1E02090F8F00386
:103A20000A78904207D2502080F31188BFF34F8F5D
:103A3000BFF36F8FFEE709480068896800F4E06013
:103A4000884207D9502080F31188BFF34F8FBFF30E
:103A50006F8FFEE710BD0000540100200CED00E068
:103A600010B5084B002200BF53F832401CB1521C65
:103A7000082AF9D310BD43F8321003EBC2014860A5
:103A800010BD0000E807002070B515460E4604463C
:103A9000FFF748FF94F944100020491C01D184F835
:103AA000440094F94510491C01D184F84500FFF702
:103AB00059FFA06B28B92A46314604F1240000F0D2
:103AC00051F82046BDE87040FFF73AB910B5020042
:103AD00014D00F48806B38B1502080F31188BFF3A9
:103AE0004F8FBFF36F8FFEE700F0FCF80021104608
:103AF000FEF7B0FD00F01EFE002807D105494FF08B
:103B000080500860BFF34F8FBFF36F8F10BD000070
:103B1000E800002004ED00E002498A6A0260496979
:103B200041607047E8000020014901204862704769
:103B3000E800002010B50C4650B109490968183159
:103B4000FFF7CCFE2046BDE810400121FEF782BD04
:103B5000502080F31188BFF34F8FBFF36F8FFEE7C4
:103B6000E800002070B514460D4668B10A4909689E
:103B70001831FFF7CBFE0CB14FF0FF352146284638
:103B8000BDE87040FEF766BD502080F31188BFF39A
:103B90004F8FBFF36F8FFEE7E800002010B514468B
:103BA000030011D01048826BB2B1026841F00041AD
:103BB0009161016818461831FFF7A8FE2046BDE85C
:103BC00010400121FEF746BD502080F31188BFF35D
:103BD0004F8FBFF36F8FFEE7502080F31188BFF344
:103BE0004F8FBFF36F8FFEE7E800002070B5194DCF
:103BF000AA6BF2B141F000410160C4680CB3FFF759
:103C000027FE201DFFF724FEE06AA969884200D93B
:103C1000A861114900EB800001EB8000211DFFF736
:103C200075FEE06A2968C96A884201D90120686284
:103C300070BD502080F31188BFF34F8FBFF36F8F9B
:103C4000FEE7502080F31188BFF34F8FBFF36F8FD3
:103C5000FEE70000E80000202808002030B587B00B
:103C60000024039405AA04A903A80494FFF710FEF6
:103C7000DDE903010094CDE90110002315A11748E7
:103C8000059A00F03CFC164D002868631FD000F038
:103C9000B3FD012809D0401C19D1502080F31188B0
:103CA000BFF34F8FBFF36F8FFEE7502080F3118873
:103CB000BFF34F8FBFF36F8F4FF0FF3028630120AA
:103CC000E8616C6107B0BDE8304000F03BB907B077
:103CD00030BD000049444C4500000000ED280108BB
:103CE000E80000200248816B491C81637047000096
:103CF000E8000020164810B5816B11B10121416226
:103D000010BD002141628169124A01E0B9B1491E2A
:103D100001EB810352F82330002BF7D001EB810334
:103D200002EB830202F1080453685B685360A3420C
:103D300001D15B685360DA680260816110BD502078
:103D400080F31188BFF34F8FBFF36F8FFEE7000042
:103D5000E80000202808002070B52020FFF726F892
:103D6000040005D00025201D2560FFF7A9FD25775B
:103D7000204670BD38B558B120210446002000917E
:103D80002060201DFFF79CFD01202077204638BDD4
:103D9000502080F31188BFF34F8FBFF36F8FFEE782
:103DA0002DE9F0410027884604000AD05FEA186038
:103DB0000FD0502080F31188BFF34F8FBFF36F8F68
:103DC000FEE7502080F31188BFF34F8FBFF36F8F52
:103DD000FEE7261D04F10C05FFF784FF2168F0685B
:103DE00041EA0801216017E0D0E9001601F07F42A6
:103DF0005301236821F07F4102D40B4203D10AE032
:103E000031EA030307D1D20100D50F43216841F005
:103E10000071FFF7EBFE3046A842E5D12068B843B9
:103E2000206000F087FC2068BDE8F08113460A4658
:103E30000146014800F044BDBD3801082DE9F047B6
:103E40009A46DDF8209090460D4604004FF000079A
:103E500009D0280E0FD0502080F31188BFF34F8F68
:103E6000BFF36F8FFEE7502080F31188BFF34F8FB1
:103E7000BFF36F8FFEE71DB100F06CFB40B112E0A5
:103E8000502080F31188BFF34F8FBFF36F8FFEE791
:103E9000B9F1000F07D0502080F31188BFF34F8F86
:103EA000BFF36F8FFEE7FFF71DFF266852462946D6
:103EB0003046FEF729FF30B1B8F1000F1AD0206864
:103EC000A843206016E0B9F1000F13D0B8F1000F3D
:103ED00001D04FF08077BAF1000F01D047F0806732
:103EE00045EA07014A46201DFFF758FE00F022FC74
:103EF00018B10AE000F01EFC1FE011494FF080509D
:103F00000860BFF34F8FBFF36F8FFFF7B5FC064616
:103F1000800110D4FFF706FD266852462946304638
:103F2000FEF7F2FE28B1B8F1000F02D02068A843D6
:103F30002060FFF717FD26F07F463046BDE8F0878A
:103F400004ED00E01CB5264908780190FF200870B8
:103F500008788DF800009DF800009DF8002000F022
:103F6000F000904207D0502080F31188BFF34F8FAC
:103F7000BFF36F8FFEE79DF800001A4B00F0500072
:103F800018700720986005E09DF8002052008DF819
:103F90000020401E9DF800201206F5D498600328EA
:103FA00007D0502080F31188BFF34F8FBFF36F8F7E
:103FB000FEE74FF440709860019808700A48016865
:103FC00041F470010160016841F070410160FFF748
:103FD0000BFD00205860FCF72BF900201CBD0000F1
:103FE00000E400E05401002020ED00E038B5049D1D
:103FF00018B153B1CAB181B120E0502080F31188CB
:10400000BFF34F8FBFF36F8FFEE7502080F311880F
:10401000BFF34F8FBFF36F8FFEE7502080F31188FF
:10402000BFF34F8FBFF36F8FFEE739B1502080F39E
:104030001188BFF34F8FBFF36F8FFEE750241C46EC
:10404000012384F846302B460094FEF77FFC20467F
:1040500038BD000070B50D46040025D0FFF762FCA6
:10406000D4E90F20216802FB001161600021A163E7
:104070002168A1600A46D4E90F01401E00FB01211E
:10408000E16021464FF0FF3001F8440F487004F121
:1040900010008DB1FFF714FC04F12400FFF710FCB1
:1040A000FFF760FC012070BD502080F31188BFF342
:1040B0004F8FBFF36F8FFEE721690029F0D000F02A
:1040C00001FB0028ECD004494FF080500860BFF39A
:1040D0004F8FBFF36F8FE3E704ED00E02DE9FF475B
:1040E00082B01D468A464FF00008040003D0BAF1A2
:1040F000000F08D011E0502080F31188BFF34F8FDC
:10410000BFF36F8FFEE7206C38B1502080F3118829
:10411000BFF34F8FBFF36F8FFEE7022D0AD1E06B25
:10412000012807D0502080F31188BFF34F8FBFF3D1
:104130006F8FFEE700F00EFA3F4F4FF000094FF08F
:10414000805648B9049838B1502080F31188BFF3E5
:104150004F8FBFF36F8FFEE7FFF7E4FBA06BE16BC0
:10416000884207D3022D05D00498D0B1B8F1000FD2
:104170001AD01EE02A4651462046FEF740FB616AEF
:1041800019B104F1240000F09DFA20B13E60BFF3A4
:104190004F8FBFF36F8FFFF7E5FB012006B0BDE83F
:1041A000F087FFF7DFFB22E06846FFF7B5FC4FF032
:1041B0000108FFF7D7FBFFF795FDFFF7B3FB94F975
:1041C0004400401C01D184F8449094F94500401CFF
:1041D00001D184F84590FFF7C5FB04A9684600F0BB
:1041E00027F930B12046FEF7ABFD00F0A3FA00201E
:1041F000D4E7FFF797FBA06BE16B884213D1FFF781
:10420000B1FB04F110000499FFF794FC2046FEF77F
:1042100097FD00F08FFA00289ED13E60BFF34F8FCC
:10422000BFF36F8F98E7FFF79DFB2046FEF788FDF1
:1042300000F080FA90E7000004ED00E02DE9F0477F
:104240001F4690468946040003D0B9F1000F08D0FC
:1042500011E0502080F31188BFF34F8FBFF36F8FB1
:10426000FEE7206C38B1502080F31188BFF34F8FE8
:10427000BFF36F8FFEE7022F0AD1E06B012807D052
:10428000502080F31188BFF34F8FBFF36F8FFEE78D
:10429000FFF7BCFB5020EFF3118680F31188BFF3CA
:1042A0004F8FBFF36F8FA06BE16B884206D3022F55
:1042B00004D0002086F31188BDE8F08794F94550BA
:1042C0003A4649462046FEF79AFA681C04D06D1C0F
:1042D00084F845500120EDE7606A0028FAD004F127
:1042E000240000F0EFF90028F4D0B8F1000FF1D06D
:1042F0000121C8F80010EDE72DE9F747002683B04B
:104300008A46040003D0BAF1000F08D011E0502013
:1043100080F31188BFF34F8FBFF36F8FFEE7206CE0
:1043200038B1502080F31188BFF34F8FBFF36F8FE8
:10433000FEE700F00FF9DFF8F4804FF000094FF0CE
:10434000805748B9059838B1502080F31188BFF3E1
:104350004F8FBFF36F8FFEE7FFF7E4FAA56BC5B190
:1043600051462046FEF738FA6D1EA563206950B10C
:1043700004F1100000F0A6F928B1C8F80070BFF3EE
:104380004F8FBFF36F8FFFF7EDFA012006B0BDE846
:10439000F087059808B11EB106E0FFF7E3FA27E0C1
:1043A0006846FFF7B9FB0126FFF7DCFAFFF79AFC36
:1043B000FFF7B8FA94F94400401C01D184F8449006
:1043C00094F94500401C01D184F84590FFF7CAFAE2
:1043D00005A9684600F02CF8002820460AD0FEF710
:1043E000AFFC00F0A7F92046FEF752FB0028B3D03F
:1043F0000020CBE7FEF74CFB90B104F124000599B7
:10440000FFF798FB2046FEF79BFC00F093F900288D
:10441000A2D1C8F80070BFF34F8FBFF36F8F9BE737
:104420002046FEF78DFC00F085F995E704ED00E0ED
:104430002DE9F0410C46050011D0C4B1FFF772FA26
:10444000174B5A696E682068911B471C17D02F685C
:104450009B6A9F4219D0964217D8012410E0502041
:1044600080F31188BFF34F8FBFF36F8FFEE75020AB
:1044700080F31188BFF34F8FBFF36F8FFEE70024E7
:10448000FFF770FA2046BDE8F081884205D9401A4E
:1044900020602846FFF740FBF1E700202060DCE7C2
:1044A000E80000202DE9FF5F8346DDE90E8799468D
:1044B00016468A469000FEF779FC05001CD05C2069
:1044C000FEF774FC040014D00020256384F8590022
:1044D000CDE90240CDE900874B4632465146584669
:1044E000FEF745FA2046FEF7E3F8012004B0BDE8E8
:1044F000F09F2846FFF74AFA4FF0FF30F6E7F0B595
:1045000085B0DDE90B640A9DA6B1DCB15C2700979C
:104510002663022684F85960002604AFCDE90246DE
:10452000CDE90057FEF723FA2046FEF7C1F80498BC
:1045300005B0F0BD502080F31188BFF34F8FBFF35B
:104540006F8FFEE7502080F31188BFF34F8FBFF3CA
:104550006F8FFEE70548C16919B1806B18B1002063
:10456000704701207047022070470000E8000020DB
:104570000148406970470000E80000202DE9F04143
:104580002E4C0027A06B40B1206A401C2062606A5C
:1045900000B101273846BDE8F0816669761C666186
:1045A00013D16068006838B1502080F31188BFF3E0
:1045B0004F8FBFF36F8FFEE76068A1686160A060F6
:1045C000A06A401CA062FEF731FB206BDFF8708010
:1045D000864209D36068006880B16068C068C568B9
:1045E000686886420DD220632068C06A00EB8001B3
:1045F00058F821000128CAD90127C8E74FF0FF3039
:10460000F1E7281DFFF724F9A86A18B105F1180091
:10461000FFF71EF9E86AA169884200D9A06100EBA2
:10462000800108EB8100291DFFF770F9E86A216815
:10463000C96A8842CED30127CCE70000E8000020F9
:104640002808002070B504004FF0000133D01B4D46
:104650002868844207D0502080F31188BFF34F8F21
:10466000BFF36F8FFEE7206D38B1401E2065E36C0D
:10467000E26A9A421FD040B11DE0502080F31188B9
:10468000BFF34F8FBFF36F8FFEE7201DFFF7E0F8FA
:10469000E06CE062C0F13800A061E06AA96988427C
:1046A00000D9A861064900EB800001EB8000211DC4
:1046B000FFF72CF90121084670BD0000E80000203A
:1046C0002808002070B5C068C46854B104F118000F
:1046D0000646FFF7BDF8144DA86B50B1314613489C
:1046E00015E0502080F31188BFF34F8FBFF36F8F19
:1046F000FEE7201DFFF7ACF8E06AA969884200D9FF
:10470000A8610B4900EB800001EB8000211DFFF741
:10471000FDF8E06A2968C96A884202D90120686206
:1047200070BD002070BD0000E8000020B00C00202B
:10473000280800202DE9F0472C4D00242746A86BBF
:1047400038B1FFF7EFF8A86B401EA863A86B40B123
:1047500046E0502080F31188BFF34F8FBFF36F8F77
:10476000FEE72969224E0120D1B3A6F59169804662
:104770003068E0B1F068C46804F11800FFF768F829
:10478000201DFFF765F8E06AA969884200D9A86191
:1047900000EB800109EB8100211DFFF7B7F8E06A0B
:1047A0002968C96A8842E3D3C5F82480E0E70CB1E0
:1047B000FEF73CFA2C6A4CB14FEA0806FFF7DEFE22
:1047C00000B16E62641EF9D100202862686A38B1B7
:1047D0000849012738070860BFF34F8FBFF36F8F79
:1047E000FFF7C0F83846BDE8F0870000E800002079
:1047F000B00C002004ED00E010B586B0FDF7C0FF5E
:10480000114CA068B8B100200390049005AA04A937
:1048100003A8FFF747F8DDE9032102208DE8070030
:1048200000230AA10B48059AFFF769FEE06010B16A
:1048300006B0012010BD502080F31188BFF34F8FC8
:10484000BFF36F8FFEE7000024010020546D72203B
:10485000537663001D2D01082DE9FF411E461346C6
:1048600002000A9D4FF0000016D0144CA768002FDC
:104870000FD0CDE900130292062917DAFFF76AFE7E
:1048800002284FF000030FD000226946A068FFF70E
:1048900025FC04B0BDE8F081502080F31188BFF3FF
:1048A0004F8FBFF36F8FFEE72A46EEE700233246B5
:1048B00069463846FFF7C2FCEBE700002401002000
:1048C0001FB51C466FF00103CDE90030CDE902129F
:1048D00004480023224669468068FFF7AFFC04B015
:1048E00010BD00002401002000C1814001C08041B2
:1048F00001C0804100C1814001C0804100C18140B0
:1049000000C1814001C0804101C0804100C181409F
:1049100000C1814001C0804100C1814001C080418F
:1049200001C0804100C1814001C0804100C181407F
:1049300000C1814001C0804100C1814001C080416F
:1049400001C0804100C1814000C1814001C080415F
:1049500001C0804100C1814001C0804100C181404F
:1049600000C1814001C0804101C0804100C181403F
:1049700000C1814001C0804100C1814001C080412F
:1049800001C0804100C1814000C1814001C080411F
:1049900001C0804100C1814001C0804100C181400F
:1049A00000C1814001C0804100C1814001C08041FF
:1049B00001C0804100C1814001C0804100C18140EF
:1049C00000C1814001C0804101C0804100C18140DF
:1049D00000C1814001C0804100C1814001C08041CF
:1049E00001C0804100C1814000C0C101C30302C2B7
:1049F000C60607C705C5C404CC0C0DCD0FCFCE0E1F
:104A00000ACACB0BC90908C8D81819D91BDBDA1A8E
:104A10001EDEDF1FDD1D1CDC14D4D515D71716D6FE
:104A2000D21213D311D1D010F03031F133F3F2326E
:104A300036F6F737F53534F43CFCFD3DFF3F3EFEDE
:104A4000FA3A3BFB39F9F83828E8E929EB2B2AEA4E
:104A5000EE2E2FEF2DEDEC2CE42425E527E7E626BE
:104A600022E2E323E12120E0A06061A163A3A2622E
:104A700066A6A767A56564A46CACAD6DAF6F6EAE9E
:104A8000AA6A6BAB69A9A86878B8B979BB7B7ABA0E
:104A9000BE7E7FBF7DBDBC7CB47475B577B7B6767E
:104AA00072B2B373B17170B05090915193535292EE
:104AB00096565797559594549C5C5D9D5F9F9E5E5E
:104AC0005A9A9B5B99595898884849894B8B8A4ACE
:104AD0004E8E8F4F8D4D4C8C44848545874746863E
:104AE0008242438341818040744B010800000000F2
:104AF00000000000000000000000000000020000B4
:104B00001800000000000000000000000102020385
:104B10000405060708090A0B0C0D0E0F1010000003
:104B2000000000000000010203040607080900005D
:104B300000000102030400002D56322E312E3031C8
:104B400000000000554152543154687265616400A0
:104B50005541525432546872656164005541525453
:104B6000335468726561640055415254345468721C
:104B70006561640064656661756C745461736B0093
:104B8000A04B010800000020600100006C0101083A
:104B9000CC4B010860010020C0250000C8010108BD
:104BA00002270132320518384B01080A12681C1915
:104BB0005DB2180A2150240A215C240A21442429C8
:0C4BC000D88210037124F41AAA014100ED
:0400000508010131BC
:00000001FF
