:020000040801F1
:10000000D013002069020108398901083D780108F0
:1000100035890108490F01089D9901087B020108F3
:10002000000000000000000000000000AD8C01088E
:1000300091100108000000003D890108B18C010801
:100040008502010885020108850201088502010870
:100050008502010885020108850201088502010860
:100060008502010885020108850201088502010850
:100070008502010885020108850201088502010840
:100080008502010885020108850201088502010830
:100090008502010885020108850201088502010820
:1000A0008502010885020108850201088502010810
:1000B000850201083D110108491101085511010887
:1000C0006111010885020108850201088502010805
:1000D0000000000085020108850201089D1001084A
:1000E00085020108850201088502010885020108D0
:1000F000850201082D8E0108398E0108850201084C
:10010000618E0108898E01088502010885020108B7
:10011000850201088502010885020108218B01087A
:100120002D8B01088502010885020108850201085E
:10013000850201089D910108A1910108850201082D
:10014000850201088502010885020108850201086F
:10015000850201088502010885020108850201085F
:10016000000000000000000085020108850201086F
:10017000850201088502010885020108850201083F
:1001800085020108850201088502010800000000BF
:1001900000000000850201080000000000000000CF
:1001A000000000000000000085020108850201082F
:1001B00085020108850201088502010885020108FF
:1001C000850201088502010800000000000000000F
:1001D000000000000000000000000000850201088F
:1001E00085020108850201080000000000000000EF
:1001F000850201088502010885020108000000004F
:1002000000000000850201088502010800000000CE
:1002100000000000850201080000000085020108BE
:1002200085020108000000000000000085020108AE
:10023000850201080000000000000000000000002E
:10024000000000000000000000000000850201081E
:1002500085020108DFF80CD000F072FB004800476F
:10026000F5B60108D013002007488047074800472B
:10027000FEE7FEE7FEE7FEE7FEE7FEE7FEE7FEE756
:10028000FEE7FEE7FEE700007D8D0108550201084C
:100290002DE9F05F0546002092469B4688460646BB
:1002A000814640241BE0284641464746224600F04E
:1002B0004AFA53465A46C01A914110D3114618467D
:1002C000224600F031FA2D1A67EB01084F4622460C
:1002D0000120002100F028FA17EB00094E41201EF2
:1002E000A4F10104DFDC484631462A464346BDE816
:1002F000F09F40EA01039B0703D009E008C9121FE1
:1003000008C0042AFAD203E011F8013B00F8013BCF
:10031000521EF9D27047D2B201E000F8012B491EFB
:10032000FBD270470022F6E710B513460A46044692
:100330001946FFF7F0FF204610BD421C10F8011BC4
:100340000029FBD1801A70472DE9FE4F804681EAD3
:100350000300C00F0C46009021F0004123F000453F
:10036000B8EB0200A94105D24046214690461C4602
:100370000B46024623F00040104347D0270DC7F339
:100380000A00C3F30A510290401A019040286BDA28
:10039000C3F3130040F4801B0098924620B1002361
:1003A000D2EB030A63EB0B0B01985946C0F14002F4
:1003B000504600F0B9F906460D4650465946019A96
:1003C00000F0D1F910EB08006141002487EA1152D6
:1003D00084EAE7731A4340D0009A62B3019A012A73
:1003E0004FEA075215DC001B61EB02014FF000429F
:1003F00002EA0752CDE90042001C41F58011324665
:100400002B4600F008FA03B0BDE8F08F40462146C5
:10041000F9E7001B61EB0201001C41F58013001895
:100420005B412018A2F5001747EB030140EAD570A5
:10043000B6196D4111E06D084FEA360645EAC07500
:100440004FEA0752001B61EB0201001C41F58011CD
:1004500049084FEA30000019514132462B4603B09B
:10046000BDE8F04F00F0C8B9009801224000002319
:10047000D0EB020263EBE073009821464FEAE07490
:10048000B8EB000061EB0401E9E783F000435BE7B0
:1004900081F0004158E72DE9FE4F81EA030404F0A2
:1004A000004421F0004100944FF0000B23F0004382
:1004B00050EA01045ED052EA03045BD0C3F30A544D
:1004C000C1F30A552C44A4F2F3340194A0FB025466
:1004D000C1F3130141F48011C3F3130343F48013F8
:1004E00001FB024400FB034E840A970A44EA81544C
:1004F00047EA8357A4FB076802958D0A05FB078529
:100500004FEA932C04FB0C542705029D4FEA065832
:1005100047EA1637B5EB08056EEB070C870E920E0F
:1005200047EA811742EA8312A7FB0201B6EB0B01EF
:1005300064EB00042B0D43EA0C335E1844EB1C50B3
:10054000DA465146E7FB0201C5F313044FEA0B33C9
:1005500043EA14534FEA0432019C43EA0603A4F130
:100560000C040294009CCDE900B400F054F903B0EF
:10057000BDE8F08F00200146F9E72DE9F04D81EA52
:10058000030404F0004B21F0004514464FF0000A2C
:1005900023F0004150EA050220D054EA01021DD0A8
:1005A000C5F30A570246C5F31303C1F31300C1F3A1
:1005B0000A5640F4801543F48013A7EB0608101B7D
:1005C000D64608F2FD3873EB050002D308F10108A6
:1005D00001E092185B41B8F1000F03DA00200146F8
:1005E000BDE8F08D00204FF48011064684460EE0F1
:1005F000171B73EB050705D3121B63EB05030643BB
:100600004CEA010C49084FEA300092185B4150EA6D
:100610000107EDD152EA030012D082EA040083EA16
:100620000501084305D0101BAB4106D2012200236F
:1006300006E000224FF0004302E06FF00102531089
:100640001AEB06004CEB085110EB0A0041EB0B01D2
:10065000BDE8F04D00F0D0B830B5041E71F10004D3
:1006600004DB4FF00044404264EB0101141E73F1BF
:10067000000405DB1C464FF00043524263EB0403C9
:10068000801A994101D2012030BD002030BD0EB545
:10069000C10F80EAE0700844CA07002140F23343EA
:1006A0008DE80E000A460B4600F0B5F803B000BD19
:1006B0000EB540F2334102910021CDE900110A4606
:1006C0000B4600F0A8F803B000BD00F0004230F087
:1006D00000400AD0C10D01F56071C0F3160042EA76
:1006E0000151C2084007114370470020014670477E
:1006F00001F0004330B421F0004150EA010206D07D
:100700000A0DA2F56072C1F31301002A02DC30BCAD
:1007100000207047440F44EAC104C100E01830BC17
:1007200000EBC25000F031B8202A04DB203A00FA76
:1007300002F1002070479140C2F1200320FA03F338
:10074000194390407047202A04DB203A21FA02F036
:100750000021704721FA02F3D040C2F120029140FB
:10076000084319467047202A06DBCB17203A41FA86
:1007700002F043EAE07306E041FA02F3D040C2F12E
:10078000200291400843194670470029A8BF7047CE
:10079000401C490008BF20F00100704710B4B0FAB7
:1007A00080FC00FA0CF050EA010404BF10BC704752
:1007B00049B1CCF1200421FA04F411FA0CF118BF6C
:1007C000012121430843A3EB0C01CB1D4FEA00613B
:1007D0004FEA102042BF002010BC704700EBC3500E
:1007E00010440029A4BF10BC7047401C490008BF3A
:1007F00020F0010010BC704710B5141E73F1000406
:1008000008DA401C41F1000192185B411A4301D102
:1008100020F0010010BD2DE9F04D92469B4611B12C
:10082000B1FA81F202E0B0FA80F220329046FFF78E
:100830007BFF04460F4640EA0A0041EA0B0153469B
:100840005A46084313D0114653EA010019D0C8F1A3
:1008500040025046FFF777FF05460E465046594680
:100860004246FFF761FF084305D0012004E020461F
:100870003946BDE8F08D0020054346EAE0762C437A
:1008800037430A986305E40AA0EB08000022FD0A3A
:1008900044EA47540A3002D500200146E9E7010541
:1008A00010196941DDE9084500196941BDE8F04DBD
:1008B000A2E770B521F0004303430CD0C1F30A5501
:1008C0000024D5EB040564EB0403D617AD1AB3413D
:1008D00002DB0020014670BD201841EB025170BDC3
:1008E00030B5041E71F1000404DB4FF000444042B7
:1008F00064EB0101141E73F1000405DB1C464FF08C
:100900000043524263EB04038B4208BF824230BD76
:1009100030B5041E71F1000404DB4FF00044404286
:1009200064EB0101141E73F1000405DB1C464FF05B
:100930000043524263EB0403994208BF904230BD2A
:10094000064C074D06E0E06840F0010394E807001C
:1009500098471034AC42F6D3FFF780FC1C02020823
:100960003C0202082DE9F04D00231A461B1A8A4169
:1009700003DB00200146BDE8F08DC1F30A52C1F34C
:10098000130141F480154FF0000BD10702D100187C
:100990006D41521E0027044640F2FF11384601EB1C
:1009A000620A3E468046024600204FF48011FFF75F
:1009B000CAFEC2197141BB1846EB0100B4EB030C2F
:1009C00075EB000C04D3E41A65EB000517460E46E0
:1009D000241908F101006D4180463428E3DDF9193E
:1009E00046EB0600091BA84103D24FF0FF32134625
:1009F00001E0002213461BEB070046EB0A51BDE85D
:100A0000F04DFFF7F9BE000070B584B000260C462B
:100A100005460020C4F202268DF80800ADF8060055
:100A20003046082101F0C2FF0028F9D1052060F30B
:100A30001F1500208DF80B008DF80C40FC2040F6AF
:100A4000C014ADF80D000120C2F200048DF80F00B3
:100A50000DF10A01204606228DF80A5005F0E2FF4A
:100A6000204604F037FF0128FAD140F6C014C2F244
:100A700000040DF106012046032205F09FFC00BF93
:100A8000204604F027FF0128FAD19DF807109DF8B1
:100A9000060009029DF8082041EA004040F6BC51DA
:100AA000104400EE100AC2F20001B8EE400A0860DD
:100AB00004B070BD70B584B040F600060C46054623
:100AC0000020C4F202268DF80800ADF8060000BF31
:100AD0003046402101F06AFF0028F9D1052060F37B
:100AE0001F1500208DF80B008DF80C40FC2040F6FF
:100AF0005024ADF80D000120C2F200048DF80F0063
:100B00000DF10A01204606228DF80A5005F08AFFF1
:100B1000204604F0DFFE0128FAD140F65024C2F24C
:100B200000040DF106012046032205F047FC00BF3A
:100B3000204604F0CFFE0128FAD19DF807109DF859
:100B4000060009029DF8082041EA004040F6BC5129
:100B5000104400EE100AC2F20001B8EE400A08602C
:100B600004B070BDF0B581B00024C4F20224204668
:100B70001021002201F020FF20460421002201F074
:100B80001BFF0A2001F040F820460421012201F059
:100B900013FF642001F038F8FE208DF8010040F6C4
:100BA000C010C2F200000DF1010101220A2305F07C
:100BB0004BFD0A2001F028F80BF07AFF40F2EC61BF
:100BC000C2F20001086006208DF8030020460821CB
:100BD00001F0ECFE0028F9D140F6C0155020C2F219
:100BE00000050DF102068DF802002846314601226B
:100BF0000A2305F029FD00208DF802002846314621
:100C000001220A2305F020FD0DF1030128460122EF
:100C10000A2305F019FD08208DF80300204608215D
:100C200001F0C4FE0028F9D140F6C0155120C2F2EF
:100C300000050DF102068DF802002846314601221A
:100C40000A2305F001FD00272846314601220A2328
:100C50008DF8027005F0F8FC0DF103012846012221
:100C60000A2305F0F1FC8DF8037000BF204608212F
:100C700001F09CFE0028F9D140F6C0155220C2F2C6
:100C800000050DF102068DF80200284631460122CA
:100C90000A2305F0D9FC00208DF8020028463146D1
:100CA00001220A2305F0D0FC0DF1030128460122A0
:100CB0000A2305F0C9FCF0208DF803002046082126
:100CC00001F074FE0028F9D140F6C0155320C2F29D
:100CD00000050DF102068DF802002846314601227A
:100CE0000A2305F0B1FC00272846314601220A23D9
:100CF0008DF8027005F0A8FC0DF1030128460122D1
:100D00000A2305F0A1FC8DF8037000BF20460821DE
:100D100001F04CFE0028F9D140F6C0155420C2F273
:100D200000050DF102068DF8020028463146012229
:100D30000A2305F089FC00208DF802002846314680
:100D400001220A2305F080FC0DF10301284601224F
:100D50000A2305F079FC04F580604FF480510022ED
:100D600001F02AFE04F5006420468021002201F0F3
:100D700023FE0A2000F048FF20468021012201F0D6
:100D80001BFE642000F040FF40F65020C2F200003D
:100D90000DF1010101220A2305F056FC0A2000F0A2
:100DA00033FF0BF0B9FE40F2F061C2F200010860BF
:100DB00006208DF8030000BF2046402101F0F6FD1B
:100DC0000028F9D140F650255020C2F200050DF15F
:100DD00002068DF802002846314601220A2305F05A
:100DE00033FC00208DF802002846314601220A23F8
:100DF00005F02AFC0DF10301284601220A2305F023
:100E000023FC08208DF803002046402101F0CEFD90
:100E10000028F9D140F650255120C2F200050DF10D
:100E200002068DF802002846314601220A2305F009
:100E30000BFC00272846314601220A238DF8027058
:100E400005F002FC0DF10301284601220A2305F0FA
:100E5000FBFB8DF8037000BF2046402101F0A6FD8A
:100E60000028F9D140F650255220C2F200050DF1BC
:100E700002068DF802002846314601220A2305F0B9
:100E8000E3FB00208DF802002846314601220A23A8
:100E900005F0DAFB0DF10301284601220A2305F0D3
:100EA000D3FBF0208DF803002046402101F07EFDA9
:100EB0000028F9D140F650255320C2F200050DF16B
:100EC00002068DF802002846314601220A2305F069
:100ED000BBFB00272846314601220A238DF8027009
:100EE00005F0B2FB0DF10301284601220A2305F0AB
:100EF000ABFB8DF8037000BF2046402101F056FD8A
:100F00000028F9D140F650245420C2F200040DF11B
:100F100002058DF802002046294601220A2305F029
:100F200093FB00208DF802002046294601220A2367
:100F300005F08AFB0DF10301204601220A2305F08A
:100F400083FB01B0F0BD0000FEE700002DE9F04199
:100F500088B040F60814C2F20004002620460221A0
:100F6000022200230096022500F06EFF40F23808AE
:100F7000C2F2000898F80000049500F500700127FF
:100F8000069040F2FF7502A92046CDE9026605975A
:100F9000079500F029FF002818BF00F07BF840F605
:100FA0000810C2F2000002A90397CDE9066500F01F
:100FB0001BFF002818BF00F06DF898F80010022001
:100FC000039001F54070069040F6081040F2FF745F
:100FD000C2F2000002A9079400F006FF002818BF23
:100FE00000F058F898F800100320039001F5806095
:100FF000CDE9060440F60810C2F2000002A900F094
:10100000F3FE002818BF00F045F898F800100420FF
:10101000039001F5A060069040F6081040F2FF74BE
:10102000C2F2000002A9079400F0DEFE002818BFFB
:1010300000F030F8052098F8001003900220059089
:1010400001F5E060CDE9060440F60810C2F20000A8
:1010500002A900F0C9FE002818BF00F01BF840F6F6
:101060000810C2F2000001F00BFA002818BF00F0CF
:1010700011F840F60810C2F200000921002200F029
:10108000D7FD002818BF00F005F808B0BDE8F081D2
:101090007047000072B600BFFEE7000040F608107F
:1010A000C2F2000000F0AABF70B542F2200604466A
:1010B000C4F2020601F086FC316811F00B0F20D05B
:1010C000C4B30546601C11D1306810F00B0F18D066
:1010D000306810F00B0F14D0306810F00B0F10D0E8
:1010E000306810F00B0FEFD10BE000BF01F06AFC8D
:1010F000401BA04284BF032070BD306810F00B0F6E
:10110000F4D1306810F47E000AD040F23C01C2F203
:1011100000014A6802434A603061012070BD00BF8F
:101120003068C0035CBF002070BD4FF48030306178
:10113000002070BD01F046FC032070BD40F2F46059
:10114000C2F2000000F020B940F26C70C2F2000060
:1011500000F01AB940F2E470C2F2000000F014B9D5
:1011600040F65C00C2F2000000F00EB970470000CB
:10117000704700007047000010B5002804BF012030
:1011800010BD044690F8240008BB41F27510C0F66B
:10119000010041F27111A06041F20120C0F601018D
:1011A000C0F60100C4E9031041F20520C0F60100B9
:1011B000E169606141F26D10C0F60100A06121B9E2
:1011C00041F20921C0F60101E16120468847002073
:1011D0000121A06284F82410D4E900120B6823F0E6
:1011E00000431A430A604A6812F0090F1CBF02202C
:1011F00010BDA0620A6842F001020A6010BD000042
:10120000704700007047000081B0006841F2004163
:10121000C4F20301884201D001B0704740F6884013
:10122000C4F20240016841F080410160006800F0B2
:1012300080400090009801B07047000080B5002801
:101240005AD0436F002B57D0016D002954D090F82D
:101250005410D0F800E00129DEF814C004D00229AF
:101260004CD11CF4803149D090F8541001293AD166
:1012700090F84C1001294FF0020145D0012280F86E
:101280004C2080F854101973002181651961DEF833
:10129000141041F4BA41CEF81410416E29B1DEF8B1
:1012A000141041F40071CEF81410006F28B1DEF86C
:1012B000140040F40050CEF8140018680022016AAF
:1012C000CFF60102490861F3596261F39A624FF661
:1012D000FF7120EA0101CEF800104FF6FC710840C2
:1012E0001044CEF87C00DEF8140040F00100CEF887
:1012F0001400002080BD00BF012080BD4021816519
:10130000002180F84C100121084680BD002804BF50
:101310000120704790F8541002290BD1042180F865
:101320005410006842F204024169114341610020F7
:10133000704700BF202181650120704702460028C8
:101340004FF0010008BF7047CB065CBF002070471C
:10135000136840F6FF7223EA020203F57B63C3F3CE
:10136000C41301F01101112900FA03F004D15168EE
:101370000843506000207047516821EA0000506027
:1013800000207047806D704710B5044600680C223D
:10139000034600F57B6162F30B03C1F3C4111A68C5
:1013A00022FA01F1C90700F0CB800169490544BF69
:1013B00041695FEA415143D40169090544BF41696C
:1013C0005FEA015144D40169C90444BF41695FEA3D
:1013D000C14145D40169490444BF41695FEA4141C3
:1013E00046D40169890544BF41695FEA815147D408
:1013F0000169890444BF41695FEA81414AD40169B6
:10140000C90544BF41695FEAC15169D4A06D002894
:1014100000F096802068416941F00201416101209D
:1014200084F8540094F85010090644BF616F0873A3
:10143000A16E0020002984F84C004CD180E000BF50
:101440004FF48061C160A16D41F00101A165B3E776
:101450004FF40061C160A16D41F00201A165B2E7E6
:101460004FF48051C160A16D41F00401A165B1E765
:101470004FF48041C160A16D41F00801A165B0E762
:101480004FF40071C160616E0029B1D020468847D9
:101490002068ADE74FF40051C16094F8541004295E
:1014A0002AD1416921F400514161416941F00201B1
:1014B0004161012184F8541094F85020120603D59C
:1014C000626F117300218164E16E0020002984F8AD
:1014D0004C0008BF10BD2046BDE81040084700BFC3
:1014E00094F85010090613D4816C002904BF01211F
:1014F00084F8541015E000BF052184F85410216FC2
:1015000000293FF47CAF20468847206877E700BF7A
:10151000C16F31B9816C21B9012184F85410626F17
:1015200011734FF44071C160216E0020002984F8CE
:101530004C001CBF20468847A06D00287FF46AAF8E
:1015400010BD000070B5044601F03CFA002C04BF49
:10155000012070BD002184F84C100546206894F8E5
:10156000542022B9C4E91811C4E91A1121670221D3
:1015700084F85410416941F0060141614169C9078D
:1015800009D000BF01F01EFA401B052854D820687E
:101590004169C907F6D1216A426904F1100522F4B4
:1015A000430211434161E36926CD1A4340F24F0ED5
:1015B0001143C5F2020E40F24F3C704541EA05036B
:1015C000C5F2020C1CDC41F24F05C4F20205A84230
:1015D0003ADC40F24F25C4F20205A84262DC40F238
:1015E0004F15C4F20205A84200F39C805025C4F2B6
:1015F0000205A84200F0F080D025C4F20205E9E01F
:1016000041F24F05C5F20205A84235DC40F24F25F4
:10161000C5F20205A84257DC40F24F15C5F202059B
:10162000A84200F38B805025C5F20205A84200F0C5
:10163000D380D025CCE000BF012003221021A1657A
:1016400084F8542070BD00BF41F24F25C4F202055A
:10165000A84245DC41F24F15C4F20205A84277DCEE
:1016600041F25005C4F20205A84200F0B58041F2F3
:10167000D005C4F20205ADE041F24F25C5F20205E6
:10168000A8423FDC41F24F15C5F20205A8426BDCCF
:1016900041F25005C5F20205A84200F09D8041F2DA
:1016A000D00595E040F24F35C4F20205A84265DC52
:1016B00040F25025C4F20205A84200F08D8040F2AD
:1016C000D025C4F2020585E0604563DC40F2502578
:1016D000C5F20205A84200F07F8040F2D02577E0F5
:1016E00041F24F35C4F20205A8425DDC41F25025BB
:1016F000C4F20205A8426FD041F2D025C4F202051F
:1017000068E000BF41F24F35C5F20205A84257DC40
:1017100041F25025C5F20205A8425DD041F2D02524
:1017200056E000BF40F25015C4F20205A84253D063
:1017300040F2D015C4F202054CE000BF40F2501553
:10174000C5F20205A84247D040F2D01540E000BFE4
:1017500041F25015C4F20205A8423DD041F2D01525
:10176000C4F2020536E000BF41F25015C5F2020591
:10177000A84231D041F2D0152AE000BF40F25035E6
:10178000C4F20205A84227D040F2D035C4F20205C7
:1017900020E000BF40F25035C5F20205A8421BD040
:1017A00040F2D03514E000BF41F25035C4F20205DA
:1017B000A84211D041F2D035C4F202050AE000BFC0
:1017C00041F2D035C5F20205A84205D041F25035AC
:1017D000C5F20205A84212D1D4E909514FF07C7636
:1017E000E26A06EB01514FF47C7606EB051501F039
:1017F0007C711A4305F47C75114341EA0503016CC1
:1018000001F0802119430164A1682279E568114340
:10181000226BB5F5007F41EA020323D0B5F5806F56
:1018200040F00E81704521DC41F24F01C4F202010B
:10183000884237DC40F24F21C4F2020188425FDC6B
:1018400040F24F11C4F20201884200F39980502106
:10185000C4F20201884200F0F180D021C4F20201FA
:10186000E6E000BF43F40073EAE000BF41F24F013D
:10187000C5F2020188422DDC40F24F21C5F202017F
:1018800088424FDC40F24F11C5F20201884200F35A
:1018900083805021C5F20201884200F0CF80D02120
:1018A000C4E000BF41F24F21C4F20201884245DC8E
:1018B00041F24F11C4F20201884277DC41F250013B
:1018C000C4F20201884200F0B98041F2D001C4F2B2
:1018D0000201ADE041F24F21C5F2020188423FDC36
:1018E00041F24F11C5F2020188426BDC41F2500116
:1018F000C5F20201884200F0A18041F2D00195E0DA
:1019000040F24F31C4F20201884265DC40F25021BE
:10191000C4F20201884200F0918040F2D021C4F26A
:10192000020185E0604563DC40F25021C5F202010E
:10193000884200F0838040F2D02177E041F24F31BD
:10194000C4F2020188425DDC41F25021C4F202017E
:10195000884273D041F2D021C4F2020168E000BF96
:1019600041F24F31C5F20201884257DC41F2502169
:10197000C5F20201884261D041F2D02156E000BF99
:1019800040F25011C4F20201884257D040F2D01107
:10199000C4F202014CE000BF40F25011C5F2020156
:1019A00088424BD040F2D01140E000BF41F25011CC
:1019B000C4F20201884241D041F2D011C4F20201C6
:1019C00036E000BF41F25011C5F20201884235D025
:1019D00041F2D0112AE000BF40F25031C4F20201BE
:1019E00088422BD040F2D031C4F2020120E000BF87
:1019F00040F25031C5F2020188421FD040F2D0318E
:101A000014E000BF41F25031C4F20201884215D007
:101A100041F2D031C4F202010AE000BF41F2D031FC
:101A2000C5F20201884209D041F25031C5F20201EB
:101A3000884208BF43F4806302E000BF43F4806340
:101A4000626B416C42F20016C3F6C046134331404C
:101A50001943416400216045816411DC41F24F313A
:101A6000C4F2020188421BDC40F25031C4F2020190
:101A700088422DD040F2D031C4F2020126E000BFEE
:101A800041F24F31C5F20201884215DC40F250317B
:101A9000C5F2020188421BD040F2D03114E000BFF1
:101AA00041F25031C4F20201884211D041F2D031EA
:101AB000C4F202010AE000BF41F2D031C5F20201D6
:101AC000884205D041F25031C5F20201884202D16C
:101AD0000021416581650021C16722650122002046
:101AE000A16584F8542070BD10B520B1D0F850C065
:101AF000BCF1000F02D0012010BD00BF90F84CC017
:101B0000BCF1010F04BF022010BD4FF0010C80F8A2
:101B10004CC090F854C0BCF1010F39D14FF0020C09
:101B200080F854C04FF0000CC0F858C0D0F800C086
:101B3000D0F864E0DCF84840BEF1000FC3EA0403CB
:101B4000CCF848304FF4FE43CCF80C30CCF84C10B5
:101B5000CCF85020DCF8141041F4BA41CCF8141041
:101B600005D0DCF8141041F40071CCF81410006FAB
:101B700028B1DCF8140040F40050CCF81400DCF874
:101B8000140040F00100CCF81400002010BD00BF8C
:101B900040218165002180F84C10012010BD00001B
:101BA00080B540F660404CF2FF11C4F20240CDF621
:101BB000FE71416140F22B61C4F2800147F60002E0
:101BC00081610021C0F27F1241618161C26140F6F2
:101BD000E002C0F21002C16102624DF20302C0F2E3
:101BE0000A120162026041F6FF52C0F21F02016058
:101BF000426041F68002C0F211024160C260C160E1
:101C000001F022FB002080BDB0B5044600F0DAFEF2
:101C1000054640F22800C2F200000078611C18BF9F
:101C2000044400BF00F0CEFE401BA042FAD3B0BD7A
:101C300010B590F85C30013B012B69D8006801F0C9
:101C40000703D0F858E01EF0010C00D11BBB11F0C7
:101C5000380F02D01EF002041DD011F4E07F02D034
:101C60001EF0040417D011F4F05F02D01EF0080437
:101C700011D011F4604F02D01EF010040BD011F4FB
:101C8000403F02D01EF0200405D011F47C0F06D096
:101C90001EF0400403D1C46D44F00104C465002B60
:101CA00018BFBCF1000F3BD111F0380F18BF1EF068
:101CB000020335D111F4E07F18BF1EF004032FD1C9
:101CC00011F4F05F18BF1EF0080329D111F4604F22
:101CD00018BF1EF0100323D111F4403F18BF1EF0AF
:101CE00020031DD111F47C0F18BF1EF0400317D143
:101CF0000B061BD4CB0504D5D0F8E0301A43C0F84E
:101D0000E02000F15402002013681943116010BD57
:101D100000F160020120022113681943116010BD17
:101D2000C36D43F00203C3650B06E3D5D0F8DC3086
:101D30001343C0F8DC30CB05E3D5DDE7F0B590F810
:101D40005C30022B12D10668D6F8C4309B0213D443
:101D5000D6F8C4300D69C3F3014CD1E901438CB10D
:101D60000C682B43234343F0804E0FE0016E41F09B
:101D7000080101660120F0BD016E41F400710166A9
:101D80000120F0BD0C682B4343EA844ED1E907459E
:101D9000D1E9053744EA0564CD683C432343446DEB
:101DA0000CEBCC0743EA054504EBC70344F837E0E6
:101DB0005D60CF687FB140F2D01508330332002454
:101DC000C0F60205171957F8037C1F51CF68043479
:101DD000EF5DBC42F6D3012101FA0CF1C6F8CC103C
:101DE00081650020F0BD000080B590F85C20013ACC
:101DF000012A13D80A68BAB101F1040ED1E90431FD
:101E00009EE80450406C43EA4E7E41EA8C7100EB40
:101E1000C20340F832E00020596080BD016E41F0FD
:101E200002010166012080BDD1E901CED1E9032381
:101E30004969D20642EA8E72006C42EA03421143BB
:101E400040F82C10002080BD844690F85C000128EA
:101E500012D19200DCF800C042EA011100985CF84F
:101E6000802F41EA430122F03F02084340EA020189
:101E70000020CCF8001070475CF8600F40F00401BF
:101E80000120CCF800107047704700007047000038
:101E90002DE9F04390F85C70022F1BD1D0F800C000
:101EA00040291FD1DCF890703F0700F09D80DCF8DE
:101EB0009070FF0146BFDCF88070C7F34027002711
:101EC000DCF89060C6F3012606EB070C00F148072A
:101ED0001DE000BF016E41F0080101660120BDE870
:101EE000F08300BFDCF898703F077DD0DCF8987075
:101EF000FF0146BFDCF88070C7F300270027DCF83D
:101F00009860C6F3012606EB070C00F14C073F680A
:101F10000CEBCC0657F8365007EBC60E15F0804593
:101F2000556057F8365025F0604408BFC5F38A4421
:101F3000146057F8365005F00055956057F8364054
:101F400004F000441461BEF80440D461BEF80640B9
:101F500014F00F04D460DEF8044004F480145461DB
:101F6000DEF8044004F4001494619EF8074004F085
:101F70007F041462DEF804404FEAD474546228D01F
:101F800040F2D0180024C0F6020800BF0EEB040691
:101F9000377A651C1F55D76818F80770BD4218D2EC
:101FA000757A1F197D70D56818F80590A51C4D45E8
:101FB0000FD2B57ABD70D56818F80590E51C4D456F
:101FC00007D2F57A0434FD70D56818F80550AC4294
:101FD000DCD3006840290CBFC0F894C0C0F89CC096
:101FE0000020BDE8F08300BF016E41F480710166FE
:101FF0000120BDE8F0830000704700002DE9F04F9C
:1020000085B004460068016D426D056DD0F85490AE
:10201000D0F850A0D0F85480036D01EA020B04936D
:10202000436D0393036D0293436D0193436D076DFD
:102030001F407B065CD405EA0906F8050BF4E05561
:1020400061D408EA0A0806F007062DB1206829467F
:102050000565204600F032FA08F038052EB12068F8
:1020600031460665204600F0FFF92DB1206829466B
:102070000565204600F0FEF9B80557D438065ED451
:10208000B80469D43804DDE9011000EA010506D579
:1020900020684FF400410165204600F007FADDE9B1
:1020A00003100840790405F4602107D522684FF435
:1020B00080431365226E42F08002226600F47105AF
:1020C00021B1206801652046FFF7E0FE25B12068B8
:1020D0000565206E28432066206E002804BF05B0E9
:1020E000BDE8F08F204605B0BDE8F04FFFF7CCBE4D
:1020F000402101652046FFF77FFF05EA0906F80544
:102100000BF4E0559DD52068D0F8D810D0F8E02029
:1021100011404FF480720265204600F0CBF908EAC6
:102120000A08002D06F0070690D195E720684FF4C5
:1021300000710165204600F0C3F93806A0D520687B
:10214000D0F8D410D0F8DC2011408022026520465F
:1021500000F0B2F9B80495D520684FF4005101653C
:10216000204600F0A5F93804DDE9011000EA010578
:102170008ED494E770B5002804BF012070BD0446DA
:1021800090F85C0028B9002084F85D00204600F03B
:1021900015F92068816921F01001816100F012FCBD
:1021A000054600BF20688169090705D500F00AFCD3
:1021B000401B0B28F6D310E0816941F001018161D9
:1021C00000F000FC054600BF20688169C9070DD1F9
:1021D00000F0F8FB401B0B28F6D3206E032140F0E3
:1021E00001002066012084F85C1070BD82694AF20B
:1021F000004CC4F2000C42F002026045826102D140
:102200006268CCF80021227C8369012A23F0400314
:1022100018BF40338361627C8369012A23F48043C1
:1022200008BF03F580438361A27C8369012A23F4FC
:10223000805318BF03F580538361826922F440758F
:10224000D4E9022315438561856925F0A4058561DC
:10225000056925F010050561B3B1022B10D0012BE3
:1022600004D1836943F004030DE000BF8569032BAB
:1022700045F080058561056945F01005056103D1CC
:10228000836943F020038361D4E90515D4E9073657
:102290006FF0FF0E0EEB0323013D43EA456300257B
:1022A000CFF6FF75013E05EB014133431943B2F50B
:1022B000407FC1610FD104F124064ECE0EEB032303
:1022C000013A1A436FF00F0303EB061305EB0141CC
:1022D0001A431143C160D4E90D13E26BD0F8C0601A
:1022E0003243C0F8C0200CF580660CF50062B042A5
:1022F00008BF0CF535622264D0F8806026F4F81629
:1023000046EA0141C0F8801002F170016164D0F822
:10231000801021F0706141EA0361C0F8801002F181
:10232000B000A06402F5C470E06402F51870206586
:1023300002F51E70606502F554700021C2E90011BB
:10234000C2E90211C2E90411C2E90611C2E9081189
:10235000C2E90A11C2E90C11C2E90E11C2E9101159
:10236000C2E91211C2E91411C2E91611C2E9181129
:10237000C2E91A11C2E91C11C2E91E11C2E92011F9
:10238000C2E92211C2E92411C2E92611C2E92811C9
:10239000C2E92A11C2E92C11C2E92E11C2E9301199
:1023A000C2E93211C2F8D010D4328242C6D3002022
:1023B0000121A065206684F85C1070BDB0B5BCB08A
:1023C000044602A800250830C8213B95CDE93955BF
:1023D000CDE93755FDF7A6FF20684AF20041C4F267
:1023E0000001884202D03CB0B0BD00BF0420CDE95E
:1023F00002504FF48070279002A801F08BFF002854
:1024000018BFFEF747FE40F68C40C4F20240416917
:1024100041F400714161416901F400710191019938
:10242000016841F001010160006837A900F0010076
:10243000019001984FF4C05037900220389000204E
:10244000CDE9390009203B900020C4F2022000F0C1
:10245000E5F927200021002200F02EFF272000F0C0
:102460001BFF3CB0B0BD0000C80718BF09F080BA20
:1024700070470000080748BF09F044BB70470000E0
:1024800090F85C1001290BD1022180F85C100168E2
:102490008A6922F001028A610021016608467047BC
:1024A000016E41F004010166012070477047000091
:1024B0007047000070470000704700007047000040
:1024C000704700002DE9F04F81B040F23C06C2F2A7
:1024D00000063278012A02BF022001B0BDE8F08F69
:1024E0000446012030704FF000084FF47A700D461A
:1024F000C6F80480FEF7D8FD20B186F8008001B050
:10250000BDE8F08F206848F2080220F0004142F256
:10251000280A9142C4F2020AB06007D1606800F054
:102520000301032910D148F2200021E040F20809FC
:10253000C8F20009484525D1DAF8180040F0080033
:10254000CAF8180019E000BFC1070BD04FF63F02D0
:10255000DAF80010C7F6FF7202F5F3621140283175
:10256000CAF80010800708D50820C8F20000203003
:10257000DAF800100843CAF800004FF47A70FEF74A
:1025800093FD36E04FF0FF302860D4E90270384404
:1025900087422AD24FEA871B60684FF63F0110F04E
:1025A0000100DAF80000C7F6FF7108BF6FF4F861A8
:1025B00000EA0100CAF80000DAF800004FF0240237
:1025C00040EA0B0008BF09F11C021043CAF80000E2
:1025D0004FF47A70FEF768FD50B9D4E90201013773
:1025E0000BF1400B08448742D6D3002001E000BF26
:1025F0002F6021684FF00042DAF8003062EA0101F2
:102600001940CAF8001086F8008001B0BDE8F08FCC
:1026100042F22800C4F20200016841F001010160A9
:102620000068012121EA0000704700002DE9F04315
:1026300081B040F23C098046C2F20009002042F21B
:10264000280416460D46C4F20204C9F8040000F03E
:10265000B9F954F8081C11F00B0F0CD0074600BF55
:1026600000F0B0F9C01BB0F57A7F13D854F8080C0D
:1026700010F00B0FF4D154F8080C10F47E000DD0BC
:10268000D9F804100143C9F80410A060012001B07A
:10269000BDE8F083032001B0BDE8F08354F8080CD6
:1026A0000227C00344BF4FF48030A06028F00040F0
:1026B0000228C1F20007C9F8088019D1206840F04B
:1026C00002002060EFF3108072B6316829607168F3
:1026D0006960B168A960F168E96080F3108800F072
:1026E00071F954F8081C11F00B0F4AD155E000BFE6
:1026F00028F00401B9421FD1206840F00200206098
:10270000D9F80800A16900F004000843A061EFF3C4
:10271000108072B63168296071686960B168A9601B
:10272000F168E96080F3108800F04CF954F8081C57
:1027300011F00B0F25D130E00221C6F200018842D2
:1027400012D00221C4F200018842206840F0020049
:1027500020603088288000F035F954F8081C11F00A
:102760000B0F0ED119E000BF206840F0020020607E
:102770003068286000F026F954F8081C11F00B0F9F
:102780000BD0054600F01EF9401BB0F57A7F11D83A
:1027900054F8080C10F00B0FF4D154F8080C10F496
:1027A0007E0009D0D9F804100143C9F80410A060D4
:1027B000012009E0032007E054F8080CC00344BFDF
:1027C0004FF48030A06000200421CBF20001226889
:1027D00061EA080111403A1D9045216003D1A169C9
:1027E00021F00401A16101B0BDE8F08342F20400D0
:1027F000C4F20200416AC90704BF0020704740F2DA
:102800002311C4F26751016048F6AB11CCF6EF51C9
:102810000160406A00F00100704700002DE9F04FB0
:1028200081B00B68002B00F0BD8047F67F72C0F2CC
:102830002F0202EA90224FF0000B0026002701240D
:1028400000920BE00B68083733FA04F504F1010439
:1028500006F102060BF1040B00F0A480A4F10108BC
:10286000012202FA08FC13EA0C02EBD0D1F804E0D2
:102870004EF01003122B18D16FF0030303EA580334
:102880000BF01C0500EB030ADAF820E00F23D1F867
:102890001090AB402EEA030E09F00F03AB4043EA61
:1028A0000E03CAF82030D1F804E003680325B540D0
:1028B0000EF003096FEA050AAB4309FA06F52B434C
:1028C000BEF1120F036065D8012303FA0EF313F073
:1028D000061F5FD08368CD6803EA0A03B5402B4327
:1028E000836043684FEA1E1523EA0C0305FA08F5D6
:1028F0002B434360C3688D6803EA0A03B5402B434A
:10290000C3605FEACE039DD528F0030342F20008BE
:10291000C4F2024808EB030EDEF860C007F01805A9
:102920000F23AB402CEA030C009B03FA05F54CEA9D
:102930000503CEF86030D8F800C0D1F804E04CEAC6
:1029400002055FEACE2358BF2CEA0205C8F8005002
:10295000D8F804C05FEA8E234CEA020558BF2CEA7F
:102960000205C8F80450D8F884C05FEA8E334CEAF8
:10297000020558BF2CEA0205C8F88450D8F880C078
:102980005FEACE334CEA020558BF2CEA0205C8F8CC
:10299000805057E7B9F1030FACD18B68012BA9D157
:1029A000AFE700BF01B0BDE8F08F0000006908404C
:1029B00018BF0120704700001823002A08BF2823F1
:1029C000C150704740F6C450C2F200000068704722
:1029D00090F84120202A03D190F84020012A01D10B
:1029E00002207047242280F841200268136823F0F7
:1029F00001031360136823F48053136013681943B1
:102A00001160116841F001011160202180F841102E
:102A1000002180F8401008467047000090F84120DF
:102A2000202A03D190F84020012A01D102207047CA
:102A3000242280F841200268136823F00103136008
:102A4000136823F4706343EA01211160116841F0B7
:102A500001011160202180F84110002180F8401010
:102A600008467047002804BF0120704710B504468F
:102A700090F8410028B9002084F84000204600F07A
:102A800085FA242084F8410094E80910E26801687E
:102A9000012A21F00101016023F070610161816868
:102AA00021F40041816003D14CF40041816009E0D0
:102AB0004CF40441022A816004D1416841F4006170
:102AC00003E000BF416821F400614160416804F106
:102AD000100341F0007141F400414160C16821F4EC
:102AE0000041C1600ECB114341EA0321E269C1609C
:102AF000216A11430160016841F001010160002079
:102B00002021606484F84110206384F8420010BDE5
:102B10002DE9F04F81B0044690F8410020280DD1F6
:102B2000DDF828A0BAF1000F0CD0DDF82CB0BBF115
:102B3000000F07D094F8400001280BD1022001B00B
:102B4000BDE8F08F4FF400706064012001B0BDE873
:102B5000F08F00BF01201D461746894684F84000CB
:102B6000FFF730FF216806468A69120447D4222005
:102B70000C9A84F8410040204FF0000884F842008D
:102B8000C4F84480C4F824A0A4F82AB0C4F834805F
:102B900093466FF39F29E8B24A6849F6000ACFF6D8
:102BA000004A49EA004002EA0A02104400F50050D7
:102BB000486020465946324604F0B8FFA8B9012DB6
:102BC00008D02068390A816220465946324604F00E
:102BD000ADFF50B92068F9B2816220464021002241
:102BE0005B46009604F0E0FE50B384F8408001207C
:102BF00001B0BDE8F08F00BF88690004B7D520465A
:102C00001921324604F01CFE00289ED1FFF7DAFE9F
:102C1000801B21681A28EFD388690004ECD5606C0A
:102C200040F020006064202084F84100002084F8F7
:102C3000420084F84000012001B0BDE8F08F00BFE1
:102C4000608D5F4640F2000BB0F5807FC0F2FF1B45
:102C50000AD320680BF5105350F8041F01EA0A014B
:102C600041EA0902FF210BE0618D2068CAB250F8E9
:102C7000043F49EA024203EA0A031A430BF592337E
:102C80001A434FF0FF080AF58065026021850FE0C6
:102C9000618D20682185C9B250F8042F49EA0141AD
:102CA0002A4011434FF0007211430160608DA8B3B8
:102CB0002046042100223B46009604F075FE0028C1
:102CC0007FF443AF2068616A406A0870606A218DB2
:102CD0000130013960622185608D0904A0F1010095
:102CE0006085608DE2D10028E0D02046802100225E
:102CF0003B46009604F058FE00287FF426AF608D16
:102D0000B0F5807FC4D32068A4F8288050F8041F51
:102D10005A46294041EA0901C6E700BF2046394624
:102D2000324604F0C3FE00287FF40FAF2068202154
:102D3000C16142684EF60003CFF600631A4042605C
:102D4000002084F8411084F8420084F8400001B06B
:102D5000BDE8F08F2DE9F04F81B0044690F84100B6
:102D600020280DD1DDF828A0BAF1000F0CD0DDF835
:102D70002CB0BBF1000F07D094F8400001280BD114
:102D8000022001B0BDE8F08F4FF4007060640120B4
:102D900001B0BDE8F08F00BF01201D4617468946EF
:102DA00084F84000FFF70EFE216806468A69120487
:102DB00049D421200C9A84F8410040204FF00008AB
:102DC00084F84200C4F84480C4F824A0A4F82AB0CF
:102DD000C4F8348049F6004A93466FF39F29E8B25D
:102DE000CFF6004A4A68AAF5806349EA00401A40D3
:102DF000104440F0807040F400504860204659462E
:102E0000324604F093FEA8B9012D08D02068390A93
:102E1000816220465946324604F088FE50B9206847
:102E2000F9B281622046802100225B46009604F0C0
:102E3000BBFD48B384F84080012001B0BDE8F08FAD
:102E400088690004B5D520461921324604F0F8FC03
:102E500000289CD1FFF7B6FD801B21681A28EFD30C
:102E600088690004ECD5606C40F02000606420208C
:102E700084F84100002084F8420084F840000120DA
:102E800001B0BDE8F08F00BF608D0025B0F5807FF8
:102E9000C0F2FF150AD320682B4650F8041F01EA40
:102EA0000A0141EA0902FF210CE000BF618D2068A0
:102EB000CAB250F8043F49EA024203EA0A031A433D
:102EC0004FF000731A43FF270260218511E000BF15
:102ED000618D20682185C9B250F8042F49EA01416B
:102EE00002EA0A0211434FF0007211430160608D43
:102EF00080B320465946324604F018FE00287FF47D
:102F000046AF606A226810F8011B91626062608DB2
:102F100001386085208D411E2185608D0904E6D130
:102F20000028E4D02046802100225B46009604F071
:102F30003BFD00287FF42BAF608DB0F5807FC7D3B9
:102F40002068278550F8041F2A4601EA0A0141EA51
:102F50000901CAE720465946324604F0A7FD002879
:102F60007FF415AF20682021C16142684EF600034E
:102F7000CFF600631A404260002084F8411084F8C4
:102F8000420084F8400001B0BDE8F08FB0B5BCB09D
:102F9000044602A800250830C8213B95CDE93955E3
:102FA000CDE93755FDF7BEF9206845F20041C4F27E
:102FB0000001884202D03CB0B0BD00BF4FF40050C9
:102FC000029002A80395209501F0A4F9002818BFEB
:102FD000FEF760F840F68C44C4F20244206837A93A
:102FE00040F002002060206800F00200019001988B
:102FF000C0203790122038900020CDE939000420FD
:103000003B9040F20040C4F20220FFF707FC206929
:1030100040F400102061206900F400100190019834
:103020003CB0B0BD40F20041C4F203010A68D207CF
:103030001CBF012070470A6822F004021043086098
:1030400000207047B0B540F20045C4F203050220ED
:10305000E860286820F001002860FFF7B3FC2968C9
:10306000C90701D10020B0BD044607E02868C007A9
:103070001CBF0320B0BD2868C007F3D0FFF7A2FC37
:10308000001B0228F2D2F6E740F20041C4F203012D
:10309000086840F0010200200A60704740F22800F2
:1030A00040F6C451C2F20000C2F2000100780A6882
:1030B000104408607047000080B5032000F028F934
:1030C00002F04AF840F62041C4F2024109684FF686
:1030D000807201F00F01C0F60102515CC84040F25D
:1030E0003401C2F200010860042003F0B7FD0F2094
:1030F00000F008F800281CBF012080BD00F0A6F8F1
:10310000002080BDB0B588B040F69C41C4F20241B9
:103110000A68044642F001020A60096802A801F048
:1031200001010291029901A901F070FF059D002D96
:1031300018BF012501F0A4FFA84045F6C5214009AC
:10314000C0F67C21A0FB01014FF0FF3000EBD11154
:1031500040F6E0204FF080426323C2F200000025D9
:10316000C0E90021C0E90253056103F095FE054660
:10317000B8B940F6E020C2F2000003F00FFF0546A8
:1031800078B90F2C0CD82D2021460022002500F004
:1031900093F840F22C00C2F20000046001E000BF8E
:1031A00001252D2000F078F8284608B0B0BD0000B9
:1031B000BFF35F8F41784EF6A053CEF2000390F834
:1031C00000C043F8081C196821F00101196041682A
:1031D000C27B21F01F0141EAC201427B41EA420168
:1031E000827B114343F8041C8168007B21F01F019E
:1031F00041EA400040EA0C00186070474EF6245047
:10320000BFF35F8FCEF20000016821F480310160CE
:10321000016F21F001010167BFF34F8FBFF36F8F83
:10322000704700004EF6245140F00100CEF200013C
:10323000BFF35F8F0867086840F480300860BFF311
:103240004F8FBFF36F8F70477047000070470000CB
:10325000002848BF704700F01F01012202FA01F167
:103260004EF280224009CEF2000242F82010704750
:10327000002848BF704700F01F01012202FA01F147
:103280004EF280124009CEF2000242F82010BFF345
:103290004F8FBFF36F8F7047002848BF704700F013
:1032A0001F01012202FA01F14EF200124009CEF292
:1032B000000242F82010704710B54EF60C5CCEF2BA
:1032C000000CDCF80030C3F3022E8EF00704042C4F
:1032D00028BF0424BEF103034FF0FF3E38BF002394
:1032E0000EFA04F4A14399400EFA03F39A4300F056
:1032F0000F03043B1143634409010C3300F16042A6
:10330000B0F1FF3FC8BF02F56443197010BD000063
:103310004EF60C51CEF200010A684FF6FF031A4038
:1033200060F30A2242F0806040F0FD700860704750
:1033300006F036FB10B540F6284CC4F2024CDCF81F
:103340000CE0DCF80010DCF80020C2F30523DCF808
:103350000020DCF81040DBB3C2F30012C4F3CC044D
:1033600001F0030104FB02F2032900EE102A6FF3BF
:103370005F2EB8EE400A31D0022935D001295CF821
:10338000281C49F20002C1F3C101C0F2D03222FA76
:1033900001F101EE101A02EE103AB8EE411AB8EE41
:1033A000422A9FED4F3A81EE021A02EE10EA20EE19
:1033B000030AB8EE422A30EE020AB7EE002A30EED7
:1033C000022A5CF8281C22EE010A89012CD527E08C
:1033D0000021C0E90011816010BD00BF01EE103A6C
:1033E0009FED3E2A04E000BF01EE103A9FED3D2A1A
:1033F000B8EE411A82EE012A01EE10EA9FED383A4A
:10340000B8EE411A20EE030A30EE010AB7EE001AB8
:1034100030EE011A5CF8281C22EE010A890103D55E
:10342000DCF80010C90307D4002101605CF8281CF7
:10343000890118D41BE000BFDCF80C10B7EE002A9D
:10344000C1F3462101EE101AB8EE411A31EE021A0C
:1034500080EE011ABCEEC11A11EE101A01605CF880
:10346000281C890103D5DCF80010890302D400214F
:1034700012E000BFDCF80C10B7EE002AC1F30641E1
:1034800001EE101AB8EE411A31EE021A80EE011A5E
:10349000BCEEC11A11EE101A41605CF8281C8901BB
:1034A00044BFDCF800105FEA413103D400218160A1
:1034B00010BD00BFDCF80C10B7EE002AC1F30661A6
:1034C00001EE101AB8EE411A31EE021A80EE010A2E
:1034D000BCEEC00A10EE101A816010BD0024F44A40
:1034E000000000390024744A10B540F62C4CC4F298
:1034F000024CDCF810E0DCF80010DCF80020C2F32D
:103500000523DCF80020DCF81440DBB3C2F3001222
:10351000C4F3CC0401F0030104FB02F2032900EE22
:10352000102A6FF35F2EB8EE400A31D0022935D051
:1035300001295CF82C1C49F20002C1F3C101C0F260
:10354000D03222FA01F101EE101A02EE103AB8EE72
:10355000411AB8EE422A9FED4F3A81EE021A02EE6E
:1035600010EA20EE030AB8EE422A30EE020AB7EE65
:10357000002A30EE022A5CF82C1C22EE010A090116
:103580002CD527E00021C0E90011816010BD00BFEB
:1035900001EE103A9FED3E2A04E000BF01EE103A22
:1035A0009FED3D2AB8EE411A82EE012A01EE10EAA3
:1035B0009FED383AB8EE411A20EE030A30EE010AC8
:1035C000B7EE001A30EE011A5CF82C1C22EE010A4C
:1035D000090103D5DCF80010C90307D400210160FC
:1035E0005CF82C1C090118D41BE000BFDCF810109B
:1035F000B7EE002AC1F3462101EE101AB8EE411AC7
:1036000031EE021A80EE011ABCEEC11A11EE101A48
:1036100001605CF82C1C090103D5DCF8001089035B
:1036200002D4002112E000BFDCF81010B7EE002A2F
:10363000C1F3064101EE101AB8EE411A31EE021A3A
:1036400080EE011ABCEEC11A11EE101A41605CF84E
:103650002C1C090144BFDCF800105FEA413103D49F
:103660000021816010BD00BFDCF81010B7EE002A09
:10367000C1F3066101EE101AB8EE411A31EE021ADA
:1036800080EE010ABCEEC00A10EE101A816010BD77
:103690000024F44A000000390024744A10B540F6B2
:1036A000304CC4F2024CDCF814E0DCF80010DCF81A
:1036B0000020C2F30523DCF80020DCF81840DBB35F
:1036C000C2F30012C4F3CC0401F0030104FB02F2C4
:1036D000032900EE102A6FF35F2EB8EE400A31D0B6
:1036E000022935D001295CF8301C49F20002C1F3EF
:1036F000C101C0F2D03222FA01F101EE101A02EE3D
:10370000103AB8EE411AB8EE422A9FED4F3A81EED8
:10371000021A02EE10EA20EE030AB8EE422A30EE58
:10372000020AB7EE002A30EE022A5CF8301C22EEC4
:10373000010A89002CD527E00021C0E90011816031
:1037400010BD00BF01EE103A9FED3E2A04E000BF1D
:1037500001EE103A9FED3D2AB8EE411A82EE012AA1
:1037600001EE10EA9FED383AB8EE411A20EE030A56
:1037700030EE010AB7EE001A30EE011A5CF8301C88
:1037800022EE010A890003D5DCF80010C90307D432
:10379000002101605CF8301C890018D41BE000BFD8
:1037A000DCF81410B7EE002AC1F3462101EE101A1E
:1037B000B8EE411A31EE021A80EE011ABCEEC11ABF
:1037C00011EE101A01605CF8301C890003D5DCF89A
:1037D0000010890302D4002112E000BFDCF81410AD
:1037E000B7EE002AC1F3064101EE101AB8EE411AF5
:1037F00031EE021A80EE011ABCEEC11A11EE101A57
:1038000041605CF8301C890044BFDCF800105FEABE
:10381000413103D40021816010BD00BFDCF81410D9
:10382000B7EE002AC1F3066101EE101AB8EE411A94
:1038300031EE021A80EE010ABCEEC00A10EE101A38
:10384000816010BD0024F44A000000390024744A4D
:1038500080B584B04FF6FF730246C0F23F030020EC
:103860009B1A70EB0103C0F2618041F6FF739B1A53
:1038700070EB0103C0F29280B2F1010E61F1000C15
:10388000DEF11F034FF0000373EB0C03C0F0DC818B
:10389000DFE81EF02000F601A2041C02A204A2042C
:1038A000A2044802A204A204A204A204A204A20444
:1038B000A2047802A204A204A204A204A204A20404
:1038C000A204A204A204A204A204A204A204A204C8
:1038D000A204A80240F60040C4F20240D0F8D8107A
:1038E00011F0070100F010840268012903D112F0E1
:1038F000006240F033840268022903D112F00052C2
:1039000040F0238303680268032903D113F0020304
:1039100040F0C884042903D112F4007240F0E68418
:10392000D0F8F000052900F081BC00BF6FF04043E3
:103930009B1A70EB010380F27780072940F3A08087
:10394000B1F5007F80F22E8181F00803134300F06F
:10395000798281F01001114340F03E8440F600402E
:10396000C4F20240D0F8E41001F03001102900F058
:10397000EF830268202903D112F0005240F0E58263
:10398000006810F400501CBF46F60040C0F2DC2076
:10399000302918BF002000F01FBC00BF4FF6FF7396
:1039A0009B1A4FF0000C7CEB010380F28D804FF6E8
:1039B000FF73C0F203039B1A7CEB0103C0F20E817C
:1039C00082F480330B4300F05F8282F400321143B3
:1039D00040F0028440F60040C4F20240D0F8DC100F
:1039E000C1F30221052900F2F983DFE811F0450156
:1039F00087037B03C903D103070000BFD0F8E81099
:103A00000368026811F0404103D113F0020340F053
:103A10004984B1F1804F40F06F8412F4007240F09D
:103A2000658400F069BC00BF6FF078439B1A4FF0CB
:103A300000038B417CDB82F480030B4300F0408267
:103A400082F000730B4300F0458282F080621143E4
:103A500040F0C28340F60040C4F20240D0F8E810C3
:103A6000026811F0300140F0538312F4005200F06C
:103A70004F8346F60040C0F2DC2004B080BD00BF9A
:103A800082F080430B4300F0458281F00203134330
:103A900000F0628281F00401114340F09D8340F602
:103AA0000041C4F20241D1F8E800096810F4407006
:103AB00040F0488311F4003100F0448341F20020CB
:103AC000C0F27A0004B080BD82F400530B4300F0D2
:103AD000558282F480430B4300F0768282F40042E8
:103AE000114340F0798340F60040C4F20240D0F820
:103AF000E41001F44011B1F5801F00F0F3820029B9
:103B000000F0BA8002680068B1F5001F03D112F01E
:103B1000020240F09D8310F400701CBF40F60010BC
:103B2000C0F23D00B1F5401F18BF002004B080BDB9
:103B300082F000630B4300F06D8282F080530B43F0
:103B400000F0908282F00052114340F0458340F62D
:103B50000041C4F20241D1F8E000C0F38212042A0D
:103B600000F23C8348F20000C0F2BB00DFE812F034
:103B7000F002C6028E023403060000BFD1F8E8004E
:103B80000B6810F04042086803D113F0020340F0C4
:103B90005F83B2F1804F40F0958310F4007040F0E5
:103BA000A5838FE381F40073134300F0758281F4E1
:103BB0008051114340F0108340F60041C4F20241AD
:103BC000D1F8E40000F04060B0F1806F00F08A822C
:103BD000002851D00A68B0F1006F67E182F48023B9
:103BE0000B4300F06B8282F40012114340F0F48228
:103BF00040F60040C4F20240D0F8E81001F007019E
:103C0000022900F07582012900F0CC82002900F021
:103C1000B1810268032903D112F400327FF44EAF60
:103C200002680068042903D112F0020240F01083F8
:103C300010F400701CBF40F60010C0F23D000529D2
:103C400018BF002004B080BD82F48052114340F0C0
:103C5000C38240F60040C4F20240D0F8E01001F008
:103C6000E061B1F1007F00F07081B1F1807F00F080
:103C70007582002940F0C88201F04AFA04B080BD84
:103C800040F60040C4F20240D0F8D81011F03801DC
:103C900000F024820268082903D112F0006240F08B
:103CA0005D82102900F0518103680268182903D150
:103CB00013F0020340F0F682202903D112F40072BF
:103CC00040F01483D0F8F0002829AFE240F600401D
:103CD000C4F20240D0F8D81011F4E07100F0FE8177
:103CE0000268402903D112F0006240F03782026876
:103CF000802903D112F0005240F027810368026846
:103D0000C02903D113F0020340F0CC82B1F5807FCB
:103D100003D112F4007240F0E982D0F8F000B1F55E
:103D2000A07F83E240F60040C4F20240D0F8D810F1
:103D300011F4606100F0D2810268B1F5007F03D117
:103D400012F0006240F00A820268B1F5806F03D180
:103D500012F0005240F0F98003680268B1F5C06FBC
:103D600003D113F0020340F09D82B1F5006F03D13F
:103D700012F4007240F0BA82D0F8F000B1F5206F72
:103D800054E200BF40F60040C4F20240D0F8D81020
:103D900011F4E04100F0A2810268B1F5805F03D127
:103DA00012F0006240F0DA810268B1F5005F03D1E1
:103DB00012F0005240F0C98003680268B1F5405F1C
:103DC00003D113F0020340F06D82B1F5804F03D1AF
:103DD00012F4007240F08A82D0F8F000B1F5A04FE2
:103DE00024E200BF40F60040C4F20240D0F8D810F0
:103DF00011F4603100F072810268B1F5004F03D117
:103E000012F0006240F0AA810268B1F5803F03D150
:103E100012F0005240F0998003680268B1F5C03F8B
:103E200003D113F0020340F03D82B1F5003F03D10E
:103E300012F4007240F05A82D0F8F000B1F5203F41
:103E4000F4E100BF40F60040C4F20240D0F8E810B0
:103E5000D0F8F02011F0C00103D112F0020240F0BE
:103E60002981D0F8F020402902D112F000624CD113
:103E7000006810F4007018BF48F21200802918BFC3
:103E8000002004B080BD00BF40F60041C4F20241F2
:103E9000D1F8E40000F04070B0F1807F00F02281A2
:103EA000002800F01B810A68B0F1007F4FF000008D
:103EB00040F0928112F0020200F08E810868C7E1A2
:103EC00040F60040C4F20240D0F8E400400640F161
:103ED0003F810DE140F60041C4F20241D1F8F0000B
:103EE000D1F8F02000F44070B0F5807F03D112F0DB
:103EF000020240F0DF80D1F8F020B0F5007F40F002
:103F0000558112F0006200F051814FF4FA4004B084
:103F100080BD00BF40F60040C4F20240D0F8E0107F
:103F200011F4606100F0F0800268B1F5007F03D108
:103F300012F0006240F012810268B1F5806F40F02B
:103F40008B8112F0005200F0878101A8FFF7A6FBD9
:103F5000029804B080BD00BF40F60040C4F20240A9
:103F6000D0F8E41001F00301DFE811F00400F200E2
:103F7000C2003C0101F06CF804B080BD40F6004086
:103F8000C4F20240D0F8E41001F44031B1F5803FB2
:103F900000F0A880002900F0A18002680068B1F557
:103FA000003F03D112F0020240F0528110F4007081
:103FB0001CBF40F60010C0F23D00B1F5403F18BFF5
:103FC000002004B080BD00BF40F60040C4F20240B3
:103FD000D0F8E41001F44021B1F5802F00F0828088
:103FE000002900F07B8002680068B1F5002F03D142
:103FF00012F0020240F02C8110F400701CBF40F659
:104000000010C0F23D00B1F5402F18BF002004B0F1
:1040100080BD00BF40F60041C4F20241D1F8E0008B
:1040200000F00702042A00F2D98048F20000C0F232
:10403000BB00DFE802F08D632BD10300D1F8E8006C
:104040000B6810F04042086803D113F0020340F0FF
:10405000FF80B2F1804F40F0358110F4007040F0E5
:1040600045812FE140F60041C4F20241D1F8E00061
:10407000C0F3C202042A00F2B18048F20000C0F28C
:10408000BB00DFE802F0653B03A9DB0001A8FFF7F6
:1040900005FB019804B080BD40F60040C4F2024028
:1040A000D0F8E810D0F8F02011F008015CD112F03F
:1040B000020259D04FF4004004B080BD40F60040E9
:1040C000C4F20240D0F8DC10C1F30231052900F23D
:1040D0008580DFE801F0031307555DDD00F0D0FFB8
:1040E00004B080BD01A8FFF7D9FA039804B080BDE1
:1040F00001A8FFF7F9F9039804B080BD01A8FFF704
:10410000F3F9019804B080BD00F0DEFF04B080BD7B
:104110000268102902D112F0007219D1D0F8F020F3
:10412000202902D112F00202C4D1D0F8F00010F020
:10413000006018BF4FF4FA40302918BF002004B0C7
:1041400080BD00BFB0F5007F08D0B0F5807F45D1BD
:1041500001A8FFF7EFF8029804B080BD01A8FFF7AF
:10416000C3F9029804B080BDD0F8F00010F00060F0
:1041700018BF4FF4FA40002908BF084604B080BDBC
:10418000D0F8F0004FF4004101EA803004B080BD67
:10419000D0F8F0004FF4FA41000101EAE07004B0F9
:1041A00080BD00BF00F0D8FF04B080BD0A68B0F544
:1041B000407F4FF000000FD112F400320CD0C869DC
:1041C00010F4785F0AD0C86941F20021C0F30520DD
:1041D000C0F27A01B1FBF0F004B080BD002004B061
:1041E00080BD00BFD0F8E8100368026811F04041BC
:1041F00002D113F0020355D1B1F1804F40F07C8021
:1042000012F4007272D177E003680268B1F1407F66
:1042100002D113F0020345D1B1F1806F02D112F443
:10422000007263D1D0F8F000B1F1A06F00F002028B
:104230004FF0000008BF900304B080BDD1F8E80043
:104240000B6810F04042086836D113F0020333D0F7
:10425000C0F3C10028E000BF03680268B1F5C06F79
:1042600002D113F002031DD1B1F5006F02D112F497
:1042700000723BD1006810F400301CBF41F20020F6
:10428000C0F27A00B1F5206F18BF002004B080BDE5
:10429000D0F8E8100368026811F0404120D113F013
:1042A00002031DD0C2F3C10049F20001C0F2D031B7
:1042B00021FA00F004B080BDB2F1804F02D110F4B9
:1042C000007013D1086810F400301CBF41F20020C8
:1042D000C0F27A00B2F1004F18BF002004B080BDD8
:1042E000B1F1804F08D112F4007205D040F60010F1
:1042F000C0F23D0004B080BD006810F400301CBF67
:1043000041F20020C0F27A00B1F1004F18BF002046
:1043100004B080BD2DE9F0470446006840F6284807
:10432000C101C4F2024807D5D8F8C010A26D21F02F
:1043300040411143C8F8C010C0070ED0E06D0528F9
:1043400022D8DFE800F003232B030303D8F8B010D2
:1043500021F007010843C8F8B00000262078800744
:1043600002D4354645E000BF206E4FEAF000052834
:104370001ED83546DFE800F004222804040400BFFC
:104380002F4645BB2CE000BF0126E7E704F10800FB
:1043900004F0D6FA06460028E0D106E004F1300029
:1043A00004F046FB06460028D8D1E06DCEE700BFFA
:1043B00001250127207840071FD44EE004F10800B2
:1043C00004F0BEFA04E000BF04F1300004F030FB5A
:1043D00005462F4625B1207840070ED43DE000BFAA
:1043E000D8F8B000216E20F0380008430025C8F846
:1043F000B0003746207840072FD5606E4FEAB010E6
:10440000052809D8DFE800F0040E1404040400BFF6
:104410002E46A5B918E000BF012501262078000727
:104420001FD44EE004F1080004F08AFA04E000BF53
:1044300004F1300004F0FCFA05462E4625B1207840
:1044400000070ED43DE000BFD8F8B000616E20F444
:10445000E07008430025C8F8B0003E462078000709
:104460002FD5A06E4FEA7020052809D8DFE800F0AC
:10447000040E1404040400BF2F46A5B918E000BFC1
:10448000012501272078C0061FD44EE004F1080062
:1044900004F056FA04E000BF04F1300004F0C8FA5A
:1044A00005462F4625B12078C0060ED43DE000BF5A
:1044B000D8F8B000A16E20F4606008430025C8F869
:1044C000B00037462078C0062FD5E06E4FEA303076
:1044D000052809D8DFE800F0040E1404040400BF26
:1044E0002E46A5B918E000BF0125012620788006D8
:1044F0001FD44EE004F1080004F022FA04E000BFEB
:1045000004F1300004F094FA05462E4625B12078D7
:1045100080060ED43DE000BFD8F8B000E16E20F474
:10452000E04008430025C8F8B0003E4620788006E9
:104530002FD5206F4FEAF030052809D8DFE800F0CA
:10454000040E1404040400BF2F46A5B918E000BFF0
:10455000012501276078C0061FD44EE004F1080051
:1045600004F0EEF904E000BF04F1300004F060FA5A
:1045700005462F4625B16078C0060ED43DE000BF49
:10458000D8F8B000216F20F4603008430025C8F847
:10459000B00037466078C0062FD5606F4FEA3060B4
:1045A000052809D8DFE800F0040E1404040400BF55
:1045B0002E46A5B918E000BF0125012660788006C7
:1045C0001FD43AE004F1080004F0BAF904E000BF97
:1045D00004F1300004F02CFA05462E4625B160782F
:1045E00080060ED429E000BFD8F8B800616F20F033
:1045F000E06008430025C8F8B8003E4660788006B1
:104600001BD5A06F6FF0010101EB3041022909D3E6
:104610004FEA304030B1012830D104F1300004F0CD
:1046200007FA05462F464DB9D8F8BC00A16F20F413
:10463000403008430025C8F8BC0037466078400683
:1046400021D5E06F6FF0010101EBB041022909D3E0
:104650004FEAB04030B1012838D104F1300004F005
:10466000E7F905462E467DB9D8F8BC00E16F20F485
:10467000402008430025C8F8BC0004E001250127BC
:1046800060784006DDD43E466078000623D5D4F835
:1046900080006FF0010101EB3051022909D34FEA8C
:1046A000305030B101283BD104F1300004F0C0F9A2
:1046B00005462F4685B9D8F8BC00D4F8801020F400
:1046C000401008430025C8F8BC0004E0012501267D
:1046D00060780006DBD43746A078C00725D0D4F830
:1046E0008400002818BFB0F1007F0DD12E46EDB92F
:1046F000D8F8BC00D4F8841020F04070084300259E
:10470000C8F8BC0011E000BFB0F1807F32D104F1E5
:10471000300004F08DF905462E463DB9E8E700BFAC
:1047200001250127A078C007D9D13E466079C0068F
:1047300025D5D4F88800002818BFB0F1006F0DD13E
:10474000A946EDB9D8F8BC00D4F8881020F0406034
:1047500008430025C8F8BC0011E000BFB0F1806F2D
:1047600034D104F1300004F063F90546A9463DB99F
:10477000E8E700BF012501266079C006D9D4B1461B
:10478000D4E9000140F61C4AC4F2024A09050CD5DE
:10479000DAF8001021F40041CAF80010D4F8C8106B
:1047A000DAF800201143CAF80010800334D5D4F899
:1047B0008C004FEA302005280CD8DFE800F0031108
:1047C000170303032F46C5B91CE000BF01254FF0B6
:1047D0000109D5E701270125A078400720D451E041
:1047E00004F1080004F0ACF804E000BF04F130006C
:1047F00004F01EF905462F4625B1A07840070FD4D6
:1048000040E000BFD8F8B400D4F88C1020F4E06089
:1048100008430025C8F8B4004F46A078400731D5BA
:10482000D4F890004FEA3030052809D8DFE800F0CE
:10483000040E1404040400BF2E46A5B918E000BFFE
:1048400001260125A078800620D447E004F1080065
:1048500004F076F804E000BF04F1300004F0E8F85A
:1048600005462E4625B1A07880060FD436E000BF5D
:10487000D8F8B400D4F8901020F4E04008430025A4
:10488000C8F8B4003E46A078800627D5D4F8A0002A
:10489000052809D802280FD02846ADB1D4E9001266
:1048A000920520D42FE000BF01200125D4E9001299
:1048B000920518D427E000BF04F1080004F040F886
:1048C0000546002D2846E9D1D8F8C000D4F8A0103C
:1048D00020F0070008430025C8F8C0003046D4E99E
:1048E000001292050FD5D4F8A42042F00803082B3B
:1048F0000ED1A94645B9D8F8C030002523F00803E9
:104900001A43C8F8C0208146880106D4484620E0F2
:104910004FF0010901258801F8D54FF60847CFF679
:10492000FF775AF8070040F001004AF80700FEF749
:1049300049F806465AF80700C00707D1FEF742F8C3
:10494000801B0228F6D90320032502E0002D28460B
:1049500064D021684A011CD5D4F898206FF0010377
:1049600003EB3213022B0AD34FEA32133BB1012B74
:1049700038D1D8F8003043F40033C8F800302E4660
:1049800045B9D8F8C030002523F030031A43C8F8E1
:10499000C0200646480229D5D4F89C00402809D0FA
:1049A000D0B9D8F8000040F40030C8F800002F4615
:1049B000A5B906E004F1080003F0C2FF05462F4642
:1049C00065B9D8F8BC00D4F89C1020F0400008432A
:1049D0000025C8F8BC0009E001270125E0780007A0
:1049E00009D47FE0012601254802D5D43746E07876
:1049F000000740F17780D4F8AC00042850D8DFE8F5
:104A000000F003555B090900D8F8000040F40030BD
:104A1000C8F80000002D2E4655D159E0D8F8C8003E
:104A200010F4407018D0D4F8BC10884211D0D8F8D7
:104A3000C800D8F8C81020F4407041F48031C8F89C
:104A4000C810D8F8C81021F48031C8F8C810C8F8C8
:104A5000C800C00740F08E81D4F8BC00DAF800101E
:104A60004FF6CF7300F4407221F47C51C0F2FF0383
:104A700003EA1013B2F5407F08BF1943CAF80010CB
:104A8000D8F8C8106FF31F3021F44071C8F8C8106F
:104A9000D8F8C81000250843C8F8C80036E700BF9A
:104AA00001260125E078C00620D457E004F1080073
:104AB00003F046FF04E000BF04F1300003F0B8FF4C
:104AC00005462E4625B1E078C0060FD446E000BF6B
:104AD000D8F8B800D4F8AC1020F00700084300253F
:104AE000C8F8B8003E46E078C00637D5D4F8B00024
:104AF0004FEAF00004280FD8DFE800F004141A0A87
:104B00000A0000BFD8F8000040F40030C8F80000E8
:104B10002F46A5B918E000BF01270125E0788006DF
:104B200020D457E004F1080003F00AFF04E000BFBE
:104B300004F1300003F07CFF05462F4625B1E078F4
:104B400080060FD446E000BFD8F8B800D4F8B01003
:104B500020F0380008430025C8F8B8003746E07850
:104B6000800637D5D4F8B4004FEAB01004280FD827
:104B7000DFE800F004141A0A0A0000BFD8F80000A9
:104B800040F40030C8F800002E46A5B918E000BF78
:104B900001260125E078400620D451E004F1080008
:104BA00003F0CEFE04E000BF04F1300003F040FF4C
:104BB00005462E4625B1E07840060FD440E000BF00
:104BC000D8F8B800D4F8B41020F4E07008430025F9
:104BD000C8F8B8003E46E078400631D5D4F8B800B1
:104BE0004FEA7020052809D8DFE800F0040E14040D
:104BF000040400BF2F46A5B918E000BF0127012516
:104C00002079800720D43BE004F1080003F098FEEF
:104C100004E000BF04F1300003F00AFF05462F4610
:104C200025B1207980070FD42AE000BFD8F8B8005A
:104C3000D4F8B81020F4606008430025C8F8B80024
:104C40003746207980071BD5D4F8A800032800F246
:104C50008380DFE800F00903850900BFD8F8000071
:104C600040F40030C8F800002E4655B9D8F8BC0012
:104C7000D4F8A81020F0030008430025C8F8BC00B1
:104C80003E462079400722D5D4F8940058B1B0F5BB
:104C9000007F0BD0B0F5807F32D1D8F8000040F40F
:104CA0000030C8F800002F4695B906E004F108006E
:104CB00003F046FE05462F4655B9D8F8C000D4F893
:104CC000941020F4407008430025C8F8C00037460F
:104CD0002079C0062AD5D4F8C400302809D020286D
:104CE00014D0102832D1D8F8000040F40030C8F8B1
:104CF000000095B1207900071CD42846BDE8F08754
:104D0000012701252079C006E5D40FE004F1300029
:104D100003F08EFE0546002DECD1D8F8BC00D4F887
:104D2000C41020F030000843C8F8BC003D4620798C
:104D30000007E2D5D8F8C000D4F8C01020F0C000B9
:104D40000843C8F8C0002846BDE8F087012520794F
:104D50000007D2D5EEE700BF0126012591E700BF8D
:104D600004F1080003F0ECFD0546002D2E467FF40B
:104D700088AF7BE7FDF726FE064641F2883703251C
:104D8000D8F8C80080073FF567AEFDF71BFE801B13
:104D9000B8424FF00300F3D9DBE500002DE9F04302
:104DA00081B0002800F0CD8042F20008C4F2020871
:104DB0000446D8F800000D4600F00F0088420DD2DE
:104DC000D8F8000020F00F002843C8F80000D8F8F9
:104DD000000000F00F00A84240F0B380206840F6C9
:104DE0002047C106C4F202470CD561693A687023B6
:104DF00003EA1222914205D93A6822F4E04242EADB
:104E00000121396001070CD521693A68702303EA52
:104E10001212914205D93A6822F4E06242EA011185
:104E2000396041070AD5E1683A6802F070029142A0
:104E300004D93A6822F070021143396081070AD51B
:104E4000A1683A6802F00F02914204D93A6822F050
:104E50000F0211433960C00768D1206881070AD565
:104E6000A1683A6802F00F02914204D23A6822F037
:104E70000F0211433960D8F8001001F00F01A94268
:104E80000CD9D8F8001021F00F012943C8F8001000
:104E9000D8F8001001F00F01A94252D141070AD5FC
:104EA000E1683A6802F07002914204D23A6822F056
:104EB00070021143396001070CD521693A687023EB
:104EC00003EA1212914205D23A6822F4E06242EA01
:104ED00001113960C0060CD560693968702202EA98
:104EE0001121884205D2396821F4E04141EA0020CD
:104EF000386000F031F939684FF6807201F00F0127
:104F0000C0F60102525C40F22C01C2F200010968B5
:104F100040F2340320FA02F2C2F2000308461A609B
:104F200001B0BDE8F043FEF7EDB800BF60680128AE
:104F30000CD002285ED0032862D157F8201C8901CA
:104F400008D4012001B0BDE8F08300BF57F8201C51
:104F50008905F6D557F8041C21F00301084347F8EA
:104F6000040CFDF72FFD61680646032941F28839DC
:104F70002BD0022937D0012910D100BF57F8040CDB
:104F800000F0180008283FF468AFFDF71BFD801BF8
:104F900048454FF00300F1D90DE000BF57F8040C6D
:104FA00010F0180F3FF459AFFDF70CFD801B48457A
:104FB0004FF00300F2D901B0BDE8F083FDF702FD28
:104FC000801B48454FF00300F5D857F8040C00F05B
:104FD00018001828F2D140E7FDF7F4FC801B484583
:104FE0004FF00300E7D857F8040C00F01800102821
:104FF000F2D132E757F8201C8903A2D5AAE700BFF7
:1050000057F8201C89079CD5A4E700001F220260E6
:1050100040F61C42C4F2024213684FF0700C03F0D9
:1050200003034360526802F00F03836002F07003D1
:10503000C3600CEA12130CEA1222C0E9043242F2F5
:105040000000C4F20200006800F00F000860704722
:1050500080B500F081F840F62041C4F202410968B1
:105060004FF6807201F00F01C0F60102515C01F0B1
:105070001F01C84040F23401C2F20001086080BD47
:1050800080B500F069F840F62041C4F202410A6898
:105090004FF6807302F00F02C0F601039A5C02F033
:1050A0001F02D04040F23402C2F2000210600968D0
:1050B0004FF69072C1F30211C0F60102515C01F08B
:1050C0001F01C84080BD000080B500F045F840F6E3
:1050D0002041C4F202410A684FF6807302F00F02C9
:1050E000C0F601039A5C02F01F02D04040F2340285
:1050F000C2F20002106009684FF69072C1F30221FB
:10510000C0F60102515C01F01F01C84080BD0000E3
:1051100080B500F021F840F62041C4F202410A684F
:105120004FF6807302F00F02C0F601039A5C02F0A2
:105130001F02D04040F23402C2F20002106009683F
:105140004FF69072C1F30231C0F60102515C01F0DA
:105150001F01C84080BD000080B540F60041C4F288
:105160000241C86900F01800082802BF40F600108C
:10517000C0F23D0080BDC86910F0180F34D0C86976
:1051800000F01800102802BF41F20020C0F27A009F
:1051900080BDC86900F01800182849F20000C0F26C
:1051A000D03066D1D1F828E08A6AC2F3052C8A6A29
:1051B0008B6BBCF1000F04BF002080BDC2F3001256
:1051C000C3F3CC0303FB02F200EE102A0EF003023D
:1051D000B8EE400A032A15D0012A17D10A689206B0
:1051E00018D49FED251A1DE00868800649F20000DA
:1051F000C0F2D03058BF80BD0968C1F3C101C840BA
:1052000080BD00BF9FED1B1A0CE000BF9FED1B1A75
:1052100008E000BF0A68C2F3C102D04001EE100AE4
:10522000B8EE411A02EE10CA486BB8EE422A6FF38C
:105230005F2081EE021A02EE100A9FED113AB8EEDD
:10524000422A20EE030A486B30EE020AB7EE002A2B
:10525000C0F3462030EE020A013021EE000A01EED2
:10526000100AB8EE411A80EE010ABCEEC00A10EE38
:10527000100A80BD0024F44A0024744C0024744AAF
:10528000000000392DE9F04381B0002800F03281A0
:1052900040F6004740F6F0490446C4F20247C4F223
:1052A0000249F86959F8C81C227800F01808D0069D
:1052B00001F0030629D5B8F1080F1BD0B8F1180F7B
:1052C00008BF022E16D0E1693868002900F08281FB
:1052D00040F480703860FDF775FB0546386880053E
:1052E0000CD4FDF76FFB401B02284FF00300F5D9EB
:1052F0007AE200BFE069002800F0FC80B869216A0A
:1053000020F47C1040EA0140B8612078C00717D033
:10531000B8F1100F10D0B8F1180F08BF032E0BD042
:105320006068B0F5A02F61DA002800F0BD81B0F50B
:10533000803F00F0DD81DFE16068002800F0DA8066
:105340002078800777D5B8F1000F21D0E068B8F158
:10535000180F08BF012E57D03968002800F080814F
:10536000206921F0180108433860386840F00100D6
:105370003860FDF727FB05463868800754D4FDF7F1
:1053800021FB401B02284FF00300F5D92CE200BF9F
:10539000E068002800F0AE803968206901F018014B
:1053A000814233D0396821F0180108433860FFF793
:1053B000D3FE396A4FF6807201F00F01C0F6010288
:1053C000515C40F2340201F01F0120FA01F140F279
:1053D0002C00C2F200000068C2F200021160FDF76A
:1053E00091FE002840F0868010E000BF00F0788138
:1053F000B0F5A81F40F08081386840F48020386004
:10540000386840F4801072E1002873D0FDF7DAFAB2
:10541000054600BF3868800706D4FDF7D3FA401B65
:105420000228F7D97FE000BF3869616920F4FE00E7
:1054300040EA01403861207800075FD420784007B7
:1054400076D42078800600F19780A56A002D00F0C0
:105450003A82B8F1180F40F0E18059F8C81C59F8A9
:10546000BC0C012D46D0E26A01F00303934241D106
:10547000C1F30521226B91423CD1626B01466FF36F
:105480005F21013A914235D1A16BC0F34622013927
:105490008A422FD1E16BC0F3064201398A4229D1F9
:1054A000216CC0F306600139884223D159F8B80C49
:1054B000E16CC0F3CC00884200F0058259F8C80CBA
:1054C00020F0100049F8C80CFDF77CFA0546FDF7FE
:1054D00079FAA842FBD0E06CC00049F8B80C59F842
:1054E000C80C40F0100049F8C80C002001B0BDE81D
:1054F000F08300BF012001B0BDE8F083A169D9F8B5
:105500000000002950D040F08060C9F80000FDF78D
:1055100059FA0546D9F8000000018FD4FDF752FA78
:10552000401B0228F6D9032001B0BDE8F08300BF7C
:105530004FF62446CFF6FF76B859C00712D1B859B6
:1055400040F00100B851FDF73DFA0546B859C007D3
:1055500008D1FDF737FA401B02284FF00300F5D9B8
:1055600042E100BFA068042846DC002800F0E0808B
:10557000012800F00F8113E1616A3868002900F00A
:10558000818040F480503860FDF71CFA054600BF6A
:10559000386880043FF559AFFDF714FA401B022824
:1055A0004FF00300F4D91FE120F08060C9F800003B
:1055B000FDF708FA054600BFD9F8000000017FF5A5
:1055C0003DAFFDF7FFF9401B02284FF00300F3D970
:1055D0000AE100BF20F480703860FDF7F3F905465A
:1055E000386880057FF591AEFDF7ECF9401B022885
:1055F0004FF00300F4D9F7E0052800F0BF808528BC
:1056000040F0CE80D9F8000040F00400C9F8000056
:10561000D9F8000040F08000BAE000BF386820F000
:1056200080703860FDF7CEF9022D05460CD100BF21
:105630003868800140F1DC80FDF7C4F9401B022886
:105640004FF00300F4D9CFE03868800140F1328197
:10565000FDF7B8F9401B02284FF00300F4D9C3E06E
:1056600021F001003860FDF7ADF905463868800784
:105670007FF5E1AEFDF7A6F9401B02284FF00300CD
:10568000F4D9B1E020F480503860FDF79BF905466D
:10569000386880047FF5D9AEFDF794F9401B0228E5
:1056A0004FF00300F4D99FE0386820F48030386070
:1056B000386820F480103860386820F48020386022
:1056C000FDF780F9054600BF386880037FF538AEE6
:1056D000FDF778F9401B64284FF00300F4D983E00C
:1056E000386840F480203860386820F480103860D2
:1056F000386840F480300AE0386820F48030386040
:10570000386820F480203860386820F480103860D1
:10571000FDF758F9054600BF386880033FF510AE25
:10572000FDF750F9401B64284FF00300F4D95BE00B
:10573000D9F8000020F00100C9F80000D9F80000F5
:1057400020F08000C9F80000D9F8000020F0040023
:10575000C9F80000FDF736F9054641F2883600BF6A
:10576000D9F8000080077FF56CAEFDF72BF9401BE0
:10577000B0424FF00300F3D936E000BFD9F8000083
:1057800040F00400C9F80000D9F8000020F08000C3
:10579000C9F80000D9F8000040F0010010E000BF97
:1057A000D9F8000020F00100C9F80000D9F8000085
:1057B00020F00400C9F80000D9F8000020F08000B3
:1057C000C9F80000FDF7FEF8054641F2883600BF33
:1057D000D9F8000080073FF534AEFDF7F3F8401B21
:1057E000B0424FF00300F3D901B0BDE8F08300BF31
:1057F00059F8C80C43F6037104F12C0388430ECB0F
:10580000084340EA0220A16B49F8C80C4FF47E42DD
:1058100002EB4121E26B581E4FF4FE0389B203EB09
:1058200002426FF35F20084402F4FE01226C4FF045
:10583000FE4303EB0262084402F0FE41084449F8CB
:10584000BC0C59F8C80C20F0100049F8C80CE06CEA
:10585000C00049F8B80C59F8C80C40F0100049F8DD
:10586000C80C59F8C80C616C20F00C00084349F8CA
:10587000C80C59F8C80CA16C20F02000084349F866
:10588000C80C59F8C80C40F4803049F8C80C386886
:1058900040F080703860FDF795F804463868800164
:1058A00011D4FDF78FF8001B02284FF00300F5D943
:1058B0009AE700BF59F8C80C4FF6FC71CFF6F871A3
:1058C000084049F8C80C002001B0BDE8F083000092
:1058D0007047000090F88900704700002DE9F04300
:1058E00081B00668044630697169D6F8089094F86A
:1058F000898002070CD511F4006209D0B06940F428
:1059000000612046B16101B0BDE8F04300F09ABEED
:1059100001EA000505F06407042F05D1E16F204678
:105920008847A16F2046884705F04500012807D128
:10593000A16F2046884705F02600022804D00BE01E
:1059400005F02600022805D1E16F204601B0BDE830
:10595000F0430847042F03D101B0BDE8F08300BF36
:10596000280715D415F4587FF6D015F0400065D1FE
:10597000A80570D4E80505F020007CD4002840F08C
:105980008880D4F88C00002840F09380E4E700BFC2
:105990002068816941F008018161816941F010014D
:1059A0008161816941F400618161016921F008012F
:1059B0000161806810F4404F15D0204603F0BCF818
:1059C000012084F88900D4F88C0028B32046ADE08B
:1059D0002068E16E006B41F8040BE166B4F87200D8
:1059E0000138A4F87200B4F872000028E5D0E0682D
:1059F0001028EDD2082805D3308EE16E21F8020B75
:105A0000EBE700BF206890F83000E16E0870E06EB0
:105A10000130E066E2E700BFB8F1030F00F08C80D0
:105A2000B8F1040F00F08E80B8F1050F94D1204634
:105A300001B0BDE8F04301F00FB900BF2068D4F811
:105A40008C1041F00401C4F88C10816941F04001D0
:105A50008161A8058ED52068D4F88C1041F0010131
:105A6000C4F88C10816941F400718161E80505F08A
:105A700020007FF583AF2168D4F88C2042F0080223
:105A8000C4F88C208A6942F480728A6100283FF44D
:105A900078AF2068D4F88C1041F08001C4F88C10E5
:105AA000816941F020018161D4F88C0000283FF425
:105AB00053AF206840F26B32016821F001010160B0
:105AC0000169914309F44042B2F5404F016129D187
:105AD000816848F6054521F440418160D4F884008E
