:020000040801F1
:1000000030110020490101084B410108BD360108AB
:1000100049410108750D0108B746010800000000BC
:10002000000000000000000000000000294401085A
:100030001F0F0108000000004D4101082B4401087A
:1000400063010108630101086301010863010108FC
:1000500063010108630101086301010863010108EC
:1000600063010108630101086301010863010108DC
:10007000C50E0108D10E0108DD0E0108E90E0108C8
:1000800063010108630101086301010863010108BC
:10009000B346010863010108630101086301010817
:1000A000630101086301010863010108630101089C
:1000B0009D440108A9440108630101086301010886
:1000C000630101086301010863010108514101084E
:1000D0005D41010863010108630101086301010832
:1000E000630101086301010863010108630101085C
:1000F000630101086301010863010108630101084C
:100100006301010863010108AD44010863010108AE
:10011000BB450108BF450108B1440108630101085E
:10012000630101086301010863010108630101081B
:10013000DFF810D000F082FC00480047C1600108E1
:10014000AFF3008030110020064880470648004782
:10015000FEE7FEE7FEE7FEE7FEE7FEE7FEE7FEE777
:10016000FEE7FEE78D44010831010108202A04DB87
:10017000203A00FA02F1002070479140C2F12003BA
:1001800020FA03F3194390407047202A04DB203AF9
:1001900021FA02F00021704721FA02F3D040C2F1A7
:1001A00020029140084319467047202A06DBCB17EE
:1001B000203A41FA02F043EAE07306E041FA02F322
:1001C000D040C2F12002914008431946704740EAEE
:1001D00001039B0703D009E008C9121F08C0042AC5
:1001E000FAD203E011F8013B00F8013B521EF9D2AC
:1001F0007047D2B201E000F8012B491EFBD27047D4
:100200000022F6E710B513460A4604461946FFF7E2
:10021000F0FF204610BD421C10F8011B0029FBD145
:10022000801A7047F0B480EA0102D40F4200B2EBAA
:10023000410F02D20246084611464A0042D0C30D81
:10024000DDB2C1F3C752AD1A202D35DAC1F3160164
:1002500041F4000204B15242C5F1200602FA06F14F
:100260002A411044B3EBD05F23D0C4B1012DA0EBE1
:10027000C35009DCF0BC4FF0004202EAC352DBB2CB
:1002800000F5000000F0FDBA400000F1807000EBC6
:10029000C350A0F1807040EAD170490009E04908DC
:1002A00041EAC071A0EBC35000F50000400800EB2C
:1002B000C350F0BC00F0DCBA6142012202EB410104
:1002C000001BF6E7F0BC704781F00041AAE780F020
:1002D0000040A7E780EA010210B502F000434000A9
:1002E00022D04A001FD0010E01EB1261C0F356006C
:1002F000C2F3560240F4000042F40002A0FB0220C8
:1003000000047F39140400D0401C50EA124001D48C
:100310004000491EC2B20C0604EBD010401C40083D
:10032000802A02D003E0002010BD20F00100002947
:1003300000DA0020184310BD30B480EA010202F058
:10034000004530F0004221F0004013D090B1C30DC1
:10035000D40DC2F31601C0F31600E41A41F40001F3
:1003600040F400027D34914201D3641C00E0490056
:10037000002C02DA30BC002070474FF4000000234C
:10038000914201D3891A034340084FEA4101F7D152
:1003900051B1914202D14FF0004105E002D24FF03D
:1003A000010101E06FF0010103EBC450284430BCAF
:1003B00000F05EBA420005D0C0F3C75252429142EB
:1003C00001DC0020704700EBC15070472DE9FE4F63
:1003D000804681EA0300C00F0C46009021F00041E6
:1003E00023F00045B8EB0200A94105D24046214662
:1003F00090461C460B46024623F00040104347D06F
:10040000270DC7F30A00C3F30A510290401A019066
:1004100040286BDAC3F3130040F4801B0098924627
:1004200020B10023D2EB030A63EB0B0B0198594672
:10043000C0F140025046FFF799FE06460D46504671
:100440005946019AFFF7B1FE10EB08006141002404
:1004500087EA115284EAE7731A4340D0009A62B3E4
:10046000019A012A4FEA075215DC001B61EB0201D9
:100470004FF0004202EA0752CDE90042001C41F56C
:10048000801132462B4600F039FA03B0BDE8F08FF8
:1004900040462146F9E7001B61EB0201001C41F5D3
:1004A000801300185B412018A2F5001747EB0301E9
:1004B00040EAD570B6196D4111E06D084FEA360675
:1004C00045EAC0754FEA0752001B61EB0201001CB0
:1004D00041F5801149084FEA300000195141324678
:1004E0002B4603B0BDE8F04F00F0F9B900980122A7
:1004F00040000023D0EB020263EBE073009821463A
:100500004FEAE074B8EB000061EB0401E9E783F027
:1005100000435BE781F0004158E72DE9FE4F81EA97
:10052000030404F0004421F0004100944FF0000B5C
:1005300023F0004350EA01045ED052EA03045BD08A
:10054000C3F30A54C1F30A552C44A4F2F3340194C2
:10055000A0FB0254C1F3130141F48011C3F3130350
:1005600043F4801301FB024400FB034E840A970A04
:1005700044EA815447EA8357A4FB076802958D0A31
:1005800005FB07854FEA932C04FB0C542705029DBD
:100590004FEA065847EA1637B5EB08056EEB070C2D
:1005A000870E920E47EA811742EA8312A7FB0201E7
:1005B000B6EB0B0164EB00042B0D43EA0C335E1821
:1005C00044EB1C50DA465146E7FB0201C5F3130425
:1005D0004FEA0B3343EA14534FEA0432019C43EAD7
:1005E0000603A4F10C040294009CCDE900B400F0D1
:1005F00085F903B0BDE8F08F00200146F9E72DE949
:10060000F04D81EA030404F0004B21F0004514464C
:100610004FF0000A23F0004150EA050220D054EACE
:1006200001021DD0C5F30A570246C5F31303C1F3F7
:100630001300C1F30A5640F4801543F48013A7EB6E
:100640000608101BD64608F2FD3873EB050002D3EE
:1006500008F1010801E092185B41B8F1000F03DADC
:1006600000200146BDE8F08D00204FF480110646C1
:1006700084460EE0171B73EB050705D3121B63EBD3
:10068000050306434CEA010C49084FEA3000921872
:100690005B4150EA0107EDD152EA030012D082EA31
:1006A000040083EA0501084305D0101BAB4106D2C4
:1006B0000122002306E000224FF0004302E06FF029
:1006C000010253101AEB06004CEB085110EB0A0024
:1006D00041EB0B01BDE8F04D00F001B970B521F020
:1006E000004303430CD0C1F30A550024D5EB0405A5
:1006F00064EB0403D617AD1AB34102DB00200146B8
:1007000070BD201841EB025170BDC10F80EAE0704E
:100710000844CA079623002100F0B3B896230022AC
:10072000114600F0AEB80EB5C10F80EAE070084483
:10073000CA07002140F233438DE80E000A460B46FB
:1007400000F0DCF803B000BD0EB540F23341029179
:100750000021CDE900110A460B4600F0CFF803B0A6
:1007600000BD20F00040C10DC0F3160040F40000B1
:100770007F2901DA00207047962903DCC1F1960138
:10078000C840704796398840704700F0004230F00A
:1007900000400AD0C10D01F56071C0F3160042EAB5
:1007A0000151C208400711437047002001467047BD
:1007B00030B5041E71F1000404DB4FF000444042E8
:1007C00064EB0101141E73F1000405DB1C464FF0BD
:1007D0000043524263EB04038B4208BF824230BDA8
:1007E00030B5041E71F1000404DB4FF000444042B8
:1007F00064EB0101141E73F1000405DB1C464FF08D
:100800000043524263EB0403994208BF904230BD5B
:1008100001F0004330B421F0004150EA010206D05B
:100820000A0DA2F56072C1F31301002A02DC30BC8C
:1008300000207047440F44EAC104C100E01830BCF6
:1008400000EBC25000F014B8002801DBC0F10040FA
:10085000002901DBC1F1004181427047002801DB22
:10086000C0F10040002901DBC1F10041884270471E
:100870000029A8BF7047401C490008BF20F00100B4
:10088000704710B4B0FA80FC00FA0CF050EA010492
:1008900004BF10BC704749B1CCF1200421FA04F424
:1008A00011FA0CF118BF012121430843A3EB0C01FD
:1008B000CB1D4FEA00614FEA102042BF002010BC60
:1008C000704700EBC35010440029A4BF10BC704710
:1008D000401C490008BF20F0010010BC704710B553
:1008E000141E73F1000408DA401C41F10001921853
:1008F0005B411A4301D120F0010010BD2DE9F04DFC
:1009000092469B4611B1B1FA81F202E0B0FA80F250
:1009100020329046FFF72AFC04460F4640EA0A00C0
:1009200041EA0B0153465A46084313D0114653EA95
:10093000010019D0C8F140025046FFF726FC0546D9
:100940000E46504659464246FFF710FC084305D074
:10095000012004E020463946BDE8F08D0020054323
:1009600046EAE0762C4337430A986305E40AA0EB95
:1009700008000022FD0A44EA47540A3002D500204C
:100980000146E9E7010510196941DDE9084500194B
:100990006941BDE8F04DA2E72DE9F04D00231A466C
:1009A0001B1A8A4103DB00200146BDE8F08DC1F32C
:1009B0000A52C1F3130141F480154FF0000BD10727
:1009C00002D100186D41521E0027044640F2FF116B
:1009D000384601EB620A3E468046024600204FF44C
:1009E0008011FFF7D2FBC2197141BB1846EB010021
:1009F000B4EB030C75EB000C04D3E41A65EB0005B3
:100A000017460E46241908F101006D41804634282E
:100A1000E3DDF91946EB0600091BA84103D24FF0AC
:100A2000FF32134601E0002213461BEB070046EBA2
:100A30000A51BDE8F04DFFF752BF0000064C074DCC
:100A400006E0E06840F0010394E80700984710349E
:100A5000AC42F6D3FFF770FBEC8701080C88010865
:100A600070B58C1810F8015B15F0070301D110F870
:100A7000013B2A1106D110F8012B03E010F8016B9D
:100A800001F8016B5B1EF9D12B0705D40023521E20
:100A90000DD401F8013BFAE710F8013BCB1A921C88
:100AA00003E013F8015B01F8015B521EF9D5A14286
:100AB000D8D3002070BD0000FEB50024204F0D46A5
:100AC00006460194029400940821384601F02EF95C
:100AD0000028F9D106F00F0040F050008DF8040016
:100AE0008DF805408DF80650FC208DF807008DF834
:100AF000084001208DF80900062201A9114802F0E2
:100B0000ABFA104801F05DFF0128FAD103226946D3
:100B10000C4802F0F1F80B4801F053FF0128FAD11C
:100B20009DF800009DF80110000440EA01209DF8A6
:100B30000210084304498860BDE8FE40FFF7EEBD9F
:100B4000000801401006002000000020FEB500242F
:100B5000204F0D46064601940294009440213846E9
:100B600001F0E4F80028F9D106F00F0040F0500041
:100B70008DF804008DF805408DF80650FC208DF8A6
:100B800007008DF8084001208DF80900062201A910
:100B9000114802F061FA104801F013FF0128FAD160
:100BA000032269460C4802F0A7F80B4801F009FF40
:100BB0000128FAD19DF800009DF80110000440EAD8
:100BC00001209DF80210084304498860BDE8FE40FA
:100BD000FFF7A4BD001001406806002000000020BF
:100BE00033B5124D81B004460821284601F09EF825
:100BF0000028F9D104F00F0040F050008DF80000FB
:100C00000A23012269460A4802F0EAF800208DF81A
:100C100000000A2301226946054802F0E1F80A2390
:100C2000012202A9024802F0DBF83EBD00080140A3
:100C30001006002033B5124D81B0044640212846ED
:100C400001F074F80028F9D104F00F0040F05000D2
:100C50008DF800000A23012269460A4802F0C0F814
:100C600000208DF800000A2301226946054802F0A1
:100C7000B7F80A23012202A9024802F0B1F83EBDEA
:100C8000001001406806002038B5354C00221021C4
:100C9000204601F050F800220421204601F04BF8D4
:100CA0000A2000F083FE01220421204601F043F8CF
:100CB0000A2000F07BFEFE208DF800000A230122AE
:100CC0006946284802F08CF80A2000F06FFE0621E1
:100CD0000020FFF785FF08210120FFF781FF002199
:100CE0000220FFF77DFFF0210320FFF779FF0021AD
:100CF0000420FFF775FF0022A1141B4801F01BF828
:100D00001A4C00228021204601F015F80A2000F03C
:100D10004DFE01228021204601F00DF80A2000F04E
:100D200045FE0A2301226946114802F059F80A20BB
:100D300000F03CFE06210020FFF77CFF0821012087
:100D4000FFF778FF00210220FFF774FFF021032056
:100D5000FFF770FF00210420FFF76CFF38BD000093
:100D60000008014010060020000C01400010014066
:100D700068060020FEE70000F0B58BB000240127D4
:100D8000CDE906472F4E049408970594F0784FF666
:100D9000FF75400100F580408DE8310069462A4822
:100DA000039500F0C3F908B100F0BAF80597F078A0
:100DB0006946400100F5C040CDE90004224800F03A
:100DC000B5F908B100F0ACF802200590F1784905BA
:100DD000A1F10051090C0091CDE9010569461A48BD
:100DE000039500F0A3F908B100F09AF803200094ED
:100DF000059069460194144800F098F908B100F094
:100E00008FF804200590F07869464005A0F18040F5
:100E1000000CCDE900040C4800F088F908B100F09E
:100E20007FF8094800F054FB08B100F079F802217E
:100E3000054800F001F9002801D000F071F80BB06E
:100E4000F0BD0000000100209405002010B58AB01C
:100E5000002300920522CDE90123CDE903318DF86D
:100E6000143006AA03E0C45CD4545B1CDBB28B4292
:100E7000F9D308AB6946074800F0F0F810B101203B
:100E80000AB010BD034800F042FA0328FAD100204E
:100E9000F6E700009405002070B5094DFF221346C7
:100EA00005F5807606E000BF10F8014B54402A5D3E
:100EB0005A40335D491EF7D243EA022070BD00005C
:100EC000BC830108014800F0C7BB0000C006002039
:100ED000014800F0C1BB000004070020014800F0F9
:100EE000BBBB000048070020014800F0B5BB000074
:100EF0008C07002030B590F840500124AC40C56B01
:100F00006C60046863604368102B036803D09960C9
:100F10000068C26030BD9A600068C16030BD704733
:100F200072B6FEE706490020C8610648016941F033
:100F300004010161016941F0400101617047000055
:100F4000100B002000200240064A0021D161064912
:100F50000A6942F002020A614861086940F04000F3
:100F600008617047100B002000200240044B002253
:100F7000DA61044A136943F0010313610180704789
:100F8000100B00200020024014480022C168CB064C
:100F9000134904D5CA6942F00202CA611022C3682B
:100FA0005B0705D5CB6943F00103CB6142F0040236
:100FB000C369DB0707D0CB6943F00403CB61C16988
:100FC00021F00101C161A2F58071013901D0C26037
:100FD0007047C16921F00101C161704700200240E2
:100FE000100B002070B5054600F0AAFE0646114C15
:100FF00009E0681C07D025B100F0A2FE801BA842C2
:1010000001D9032070BDE068C007F2D1E068800616
:1010100001D52020E060E068C00605D4E069C00783
:1010200002D1E068400703D5FFF7AEFF012070BD95
:10103000002070BD0020024090F82020012A07D037
:10104000022A05D0416A41F48021416201207047A3
:10105000006842690A43426100207047F0B590F889
:1010600020500468A468012D05D0022D03D0416AE8
:1010700041F4802157E014F0406F01D1E5004FD5D5
:10108000C4F301640125A5401D608D684FF4C07351
:101090009DB1CE6835434E6845EAC605066803EB48
:1010A0000417F5514FF4C275076805EB04150E6976
:1010B0007E51097D012905D009E00E88CD6845EAF9
:1010C0004655EBE701684E5946F480764E5111794A
:1010D000D579567941EA056195792D0445EA0625C9
:1010E00029434FF4C676056806EB0416A95111781A
:1010F000D57841EA0561957852782D0445EA0222B7
:1011000011434FF4C475026805EB04155151006892
:1011100003EB0411425842F0010242500020F0BD9E
:10112000416A41F4001141620120F0BD10B590F810
:1011300020300268012B07D0022B05D0416A41F410
:1011400080214162012010BDD2F8000240F0010070
:10115000C2F80002087D00F01F0301209840D2F879
:101160001C328343C2F81C32CB69B3B9D2F80C32BB
:101170008343C2F80C328C894B6864F31F434C697B
:1011800002EBC404C4F840320C890B6864F31F43BB
:101190004C6902EBC404C4F84432CB69012B16D16C
:1011A000D2F80C320343C2F80C320C884B6864F35B
:1011B0001F434C6902EBC404C4F840320C89CB686D
:1011C00064F31F434C6902EBC404C4F844328B69D6
:1011D000002BD2F804320FD053EA0003C2F80432D5
:1011E0000B69002BD2F8143208D00343C2F8143232
:1011F000096A012904D008E08343EFE78343F5E758
:10120000D2F81C120143C2F81C12D2F8000220F0DE
:101210000100C2F80002002010BD70B590F8204017
:10122000012C05D0022C03D0416A41F4802128E032
:10123000046809B32469A40720D04FF4D874056862
:1012400004EB01142D5915F00405956005682D591E
:101250001AD0ED08556005682C5904F00204D460DA
:101260004FF4DA74056804EB01142E5906F00F06EA
:10127000082E0CD308250DE0E468DCE7416A41F450
:1012800000114162012070BD6D0D1560E3E72D591D
:1012900005F00F05156105682D59C5F30725956102
:1012A00005682C59240C54614FF4DC72046802EB7D
:1012B0000112A4581C700468A458240A5C700468C5
:1012C000A458240C9C700468A258120EDA704FF4D3
:1012D000DE72046802EB0112A4581C710468A45861
:1012E000240A5C710468A458240C9C710468A258F8
:1012F000120EDA71006829B1016941F02001016123
:10130000002070BDC16841F02001C160F8E70246CD
:10131000002092F82010012901D002290CD1116877
:101320008A68520100D501208A68120100D5401C4C
:101330008968C90000D5401C704770B5040003D00F
:1013400094F8200010B104E0012070BD204600F0A8
:1013500081F82068016841F00101016000F0F0FCB3
:101360000546052604E000F0EBFC401B0A2811D8D6
:1013700020684068C007F6D02068016821F00201AB
:10138000016000F0DDFC05460BE000F0D9FC401BDD
:101390000A2806D9606A40F40030606284F8206050
:1013A000D2E7206840688007EFD4207E01282068BB
:1013B00001683DD021F080010160607E0128206835
:1013C000016838D021F040010160A07E012820682A
:1013D000016833D021F020010160E07E01282068FF
:1013E00001682ED041F010010160207F01282068A3
:1013F000016829D021F008010160607F0128206880
:10140000016824D021F004010160D4E902010843FD
:10141000D4E90412114308436168491E0843216856
:10142000C86100206062012084F82000002070BDA7
:1014300041F08001C0E741F04001C5E741F02001E3
:10144000CAE721F01001CFE741F00801D4E741F0ED
:101450000401D9E710B586B00021009101910291F5
:1014600003910068174988422AD11748C16941F0A1
:101470000071C161C16901F000710491816941F09D
:10148000040181618069114C00F0040004904FF464
:10149000006000906946204600F04CFBA0140090CC
:1014A00002200190032003906946204600F042FB91
:1014B00000221146142000F0B3FF142000F0A2FF18
:1014C00006B010BD0064004000100240000801405A
:1014D00070B5044690F82000012804D0606A40F4FA
:1014E0000020606218E0022084F820002068016873
:1014F00021F00101016000F023FC05460EE000BF71
:1015000000F01EFC401B0A2808D9606A40F4003035
:101510006062052084F82000012070BD20684068CA
:10152000C007EDD1606270BD2DE9F05F90F8211029
:101530000024022903D004218163012485E001688D
:101540000A6822F00E020A6001680A6822F00102AD
:101550000A603F4E3E4FB215DFF8F4C0DFF8F0905E
:10156000DFF8ECA0DFF8E8B0DFF8E4E00168783FEE
:1015700013011502ACF1640CA9F15009AAF13C0A5F
:10158000ABF1280BAEF1140E4FF48018B14227D9FD
:10159000B9420ED0614512D049451DD0514518D0F1
:1015A000594518D0714501D1424615E0294EB14246
:1015B00001D1012210E0274E1436B14201D1102290
:1015C0000AE0244E2836B14206D0224A3C329142EB
:1015D00001D11A4600E02A461E49091F0A602BE085
:1015E000B94213D0614517D0494522D051451DD08D
:1015F00059451DD0714501D142461AE0B14202D190
:101600004FF0807215E0134EB14201D1012210E07B
:10161000104E1436B14201D110220AE00D4E283688
:10162000B14206D00B4A3C32914201D11A4600E049
:101630002A46074980394A60012180F8211000219B
:1016400080F82010416B01B188472046BDE8F09F2B
:1016500080000240080402402DE9F05FC16B0A6877
:1016600001680B68046C4FF0040808FA04F8844D14
:10167000844E854FDFF814C2DFF81492DFF814A20D
:10168000DFF814B2DFF814E218EA020F65D05FEA5F
:10169000437862D50A68920603D40A6822F00402ED
:1016A0000A60DFF8F0814FF48062016808F11408E5
:1016B00013011402414524D9A9420DD0B1420FD0E3
:1016C000B9421AD0614515D0494515D0514501D1CF
:1016D000120312E0594501D104220EE0714501D1F7
:1016E00040220AE06D4D1435A94206D06B4A2832DB
:1016F000914201D11A4600E022466749091F0A605B
:1017000029E0A94213D0B14215D0B94220D0614599
:101710001BD049451BD0514502D14FF4800217E040
:10172000414502D14FF0806212E0594501D10422B7
:101730000EE0714501D140220AE0584D1435A9420E
:1017400006D0564A2832914201D11A4600E022467C
:101750004B4908394A60C16A71E04FF0020808FA43
:1017600004F818EA020F70D05FEA83786DD50A6832
:10177000920606D40A6822F00A020A60012180F863
:101780002110DFF810814FF40072016808F114088D
:1017900013011402414524D9A9420DD0B1420FD002
:1017A000B9421AD0614515D0494515D0514501D1EE
:1017B000120312E0594501D102220EE0714501D118
:1017C00020220AE0354D1435A94206D0334A28328A
:1017D000914201D11A4600E022462F49091F0A60B2
:1017E00029E0A94213D0B14215D0B94220D06145B9
:1017F0001BD049451BD0514502D14FF4001217E0D0
:10180000414502D14FF0007212E0594501D1022248
:101810000EE0714501D120220AE0204D1435A94285
:1018200006D01E4A2832914201D11A4600E02246D3
:10183000134908394A60002180F82010816A002984
:101840001CD0BDE8F05F0847FFE70825A54015421A
:1018500014D01A0712D50A6822F00E020A6090F816
:101860004020C36B012101FA02F25A60816380F8C3
:101870002110002180F82010016BE0E7BDE8F09F07
:10188000080002401C0002403000024044000240B8
:10189000580002406C000240080402401C04024050
:1018A00030B560B11A4B026814219A4209D2194B23
:1018B0001344B3FBF1F18900016417490AE00120E8
:1018C00030BD134B5B421344B3FBF1F1890001645B
:1018D0000F490839C163022180F82110136843F6CB
:1018E000F0718B43F0E901142143D0E902452C4308
:1018F00021430469214344692143846921431943F5
:10190000116000214163012242770177084630BD12
:1019100008040240F8FFFDBF0000024070B5044615
:1019200090F82000002501280CD0012084F8200028
:1019300094F821600020012E06D084F820000225B2
:10194000284670BD022070BD022684F82160A06385
:101950002068066826F0010606602046FFF7CAFAEE
:10196000E06A00282068016802D041F00E0106E01C
:1019700021F0040101602068016841F00A01016062
:101980002068016841F001010160D9E7064810B5FF
:101990004FF0FF31016100220261C160C26000F0BE
:1019A000F3FC002010BD00000010024070B504469A
:1019B00000F0C6F90546601C02D0044800780444D3
:1019C00000F0BEF9401BA042FAD370BD28010020F0
:1019D0002DE9F047054626480F460126017E0129DC
:1019E0000FD00121814601762868DFF888804CF20B
:1019F0005034022808D0A2462046FFF7F3FAA8B1D7
:101A000031E00220BDE8F0872046FFF7EBFA08BB83
:101A10000120FFF787FA2046FFF7E4FAD8F8101004
:101A2000064621F00401C8F810101CE04FF0FF300A
:101A30003860AC6811E02046FFF786FA5046FFF7A1
:101A4000D1FAD8F81010060021F00201C8F81010E1
:101A500001D03C6007E004F50064D5E9020100EB29
:101A6000C120A042E7D8002189F818103046C9E704
:101A7000100B0020002002400348016941F0800162
:101A80000161002070470000002002402DE9F05F56
:101A900007461C4888460024017E15461E4601293B
:101AA00009D00121814601764CF2503A5046FFF7A9
:101AB00099FA18B122E00220BDE8F09F012F02D070
:101AC000022F00D00427D346DFF83CA0220128468D
:101AD0003146FEF75AFB81B208EB4400FFF746FAA5
:101AE0005846FFF77FFADAF8102022F00102CAF810
:101AF000102018B9641CE4B2BC42E7D3002289F874
:101B00001820D9E7100B00200020024006490020D1
:101B10000A69120607D5054A4A60054A4A600969FA
:101B2000090600D5012070470020024023016745C7
:101B3000AB89EFCD2DE9F84FDFF8C8910024A9F16A
:101B4000040B23460F2709F1040AABF1040ED1E080
:101B50000125A54006EA0502AA4276D1DFF8A8C110
:101B60004E68A6EB0C0866452BD00DDC032E34D056
:101B700005DC36B3012E19D0022E2FD11BE0112E19
:101B800016D0122E2AD119E0B8F5881F19D006DC1C
:101B9000B8F5803F15D0B8F5801F1FD111E0B8F51A
:101BA000001F0ED0B8F5041F18D10AE0CB6815E06D
:101BB000CB681B1D12E0CB6808330FE0CB680C33F9
:101BC0000CE08B682BB1012B4FF0080303D045616B
:101BD00004E0042302E0056100E00023FF2A01D8AD
:101BE000064601E000F104064FEA840501D9A5F19B
:101BF0002005D6F8008007FA05FC28EA0C0803FA4D
:101C000005F548EA0508C6F800804D68ED0070D576
:101C10003E4DAE6946F00106AE61AD6924F00306A3
:101C200005F0010500953A4D06EB050CDCF808506F
:101C3000A607360F07FA06F825EA0805DFF8D4806C
:101C4000404503D14FF0000825E052E0DFF8C8809E
:101C5000404502D14FF001081DE0DFF8C08040454B
:101C600002D14FF0020816E0DFF8B480404502D1FF
:101C70004FF003080FE0DFF8AC80404502D14FF091
:101C8000040808E0DFF8A080404502D14FF00508C5
:101C900001E04FF0060808FA06F848EA0508CCF813
:101CA00008804D68D9F80060ED024D4601D5164315
:101CB00000E096432E604D68DAF80060AD025546AC
:101CC00001D5164300E096432E604D68DBF80060B6
:101CD000AD035D4601D5164300E096432E604D6886
:101CE000DEF80060ED03754601D5164300E096432B
:101CF0002E60641C0A681646E2407FF429AFBDE8F6
:101D0000F88F00000804014000001110001002408C
:101D10000000014000080140000C0140001001409B
:101D20000014014000180140001C01408068084078
:101D300000D0012070470AB1016170470904FBE738
:101D400001488068704700002801002070B5040039
:101D500025D094F83D00002520B984F83C50204659
:101D600000F07EFA242084F83D002068016821F00C
:101D7000010101602068016841F4004101602068B0
:101D8000016821F40041016000F044FC4D4A6168A3
:101D9000914201D84C4900E04C49884201D20120CF
:101DA00070BD4B492368B0FBF1F15E6826F03F0639
:101DB0000E435E606368934206D94FF496735943AD
:101DC0004FF47A73B1FBF3F12368491C1E6A26F0C5
:101DD0003F06314319626168914210D84900401EA4
:101DE000B0FBF1F2521CC2F30B02042A01D2042010
:101DF00022E0B0FBF1F0401CC0F30B001CE0A26835
:101E0000F2B301EBC10303EB0116431EB3FBF6F380
:101E10005B1C43F480431B0549D092B301EBC10224
:101E200002EB0111401EB0FBF1F0401CC0F30B00AF
:101E300040F4804040F400402168CA694CF6FF73CA
:101E40009A431043C861D4E907100143206802682F
:101E500022F0C00211430160D4E90301014320686C
:101E6000826848F2FF339A4311438160D4E9050147
:101E700008432168CA6822F0FF021043C86001E0ED
:101E80000EE016E02068016841F001010160256460
:101E9000202084F83D00256384F83E50002070BD6A
:101EA00001EB4106431EB3FBF6F35B1CB3E70120D5
:101EB000C2E701EB4101401EB0FBF1F0401CC0F352
:101EC0000B00B7E7A086010080841E0000093D00DA
:101ED00040420F002DE9FF4F83B00025DDE9107966
:101EE0009A4693460446DDF848800095FFF728FFA0
:101EF000064694F83D0020287CD119230122884908
:101F00002046009601F0F0FC0028F5D194F83C0042
:101F100001286FD0012084F83C0020680168C907BF
:101F200003D1016841F0010101602068016821F4DA
:101F300000610160222084F83D00402084F83E00CA
:101F400025646762A4F82A90608D20857548E06258
:101F5000CDE9008653465A462046049901F0C6FB57
:101F600000287CD1208DDFF8C091202768B101289E
:101F700014D00228206801681ED041F480610160FD
:101F80002068416980690090BCE0206841698169EE
:101F90000091016841F400710160B3E020680168BC
:101FA00021F48061016072B6206841698169009105
:101FB000016841F400710AE041F40061016072B609
:101FC0002068416981690091016821F480610160A4
:101FD00062B697E0032865D801280CD00228434652
:101FE0004FF000024946204600960BD001F07CFCE1
:101FF000A8BB0CE091E032464146204601F01AFDB4
:1020000068BB72E001F070FC48BB72B633E0206838
:10201000016821F48061016072B620680069616A1C
:102020000870606A401C6062208D401E2085608DB3
:10203000401E60853D4846F2A8110068B0FBF1F0F3
:10204000C0EBC00000EB80000090401E009007D065
:1020500020684069C04340070DD50098F5E727E0A8
:1020600044F8305F6773A573206940F02000206159
:1020700062B625731CE02068016841F400710160BC
:1020800020680069616A0870606A401C6062218D86
:10209000491E2185618D491E618562B621680969E5
:1020A000017026E032464146204601F0C3FC18B1DB
:1020B000012007B0BDE8F08F20680069616A0870F0
:1020C000606A401C6062208D401E81B22185608D57
:1020D000401E608520684269D243520712D403290A
:1020E00003D1016821F48061016020680069616AA0
:1020F0000870606A401C6062208D401E2085608DE3
:10210000401E6085208D00287FF464AF84F83D7008
:1021100084F83E5084F83C50CBE70220C9E7000029
:10212000020010000000FFFF040001003401002045
:102130002DE9FF4F83B09A46DDE911979346044697
:10214000DDF84080FFF7FCFD054694F83D002028AF
:102150007FD11923012240492046009501F0C4FB9C
:10216000002876D194F83C00012872D0012084F830
:102170003C0020680168C90703D1016841F00101F2
:1021800001602068016821F400610160212084F869
:102190003D00402084F83E0000262664C4F82480D8
:1021A000A4F82A90608D20852C48E062CDE9007566
:1021B00053465A462046049901F016FB70B930E0A8
:1021C0002A463946204601F06DFC58B1206C04289F
:1021D00004D12068016841F400710160012007B05A
:1021E000BDE8F08F606A216800780861606A401C71
:1021F0006062218D491E89B22185628D521E6285E1
:1022000022685369DB435B070BD469B10078106126
:10221000606A401C6062208D401E2085608D401EDB
:102220006085208D0028CBD12A463946204601F012
:102230002FFB0028CAD154F83D0B016841F400710E
:102240000160202004F81E09E67766770020C6E7C3
:10225000FFE70220C3E70000020010000000FFFFBC
:1022600010B586B0002100910191029103910068A0
:102270000F4988421AD10F4CA06940F00800A061B4
:10228000A069694600F008000490C0200090122068
:102290000190032003900848FFF74CFCE06940F4EC
:1022A0000010E061E06900F40010049006B010BD79
:1022B0000054004000100240000C014002488168B8
:1022C000027811448160704728010020074810B54A
:1022D000016841F010010160032000F0C1F80F20F7
:1022E00000F006F800F052F8002010BD0020024077
:1022F00030B50546204887B0C16941F00101C16190
:10230000C06906A900F00100009001A800F062F980
:102310000498B8B100F07EF9400018494FF08042AF
:10232000B0FBF1F11648491E0260416040F2E7320D
:102330000021C0E903218160816100F037FF0400C2
:1023400003D015E000F066F9E7E70D4800F0A2FFC2
:1023500004000DD11C2000F055F8102D07D20022EA
:1023600029461C2000F05CF80648056000E00124C6
:1023700007B0204630BD00000010024040420F0070
:10238000C80A00202C010020704700000C4808B546
:10239000816941F001018161816901F001010091D0
:1023A000C16941F08051C161C06900F08050009066
:1023B0000448416821F0E06141F00071416008BDCE
:1023C0000010024000000140002809DB00F01F025D
:1023D000012191404009800000F1E020C0F8801206
:1023E000704700280DDB00F01F02012191404009D9
:1023F000800000F1E020C0F88011BFF34F8FBFF3E1
:102400006F8F7047002809DB00F01F020121914007
:102410004009800000F1E020C0F800117047000082
:10242000F0B40E4B1B680C46C3F30223C3F107053F
:10243000042D00D90425191D072901D2002300E02D
:10244000DB1E012606FA05F1491E214099409E40F7
:10245000761E16403143F0BC02F042B90CED00E0AC
:10246000064900F0070208684FF6FF03184040EAEB
:102470000220034A10430860704700000CED00E0A2
:102480000000FA05BFF34F8F05480168054A01F4C3
:10249000E06111430160BFF34F8F00BFFDE7000013
:1024A0000CED00E00400FA052DE9F0470F460500A9
:1024B00061D0434E306800F00700B84209D230685E
:1024C00020F0070038433060306800F00700B84261
:1024D00051D128683B4C810712D5400703D560686D
:1024E00040F4E06060602878000703D5606840F43D
:1024F000605060606068A96820F0F0000843606088
:102500002878C00728D06868012810D021680228E0
:1025100010D0890700292EDA616821F003010143F8
:102520006160FFF70DFC804641F288390DE02168BB
:102530008903EFE78901EDE7FFF702FCA0EB080153
:10254000494502D90320BDE8F0876068696800F05A
:102550000C00B0EB810FEFD1306800F00700B842FB
:102560000BD9306820F0070038433060306800F045
:102570000700B84201D00120E5E72878400705D5DB
:102580006068E96820F4E06008436060287800072C
:1025900006D56068296920F4605040EAC100606097
:1025A00000F058F86168084AC1F30311515CC84053
:1025B0000649086006480068FFF79AFE0020C2E757
:1025C00000200240001002404E8601083401002025
:1025D0002C0100200F2202600C4A536803F0030311
:1025E0004360536803F0F0038360536803F4E063CF
:1025F000C36052684FF4E06303EAD2020261044808
:10260000006800F0070008607047000000100240FA
:10261000002002400448054900684968044AC1F3A3
:102620000221515CC8407047340100200010024074
:102630005E8601080448054900684968044AC1F3F8
:10264000C221515CC8407047340100200010024094
:102650005E8601080E4A51680E4801F00C03042BF7
:1026600011D0082B0FD10C48C1F38343C903C05CC0
:102670000AD55168084AC1F34041921E515C054A8F
:102680005043B0FBF1F070470449484370470000E5
:102690000010024000127A003E86010800093D0049
:1026A0002DE9F84F040070D02078C04DC00749D004
:1026B0006868C0F38100012807D06868C0F3810012
:1026C000022809D16868C00306D52868800339D577
:1026D00060680028E7D035E06068B0F5803F0BD037
:1026E00010B1B0F5A02F11D0286820F480302860F8
:1026F000286820F4802002E0286840F480302860B8
:10270000606890B1FFF71CFB06460AE0286840F4B9
:1027100080202860F0E700BFFFF712FB801B6428D1
:1027200073D828688003F7D50CE0FFF709FB06464D
:1027300005E000BFFFF704FB801B6428F0D8286881
:102740008003F7D420789A4E80074FF001094FF0AC
:10275000000839D5686810F00C0F07D06868C0F31E
:102760008100022809D16868C00306D42868800760
:1027700014D52069012808D110E02069B0B1C6F84D
:102780000090FFF7DDFA074605E00AE1FFF7D8FA07
:10279000C01B0228C4D828688007F7D5286861695B
:1027A00020F0F80040EAC10028600DE0C6F8008083
:1027B000FFF7C6FA074604E0FFF7C2FAC01B02287B
:1027C00023D828688007F7D4207800072CD57948CB
:1027D000A169D9B1C0F80090FFF7B2FA074604E04A
:1027E000FFF7AEFAC01B02280FD8686A8007F7D53A
:1027F00071484FF4FA510068B0FBF1F0009000BF4F
:102800000098411E0091FAD20EE080E0C0F80080EE
:10281000FFF796FA074604E0FFF792FAC01B02287A
:1028200075D8686A8007F7D42078400760D5E869D2
:102830000027C00008D4E86940F08050E861E869EA
:10284000012700F0805000905C480168C90513D44E
:102850000168834641F480710160FFF771FA824696
:1028600006E000BFFFF76CFAA0EB0A0064284ED820
:10287000DBF80000C005F5D5E06801280AD008B1F2
:10288000052813D0286A20F001002862286A20F069
:10289000040002E0286A40F001002862E06841F28A
:1028A000883B98B1FFF74CFA82460BE0286A40F06B
:1028B00004002862EEE700BFFFF742FAA0EB0A012E
:1028C00059455AD8286A8007F6D50CE0FFF738FA40
:1028D000824605E0FFF734FAA0EB0A0159454CD8CF
:1028E000286A8007F6D41FB1E86920F08050E861BB
:1028F000E06988B36968C1F38101022944D00228E4
:10290000C6F8608004D0FFF71BFA044638E034E0D4
:10291000FFF716FA074604E0FFF712FAC01B022879
:102920002BD828688001F7D4206AB0F5803F05D104
:102930006868A16820F4003008436860D4E90801A1
:102940000843696821F4741108436860C6F8609010
:10295000FFF7F6F9044606E025E000BFFFF7F0F9BF
:10296000001B022809D828688001F7D51BE000BFAA
:10297000FFF7E6F9001B022802D90320BDE8F88F13
:1029800028688001F4D40EE00128F7D06868226A34
:1029900000F48031914204D1616A00F470108842E1
:1029A00001D00120EAE70020E8E700000010024023
:1029B0000000424280044242340100200070004086
:1029C000704790F85100704738B504460068426877
:1029D0008168C9434B0606D5CB0704D1D3435B06B8
:1029E00001D4216C05E08B0708D4D3431B0605D422
:1029F000616C01B02046BDE8304008478B0601D528
:102A00004B0646D4D3439B0643D44B060AD494F8D2
:102A10005130032B3ED0636D43F004036365C368FC
:102A200083680093890609D4616D41F001016165F5
:102A300081680091016821F040010160606D00280B
:102A400027D02068416821F0E0014160012084F82E
:102A50005100900722D02068416821F003014160B5
:102A6000104DE06C40B14563E06CFEF75DFD18B1C0
:102A7000606D40F040006065A06C002809D045639F
:102A8000A06CFEF751FD002803D0606D40F04000BF
:102A9000606538BDC1688068009038BD2046FFF78A
:102AA0008FFF38BD6941010870B5040009D0606A24
:102AB000002540B125616561A56294F8510040B1DF
:102AC0000CE0012070BD6068B0F5827FF4D0E56154
:102AD000F2E784F85050204600F040F8022084F8D5
:102AE00051002068016821F040010160A08821891F
:102AF00000F4827001F404410843A18901F40061EB
:102B00000843217C01F002010843217D01F001010D
:102B10000843218B01F400710843217F01F0380143
:102B2000084394F8201001F080010843218D01F43E
:102B30000051084321680860A069042101EA10409F
:102B4000216848602068C16921F40061C161656540
:102B5000012084F85100002070BD00002DE9F047ED
:102B600086B00025009501950295039504465B4EBD
:102B700003685B480221032280274FF0100A4FF4BC
:102B80000059B3424FD1836943F480538361836911
:102B900003F480530493836943F0040383618069E1
:102BA000504E00F004000490A020CDE900010392F3
:102BB00069463046FEF7BEFF4020CDE90005694674
:102BC00030460295FEF7B6FF484E4748B846C6E97C
:102BD0000005C6E9025735617561C6E906594F46D9
:102BE0003046FEF75DFE08B1FEF79AF9E6647462BE
:102BF0003E4E3D4844361430C6E902583561756191
:102C0000C6E9000AC6E906573046FEF749FE08B194
:102C1000FEF786F9A6640022114623207462FFF7AE
:102C2000FFFB232055E0324EB34254D1C36943F435
:102C30008043C361C36903F480430493836943F011
:102C40000803836180692B4E00F0080004904FF464
:102C50002040CDE90001039269463046FEF76AFF45
:102C60004FF48040CDE90005694630460295FEF7F5
:102C700061FF1E4E1C4888362830C6E90005C6E9AB
:102C8000025735617561C6E90659B8464F46304668
:102C9000FEF706FE08B1FEF743F9E6647462134ED0
:102CA0001148CC363C30C6E9025835617561C6E939
:102CB000000AC6E906573046FEF7F2FD08B1FEF7F6
:102CC0002FF9A6640022114624207462FFF7A8FBA6
:102CD0002420FFF797FB06B0BDE8F08700300140E5
:102CE00000100240000801401C000240C006002005
:102CF00000380040000C014070B5044690F85100C7
:102D0000012829D1A068042318B96568B5F5827F28
:102D100017D0F9B1F2B194F85050012D1CD0012513
:102D200084F8505084F8513000256565A163A2876E
:102D3000E28725646564A586E586B0F5004F0DD071
:102D400016E084F851302046BDE8704013460A462C
:102D500000F0FAB8012070BD022070BD2068016843
:102D600021F0400101602068016821F48041016088
:102D7000E16C1748C862E16C16488862E16C16483D
:102D80000863E06C4563E38F2168A26B0C31E06C53
:102D9000FEF7C4FD30B1606D40F01000606584F84E
:102DA0005050D7E720680168490603D4016841F014
:102DB0004001016084F850502068416841F02001D2
:102DC00041602068416841F001014160002070BD10
:102DD0009B410108B94101087941010870477047DA
:102DE0002DE9F84F984616468A460446FEF7A8FF96
:102DF000814694F8510001281ED1BAF1000F73D01A
:102E0000002E71D094F85000012815D0012784F8C5
:102E10005070032084F8510000256565C4F830A087
:102E2000A686E686A563A587E58765642564A06810
:102E3000B0F5004F03D00CE00220BDE8F88F206809
:102E4000016821F0400101602068016841F480417F
:102E5000016020680168490603D4016841F040011F
:102E60000160E068B0F5006F606803D048B3012EE0
:102E700027D047E008B1012E1FD1206B21680088C0
:102E8000C86006E020688168890709D5216B098838
:102E9000C160206B801C2063E08E401EE0860CE049
:102EA000FEF74EFFA0EB0901414503D3B8F1FF3F08
:102EB00003D035E0B8F1000F32D0E08E0028E1D128
:102EC00023E0206B21680078087306E020688168A1
:102ED00089070AD5216B09780173206B401C206398
:102EE000E08E401EE0860DE02BE0FEF729FFA0EB10
:102EF0000901414503D3B8F1FF3F03D010E0B8F119
:102F0000000F0DD0E08E0028E0D14A464146204611
:102F100001F014FA08B120206065A06830B109E022
:102F200084F8517084F85050032086E72068C16807
:102F30008068009084F8517004F8505F6068002841
:102F4000F3D0012079E7000070B5044690F85100F5
:102F50006568012806D0B5F5827F3AD1A568A5BB82
:102F6000042836D191B38AB383B394F85000012872
:102F70002FD0012084F8500094F85100042802D08A
:102F8000052084F85100002565652163A386E3864A
:102F9000A263A387E3872564656494F8510004283D
:102FA00019D0E16C2748C8622748E16C8862E16C5F
:102FB00026480863E06C4563E38F2168A26B0C31FF
:102FC000E06CFEF7ABFC00BB0AE002E0FFE701208B
:102FD00070BD022070BDE16C1D48C8621D48E4E769
:102FE0002068416841F001014160A06CC562A06C9D
:102FF0008562A06C0563A06C4563E38E2268216B3B
:103000000C32A06CFEF78AFC30B1606D40F010000D
:10301000606584F85050DAE720680168490603D4F7
:10302000016841F04001016084F850502068416817
:1030300041F0200141602068416841F00201416097
:10304000002070BDAF4101088742010879410108A5
:103050009B410108B941010870B5044690F8510040
:1030600001281CD1C9B1C2B194F85000012816D072
:10307000012084F85000032084F851000025656584
:103080002163A286E286A56365642564A587E5873A
:10309000A068B0F5004F04D00DE0012070BD022003
:1030A00070BD2068016821F040010160206801685E
:1030B00041F480410160A16C1748C862A16C1748B7
:1030C0008862A16C16480863A06C4563E38E226891
:1030D000216B0C32A06CFEF721FC30B1606D40F02A
:1030E0001000606584F85050D7E7206801684906F1
:1030F00003D4016841F04001016084F85050206819
:10310000416841F0200141602068416841F00201BE
:103110004160002070BD0000A54101082342010864
:103120007941010870477047704770477047704792
:1031300070B590F83C20012A2CD0012480F83C4046
:10314000022280F83D2003685A689D6822F07006CC
:103150000A6832435A60104B02689A420ED00F4BF5
:103160009A420BD0B2F1804F08D00D4B9A4205D055
:103170000C4B9A4202D00C4B9A4204D1496825F07C
:1031800080031943916080F83D40002180F83C1095
:10319000084670BD022070BD002C01400034014083
:1031A0000004004000080040000C004010B504007E
:1031B00003D094F83D0010B107E0012010BD0020BD
:1031C00084F83C00204600F01FF8022084F83D00FF
:1031D000211D206801F06EF9012084F8460084F872
:1031E0003E0084F83F0084F8400084F8410084F8F1
:1031F000420084F8430084F8440084F8450084F8D1
:103200003D00002010BD000008B51E4A01681E48A0
:1032100091420ED1C16941F00201C161C069002231
:1032200000F00200009001211D20FFF7F9F81D2099
:1032300022E0164A91420ED1C16941F00801C161F4
:10324000C069002200F00800009001213220FFF741
:10325000E7F8322010E00E4A914211D1C16941F0E5
:103260001001C161C069002200F0100000901146F9
:103270003620FFF7D5F83620BDE80840FFF7C2B882
:1032800008BD00000004004000100240000C004097
:103290000010004090F83D10012901D00120704736
:1032A000022180F83D100168CA6842F00102CA603C
:1032B00000680E4988420ED00D4988420BD0B0F10B
:1032C000804F08D00B49884205D00B49884202D074
:1032D0000A49884204D1816801F00701062903D018
:1032E000016841F00101016000207047002C01409D
:1032F000003401400004004000080040000C004081
:103300000168CA6822F00102CA6001680A6A41F2D3
:1033100011131A4207D10A6A9B101A4203D10A6894
:1033200022F001020A60012180F83D100020704760
:1033300070B5044690F83C000025012817D00126FE
:1033400084F83C60022084F83D002068826822F006
:10335000770222F47F4282600868502838D00DDC62
:1033600020284FD005DC90B3102811D14AE002206C
:1033700070BD302846D040280AD13BE060282FD0CD
:1033800070280DD0B0F5805F03D0B0F5005F12D08B
:10339000012584F83D60002084F83C00284670BD7B
:1033A000CB68D1E90121206801F0D2F8206881685A
:1033B00041F0770109E0CB68D1E90121206801F0F3
:1033C000C7F82068816841F480418160E1E719E035
:1033D000CA684968206801F0CDF85021206806E0ED
:1033E000CA684968206801F0D6F86021206801F0B9
:1033F000B9F8CEE7CA684968206801F0BBF84021F7
:103400002068F4E7226801461046F0E770472DE98E
:10341000F04104460068C66805694FF00007A90737
:1034200013D5B10711D5F91E01610120207720685D
:1034300080698007204602D0FFF7E8FF04E000F033
:103440007EF8204600F07CF82777680716D57007CD
:1034500014D521686FF004000861022020772068ED
:10346000806910F4407F204602D0FFF7CFFF04E0D0
:1034700000F065F8204600F063F82777280715D597
:10348000300713D521686FF0080008610420207709
:103490002068C0698007204602D0FFF7B7FF04E02C
:1034A00000F04DF8204600F04BF82777E80616D5D7
:1034B000F00614D521686FF010000861082020770D
:1034C0002068C06910F4407F204602D0FFF79EFFBD
:1034D00004E000F034F8204600F032F82777E807DF
:1034E00008D0F00706D021686FF00100086120467F
:1034F00000F027F8280608D5300606D521686FF0B9
:10350000800008612046FFF711FE680608D57006A6
:1035100006D521686FF040000861204600F018F8D9
:10352000A8060AD5B00608D521686FF0200008610A
:103530002046BDE8F041FFF7FABDBDE8F0817047D5
:1035400070470068B0F1804F01D1FEF7B7BE7047F9
:10355000704770B5040004D094F84100002510B104
:1035600006E0012070BD84F84050204600F024F8A9
:10357000242084F841002068C16821F40051C16012
:10358000204601F01FF82068016921F49041016193
:103590002068416921F02A0141612068C16841F435
:1035A0000051C1606564202084F8410084F8420025
:1035B0006563002070BD000070B586B000240094E3
:1035C000019402940394314E056831490222032389
:1035D0003048B54226D1CD6945F40025CD61CD698D
:1035E00005F4002504958D6945F010058D61896904
:1035F000039301F0100104910115CDE90012694611
:103600000546FEF797FAF014CDE90004694628460E
:103610000294FEF78FFA002211463420FEF700FFD5
:1036200034202FE01C4EB5422ED1CD6945F48015D3
:10363000CD61CD6905F4801504958D6945F01005BF
:103640008D618D6905F0100504958D6945F02005A3
:103650008D618969039301F020010491B114CDE9D2
:1036600000126946FEF766FA0420CDE900046946B7
:103670000A480294FEF75EFA002211463520FEF752
:10368000CFFE3520FEF7BEFE06B070BD004C0040F8
:1036900000100240001001400050004000140140A2
:1036A00090F84230202B01D00220704721B11AB18E
:1036B0000023036300F0E2BF01207047FEE70168CA
:1036C0004A69D24352050FD46FF480624A610021E7
:1036D00040F8301F202242738173026942F00402D5
:1036E0000261017301207047002070472DE9F84FF7
:1036F0000446006889460B9D01689846174641F4C8
:10370000806101602068016841F48071016000956A
:103710004FF0011B0022594620460A9B00F0E4F8B6
:103720004FF4007A40B120680068C00501D5C4F8A4
:1037300040A00320BDE8F88F216809F0FE00086171
:103740002B46284920460A9A00F016F9F0BB20685B
:103750004169806900902A4620460A9900F0A2F942
:1037600040B1206C04283AD12068016841F400710E
:10377000016034E0FEB2B8F1010F09D02168380AC7
:1037800008612A4620460A9900F08CF90028E8D101
:10379000206806612A4620460A9900F083F900282D
:1037A000DFD12068016841F480710160009500223A
:1037B000594620460A9B00F097F80028B3D12168AB
:1037C00009F0FF0040F00100086100E007E02B462F
:1037D000044920460A9A00F0CFF80028AAD0012018
:1037E000A8E70000020001002DE9F8430446006844
:1037F0000D46DDE9089701689846164641F4807148
:1038000001604B4600224FF001112046009700F066
:103810006BF848B120680068C00502D54FF400700D
:1038200020640320BDE8F883216805F0FE000861EC
:103830003B464A461549204600F09EF888B9206864
:103840004169806900903A464946204600F02AF9CD
:1038500048B1206C042804D12068016841F400714B
:1038600001600120DEE7F5B2B8F1010F09D021684F
:10387000300A08613A464946204600F013F900280C
:10388000E7D1206805610020CCE7000002000100BC
:1038900070B516460D4604461EE02046FFF70FFFA2
:1038A00008B1012070BD681C16D0FEF749FA801BD4
:1038B000A84200D885B920684069C04340070BD5AD
:1038C000002044F8300F20216173A073216941F07A
:1038D000200121612073E4E720684069C04340076C
:1038E000DBD4002070BD00002DE9F0479846174654
:1038F0000D460446C1F30746DDF820902AE000BFDC
:10390000B8F1FF3F26D0FEF71BFAA0EB09014145B5
:1039100002D8B8F1000F1DD12068012E16D08069A1
:1039200025EA00000004000C12D00020B84211D19A
:10393000002044F8300F20216173A073216941F009
:103940002001216120730120BDE8F0874069E7E78D
:103950000120EBE72068012E0AD0806925EA0000EB
:103960000004000C06D00020B842C9D00020EBE7CC
:103970004069F3E70120F7E72DE9F047984616463E
:103980000D4604464FF000094FF0200AC1F30747E7
:1039900023E020684069C043400515D420680168D1
:1039A00041F40071016021686FF480604861C4F8DF
:1039B000309084F83DA084F83E90216C41F00401E1
:1039C000216484F83C9021E0701C06D0FEF7B8F921
:1039D000A0EB0800B04203D816B1012F1FD021E0A0
:1039E0002068012F15D0806925EA00000004000C32
:1039F00018D000BF44F8309F84F80DA084F80E90D2
:103A0000216941F02001216184F80C900120BDE87A
:103A1000F087406925EA00000004000CEAD1206824
:103A2000406901E02068806925EA00000004000C7C
:103A3000AFD1ECE72DE9F041002590460E46044653
:103A4000202728E04069C043C0060CD454F8301B3E
:103A50006FF01000486144F810596777A577206A25
:103A60002062257714E0FEF76BF9A0EB0800B04266
:103A700000D886B920684069C04340060BD544F899
:103A8000305F6773A573206940F0200020612573C3
:103A90000120BDE8F08120684169C9434906D1D4BD
:103AA0000020F6E770B516460D4604461EE0204697
:103AB000FFF705FE08B1012070BD681C16D0FEF7A7
:103AC0003FF9801BA84200D885B920684069C043EF
:103AD00000060BD5002044F8300F20216173A0733D
:103AE000216941F0200121612073E4E720684069E9
:103AF000C0430006DBD4002070BD0000064910B5AD
:103B000009686FF0010008610348FFF7F9FBBDE8A1
:103B1000104002F05FBC0000D007002010B5084C38
:103B20006FF0010021680861216808612046FFF7F5
:103B3000E7FB216800204862BDE8104003F07EBE2C
:103B400018080020F0B52048204A017811B111680A
:103B5000491C1160156801230021B5F5967F02DD2F
:103B60001B4C237001701B48846904B90360641CFA
:103B70008461C469641CC461466A761C46620A2C6E
:103B800000D14360142E03D18161C161C3604162E1
:103B9000114C1248DFF848C02668761C266007786A
:103BA0007F1CFFB20770664500D92160C82F02D97B
:103BB00001700C480370654500DD11600A496FF023
:103BC000010009680861F0BDF5000020F800002040
:103BD000FC0000203C050020D000002069000020EF
:103BE0003F420F00640000206008002070B51C48B0
:103BF0000168031D1868C4B2480611D51948C28C63
:103C000042B1026A12F8015B1D600262C28C521E50
:103C1000C28405E012480C30026822F040020260C3
:103C200088061BD5104D6FF00100296808612968CE
:103C300008612846FFF764FB0D480C4A018854547C
:103C4000491C89B200220180C72900D90280286856
:103C50004262BDE870400448FFF71CBB70BD000025
:103C6000004C0040A8080020D007002038090020A0
:103C70002001002070B51D4805684168CCB2690676
:103C800015D51B49CA8C42B10A6A12F8013B436040
:103C90000A62C88C401EC88409E0C16821F0400156
:103CA000C16000224FF480711248FEF744F8A80664
:103CB0001BD5114D6FF00100296808612968086162
:103CC0002846FFF71DFB0E480C4A41885454491CF6
:103CD00089B200224180C72900D942802868426207
:103CE000BDE870400448FFF7D5BA70BD00500040F1
:103CF000F0080020000C014018080020000A0020F5
:103D0000200100200F4810B50D49016009214160D4
:103D100000214FF480228160C0E9031292004261C9
:103D20000176012242768276C17601774177FDF7EE
:103D300004FB002803D0BDE81040FDF7F1B810BD2A
:103D40000064004094050020154808B5416941F021
:103D5000010141614069002200F001000090012151
:103D60000C20FEF75DFB0C20FEF74CFB002201212E
:103D70000D20FEF755FB0D20FEF744FB002201212C
:103D80000E20FEF74DFB0E20FEF73CFB002201212A
:103D90000F20FEF745FBBDE808400F20FEF732BBC1
:103DA000001002402DE9F04F85B0002547480095EE
:103DB000019502950395816941F020018161816936
:103DC00001F020010491816941F010018161816954
:103DD00001F010010491816941F004018161816960
:103DE00001F004010491816941F008018161806959
:103DF000DFF8DCA000F0080004900122802150468A
:103E0000FDF799FF00220E215046FDF794FFDFF8E1
:103E1000C4B0012214215846FDF78DFF4FF480589D
:103E2000012241462C48FDF786FF4FF4807900229D
:103E300049462948FDF77FFF01240E20CDE9000403
:103E40000326CDE9024669465046FDF773FE04207D
:103E50001127CDE90007CDE9024669465846FDF72E
:103E600069FE0820CDE90005694658460295FDF730
:103E700061FE10208DE8710069465846FDF75AFE34
:103E800001AACDF8008082E8700069461248FDF76B
:103E900051FE4020CDE90005694650460295FDF7E8
:103EA00049FE8020CDE90007CDE90246694650462B
:103EB000FDF740FECDE90094CDE90246694606488B
:103EC000FDF738FE05B0BDE8F08F0000001002409D
:103ED0000010014000080140000C01400D4810B5E1
:103EE0000B4901600C49416000214FF48042816020
:103EF000C0E9031241618161C1610162FDF726FFE2
:103F0000002803D0BDE81040FDF70AB810BD00003E
:103F100000540040BC050020A0860100104810B5E8
:103F20000E4901604FF482714160002181600122DD
:103F3000C160C0E90412520282613822C0E907213F
:103F4000416281620A21C162FEF7AEFD002803D002
:103F5000BDE81040FCF7E4BF10BD00000030014098
:103F600010060020104810B50E4901604FF4827110
:103F70004160002181600122C160C0E90412520247
:103F800082613822C0E90721416281620A21C1624F
:103F9000FEF78AFD002803D0BDE81040FCF7C0BF43
:103FA00010BD0000003800406806002010B586B043
:103FB0000024174800940194029403940494134934
:103FC000059401603121C0E9011441F61F41C0E9A7
:103FD00003148461FFF7EAF808B1FCF7A1FF4FF47E
:103FE0008050009069460A48FFF7A2F908B1FCF733
:103FF00097FF049404A906480594FFF799F8002850
:1040000001D0FCF78DFF06B010BD00000004004099
:10401000D007002010B586B0002417480094019402
:1040200002940394049413490594016040F2F3113F
:10403000C0E9011441F61F41C0E903148461FFF790
:10404000B5F808B1FCF76CFF4FF48050009069465A
:104050000948FFF76DF908B1FCF762FF049404A961
:1040600005480594FFF764F8002801D0FCF758FFD5
:1040700006B010BD000C0040180800201CB500243C
:104080000E4800940C49019401600921C0E9011413
:1040900041F61F418461C160FFF788F808B1FCF761
:1040A0003FFF0094694605480194FFF741F8002856
:1040B00001D0FCF735FF1CBD001000406008002057
:1040C0000E4810B50C4901604FF4E1314160002108
:1040D00081600C22C160C0E904128161C161FFF7F7
:1040E00038FA08B1FCF71CFFBDE810400122044972
:1040F0000248FFF7D5BA0000004C0040A808002095
:10410000240100200E4810B50C4901604FF4E13144
:104110004160002181600C22C160C0E9041281610C
:10412000C161FFF716FA08B1FCF7FAFEBDE81040CE
:10413000012204490248FFF7B3BA000000500040D2
:10414000F008002025010020FEE7FEE77047000090
:104150000148FEF739BC0000100600200148FEF7B8
:1041600033BC00006806002010B5406A0021C187FA
:10417000C186FEF725FC10BD10B5406A01684A688B
:1041800022F003024A60416D41F0100141650121B6
:1041900080F85110FEF714FC10BD10B5406AFEF710
:1041A0001EFE10BD10B5406AFEF7BDFF10BD10B574
:1041B000406AFEF7BAFF10BD70B50546446AFDF7C8
:1041C000BFFD024628680068800626D42068416842
:1041D00021F020014160A06818B96068B0F5827FC5
:1041E00016D02068416821F0010141606421204619
:1041F00000F076F808B1202060650020E0870120FB
:1042000084F85100606D40B12046FEF7D9FB70BDC7
:104210002068416821F00301E7E72046FEF7DEFD54
:1042200070BD38B50546446AFDF78AFD0246286828
:104230000068800623D42068416821F02001416095
:104240002068416821F0020141606421204600F0AD
:1042500075F818B1606D40F020006065A06800211D
:1042600018B92068C26880680090E186012084F84F
:104270005100606D18B12046FEF7A2FB38BD204604
:10428000FEF750FF38BD70B50546446AFDF758FD8E
:1042900002462868006880061ED42068416821F024
:1042A000200141606421204600F048F818B1606D9B
:1042B00040F0200060652068416821F00301416002
:1042C0000020E086E087012084F85100606D18B17D
:1042D0002046FEF775FB70BD2046FEF725FF70BD3A
:1042E000F8B5044640684FF48273984217D1A0682D
:1042F0004FF48065B0F5004F01D0A8420FD120687F
:10430000066826F0400606606068984207D1A068FB
:10431000A84204D100920B460022012103E0009242
:104320000B4600228021204600F022F8002804D00D
:10433000606D40F0200060650320F8BDF8B51546BB
:104340000E460B46009204460122022100F010F8AE
:1043500040B93346002280212046009500F008F83D
:10436000002804D0606D40F0200060650320F8BD97
:104370002DE9F8431E46914688460446089DFDF700
:10438000DFFC401B351AFDF7DBFC074625480068BB
:10439000C0F3CB30684338E0701C37D0FDF7D0FC59
:1043A000C01BA84203D215B1009860B32CE020686E
:1043B000416821F0E00141606068B0F5827F0BD177
:1043C000A068B0F5004F02D0B0F5806F04D120682E
:1043D000016821F040010160A06AB0F5005F09D1D9
:1043E0002068016821F4005101602068016841F4EF
:1043F00000510160012084F85100002084F8500031
:104400000320BDE8F8830025401E009020688168E5
:1044100038EA010004D000214945BDD10020F0E771
:104420000121F9E7340100207047704730B58FB0A3
:1044300028216846FBF7E4FE14210AA8FBF7E0FEFA
:1044400001210804CDE90010002402940225049102
:10445000CDE907504FF4E01009906846FEF720F9C7
:1044600008B172B6FEE70F20CDE90A054FF480606F
:10447000CDE90C400E9002210AA8FEF715F800289D
:1044800001D072B6FEE70FB030BD0000024901480E
:10449000086070470000010808ED00E00148FEF7E1
:1044A000B6BF0000C80A0020FFF728BBFFF736BBE5
:1044B000FFF748BBF0B50268204C214D214E224F3A
:1044C000224B4FF0804CA04209D0984207D0604563
:1044D00005D0A84203D0B04201D0B84204D122F0A6
:1044E000700E4A6842EA0E02A04209D0984207D0F4
:1044F000604505D0A84203D0B04201D0B84203D1F4
:1045000022F44075CA682A434D6922F080022A438A
:1045100002608A68C2620A688262A04201D0984240
:1045200001D109690163012141610169C90703D012
:10453000016921F001010161F0BD0000002C014082
:104540000004004000080040000C0040003401401E
:1045500010B5846842EA032224F47F440A432243CC
:10456000826010BD826822F070020A4342F00701A7
:104570008160704710B5036A046A24F00104046284
:10458000846924F0F00444EA021423F00A020A4386
:104590008461026210BD10B5036A046A24F010043D
:1045A0000462846923F0A00324F4704444EA0232D4
:1045B00043EA01118261016210BDFFF717BBFFF7EB
:1045C00059BB000070B5044600680169E26821F437
:1045D0004051114301612169A068084361690843A2
:1045E0002168CA6841F20C639A430243CA6020689A
:1045F0004169A26921F44071114341611E4920685B
:10460000884202D1FEF716F801E0FEF703F800EB4E
:10461000C00101EB0012606864218000B2FBF0F37E
:10462000B3FBF1F36FF018067343B2FBF0F5B2FB86
:10463000F0F605EB8305322303EB0515B5FBF1F529
:10464000B6FBF1F605F0F00505EB0615B2FBF0F64A
:10465000B2FBF0F0B0FBF1F06FF01802504306EB44
:10466000800003EB0010B0FBF1F0216800F00F00B8
:104670002844886070BD0000003801408162828556
:10468000C28500214164222180F84210016921B1D4
:104690000168CA6842F48072CA6001684A6942F0DF
:1046A00001024A610068C16841F02001C160002038
:1046B000704701F0C7BDFEE7490050EAC12018BFAE
:1046C00004204A0D18BF40F0010040F2FF72B2EB27
:1046D000515F08BF40F00200012808BF0520704765
:1046E0000907090E002804DB00F1E02080F800141F
:1046F000704700F00F0000F1E02080F8141D7047B3
:104700002DE9F0414F1E00EBC7010446D1E900013D
:1047100015461E4637F006020DD02A463346FBF7F3
:10472000FCFE7F1E04EBC703D3E90023FBF74EFE1C
:1047300037F00602F1D1022F25D0042F13D0062F17
:1047400018BFBDE8F0812A463346FBF7E6FED4E900
:104750000A23FBF73BFE2A463346FBF7DEFED4E98D
:104760000823FBF733FE2A463346FBF7D6FED4E98F
:104770000623FBF72BFE2A463346FBF7CEFED4E991
:104780000423FBF723FE2A463346FBF7C6FED4E993
:104790000223FBF71BFE2A463346FBF7BEFED4E995
:1047A0000023BDE8F041FBF711BE000000221346D4
:1047B00010460149FBF723BF0000F03F0122FBF741
:1047C0008DBFFBF703BE0022134610461146FBF7D0
:1047D00016BF40F2013200204FF0E041FBF77EBFF0
:1047E000024A00201107FBF779BF000001FDFFFF1F
:1047F00002E008C8121F08C1002AFAD170477047AA
:10480000002001E001C1121F002AFBD17047000007
:104810000149086070470000400100202DE9F04D7B
:104820008D4F21F0004A86B005460C46BA452ADB7A
:10483000AAEB070028430AD08848824501DC1AD138
:10484000CDB106B02846BDE8F04DFFF7B7BF844AAA
:10485000844B2846FBF761FE07460E46824A834B8F
:1048600028462146FBF759FE06B03A463346BDE8D6
:10487000F04DFBF7ABBD0120FFF7CAFF06B0BDE866
:10488000F04DFFF7A0BF7A48824542DABAF1795F6E
:104890000BDA2846FFF710FF042808BFFFF7A0FF38
:1048A000284606B02146BDE8F08D2A460B46104644
:1048B000FBF733FE834602466E480E460B46062142
:1048C0007844FFF71DFF5A463346FBF726FE804625
:1048D00069488A465A46334604217844FFF710FF58
:1048E0005A463346FBF719FE00223B46FBF76EFDA6
:1048F00002460B4640465146FBF781FE2A462346B8
:10490000FBF70BFE06B02A462346BDE8F04DFBF749
:104910005DBD284624F0004100223D463B46FBF7A2
:10492000F9FD4FF0FF32FBF7D9FE06460246534829
:104930000F460B4606217844FFF7E2FE32463B461F
:10494000FBF7EBFDCDE900014D4832463B46042123
:104950007844FFF7D5FE32463B46FBF7DEFD0022EA
:104960002B46FBF733FD834602913046394603F070
:1049700087FC804643480D46504517DCDDE90001C1
:104980005A46029BFBF73BFE42462B46FBF7C5FD12
:1049900042462B46FBF71AFD0122FBF79FFE304AE9
:1049A000304BFBF7B4FD304A304B4CE04FF0000A7F
:1049B00052460B464046FBF709FDCDE9031052462F
:1049C0002B4610461946FBF7A8FD32463B46FBF73F
:1049D000A1FDDDE90332FBF712FE06460F46DDE9D5
:1049E00000015A46029BFBF70AFE83460091012212
:1049F00030463946FBF772FE194A1A4BFBF78AFD1F
:104A000006460F46012240462946FBF767FE5A46F6
:104A1000009BFBF782FD32463B46FBF778FD0646DE
:104A20000F46012250462946FBF758FE0E4DDFF88F
:104A300058802A464346FBF76DFD32463B46FBF75E
:104A400069FD2A464346FBF765FD002CD8BF81F07F
:104A5000004106B0BDE8F08D0000F03F0000F07F9F
:104A6000075C143326A6913C182D4454FB21F93FD2
:104A70000000E03FA43D0000BA3D00002E3D0000D4
:104A8000443D00003333EF3FFB21E93F2DE9F84F70
:104A900004460D4621F0004000917349814211DC2B
:104AA0007249884201DC06D12CB120462946BDE876
:104AB000F84FFFF783BE6E48002DCCBF6D496E499D
:104AC000BDE8F88F6D49814211DD6D498142D8BF43
:104AD0004FF0FF366DDD20462946FFF7EDFD042837
:104AE00008BFFFF77DFE20462946BDE8F88F6549DF
:104AF000654F25F00045814233DD6449814219DD6F
:104B0000002632464FF0804320462946FBF75EFCE4
:104B100080468A46012220462946FBF7DFFD002217
:104B20003B46FBF7F4FC42465346FBF768FD044660
:104B30000D463EE001260022BA463B462046294665
:104B4000FBF744FC80460F46002253462046294688
:104B5000FBF7DDFC42463B46FBF751FD04460D46A4
:104B600027E04B4981421BDDDFF828A10226002205
:104B7000534620462946FBF7D0FC00223B46FBF774
:104B800025FC80460F460022534620462946FBF767
:104B9000BEFC42463B46FBF732FD04460D4608E0AC
:104BA000032622462B4600203B49FBF728FD0446FE
:104BB0000D4622462B4610461946FBF7AEFC8B46A7
:104BC000824602460B46FBF7A8FC074602463348DE
:104BD00088460B4606217844FFF792FD52465B4615
:104BE000FBF79BFC82462E488B463A4643460521FE
:104BF0007844FFF785FD3A464346FBF78EFC0246B4
:104C00000B46002E504659460CDAFBF7DFFB2246D6
:104C10002B46FBF782FC01B022462B46BDE8F04F45
:104C2000FBF778BCFBF7D2FB22462B46FBF775FC63
:104C30001C4A7A4402EBC603D3E90023FBF767FC66
:104C400022462B46FBF763FC174A7A4402EBC60365
:104C5000D3E90023FBF75EFC009A002AB8BF81F07D
:104C60000041BDE8F88F0000000010440000F07F14
:104C7000182D4454FB21F93FFB21F9BF0000DC3F14
:104C80000000203E0000F33F0000F03F0000E63F40
:104C9000008003400000F83F0000F0BFCE3B000062
:104CA0008C3B00002A3B0000F23A00002DE9F04D59
:104CB0009446CCF1000423F000464CEA0404594F1A
:104CC00046EAD4749A46884621F00042BC4206D88F
:104CD000454240EA050442EAD474BC4204D9BDE826
:104CE000F04D6246FFF76DBDAAF14055A5F17F6515
:104CF00055EA0C040BD0022404EAAA744A4DDFF8EA
:104D00002CE144EAD87452EA000B04D00CE0BDE870
:104D1000F04DFFF7BBBE002C14BF012CBDE8F08D99
:104D2000022C30D0032C32D056EA0C0B0AD0BE42F3
:104D300020D1BA4209D126F0804622F08042334683
:104D4000114617E000291ADB25E0DFF8E4B0FB4448
:104D5000002C04BFDBE90001BDE8F08D012C02BF8F
:104D6000DBE9000181F00041BDE8F08D022C0AD0A2
:104D7000032C0CD0BA4212D1B8F1000F0BDA2A483A
:104D80002C49BDE8F08D28462B49BDE8F08D28461A
:104D90007146BDE8F08D24482849BDE8F08D921B8E
:104DA00012153C2AC4BF204F244E10DCBAF1000F6C
:104DB000BEBF12F13C0F00273E4608DB6246FBF700
:104DC0001EFC21F00041FFF761FE07460E4694B13C
:104DD000012C08BF86F000460DD0194A194B022C51
:104DE0003846314615D0FBF792FB2A46BDE8F04D18
:104DF000114BFBF78CBB0022134638463146FBF7BC
:104E0000D7FC04BF0220FFF703FD38463146BDE85A
:104E1000F08DFBF77CFB2A46BDE8F04D064BFBF717
:104E200079BB00000000F07F182D4454FB2109C01D
:104E3000863A0000FB21F9BFFB210940FB21F93F25
:104E4000075C143326A6A13C2DE9F04FA1B00E4615
:104E500004461D469246FE4F20216846FBF7D0F9D6
:104E60000020694654F8202041F82020401C0828E2
:104E7000F8DBDFF8E0830024894600BF59F82410EE
:104E80003846FBF7E1FC03D259F82470C8F83440E7
:104E9000641C082CF2DB4FF0000BC8F82CB0C8F8EB
:104EA00030B0D8F8340008274446002835DD0728FC
:104EB00057D0694601EB80075DF8200057F8041CC5
:104EC0000890FBF701FA20F0004879680898FBF792
:104ED000FBF920F000404146FBF7B6FC616B00D9BE
:104EE000491E481CE062C1F10700DB4B2063002033
:104EF000A3F1200C6A46884204DC52F8207043F883
:104F0000207006E0471A0CEB870752F8208047F81C
:104F1000048C401C0828EEDB2FE022D1DDE90001E3
:104F2000FBF792FC1BD101210720C4E90B10DFF82D
:104F300028830020A8F120034A4601E0884204DAD1
:104F400052F820C048F820C005E0A0EB010C52F850
:104F5000207043F82C70401C0828EFDB0DE0606BDC
:104F600080B1C4E90B7BBC4900204A4652F820308E
:104F700041F82030401C0828F8DBB648C46A5CB30E
:104F8000002727E0C4E90BB7B349002020394A467F
:104F900052F8203041F82030401C0828F8DBECE7BC
:104FA000AD4850F82780B0684146FBF793F9414679
:104FB000FBF790F90B9041467068FBF78BF931686D
:104FC000FBF730F90B99FBF72DF9A349203141F894
:104FD00027007F1CA742E3DB9E48006B5FEA0008C6
:104FE00023D0002607461EE09B48203850F82600B4
:104FF0000890DAF808000899FBF76CF90899FBF7B4
:1050000069F90B90DAF804000899FBF763F9DAF80C
:105010000010FBF707F90B99FBF704F98E494031B3
:1050200041F82600761CBE42DEDB8A485F46042C2F
:10503000C0F824B0C0F828B0C0F808B001DD211FC6
:105040004162B8F1040F02DDA8F104018162466AF1
:105050000EE0701CFBF759FB7F49203151F82610F8
:10506000FBF732F97C49761C983941F827007F1C00
:105070002046A642EDDB7749824640468F60896A2A
:10508000DFF8D481002608F14008441A0FE000BF81
:1050900006EB0A00401CFBF738FB58F82610FBF71C
:1050A00013F96D49761C983941F827007F1CB442EA
:1050B000EEDC684C684E5846A7600A974FF000082F
:1050C000983EC4F804B005E056F82810FBF7AAF89B
:1050D00008F10108B845F7DB06460A98FBF715FB0F
:1050E00001463046FBF728F95C4F064639466060BA
:1050F000FBF7EAF8E06139463046FBF793F82062A7
:10510000202113A8FBF77CF80020E06020615448C0
:105110000D9000201E90E069DFF838810B90D8F8E0
:105120002010FBF791FB78D20020C8F80C0006464F
:1051300004461F90D8E909A0C0F10801A1EB0A07B5
:105140000E904FE004EB0A008046FBF7DEFA0B9965
:10515000FBF7BAF84FF07E51FBF764F80890286926
:105160000899FBF7B7F80899FBF7B4F80899FBF72B
:10517000B1F80899FBF7AEF81D90E8680899FBF7BD
:10518000A9F80899FBF7A6F80899FBF7A3F8834656
:10519000A8680899FBF79EF80899FBF79BF8109010
:1051A00068680899FBF796F82968FBF73BF81099AF
:1051B000FBF738F85946FBF735F81D99FBF732F83D
:1051C00059F82810FBF780F8014613A8DFF884800F
:1051D00040F82410761CD8F80C00FBF723F8641C68
:1051E000C8F80C00A742ADDC1F98DFF868B0C0F12A
:1051F00008010E98A1EB0A015F46081AFBF785FA31
:105200000146F868FBF798F80024C7E90404BC617C
:10521000274682460DF14C080DE037E058F827008C
:105220005146FBF751F80146FBF754F82146FAF7CF
:10523000F9FF04467F1CB742F0DB5F463046CBF8EF
:105240001440FBF762FA01462046FBF775F809E0C7
:1052500000401CC698000020580400200000204098
:10526000002474490146B8610D98FBF7F7FA03D2A0
:10527000B8690D900B981E900B98FBF786FA074AB9
:10528000074BFBF7A3F8FBF7C3FA45E71E9821B0DD
:105290000449BDE8F04FFBF71DB800009A999999B1
:1052A0009999C93F00002041494810B50179C27958
:1052B000437941EA02618279464C120442EA0322B0
:1052C000114321600178C27841EA02618278407816
:1052D000120442EA002001433F486160016AA16074
:1052E000C16BE160816B2161416B61610168A1610A
:1052F000C169E1618169216241696162416AA162BA
:10530000816AE162C16A2163016B61634168A163E3
:105310008168E163C1682164006960642F48017994
:10532000C279437941EA02618279120442EA032296
:105330001143A1640178C27841EA02618278407821
:10534000120442EA002001432548E1640068FBF7AB
:1053500008FA20652348244A4178127841EA02413C
:10536000616504F17801406802F0B0FF04F1780053
:105370000188827849BA090441EA0221C2781143BE
:10538000A1658188827949BA0904C07941EA02217C
:10539000014304F1B400E1650188827849BA090447
:1053A00041EA0221C278114321668188827949BA93
:1053B000090441EA0221C279114361660189827AB6
:1053C00049BA0904C07A41EA02210143A16610BD2D
:1053D00080000020B8040020440100208800002044
:1053E00038000020D40000206800002010B50028FC
:1053F00021D0114B0022001F196803E0814203D81D
:105400000A4649680029F9D152B11368841A9C42AE
:1054100004D1006818441060104602E0506000E0BB
:10542000186039B102680B1A934203D10B681A4411
:1054300002604968416010BD380100202DE9F0414B
:10544000814DCEB00120A8702E78EEB320227F4986
:1054500022A8FAF7BCFE202101A8FAF7D1FE7B4F63
:10546000002420370DF1C8080FCF11941294139423
:10547000149488E80F0097E80F000DF1D8081594F0
:1054800016941794189488E80F0007F11001202251
:105490002AA8303FFAF79BFE202109A8FAF7B0FEB0
:1054A00060370DF1E8080FCF19941A941B941C94DF
:1054B00088E80F0097E80F003EAF1D941E941F94DC
:1054C000209487E80F0000E00FE0614A002001AB64
:1054D00011AF0DF1540C00BF52F8201043F820100A
:1054E000042806DA47F8201007E003204EB0BDE894
:1054F000F0810CEB800848F8101C401C0828EBDBFE
:10550000534A002009AB19AF0DF1740C12F12002BF
:10551000042852F8201043F8201002DA47F820102F
:1055200003E00CEB800848F8101C401C0828EFDB57
:105530000227012E3CD10DF594783B46042232A976
:1055400011A8CDF8008001F06BF847AE3B4604226D
:1055500036A915A8009601F063F842AF042308228B
:1055600001A922A8009701F05BF839490020F83121
:10557000424601E0032802DA52F820300CE0062807
:1055800004DA06EB800353F80C3C05E00B2805DA3F
:1055900007EB800353F8183C41F82030401C0B28DF
:1055A000E8DB2B482B4A0B21F83002F09DFEA87057
:1055B0002878A846022844D10226469445AD459451
:1055C000334604223AA919A80095479401F028F817
:1055D00042944394449442AC334604223EA91DA80D
:1055E000009401F01DF80427142148A8FAF708FEDA
:1055F00048AE3B46082209A92AA8009601F010F8F7
:105600000020154901E0032802DA55F820200CE0BB
:10561000062804DA04EB800252F80C2C05E00B2873
:1056200005DA06EB800252F8182C41F82020401CC5
:105630000B28E8DB094A0B21074802F055FE88F8E1
:105640000200002052E7000098000020BC850108FD
:10565000E8020020001003080C04002000200308CA
:1056600070B5194CA078012816D1E068002813D035
:105670000325012811D0022815D003280CD1134886
:105680000078012817D0022806D1114B114A12497F
:105690001248FFF7D9FBE06170BD114800F02AF80D
:1056A00000F050F905E002F051FEFFF7C7FE00F0F0
:1056B0006DF9E56070BD0B4B0B4A0C490C48FFF7C8
:1056C000C3FBA06170BD0000D40000209800002042
:1056D000AC030020A0030020940300200803002056
:1056E000C401002080030020740300206803002010
:1056F000E80200202DE9F047184F054690B0012040
:105700007870002640216846FAF77AFDDFF850A04D
:105710000024E8464FF0333955F82400FBF735F8FC
:105720004A465346FAF7F3FEFBF772F848F82400AE
:1057300055F824003146FBF791F801D255F8246062
:10574000641C102CE8DB0748074A102106606846F5
:1057500002F0CAFD787010B0BDE8F0879800002014
:1057600033330340E4000020000003082DE9F04734
:1057700086B00026012504AF03964FF47A74009793
:105780000496CDE901542B46324631216C48FCF792
:10579000A1FB00287DD19DF810001E28FAD10097AA
:1057A000CDE9015401230022D1216548FCF792FB89
:1057B0000028EFD19DF810000F28EBD10DF10C0857
:1057C000CDE900854FF0B60A8DF80CA001237E22AA
:1057D000302102945A48FCF7ABFC00287ED16420AB
:1057E000FCF7E4F88DF80C60CDF80080CDE90154A9
:1057F000B146464601237C2230215148FCF798FCF3
:1058000000286BD16420FCF7D1F804208DF80C003F
:105810000096CDE9015401237D2230214848FCF750
:1058200087FC00285AD16420FCF7C0F8A7208DF827
:105830000C000096CDE9015401234022302140485C
:10584000FCF776FC002878D16420FCF7AFF80097CD
:10585000CDE90154B8460123402230213848FCF7F5
:1058600039FB002868D19DF81000A72864D18DF875
:105870000C900096CDE901544F460123412230217E
:105880002F48FCF755FC002857D16420FCF78EF810
:1058900000E051E08DF80CA00096CDE90154012301
:1058A0001422D0212648FCF743FC002845D164206F
:1058B000FCF77CF88DF80C700096CDE901540123BB
:1058C0000F22D0211E48FCF733FC002835D164207C
:1058D000FCF76CF805208DF80C0000E02DE0009638
:1058E000CDE9015401231022D0211548FCF720FCFA
:1058F000002822D16420FCF759F88DF80C7000962E
:10590000CDE9015401231122D0210D48FCF710FCF0
:10591000002812D16420FCF749F8CDF80080CDE9C9
:10592000015401231122D0210548FCF7D3FA18B9FC
:105930009DF81000002800D0012006B0BDE8F087D7
:10594000BC05002030B591B00E4A1021684601F028
:1059500095FE0D4B0020694603F1200201E0072867
:1059600004DC51F8204043F8204005E002EB8005BC
:1059700051F8204045F8204C401C1028EFDB11B0B6
:1059800030BD0000000003082803002070B58CB073
:10599000294A0B21684601F071FE284B002003F1D3
:1059A0000C016C4601F10C0201E0032804DA54F802
:1059B000205043F8205010E0062806DA01EB80065C
:1059C00054F8205046F80C5C07E00B2805DA02EB8F
:1059D000800654F8205046F8185C401C0B28E4DB85
:1059E000174A0B21204601F049FE144B00202C33AE
:1059F00003F10C0101F10C0201E0032804DA54F870
:105A0000205043F8205010E0062806DA01EB80060B
:105A100054F8205046F80C5C07E00B2805DA02EB3E
:105A2000800654F8205046F8185C401C0B28E4DB34
:105A30000CB0012070BD00000010030868030020B6
:105A4000002003082DE9FF4FFF4C0D46064695B098
:105A50009146FE482168FAF73DFC0746FC4831684C
:105A6000FAF738FC3946FAF7DDFB8246F7486168F9
:105A7000FAF730FC0746F6487168FAF72BFC39460E
:105A8000FAF7D0FB8346F148A168FAF723FC0746F2
:105A9000EF48B168FAF71EFC3946FAF7C3FBC4F8C1
:105AA00000A0C4E901B0EB4C0646E8482168FAF7CB
:105AB00011FC0746E6482968FAF70CFC3946FAF764
:105AC000B1FB8046E1486168FAF704FC0746E0480C
:105AD0006968FAF7FFFB3946FAF7A4FB0190DB4847
