:020000040801F1
:10000000B84600208502010833270108D5170108EA
:100010003127010833050108692E0108000000009E
:10002000000000000000000000000000ED010108D9
:10003000610501080000000031020108E92B0108F8
:100040009F0201089F0201089F0201089F02010808
:100050009F0201089F0201089F0201089F020108F8
:100060009F0201089F0201089F0201089F020108E8
:100070009F0201089F0201089F0201089F020108D8
:100080009F0201089F0201089F0201089F020108C8
:100090009F0201089F0201089F0201089F020108B8
:1000A0009F0201089F0201089F0201089F020108A8
:1000B000892C0108952C0108992C01089F02010840
:1000C0009F0201089F0201089F0201089F02010888
:1000D0009F0201089F020108612E0108652E010898
:1000E0009F0201089F0201089F0201089F02010868
:1000F0009F0201089F0201089F0201089F02010858
:100100009F0201089F0201089D2C01089F0201081F
:100110009F2D0108A32D0108A12C0108A52C010881
:100120009F0201089F0201089F0201089F02010827
:1001300000F002F800F04AF80AA090E8000C8244AF
:100140008344AAF10107DA4501D100F03FF8AFF28C
:10015000090EBAE80F0013F0010F18BFFB1A43F0A5
:1001600001031847785F0000985F00000A4410F808
:10017000014B14F00F0508BF10F8015B240908BFFC
:1001800010F8014B6D1E05D010F8013B6D1E01F8F3
:10019000013BF9D1641E03D0641E01F8015BFBD161
:1001A0009142E4D37047000000230024002500267C
:1001B000103A28BF78C1FBD8520728BF30C148BFCA
:1001C0000B6070471FB51FBD10B510BD00F077F96B
:1001D0001146FFF7F7FF02F091FE00F095F903B426
:1001E000FFF7F2FF03BC00F09DF90000224B1968F5
:1001F0000868B0E8F00F80F30988BFF36F8F4FF005
:10020000000080F311884EF00D0E704700000000D2
:1002100006480068006880F3088862B661B6BFF3DC
:100220004F8FBFF36F8F00DF00BF00BF08ED00E00E
:10023000EFF30980BFF36F8F0F4B1A6820E9F00FBF
:10024000106008B54FF0500080F31188BFF34F8F56
:10025000BFF36F8F05F014F84FF0000080F31188A2
:10026000BDE8084019680868B0E8F00F80F3098815
:10027000BFF36F8F704700BFD8000020EFF30580F9
:10028000704700000948804709480047FEE7FEE73D
:10029000FEE7FEE7FEE7FEE7FEE7FEE7FEE7FEE736
:1002A00004480549054A064B70470000792C0108AF
:1002B00031010108B8400020B8460020B8420020B3
:1002C000B8420020B2F120030AD5C2F1200320FA7F
:1002D00002F001FA03F321FA02F140EA0300704749
:1002E00021FA03F04FF00001704710B5431C02E003
:1002F00010F8011B71B18107FAD14FF0013202C829
:100300008C1A8C4314EAC211F9D0C01A0A0603D021
:10031000C01E10BDC01A10BD0A0401D0801E10BD41
:100320000902FCD0401E10BD032A40F2308010F0BC
:10033000030C00F0158011F8013BBCF1020F624480
:1003400098BF11F801CB00F8013B38BF11F8013B11
:10035000A2F1040298BF00F801CB38BF00F8013BBE
:1003600011F0030300F07980083AC0F0088051F8DA
:10037000043B083A51F804CBA0E80810F5E7121D39
:100380005CBF51F8043B40F8043BAFF30080D20758
:1003900024BF11F8013B11F801CB48BF11F8012B24
:1003A00024BF00F8013B00F801CB48BF00F8012B47
:1003B000704702F0FF0343EA032242EA024200F0E0
:1003C00002B84FF000020429C0F0128010F0030CB4
:1003D00000F01B80CCF1040CBCF1020F18BF00F838
:1003E000012BA8BF20F8022BA1EB0C0100F00DB8E7
:1003F0005FEAC17C24BF00F8012B00F8012B48BF45
:1004000000F8012B70474FF0000200B513469446E8
:100410009646203922BFA0E80C50A0E80C50B1F15C
:100420002001BFF4F7AF090728BFA0E80C5048BF70
:100430000CC05DF804EB890028BF40F8042B08BF0E
:10044000704748BF20F8022B11F0804F18BF00F80A
:10045000012B704770477047704710B5203AC0F0C5
:100460000B80B1E81850203AA0E81850B1E81850B5
:10047000A0E81850BFF4F5AF5FEA027C24BFB1E8F2
:100480001850A0E8185044BF18C918C0BDE8104063
:100490005FEA827C24BF51F8043B40F8043B08BF6C
:1004A0007047D20728BF31F8023B48BF11F8012B33
:1004B00028BF20F8023B48BF00F8012B7047754663
:1004C00000F02CF8AE4605006946534620F00700C0
:1004D000854618B020B5FFF7E3FEBDE820404FF099
:1004E00000064FF000074FF000084FF0000B21F01E
:1004F0000701AC46ACE8C009ACE8C009ACE8C009EB
:10050000ACE8C0098D46704710B50446AFF30080D3
:100510002046BDE81040FFF762BE0000004870476B
:100520005440002001491820ABBEFEE7260002001F
:100530007047FEE770B5094DFF22134605F580763A
:1005400006E000BF10F8014B54402A5D5A40335D6D
:10055000491E89B2F6D243EA022070BD745E0108DA
:10056000704772B6FEE7000006490020C8610648E1
:10057000016941F004010161016941F0400101613B
:10058000704700006027002000200240064A00213A
:10059000D16106490A6942F002020A6148610869AC
:1005A00040F04000086170476027002000200240B2
:1005B000044B0022DA61044A136943F0010313611A
:1005C000018070476027002000200240144800226C
:1005D000C168CB06134904D5CA6942F00202CA6158
:1005E0001022C3685B0705D5CB6943F00103CB61DB
:1005F00042F00402C369DB0707D0CB6943F0040370
:10060000CB61C16921F00101C161A2F5807101399D
:1006100001D0C2607047C16921F00101C16170471A
:10062000002002406027002070B5054600F0EAF97E
:100630000646114C09E0681C07D025B100F0E2F92C
:10064000801BA84201D9032070BDE068C007F2D129
:10065000E068800601D52020E060E068C00605D48F
:10066000E069C00702D1E068400703D5FFF7AEFF9D
:10067000012070BD002070BD00200240064810B56A
:100680004FF0FF31016100220261C160C26000F0E1
:1006900025FA002010BD0000001002402DE9F047AF
:1006A000054626480F460126017E01290FD001216B
:1006B000814601762868DFF888804CF250340228A1
:1006C00008D0A2462046FFF7AFFFA8B131E00220D4
:1006D000BDE8F0872046FFF7A7FF08BB0120FFF722
:1006E00043FF2046FFF7A0FFD8F81010064621F080
:1006F0000401C8F810101CE04FF0FF303860AC68FF
:1007000011E02046FFF742FF5046FFF78DFFD8F873
:100710001010060021F00201C8F8101001D03C6052
:1007200007E004F50064D5E9020100EBC120A04216
:10073000E7D8002189F818103046C9E76027002063
:10074000002002400348016941F08001016100205E
:1007500070470000002002402DE9F05F07461C486A
:1007600088460024017E15461E46012909D0012134
:10077000814601764CF2503A5046FFF755FF18B1CA
:1007800022E00220BDE8F09F012F02D0022F00D00E
:100790000427D346DFF83CA0220128463146FFF764
:1007A00091FD81B208EB4400FFF702FF5846FFF7C6
:1007B0003BFFDAF8102022F00102CAF8102018B925
:1007C000641CE4B2BC42E7D3002289F81820D9E7C0
:1007D0006027002000200240064900200A69120616
:1007E00007D5054A4A60054A4A600969090600D5E5
:1007F000012070470020024023016745AB89EFCDFF
:100800002DE9F84FDFF8C8910024A9F1040B234625
:100810000F2709F1040AABF1040ED1E00125A54030
:1008200006EA0502AA4276D1DFF8A8C14E68A6EB17
:100830000C0866452BD00DDC032E34D005DC36B316
:10084000012E19D0022E2FD11BE0112E16D0122E00
:100850002AD119E0B8F5881F19D006DCB8F5803F19
:1008600015D0B8F5801F1FD111E0B8F5001F0ED0CC
:10087000B8F5041F18D10AE0CB6815E0CB681B1D42
:1008800012E0CB6808330FE0CB680C330CE08B68C8
:100890002BB1012B4FF0080303D0456104E0042382
:1008A00002E0056100E00023FF2A01D8064601E0CE
:1008B00000F104064FEA840501D9A5F12005D6F818
:1008C000008007FA05FC28EA0C0803FA05F548EA57
:1008D0000508C6F800804D68ED0070D53E4DAE6944
:1008E00046F00106AE61AD6924F0030605F001058E
:1008F00000953A4D06EB050CDCF80850A607360FBC
:1009000007FA06F825EA0805DFF8D480404503D148
:100910004FF0000825E052E0DFF8C880404502D1E2
:100920004FF001081DE0DFF8C080404502D14FF0D4
:10093000020816E0DFF8B480404502D14FF003080A
:100940000FE0DFF8AC80404502D14FF0040808E02A
:10095000DFF8A080404502D14FF0050801E04FF0DC
:10096000060808FA06F848EA0508CCF808804D6839
:10097000D9F80060ED024D4601D5164300E09643DC
:100980002E604D68DAF80060AD02554601D5164379
:1009900000E096432E604D68DBF80060AD035D46D5
:1009A00001D5164300E096432E604D68DEF80060E6
:1009B000ED03754601D5164300E096432E60641C96
:1009C0000A681646E2407FF429AFBDE8F88F0000C0
:1009D0000804014000001110001002400000014016
:1009E00000080140000C01400010014000140140CB
:1009F00000180140001C01400AB101617047090460
:100A0000FBE700000148806870470000C800002034
:100A1000024881680278114481607047C800002054
:100A2000074810B5016841F010010160032000F093
:100A3000C7F80F2000F006F800F052F8002010BDB3
:100A40000020024030B50546204887B0C16941F01A
:100A50000101C161C06906A900F00100009001A870
:100A600000F068F90498B8B100F084F94000184922
:100A70004FF08042B0FBF1F11648491E0260416020
:100A800040F2E7320021C0E903218160816100F07A
:100A900087FB040003D015E000F06CF9E7E70D4890
:100AA00000F01AFC04000DD11C2000F05BF8102DA2
:100AB00007D2002229461C2000F062F80648056093
:100AC00000E0012407B0204630BD000000100240C5
:100AD00040420F0014270020CC0000207047000087
:100AE0000F4808B5816941F001018161816901F018
:100AF00001010091C16941F08051C161C0690022CA
:100B000000F0805000900F21901E00F039F8054849
:100B1000416821F0E06141F00071416008BD0000D2
:100B20000010024000000140002809DB00F01F0215
:100B3000012191404009800000F1E020C0F88012BE
:100B4000704700280DDB00F01F0201219140400991
:100B5000800000F1E020C0F88011BFF34F8FBFF399
:100B60006F8F7047002809DB00F01F0201219140C0
:100B70004009800000F1E020C0F80011704700003B
:100B8000F0B40E4B1B680C46C3F30223C3F10705F8
:100B9000042D00D90425191D072901D2002300E0E6
:100BA000DB1E012606FA05F1491E214099409E40B0
:100BB000761E16403143F0BC02F057B90CED00E050
:100BC000064900F0070208684FF6FF03184040EAA4
:100BD0000220034A10430860704700000CED00E05B
:100BE0000000FA05BFF34F8F05480168054A01F47C
:100BF000E06111430160BFF34F8F00BFFDE70000CC
:100C00000CED00E00400FA052DE9F0470F46050061
:100C100061D0434E306800F00700B84209D2306816
:100C200020F0070038433060306800F00700B84219
:100C300051D128683B4C810712D5400703D5606825
:100C400040F4E06060602878000703D5606840F4F5
:100C5000605060606068A96820F0F0000843606040
:100C60002878C00728D06868012810D02168022899
:100C700010D0890700292EDA616821F003010143B1
:100C80006160FFF7BFFE804641F288390DE02168C0
:100C90008903EFE78901EDE7FFF7B4FEA0EB080158
:100CA000494502D90320BDE8F0876068696800F013
:100CB0000C00B0EB810FEFD1306800F00700B842B4
:100CC0000BD9306820F0070038433060306800F0FE
:100CD0000700B84201D00120E5E72878400705D594
:100CE0006068E96820F4E0600843606028780007E5
:100CF00006D56068296920F4605040EAC100606050
:100D000000F058F86168084AC1F30311515CC8400B
:100D10000649086006480068FFF794FE0020C2E715
:100D20000020024000100240AA600108D400002008
:100D3000CC0000200F2202600C4A536803F003032A
:100D40004360536803F0F0038360536803F4E06387
:100D5000C36052684FF4E06303EAD20202610448C0
:100D6000006800F0070008607047000000100240B3
:100D7000002002400448054900684968044AC1F35C
:100D80000221515CC8407047D4000020001002408E
:100D9000BA6001080448054900684968044AC1F37B
:100DA000C221515CC8407047D400002000100240AE
:100DB000BA6001080E4A51680E4801F00C03042B7A
:100DC00011D0082B0FD10C48C1F38343C903C05C79
:100DD0000AD55168084AC1F34041921E515C054A48
:100DE0005043B0FBF1F0704704494843704700009E
:100DF0000010024000127A009A60010800093D00CC
:100E00002DE9F84F040070D02078C04DC00749D0BC
:100E10006868C0F38100012807D06868C0F38100CA
:100E2000022809D16868C00306D52868800339D52F
:100E300060680028E7D035E06068B0F5803F0BD0EF
:100E400010B1B0F5A02F11D0286820F480302860B0
:100E5000286820F4802002E0286840F48030286070
:100E6000606890B1FFF7CEFD06460AE0286840F4BE
:100E700080202860F0E700BFFFF7C4FD801B6428D6
:100E800073D828688003F7D50CE0FFF7BBFD064652
:100E900005E000BFFFF7B6FD801B6428F0D8286886
:100EA0008003F7D420789A4E80074FF001094FF065
:100EB000000839D5686810F00C0F07D06868C0F3D7
:100EC0008100022809D16868C00306D42868800719
:100ED00014D52069012808D110E02069B0B1C6F806
:100EE0000090FFF78FFD074605E00AE1FFF78AFD56
:100EF000C01B0228C4D828688007F7D52868616914
:100F000020F0F80040EAC10028600DE0C6F800803B
:100F1000FFF778FD074604E0FFF774FDC01B0228C9
:100F200023D828688007F7D4207800072CD5794883
:100F3000A169D9B1C0F80090FFF764FD074604E04D
:100F4000FFF760FDC01B02280FD8686A8007F7D53D
:100F500071484FF4FA510068B0FBF1F0009000BF07
:100F60000098411E0091FAD20EE080E0C0F80080A7
:100F7000FFF748FD074604E0FFF744FDC01B0228C9
:100F800075D8686A8007F7D42078400760D5E8698B
:100F90000027C00008D4E86940F08050E861E869A3
:100FA000012700F0805000905C480168C90513D407
:100FB0000168834641F480710160FFF723FD82469A
:100FC00006E000BFFFF71EFDA0EB0A0064284ED824
:100FD000DBF80000C005F5D5E06801280AD008B1AB
:100FE000052813D0286A20F001002862286A20F022
:100FF000040002E0286A40F001002862E06841F243
:10100000883B98B1FFF7FEFC82460BE0286A40F06F
:1010100004002862EEE700BFFFF7F4FCA0EB0A0132
:1010200059455AD8286A8007F6D50CE0FFF7EAFC44
:10103000824605E0FFF7E6FCA0EB0A0159454CD8D3
:10104000286A8007F6D41FB1E86920F08050E86173
:10105000E06988B36968C1F38101022944D002289C
:10106000C6F8608004D0FFF7CDFC044638E034E0D9
:10107000FFF7C8FC074604E0FFF7C4FCC01B0228CA
:101080002BD828688001F7D4206AB0F5803F05D1BD
:101090006868A16820F4003008436860D4E908015A
:1010A0000843696821F4741108436860C6F86090C9
:1010B000FFF7A8FC044606E025E000BFFFF7A2FC0E
:1010C000001B022809D828688001F7D51BE000BF63
:1010D000FFF798FC001B022802D90320BDE8F88F17
:1010E00028688001F4D40EE00128F7D06868226AED
:1010F00000F48031914204D1616A00F4701088429A
:1011000001D00120EAE70020E8E7000000100240DB
:101110000000424280044242D4000020007000409F
:101120007047704770B590F83C20012A2CD00124FC
:1011300080F83C40022280F83D2003685A689D6890
:1011400022F070060A6832435A60104B02689A42D5
:101150000ED00F4B9A420BD0B2F1804F08D00D4BFE
:101160009A4205D00C4B9A4202D00C4B9A4204D1C1
:10117000496825F080031943916080F83D400021C3
:1011800080F83C10084670BD022070BD002C014064
:10119000003401400004004000080040000C004002
:1011A00010B5040003D094F83D0010B107E0012011
:1011B00010BD002084F83C00204600F01FF80220FB
:1011C00084F83D00211D206801F06EFD012084F8A7
:1011D000460084F83E0084F83F0084F8400084F81C
:1011E000410084F8420084F8430084F8440084F805
:1011F000450084F83D00002010BD000008B5304ACD
:101200000168304891420ED1C16941F00201C161CB
:10121000C069002200F00200009005211D20FFF7A8
:10122000AFFC1D2046E0284A91420ED1C16941F031
:101230000401C161C069002200F004000090052192
:101240001E20FFF79DFC1E2034E0204A91420ED163
:10125000C16941F00801C161C069002200F00800C5
:10126000009005213220FFF78BFC322022E0184A43
:1012700091420ED1C16941F01001C161C0690022E3
:1012800000F01000009005213620FFF779FC362091
:1012900010E0104A914211D1C16941F02001C161B1
:1012A000C069002200F02000009005213720FFF7E0
:1012B00067FC3720BDE80840FFF754BC08BD0000BC
:1012C000000400400010024000080040000C0040F4
:1012D000001000400014004090F83D10012901D09A
:1012E00001207047022180F83D100168CA6842F071
:1012F0000102CA6000680E4988420ED00D4988423A
:101300000BD0B0F1804F08D00B49884205D00B4973
:10131000884202D00A49884204D1816801F007015D
:10132000062903D0016841F00101016000207047E7
:10133000002C01400034014000040040000800403F
:10134000000C00400168CA6822F00102CA6001680E
:101350000A6A41F211131A4207D10A6A9B101A4213
:1013600003D10A6822F001020A60012180F83D10D1
:101370000020704770B5044690F83C000025012815
:1013800017D0012684F83C60022084F83D002068D4
:10139000826822F0770222F47F4282600868502837
:1013A00038D00DDC20284FD005DC90B3102811D1A7
:1013B0004AE0022070BD302846D040280AD13BE0E8
:1013C00060282FD070280DD0B0F5805F03D0B0F525
:1013D000005F12D0012584F83D60002084F83C00B5
:1013E000284670BDCB68D1E90121206801F0A2FC3C
:1013F0002068816841F0770109E0CB68D1E90121DB
:10140000206801F097FC2068816841F48041816088
:10141000E1E719E0CA684968206801F09DFC5021A5
:10142000206806E0CA684968206801F0A6FC6021CF
:10143000206801F089FCCEE7CA684968206801F09D
:101440008BFC40212068F4E7226801461046F0E753
:10145000704770B50446006801694FF00005C94344
:10146000890715D4C168C943890711D4E91E0161F0
:1014700001202077206880698007204602D0FFF78E
:10148000E7FF04E000F098F8204600F096F8257792
:1014900020680169C943490717D4C168C94349078E
:1014A00013D46FF004010161022020772068806965
:1014B00010F4407F204602D0FFF7CAFF04E000F09E
:1014C0007BF8204600F079F8257720680169C94348
:1014D000090716D4C168C943090712D46FF008017F
:1014E0000161042020772068C0698007204602D06F
:1014F000FFF7AEFF04E000F05FF8204600F05DF873
:10150000257720680169C943C90617D4C168C94352
:10151000C90613D46FF010010161082020772068FC
:10152000C06910F4407F204602D0FFF791FF04E02D
:1015300000F042F8204600F040F825772068016965
:10154000C943C90708D1C168C943C90704D1891E65
:101550000161204600F032F820680169C94309069C
:1015600009D4C168C943090605D46FF0800101613F
:101570002046FFF7D5FD20680169C943490609D413
:10158000C168C943490605D46FF040010161204696
:1015900000F01BF820680169C94389060BD4C168B3
:1015A000C943890607D46FF0200101612046BDE8D8
:1015B0007040FFF7B6BD70BD704770470068B0F16E
:1015C000804F01D1FFF724BA7047704770B504000F
:1015D00004D094F84100002510B106E0012070BD50
:1015E00084F84050204600F023F8242084F841007D
:1015F0002068C16821F40051C160204601F0D4FB8D
:101600002068016921F4904101612068416921F05D
:101610002A0141612068C16841F40051C1606564DC
:10162000202084F8410084F842006563002070BDEA
:10163000F0B585B0002400940194029403940768E7
:101640005D485B4D5B4902220323C6144FF4806C56
:10165000AF4224D1CD6945F40025CD61CD6905F4B3
:10166000002504958D6945F010058D618969054651
:1016700001F01001CDE90331CDE900C26946FFF761
:10168000BFF8CDE90064694628460294FFF7B8F830
:10169000002205213420FFF773FA342030E0DFF810
:1016A0001CE1042577452FD1CE6946F48016CE6122
:1016B000CE6906F4801604968E6946F010068E6197
:1016C0008E6906F0100604968E6946F020068E613B
:1016D0008969039301F020010491A902CDE9001268
:1016E0006946FFF78DF8CDE9005469463448029405
:1016F000FFF786F8002205213520FFF741FA352053
:10170000FFF730FA05B0F0BD2E48874226D1C869F0
:1017100040F40030C861C86900F400300490886962
:1017200040F0040088618869CDE9005200F00400AF
:10173000CDE90330244D69462846FFF761F80820BB
:10174000CDE90004694628460294FFF759F80022C3
:1017500005212620FFF714FA2620D1E71B488742EF
:10176000D0D1C86940F48020C861C86900F48020E5
:101770000490886940F0080088618869144D00F081
:101780000800CDE90330CDE900C269462846FFF7DD
:1017900037F8CDE90064694628460294FFF730F82F
:1017A000002205212720FFF7EBF92720A8E70000FA
:1017B000004C00400010024000100140005000406A
:1017C000001401400044004000080140004800406F
:1017D000000C0140FEE70000074910B509686FF0F2
:1017E000010008610448FFF7ADFD044801210068CD
:1017F000BDE8104001F034BC8C24002064000020BF
:10180000074910B509686FF0010008610448FFF747
:1018100099FD044801210068BDE8104001F020BC9A
:10182000D424002060000020074910B509686FF03B
:10183000010008610448FFF785FD044801210068A4
:10184000BDE8104001F00CBC1C2500205800002011
:1018500023496FF001000968086122484FF6FF72C2
:1018600000230168914200D303600168491C0160B4
:101870001D490868904200D30A601C4802781C4841
:1018800092B10B685B1C0B600121012A12D0022A65
:1018900015D0042A21D0032A0ED0052A11D0062AF9
:1018A00011D0072A13D019E00B60037043708370C6
:1018B000C37013E0017011E00170022B0ED3417070
:1018C0000CE0017000E04170022B06D206E00170CE
:1018D000022B03D34170042B00D3817001F0D6BAE0
:1018E000642500200C000020840000202700002038
:1018F00038000020074910B509686FF00100086141
:101900000448FFF71FFD044801210068BDE81040AE
:1019100001F0A6BBAC2500205C0000201A4830B4C2
:101920000168041D20684A06C3B2184810D5C28C4D
:1019300042B1026A12F8015B25600262C28C521E3B
:10194000C28405E0104A0C32146824F0400414608C
:10195000890617D50E4A6FF00101146821611468D9
:101960002161C18D846A0C44491CC1852370C38DDB
:101970000021632B00D3C1851068416230BC04484C
:10198000FFF7AABC30BC704700440040842600200A
:10199000D42400201A4830B40168041D20684A0687
:1019A000C3B2184810D5C28C42B1026A12F8015B6A
:1019B00025600262C28C521EC28405E0104A0C32BD
:1019C000146824F040041460890617D50E4A6FF09D
:1019D00001011468216114682161C18D846A0C447D
:1019E000491CC1852370C38D0021632B00D3C185A1
:1019F0001068416230BC0448FFF76EBC30BC7047D1
:101A000000480040CC2600201C2500201A4830B495
:101A10000168041D20684A06C3B2184810D5C28C5C
:101A200042B1026A12F8015B25600262C28C521E4A
:101A3000C28405E0104A0C32146824F0400414609B
:101A4000890617D50E4A6FF00101146821611468E8
:101A50002161C18D846A0C44491CC1852370C38DEA
:101A60000021632B00D3C1851068416230BC04485B
:101A7000FFF732BC30BC7047004C0040F42500201A
:101A8000AC25002070B51C48056841681B4CCEB2DF
:101A9000690613D5E18C41B1216A11F8012B42602E
:101AA0002162E08C401EE08408E0C16821F0400122
:101AB000C160002240211248FEF79EFFA8061AD5F9
:101AC00010496FF001000A6810610A681061E08D2A
:101AD000A26A0244401CE0851670E28D40F2277332
:101AE00000209A4200D3E08509684862BDE8704052
:101AF0000448FFF7F1BB70BD005000403C260020B9
:101B0000000C01408C240020F0B5002423460BE09B
:101B1000CD181B1DAF782E88ED7867F31F4646EA77
:101B2000056540F82450641C9342F1D3F0BD70B5B4
:101B300000231C4611E011F82350055531F82350BD
:101B40002E0A05196E7051F82360360CAE7051F8EC
:101B500023605B1C360EEE70241D9442EBD370BDE7
:101B60007CB5044600880E46C0F3C500382802D272
:101B7000C0F1380501E0C0F1780508222146684629
:101B8000FFF7D5FF2A460849204600F07BFB0822D4
:101B90006946204600F076FB102204F10801304629
:101BA000FFF7C5FF7CBD0000880000200021016018
:101BB0004160054981600549C1600349C94301612C
:101BC0000249C943416170470123456789ABCDEFA5
:101BD0002DE9F0410446C0B054F8048B402294E84B
:101BE000E0006846241FFFF78FFF05EA060027EA9A
:101BF00005010843FE49009B014403EB080008442B
:101C000005EB706000EA050126EA00021143F94A7B
:101C10001144019A3A44114400EB315101EA0002A7
:101C200025EA01073A43F44F3A44029F3E443244C6
:101C300001EBF23202EA010620EA02073E43EF4FCF
:101C40003E44039F3D44354402EBB52505EA0206B8
:101C500021EA05073E43EA4F3E44049F384430449E
:101C600005EB706000EA050622EA00073E43E54FF7
:101C70003E44059F3944314400EB315101EA0006EE
:101C800025EA01073E43E04F3E44069F3A44324472
:101C900001EBF23202EA010620EA02073E43DB4F83
:101CA0003E44079F3D44354402EBB52505EA020654
:101CB00021EA05073E43D64F3E44089F384430444E
:101CC00005EB706000EA050622EA00073E43D14FAB
:101CD0003E44099F3944314400EB315606EA000185
:101CE00025EA060739430A9FA1F524413A444F39B2
:101CF000114406EBF13101EA060220EA01073A43FA
:101D0000C54F3A440B9F3D442A4401EBB22202EAFC
:101D1000010526EA02073D43C04F3D440C9F38446D
:101D2000284402EB706000EA020521EA00073D4307
:101D3000BB4F3D440D9F3E44354400EB355505EA0D
:101D4000000622EA05073E43B64F3E440E9F394443
:101D5000314405EBF13101EA050620EA01073E4373
:101D6000B14F3E440F9F3A44324401EBB22202EAA3
:101D7000050621EA05073E43AC4F3E44019F384427
:101D8000304402EBF06000EA010622EA01073E431C
:101D9000A74F3E44069F3D44354400EBF55505EA08
:101DA000020620EA02073E43A24F1A443E440B9F1C
:101DB0003944314405EBB14101EA000625EA000748
:101DC0003E439D4F3E44324401EB323202EA050667
:101DD00021EA05073E43994F3E44059F384430446D
:101DE00002EBF06000EA010622EA01073E43944F4D
:101DF0003E440A9F3D44354400EBF55505EA020692
:101E000020EA02073E438F4F3E440F9F394431443E
:101E100005EBB14101EA000625EA00073E438A4F7F
:101E20003E44049F3A44324401EB323202EA050652
:101E300021EA05073E43854F3E44099F384430441C
:101E400002EBF06000EA010622EA01073E43804F00
:101E50003E440E9F3D44354400EBF55505EA02062D
:101E600020EA02073E437B4F3E44039F39443144FE
:101E700005EBB14101EA000625EA00073E43764F33
:101E80003E44089F3A44324401EB323202EA0506EE
:101E900021EA05073E43714F3E440D9F38443044CC
:101EA00002EBF06000EA010622EA01073E436C4FB4
:101EB0003E44029F3D44354400EBF55505EA0206D9
:101EC00020EA02073E43674F3E44079F39443144AE
:101ED00005EBB14101EA000625EA00073E43624FE7
:101EE0003E440C9F3A443244059E01EB3232064494
:101EF00082EA01005D4F684038443044089E02EB9E
:101F000030702E4480EA0205594F4D403D4435441F
:101F10000B9E00EB75550E4485EA0001554F51406C
:101F2000394431440E9E05EB3141164481EA0502E5
:101F3000514F42403A443244019E01EB7222064422
:101F400082EA01004D4F684038443044049E02EB61
:101F500030702E4480EA0205494F4D403D443544DF
:101F6000079E00EB75550E4485EA0001454F514030
:101F7000394431440A9E05EB3141164481EA050299
:101F8000414F42403A4432440D9E01EB72220644D6
:101F900082EA01003D4F68403844304402EB307023
:101FA0005E1980EA02053A4F4D403D443544039E98
:101FB00000EB75550E4485EA0001364F5140394417
:101FC0003144069E05EB3141164481EA0502324F49
:101FD00042403A443244099E01EB7222064482EAAE
:101FE00001002E4F68403844304402EB307057E017
:101FF00078A46AD756B7C7E8DB702024EECEBDC1FF
:10200000AF0F7CF52AC68747134630A8019546FDD9
:10201000D8988069AFF7448BBED75C892211906B4A
:10202000937198FD8E4379A62108B44962251EF666
:1020300040B340C0515A5E26AAC7B6E95D102FD6FC
:102040005314440281E6A1D8C8FBD3E7E6CDE121D1
:10205000D60737C3870DD5F4ED145A4505E9E3A932
:10206000F8A3EFFCD9026F678A4C2A8D4239FAFF38
:1020700081F6718722619D6D0C38E5FD44EABEA4AE
:10208000A9CFDE4B604BBBF670BCBFBEC67E9B28A3
:10209000FA27A1EA8530EFD4051D880439D0D4D9B8
:1020A0000C9E654F2E4480EA02054D403D44354468
:1020B0000F9E00EB75550E4485EA00015F4F5140BD
:1020C00039443144029E05EB3141164481EA050250
:1020D0005B4F42403A44324401EB7222034462EACD
:1020E0000500584E484030441844079B02EBB0604E
:1020F0001D4460EA0103544E534033442B440E9D6B
:1021000000EBB3530D4463EA0201504E41403144A9
:10211000294403EB714505994D4E0A4465EA0001D7
:102120005940314411440C9A05EBF121024461EA13
:102130000300484E684030441044039A01EBB060FD
:10214000134460EA0502444E4A4032441A440A9B52
:1021500000EBB2521D4462EA010343403F4E334458
:102160002B44019D02EB73430D4463EA00013C4E96
:10217000514031442944089D03EBF121054461EAB3
:102180000200384E5840304428440F9D01EBB060A7
:10219000154460EA0302344E4A4032442A44069D04
:1021A00000EBB2521D4462EA0103304E4340334417
:1021B0002B440D9D02EB73430D4463EA00012C4E4A
:1021C000514031442944049D03EBF121054461EA67
:1021D0000200284E5840304428440B9D01EBB0606B
:1021E000154460EA0302244E4A4032442A4400EB7C
:1021F000B255029A214E134465EA0102424032442C
:102200001A44099B05EB72420B4462EA00011C4E22
:10221000694031441944236802EBF12118442060DD
:10222000606808446060A0681044A060E0682844CA
:10223000E06040B0BDE8F081E599DBE6F87CA21FE4
:102240006556ACC4442229F497FF2A43A72394ABD4
:1022500039A093FCC3595B6592CC0C8F7DF4EFFFE2
:10226000D15D84854F7EA86FE0E62CFE144301A368
:10227000A111084E827E53F735F23ABDBBD2D72A60
:1022800091D386EB2DE9F047054616462A680F469E
:10229000C2F3C50102EBC60200202A60B2EBC60FF2
:1022A0006A68C1F1400401D2521C6A6002EB5672A6
:1022B0006A60A64218D36818224639461830FEF7DD
:1022C00033F805F1080005F118018146FFF780FC9D
:1022D000204604E039184846FFF77AFC404600F1F2
:1022E0004008B045F6D90021321A3B186818BDE8FD
:1022F000F04719461830FEF717B8000010B5002057
:1023000000F08CFE124C6064002000F087FEE06458
:10231000002000F083FEA064002000F07FFE206516
:102320000C4A00210C4800F04BFF0022606511466A
:102330000A4800F045FF00221146094800F040FF1E
:102340000022BDE810401146064800F039BF0000E9
:102350001400002074600108352701084943010872
:10236000F93D01088D48010870B586B00025234865
:102370000095019502950395816941F020018161E5
:10238000816901F020010491816941F004018161BA
:10239000816901F004010491816941F008018161C2
:1023A000816901F008010491816941F010018161A6
:1023B0008069134E00F01000049000224021304646
:1023C000FEF71AFB402001248DE831000225694602
:1023D00030460395FEF714FA0320CDE90054CDE909
:1023E0000240084C69462046FEF70AFA0122022103
:1023F0002046FEF701FB06B070BD00000010024051
:10240000000C01400008014010B586B000241748B8
:102410000094019402940394049413490594016078
:102420003121C0E9011441F61F41C0E90314846160
:10243000FEF7B6FE08B1FEF794F84FF48050009016
:1024400069460A48FEF796FF08B1FEF78AF8049439
:1024500004A906480594FEF765FE002801D0FEF7A2
:1024600080F806B010BD0000000400408C2400205D
:1024700010B586B000241748009401940294039488
:1024800004941349059401603121C0E9011441F617
:102490001F41C0E903148461FEF782FE08B1FEF714
:1024A00060F84FF48050009069460A48FEF762FFDA
:1024B00008B1FEF756F8049404A906480594FEF7FF
:1024C00031FE002801D0FEF74CF806B010BD000028
:1024D00000080040D424002010B586B0002417481E
:1024E00000940194029403940494134905940160A8
:1024F0003121C0E9011441F61F41C0E90314846190
:10250000FEF74EFE08B1FEF72CF84FF48050009015
:1025100069460A48FEF72EFF08B1FEF722F8049438
:1025200004A906480594FEF7FDFD002801D0FEF73A
:1025300018F806B010BD0000000C00401C2500205B
:1025400010B586B0002417480094019402940394B7
:1025500004941349059401600921C0E9011441F66E
:102560001F41C0E903148461FEF71AFE08B1FDF7AC
:10257000F8FF4FF48050009069460A48FEF7FAFED3
:1025800008B1FDF7EEFF049404A906480594FEF790
:10259000C9FD002801D0FDF7E4FF06B010BD000022
:1025A00000100040642500201CB500240E48009453
:1025B0000C49019401603121C0E9011441F61F4129
:1025C0008461C160FEF7ECFD08B1FDF7CAFF00941D
:1025D000694605480194FEF7A5FD002801D0FDF7E6
:1025E000C0FF1CBD00140040AC25002010B5134CEA
:1025F00011480C2120604FF4612060600020A06031
:10260000E060C4E90401A061E0612046FEF7DEFF5E
:1026100008B1FDF7A6FF08480C30016821F0400121
:1026200001602068C16841F02001C1602068C16874
:1026300041F01001C16010BD004C0040F4250020A5
:1026400070B5104C0E4D4FF4E130C4E9005000203D
:10265000A0600C21E060C4E90401A061E0612046B3
:10266000FEF7B4FF08B1FDF77CFFE86820F04000FA
:10267000E8602068C16841F02001C16070BD0000C1
:10268000005000403C26002010B5134C11480C218E
:1026900020604FF4612060600020A060E060C4E929
:1026A0000401A061E0612046FEF790FF08B1FDF74C
:1026B00058FF08480C30016821F040010160206893
:1026C000C16841F02001C1602068C16841F010017B
:1026D000C16010BD004400408426002010B5134C9A
:1026E00011480C2120604FF4612060600020A06040
:1026F000E060C4E90401A061E0612046FEF766FFE6
:1027000008B1FDF72EFF08480C30016821F04001A8
:1027100001602068C16841F02001C1602068C16883
:1027200041F01001C16010BD00480040CC260020DF
:10273000FEE7FEE74FF4FA6000F056FCFE4DFF4F57
:10274000FF4CDFF800B44FF0000A00BFFE4E4FF020
:10275000FF3300220121306D00F0B8FC01F0ACF92C
:102760005046A5F82EA031790029EFD0824630716D
:102770003878207031786170F178A170717A49BB36
:102780007178032951D00629E0D1B17C00297DD090
:1027900086F812A020700620607084F802A01D2028
:1027A000E07084F804A0F07C60710621E448FDF735
:1027B000C1FE010AA171E07101224021E3482C62AF
:1027C000FEF71AF90820E884DBF80C1041F040010C
:1027D000CBF80C10707A0128B8D1707801287CD021
:1027E00003287BD00428B1D17E2020708020607027
:1027F0003878A070A220E07004202071022060715F
:102800000621CF48FDF796FE000AA0710621CC48AC
:10281000FDF790FEE0717F20207201224021CB481D
:102820002C62FEF7E9F80920C4E1707C01287DD014
:10283000DFF814E396F80280DFF8149300210EF11C
:10284000680E00BF01EB080204EB410039F81230BA
:102850004FEA132C80F803C003713EF812304FEAA0
:10286000132C80F809C08372B74B583333F81230F9
:102870004FEA132C80F80FC00374B34B603333F866
:102880001220130A43758275491C00E091E0C9B219
:102890000329D7D384F81BA0B079F1790346327AA3
:1028A000084310437DD0C807400F03F0010140EA00
:1028B000410002F001010843A14920771D31306A2F
:1028C00001F08CFA84F825A084F826A084F827A0CB
:1028D00084F828A084F829A001E071E08FE084F852
:1028E0002AA084F82BA084F82CA084F82DA0994B62
:1028F00084F82EA000202218195C401CC0B282F877
:102900002F100C28F7D3F1788D48C91CFDF712FE63
:10291000F278010A2244D1701071012240218B48C3
:102920002C62FEF769F8F078401D00E009E0E884C9
:10293000DBF80C1041F04001CBF80C1086F804A035
:1029400048E7DFF8148286F811A0002098F800907C
:1029500008EB0002537892F817C063450AD192F849
:102960002D20934206D12218401CC0B2D3701428E7
:10297000EED305E0E11C306A01F030FA4FF00909AE
:1029800084F802906E4809F10301FDF7D3FD04EBD2
:102990000901020ACA700871012240216B482C62A9
:1029A00000E004E0FEF728F809F10500BDE7504615
:1029B00082E77179217084F803A084F804A0F3E61B
:1029C0007E202070802060703878A070A220E07097
:1029D0000220207105215A48FDF7ACFD010A617102
:1029E000A0717F20E0715C485830FFF7DFF80122CA
:1029F000402156482C62FDF7FFFF0820DAE05248DC
:102A0000C17A807A81427CD872B6FDF7E5FE4E48E5
:102A1000C07A012815D1DFF844810026814650484C
:102A200008EBC621C0F800A0C0E902194D49FDF726
:102A300035FE4FF47A70FDF7F7FD761CB6B23E2EE8
:102A4000EDD300264FF0FF39DFF8FC8017E0027B62
:102A5000A96A98F80B000A44092101EB860140029B
:102A6000525800EB86014048002301440220FDF744
:102A700073FE4FF47A70FDF7D7FD761CB6B2B8F846
:102A80001420404609EB9201B142E0DC91B28A0881
:102A900036D001F00301012904D002290AD003290C
:102AA00018D10FE0037BAA6A1A440A2303EB8603BA
:102AB00002F803A0037BAA6A1A440B2303EB8603E4
:102AC00002F803A0037BAA6A1A440C2303EB8603D3
:102AD00002F803A0027BA96A98F80B000A440921B6
:102AE00001EB86014002525800EB86011E4800238C
:102AF00001440220FDF730FE4FF47A70FDF794FD9B
:102B000000E002E0FDF71EFE62B60F48C17A827A4D
:102B1000914257D1C28A104810495830FFF7B2FB92
:102B20000D49103901F16800FFF71AF87E20207076
:102B300080206070387819E03C26002008000020D2
:102B4000181B00200050004014000020000C014021
:102B500000000020B0230020DC2300200000020839
:102B6000BC2300201000002000FE0108A070A2205D
:102B7000E0700420207103206071184900202318A0
:102B80000A5C401CC0B29A711028F8D31621144870
:102B9000FDF7D0FC000AA07516211148FDF7CAFC0C
:102BA000E0757F202076012240210E482C62FDF73F
:102BB00023FF1920E884DBF80C1041F04001CBF82A
:102BC0000C10C3E57E202070802060703878A070E3
:102BD000A220E07004202071012010E6CC23002008
:102BE000181B0020000C014010B5502080F3118804
:102BF000BFF34F8FBFF36F8F02F086FF18B1044908
:102C00004FF080500860002080F3118810BD000054
:102C100004ED00E030B58FB028216846FDF7F3FBE6
:102C200014210AA8FDF7EFFB0920012100904FF4C1
:102C30008030002404910691CDE901040225CDE9FC
:102C400007504FF4E01009906846FEF7D9F808B134
:102C500072B6FEE70F20CDE90A054FF48060CDE99A
:102C60000C4002210AA80E94FDF7CEFF002801D0E7
:102C700072B6FEE70FB030BD0249014808607047E8
:102C80000000010808ED00E00148FEF7E2BB00008B
:102C900014270020FEF7A0BDFEF7B2BDFEF7C4BDAD
:102CA000FEF7D6BDFEF726BEF0B502681C4B1D4DE3
:102CB0001D4E1E4F1E4C4FF0804C984209D0A04232
:102CC00007D0604505D0A84203D0B04201D0B84239
:102CD00004D122F0700E4A6842EA0E02984209D0EE
:102CE000A04207D0604505D0A84203D0B04201D031
:102CF000B84203D122F44075CA682A434D6922F0D4
:102D000080022A4302608A68C2620A68826298422C
:102D100001D0A04201D10969016301214161F0BDE7
:102D2000002C01400004004000080040000C00405E
:102D30000034014010B5846842EA032224F47F4441
:102D40000A432243826010BD826822F070020A4367
:102D500042F007018160704710B5036A046A24F0ED
:102D600001040462846924F0F00444EA021423F0AC
:102D70000A020A438461026210BD10B5036A046A44
:102D800024F010040462846923F0A00324F4704446
:102D900044EA023243EA01118261016210BDFEF78A
:102DA00035BEFEF76FBE000070B5044600680169CD
:102DB000E26821F44051114301612169A068084390
:102DC000616908432168CA6841F20C639A4302436F
:102DD000CA6020684169A26921F4407111434161D0
:102DE0001E492068884202D1FDF7D4FF01E0FDF7BB
:102DF000C1FF00EBC00101EB00126068642180009C
:102E0000B2FBF0F3B3FBF1F36FF018067343B2FBC0
:102E1000F0F5B2FBF0F605EB8305322303EB051565
:102E2000B5FBF1F5B6FBF1F605F0F00505EB06157F
:102E3000B2FBF0F6B2FBF0F0B0FBF1F06FF018026D
:102E4000504306EB800003EB0010B0FBF1F021686B
:102E500000F00F002844886070BD00000038014079
:102E6000FEF75CBDFEF796BDFEE70907090E0028D8
:102E700004DB00F1E02080F80014704700F00F0040
:102E800000F1E02080F8141D7047000070B516486E
:102E9000194C4FF00005027814482168007802436D
:102EA000134800780243134807D0C82912D2BDE85E
:102EB000704000220221FDF79FBDB1F57A7FF6D365
:102EC00001220221FDF798FD2068B0F5FA6F00D9C4
:102ED000256070BD01220221FDF78EFD2068B0F54E
:102EE000967FF5D870BD0000090000200A00002080
:102EF0000B000020000801400C00002010B562B655
:102F0000FDF78EFDFFF786FE2E492D4840F6340270
:102F1000086200F63400886264238A848B8500206E
:102F2000C884C8852949284C0C6204F634048C6294
:102F30008A848B85C884C885254964340C6204F66C
:102F400034048C628A848B85C884C88521496434A2
:102F50000C6264348C628B848A85C884C8851E4C5C
:102F60001E491F4A6070A070E070431893F8E8375C
:102F70001354401CC0B20C28F7D3FFF7F5F9FFF744
:102F8000ADFBFFF75DFBFFF73FFAFFF771FAFFF7C5
:102F9000A3FAFFF7D5FAFFF707FBFFF727FBFFF7C9
:102FA00073FB104800782070022801D001202070A7
:102FB00000F0CAF8FFF7A2F900F0E2F8002010BD17
:102FC0005001002084260020E8090020CC260020A3
:102FD000F42500203C2600200800002000F0FF1F00
:102FE000B023002000F8030810B5EFF3058149B9BC
:102FF000EFF3108131B908490968022905D1EFF3CF
:10300000118111B16FF0050403E0002408B102F052
:1030100023F8204610BD00002801002010B54FF015
:103020000001EFF30582BAB9EFF31082A2B90B4A9F
:103030001268022A02D1EFF311826AB948B1D0E9CD
:1030400002202AB1202807D3104602F059F902E0E5
:1030500010B902F047F90146084610BD28010020CA
:1030600038B50C4610B1210E002902D06FF00300D4
:1030700038BDEFF3058149B9EFF3108131B911493A
:103080000968022919D1EFF31181B1B10021009132
:103090006A46214602F090F910B16FF0020038BD87
:1030A000009920460029FAD0074A4FF0805111605C
:1030B000BFF34F8FBFF36F8F38BD214602F036F953
:1030C00038BD00002801002004ED00E0F8B51D46E1
:1030D00016460C4610B1210E002902D06FF00300F5
:1030E000F8BDEFF3058149B9EFF3108131B9154906
:1030F0000968022905D1EFF3118111B16FF00500C4
:10310000F8BDF10701D0012300E00023B10701D58C
:10311000002200E001222146009502F055F9F30754
:103120006FF001016FF0020206D0844206D1F8BDB3
:103130000846F8BD1046F8BD0442FCD1002DF9D078
:10314000F6E7000028010020EFF3058058B9EFF3FF
:10315000108040B909490868022801D030B109E05F
:10316000EFF3118030B16FF0050070470120086067
:10317000002070474FF0FF3070470000280100200A
:1031800010B5EFF3058060B9EFF3108048B90B4933
:103190000868022802D0012806D00BE0EFF3118066
:1031A00040B16FF0050010BD0220086002F01CF86D
:1031B000002010BD4FF0FF3010BD0000280100209E
:1031C000F0B585B04FEA01034FF00004EFF305813D
:1031D0000394A1BBEFF3108189BB2149096802293F
:1031E00002D1EFF3118151BB48B3802618218DF82D
:1031F000104004AD42B3176807B13D4697691FB14F
:1032000039467F1E382F02D21779FF0702D00020DF
:1032100005B0F0BD576907B1BE08D2F808C0BCF1CF
:10322000000F0DD0D4685C2C18D312693AB137B1B5
:103230008DE806103246294602F027FC03900DE087
:10324000D7685FB912694AB903AACDE90012B2B2D0
:10325000294602F0EDFB012800D003940398D7E73C
:10326000280100202DE9F041134C0F460546666900
:103270002068001D01F0B2FD681C07D137B121683C
:10328000BDE8F0410D48091D01F006BE2068354437
:10329000B5424560216805D2A068BDE8F041091D2E
:1032A00001F0E2BD6068091D01F0DEFD206B854282
:1032B00000D22563BDE8F081D8000020702C0020EA
:1032C0002DE9F041054601F0F3FD2D4C2069401C2D
:1032D000206120682B4F10B1E06930B32BE02560EE
:1032E0002069012827D1002606EB860007EB800025
:1032F00001F0ACFD761C382EF6D3234801F0A6FD74
:103300002148143001F0A2FD1F48283001F09EFD35
:103310001D483C3001F09AFD1B48503001F096FDED
:10332000194860601430A06005E02068E96AC06A4E
:10333000884200D82560E06A401CE0626864E86A60
:10334000A169884200D9A06100EB800007EB8000F2
:10335000291D01F0A1FD01F0CBFDE06900280CD092
:103360002068E96AC06A884207D208494FF0805055
:103370000860BFF34F8FBFF36F8FBDE8F08100008F
:10338000D8000020C0270020202C002004ED00E001
:1033900038B501F08DFD104CA068C8B90F4801F098
:1033A00055FD0E48143001F051FD0C4820601430DA
:1033B00060600A4B00202833009003F15002102176
:1033C0000A2002F0D9F8A06010B105A101F00EFEAC
:1033D000BDE8384001F08CBD14010020842C002091
:1033E000546D72510000000030B4026C0B46002A8C
:1033F0000BD0C1681144C1604468A14201D3016887
:10340000C16030BC1846FCF78FBF30BC70472DE957
:10341000F041856B174604460026026C82B1C7B1A5
:10342000E068FCF781FFE168206C091AE16022681E
:10343000914202D26168081AE060022F16D017E0AC
:103440002068A8B9606802F0C3FB064600206060EF
:103450000EE0A068FCF768FF216CA0680844A0603B
:103460006168884204D32068A06001E005B16D1E48
:103470006D1CA5633046BDE8F08110B5044690F898
:10348000590058B101280CD002280FD0502080F3E9
:103490001188BFF34F8FBFF36F8FFEE7206B01F0F2
:1034A0003BFD2046BDE8104001F036BD10BD0000D8
:1034B00010484FF44061420706D0C01D0D4920F06E
:1034C0000700411AC1F540610B4A00230144C2E9DB
:1034D00000030839103A21F0070111604B600B60BE
:1034E0000B1AC0E9001393604FF000405360D060A6
:1034F00070470000543400203C010020144E154C4D
:10350000A6F29C474FF08058DFF84C9012E000BFC5
:1035100001F0CEFCF068C568281D01F05FFC206951
:10352000401E2061E068401EE06001F0E1FC28469A
:10353000FFF7A3FFE0680028EAD138680128F9D92D
:10354000C9F80080BFF34F8FBFF36F8FF2E7000021
:103550005C2C0020D800002004ED00E070B51D4672
:10356000049C51B1C4F80020C4E90F010121204698
:1035700002F036F884F84C5070BD2460F4E72DE971
:10358000F0470E46DDE909841746824691009946C8
:10359000089DA522206BFCF70CFF6FF00301206B48
:1035A00001EB8701084420F00707780707D0502077
:1035B00080F31188BFF34F8FBFF36F8FFEE72218A0
:1035C000315C82F83410315C11B1401C1028F6D304
:1035D000002684F84360382D00D33725E562C4E91E
:1035E0001356201D01F03DFC04F1180001F039FCD8
:1035F0002461C5F138006462A061666584F8586092
:103600004A465146384600F045FA2060B8F1000FAE
:1036100001D0C8F80040BDE8F087000030B511497E
:1036200000E011460A688242FBD34B685C18844272
:1036300003D1406818444860084643681C18944207
:1036400009D1084C103C2468A24209D052681A449F
:1036500042600A6812680260814200D0086030BD92
:103660000460F9E73C01002070B5002441600B4D77
:103670000061914206D8D11A8269914206D2011D99
:10368000686807E09A4203D2994201D3012403E01B
:10369000011D286801F0E8FB204670BD14010020E0
:1036A00010B5044601F004FCA06B28B15FF00004E3
:1036B00001F01EFC204610BD0124F9E730B589B0A9
:1036C000304D55E00498002806DADDE90601059A38
:1036D0009047049800284BDB069C606910B1201DC0
:1036E00001F07CFB02A800F0B9F8024604980A2811
:1036F0003ED2DFE800F00505053D263705053D26ED
:103700000598A169034601442046FFF7ADFF00B3C9
:10371000616A20468847E069012829D1002000908D
:103720000598A169002342181946204602F05AFB69
:1037300078B9502080F31188BFF34F8FBFF36F8F9C
:10374000FEE70598A06128B1811813462046FFF7CF
:103750008BFF0DE0502080F31188BFF34F8FBFF334
:103760006F8FFEE794F82C0010B9204601F0D4FBCF
:10377000002204A9A86802F085F80028A2D109B0A7
:1037800030BD0000140100202DE9FC410F46054624
:1037900001F06EFD01A800F061F80446019818B12F
:1037A00002F08EFABDE8FC81224EAFB1706800686D
:1037B000A8B30027291B3A46B06801F02BFC02F0A1
:1037C0007FFA0028EED11C494FF080500860BFF30B
:1037D0004F8FBFF36F8FE5E7A542EBD802F070FA89
:1037E00030682746C068C468201D01F0F7FAE06918
:1037F000012810D1A0692B4641193A462046FFF70F
:1038000033FF40B100200346014600902A4620467F
:1038100002F0E8FA20B1616A20468847C2E707E073
:10382000502080F31188BFF34F8FBFF36F8FFEE7F7
:103830000127BFE71401002004ED00E006484168BD
:10384000096829B14168C968C96849680163704756
:103850004FF0FF31FAE70000D800002070B50546B0
:1038600002F04CF9064E04463069844203D200F05F
:1038700009F8012000E0002028602046346170BD76
:1038800014010020F8B5194D1FE0C068C46806682F
:10389000201D01F0A3FA616A20468847E0690128EB
:1038A00013D1A0693044B04206D924616060211D63
:1038B000286801F0D9FA08E000200346014600908C
:1038C0003246204602F08EFA38B128680168002995
:1038D000DBD16968C5E90010F8BD502080F311887C
:1038E000BFF34F8FBFF36F8FFEE70000140100207E
:1038F00008484068401C4FF0500080F3118804D005
:10390000BFF34F8FBFF36F8FFEE7BFF34F8FBFF350
:103910006F8FFEE7440100200346002012B1994357
:1039200002D070470B42FCD001207047074C206842
:10393000016841B1C0680021D0F80000FFF724FF02
:10394000FFF7BCFEF3E701210020F7E71401002098
:103950002DE9F041044601F0ABFA94F9455004F129
:10396000240609E0606A48B1304602F071F908B1F6
:1039700001F0A0FB6D1E6DB2002DF3DC4FF0FF36A1
:1039800084F8456001F0B4FA01F092FA94F94450D9
:1039900004F1100709E0206948B1384602F058F9EF
:1039A00008B101F087FB6D1E6DB2002DF3DC84F8C9
:1039B0004460BDE8F04101F09BBA00002DE9F04100
:1039C0000546002701F054FC314E306808B9FFF776
:1039D0006FFDF06805424BD1C5B3083568070ED0BE
:1039E00005F00700C0F108000544680707D0502023
:1039F00080F31188BFF34F8FBFF36F8FFEE72DB3B6
:103A00007068854234D82248103001460C6801E0C5
:103A100020460C466168A94202D221680029F7D1EC
:103A200031688C4224D007682168016060680837DB
:103A3000411B10290FD96019420708D0502080F38C
:103A40001188BFF34F8FBFF36F8FFEE710E0416027
:103A50006560FFF7E3FD61687068401A7060B268E6
:103A6000904200D2B060F06801430020C4E9000138
:103A700002F026F9780707D0502080F31188BFF3B1
:103A80004F8FBFF36F8FFEE73846BDE8F08100002F
:103A90002C01002010B5031F4FF080741C601B1F09
:103AA00021F001011960191F024B0B6014394038D5
:103AB0000A6010BDF13801082DE9F84F0024DFF845
:103AC00008B34FF00109C14E2746C14D1AE13770C6
:103AD000A86A9BF80020015D914202D1A31CC35C3F
:103AE00013B17E2913D04AE00621FCF723FD010A19
:103AF000C3B2A86AA21D825C8A4240D1E11D405C2B
:103B000098423CD1A96A601C085C307035E0611CA9
:103B1000415C914233D1A11C415C80292FD1E11C31
:103B2000415CA1292BD1211D415C012927D1E11D37
:103B3000415C7F2923D120440521FCF7FBFC4FEA9F
:103B40001028A86A05212044FCF7F4FCC3B2A96A36
:103B5000601D0A5C424512D1A01D085C98420ED13E
:103B6000FCF78CFD4FF0FF384046FCF7EAFF40467B
:103B7000FCF7DAFF72B6FDF735F8EF85C6E0707A2C
:103B8000012875D1A86A015D7E2975D1611C9BF859
:103B90000020415C91420BD1A31CC35C802B07D158
:103BA000E31CC35CA22B03D1231DC35C032B06D0F3
:103BB000914271D1A11C415C802936D06CE0611D1D
:103BC000415CB172A11D415CF172E11D01442044D0
:103BD000098849BAB182093189B2FCF7ABFC4FEAD6
:103BE0001028B08A093081B2A86A2044FCF7A2FCF0
:103BF000C1B2F28AB08A0244F282AA6A00F10903D1
:103C0000224412F803C0C44507D15B1CD35C8B422D
:103C100003D10B30105C7F2804D00420707086F82C
:103C20000490AAE734730320F8E7E11C415CA22961
:103C300032D1211D415C05292ED120440821FCF7F9
:103C400079FC4FEA1028A86A08212044FCF772FC8E
:103C5000C3B2A86A04F10801425C424508D1491C7C
:103C6000415C994204D104F10A01415C7F2904D0EE
:103C7000A86A005D7E280FD042E0EF85A11D415C5F
:103C8000491EF173E11D415C491EB173611D405C29
:103C900070730520707039E0A86A611C425C9BF863
:103CA00000108A422CD1A11C415C802928D1E11C42
:103CB000415CA22924D1211D415C012920D1E11DB3
:103CC000415C7F291CD1F78220440521FCF732FC9E
:103CD0004FEA1028A86A05212044FCF72BFCC1B24A
:103CE000A86A621D835C43450AD1A21D805C88429C
:103CF00006D186F8019086F8099086F804903CE792
:103D0000641CE4B2E88DA0423FF6E1AE30780328AF
:103D100002D0062854D113E07070A96AE01C085C38
:103D2000B070012802D0262805D006E0641D085D89
:103D30004000F07001E086F8119086F804903FE0B2
:103D40007070A86AE11C415C11B11D2930D037E0C8
:103D5000015D7171641DF770045DA846012C01D0EE
:103D6000022C2DD172B6FCF737FD1A48DFF868A097
:103D700069460760C0E902A9FCF790FC4FF47A702D
:103D8000FCF752FC2246002351460120FCF7E4FCDC
:103D90004FF47A70FCF748FCFCF7D4FC62B6A8F844
:103DA0002E7086F804909AF800108BF8001007E047
:103DB000641D005DF074EF8586F8129086F804901B
:103DC000EF85BDE8F88F00000800002014000020F7
:103DD0003C260020BC23002000F8030870B50C46E8
:103DE0000546FCF782FA002202E0A95CA154521CAD
:103DF0008242FADB70BD0000FE48FF4FDFF8FCA3F3
:103E000000214FF001094FF0090B00244454491CD4
:103E1000C9B26429F9D3F94DB5F1300597F84100DD
:103E200010BB9AF8020004281ED2F4480C3880789F
:103E3000012819D0F248A5210170032141702021E9
:103E400081700A21C170047144718471ED49C4719B
:103E500004720862A1F826B0EB48016841F0400105
:103E60000160687AE8B38AE0687A00287ED1E34886
:103E70000C38807801281AD1E04908398978B1B125
:103E8000DF49A5220A7003224A7020228A7081F835
:103E900003900C714C718C71DA4ACC710C72116206
:103EA000A2F826B0D8490A6842F040020A60E979CF
:103EB00001292AD0A8B9D14808388078012824D00F
:103EC000CF48A5210170032141702021817002217A
:103ED000C170047144718471CA49C471047208626A
:103EE00000E012E0A1F826B0C748016841F04001A7
:103EF0000160C2483830C4800838C480C348C480D8
:103F0000BE482830C480243884709AF8020056468F
:103F1000042802D2E879012831D1B849091F8878EC
:103F2000042802D2401C887004E0B94985F8079043
:103F300081F80090B548A521C480B14801700321E3
:103F40004170202181701221C1700471447180F888
:103F50000690A221C171AB490472447208620A2022
:103F6000C884A948016841F0400100E007E0016011
:103F7000C820FFF739F8A148B470001D84700022F2
:103F80000121EB69E86CFFF7A1F8E863012802D092
:103F9000801C7DD000E100209A4E21E0B16A0A5CCD
:103FA000A52A1BD1421C8A5C032A17D1821C8A5C79
:103FB000202A13D1C21C8A5C012A08D0122A4CD0B4
:103FC000022A78D0F02A7BD00A2A73D006E0421D5C
:103FD0008A5C1AB9821D8A5C0E2A05D0401CC0B2C8
:103FE000F18D8142DAD8D7E0844A083A9470121DE4
:103FF0008AF80240947002F10803EC719A78521C1E
:10400000D2B29A70012A26D900F1110300F11202EE
:10401000CB5C8A5C03EB0222784B3833DA80C21D1A
:104020008B5C521C8A5C03EB0222744B3033DA80C7
:1040300000F10D028B5C521C8A5C03EB0222734B75
:10404000DA8000F10B020C308A5C085C6B4902EBF1
:1040500000202831C880F4859EE04FF47A70FEF786
:10406000C3FFF48564216348FCF7ABF96448A521DC
:104070000170032141702021817080F80390047148
:1040800044718471C47104723062A6F826B001E0F4
:1040900078E010E05C48016841F040010160642074
:1040A000FEF7A2FF55488AF80240001F8470EC71A9
:1040B00072E005E050E05149083981F80290CAE702
:1040C000F4856C7085F81090298B6A8B514E891A93
:1040D00029837E213170802171704F494846464ABC
:1040E0000978B170A221F17006213171697B71717B
:1040F000B0710020103A3318115C401CC0B2D97165
:104100001028F8D317214348FCF714FA000AF07579
:1041100017214048FCF70EFA30767F20DFF8FC804C
:104120007076012240213E48C8F82060FCF764FC0C
:104130001A21A8F826103B48C16841F04001C1602F
:10414000A87BE97B884227D32C4904200839887052
:1041500087F841406C721FE0F485831D87F8419019
:10416000CA5C87F82C200022084406E0D11DBB1849
:10417000415C521C83F82D10D2B297F82C1091425A
:10418000F4D809E01D480C388078012804D19AF849
:104190000200401C8AF80200687805287FF43EAED1
:1041A000687B0328FAD1154A083A907890B1904676
:1041B000012844D00228F1D1287C0128EED10E48F4
:1041C0005830FDF7F3FC288B4FF4006188425ED332
:1041D00069835DE00A48A521017003214170202117
:1041E00081700221C170047144718471C4710472C0
:1041F000044919E084090020DC2300204400002049
:1042000050010020842600200C44004000000020C3
:104210000A000020181B0020080000203C26002077
:10422000000C0140005000400862A1F826B041484F
:10423000016841F04001016082F80290EEE53E4ED7
:10424000A52007213070032070702020B070F1206D
:10425000F07034717471B4713046FCF76BF9000A78
:10426000F07107213046FCF765F930723348066279
:10427000A0F826B02F48016841F0400101600221FA
:1042800088F8021085F81090E88A2883C6E56883CC
:10429000E88A410501D0C00A02E0FF2101EBD020ED
:1042A000254EE873A5203070032070702020B07078
:1042B000F020F07034716A8B931C180A7071B3711E
:1042C000A97BF171E87B307200201D4B0AE000BF32
:1042D00000EBC12C06EB00081CF803C0401C88F85A
:1042E00009C080B29042F3D3134916480931FDF753
:1042F000C9FF144913486839FDF732FC688B09304F
:1043000081B20D48FCF716F9010A688B32180930A2
:10431000517281B20848FCF70DF9698B72180B31A4
:10432000907206480662C1840248016841F040016B
:10433000016073E50C4400405001002084260020F9
:104340000000020834240020FE49FF4FDFF8FCA3E0
:1043500000204FF001094FF0090B00240C54401CC1
:10436000C0B26428F9D3F94DB5F1300597F82B00A8
:1043700010BB9AF8010004281ED2F4480C3840788B
:10438000012819D0F248A521017003214170202194
:1043900081700A21C170047144718471ED49C47146
:1043A00004720862A1F826B0EB48016841F04001B0
:1043B0000160687AF0B389E0687A00287ED1E3482A
:1043C0000C384278012A19D1001D4078B0B1E0487C
:1043D000A5210170032141702021817080F8039094
:1043E000047144718471DB49C47104720862A1F8DC
:1043F00026B0D948016841F040010160A879012840
:104400002AD0BAB9D14808384078012824D0D048F9
:10441000A521017003214170202181700221C1700A
:10442000047144718471CB49C47104720862A1F8AB
:1044300026B000E010E0C848016841F0400101608A
:10444000C2483830848008388480C4488480BF489B
:1044500028308480243844709AF801005646042895
:1044600002D2A879012831D1B848001F4178042927
:1044700002D2491C417004E0B94981F8009085F8E6
:104480000690B648A5218480B1480170032141708F
:10449000202181701221C1700471447180F806904E
:1044A000A221C171AB490472447208620A20C88417
:1044B000A948016841F04001016000E006E0C82021
:1044C000FEF792FDA1487470001D44700022012186
:1044D000EB69686CFEF7FAFDA863012802D0801C26
:1044E0007ED0FCE000209B4E21E0B16A0A5CA52A48
:1044F0001BD1421C8A5C032A17D1821C8A5C202AA9
:1045000013D1C21C8A5C012A08D0122A4CD0022A7C
:1045100078D0F02A7BD00A2A73D006E0421D8A5C4C
:104520001AB9821D8A5C0E2A05D0401CC0B2F18DDA
:104530008142DAD8D3E0854A083A5470121D8AF8CD
:104540000140547002F10803AC715A78521CD2B287
:104550005A70012A26D900F1110300F11202CB5C36
:104560008A5C03EB0222794B38339A80C21D8B5C44
:10457000521C8A5C03EB0222744B30339A8000F1A8
:104580000D028B5C521C8A5C03EB0222734B9A80F7
:1045900000F10B020C308A5C085C6C4902EB0020D5
:1045A00028318880F4859AE04FF47A70FEF71CFD7C
:1045B000F48564216348FBF704FF6548A521017079
:1045C000032141702021817080F8039004714471AF
:1045D0008471C47104723062A6F826B05E4802E0AD
:1045E00073E00FE013E0016841F0400101606420D6
:1045F000FEF7FAFC55488AF80140001F4470AC7180
:104600006DE04FE05149083981F80190CAE7F4851F
:104610006C7085F81090298B6A8B524E891A298309
:104620007E213170802171704F494846464A097891
:10463000B170A221F17006213171697B7171B07185
:104640000020103A3318115C401CC0B2D9711028F8
:10465000F8D317214348FBF76DFF000AF0751721C7
:104660004048FBF767FF30767F20DFF800817076E7
:10467000012240213E48C8F82060FCF7BDF91A210C
:10468000A8F826103B48C16841F04001C160A87BF2
:10469000E97B884223D32D490420083987F82B4031
:1046A00048701CE0F485831D87F82B90CA5CBA75AE
:1046B0000022084405E0D11DBB18415C521CD9758D
:1046C000D2B2B97D9142F6D809E020480C38407842
:1046D000012804D19AF80110491C8AF80110687861
:1046E00005287FF443AE687B0228FAD117490839C0
:1046F000487890B18846012844D00228F1D1287C1E
:104700000128EED110485830FDF750FA288B4FF4AD
:10471000006188425ED369835DE00D48A522027086
:1047200003224270202282700222C27004714471FE
:104730008471084AC47104721062A2F826B0064857
:10474000026819E01C120020DC2300204400002035
:10475000E8090020CC2600200C4800400000002082
:1047600009000020181B0020080000203C26002023
:10477000000C01400050004042F04002026081F80D
:104780000190F3E53C4EA5200721307003207070A6
:104790002020B070F120F07034717471B471304623
:1047A000FBF7C8FE000AF07107213046FBF7C2FE96
:1047B000307232480662A0F826B03148016841F0F4
:1047C00040010160022088F8010085F81090E88A15
:1047D0002883CBE56883E88A410501D0C00A02E05E
:1047E000FF2101EBD020244EE873A5203070032078
:1047F00070702020B070F020F07034716A8B931CC0
:10480000180A7071B371A97BF171E87B30720020D6
:104810001C4B09E000EBC12C06EB00081CF803C0A0
:10482000401C88F809C080B29042F3D31249164860
:104830000931FDF727FD144913486839FDF790F950
:10484000688B093081B20C48FBF774FE010A688B53
:1048500032180930517281B20748FBF76BFE698B41
:1048600072180B31907205480662C18404480168D1
:1048700041F04001016079E5E8090020CC260020E4
:104880000C48004000000208342400200020F649B3
:1048900004460C54401CC0B26428FAD3F348FCF719
:1048A0001BFDDFF8D0B3F24F4FF00109ABF1080A5E
:1048B000787D20BB9BF80000042820D2ED480C38FE
:1048C000007801281BD0EC48A5210170032141701C
:1048D000202181700A21C170047144718471E749FB
:1048E000C471047208620920C884E548016841F077
:1048F00040010160DF483038407AE8B38DE0DD4A9E
:10490000303A507A00287DD102F124000178012943
:1049100019D19AF80000B0B1D748A523037003233A
:1049200043702023837080F8039004714471847174
:10493000D24BC471047218620920D884D04803682D
:1049400043F040030360107A012829D0A1B99AF8F6
:104950000000012824D0C848A5210170032141701E
:10496000202181700221C170047144718471C34996
:10497000C4710472086200E012E00920C884C048D3
:10498000016841F040010160BA483830448008387D
:104990004480BC484480B7482830448024380470A0
:1049A0009BF800005D46042804D2B2483038007AF3
:1049B000012832D1AF49091F0878042801D2401CD0
:1049C00005E0AC494846303981F80890AE49087096
:1049D000AC48A5214480A8480170032141702021E2
:1049E00081701221C1700471447180F80690A22177
:1049F000C171A2490472447208620A20C884A048A6
:104A0000016800E009E041F0400101606420FEF728
:104A1000EBFA98482C70001D0470964D0022303D32
:104A20000121EB69A86CFEF751FB2864012802D034
:104A3000801C7DD0FAE00020904E21E0B16A0A5C33
:104A4000A52A1BD1421C8A5C032A17D1821C8A5CCE
:104A5000202A13D1C21C8A5C012A08D0122A4ED007
:104A6000022A76D0F02A77D00A2A71D006E0421DB9
:104A70008A5C1AB9821D8A5C0E2A05D0401CC0B21D
:104A8000F18D8142DAD8D1E07A4A8AF80040121FCB
:104A90008BF80040147002F108032C721A78521C33
:104AA000D2B21A70012A28D900F1110200F11203C2
:104AB0008A5CCB5C02EB03226E4B38335A80C21DFA
:104AC00000F108038A5CCB5C02EB0322694B3033B4
:104AD0005A8000F10D0200F10E038A5CCB5C02EB00
:104AE0000322684B5A8000F10B020C308A5C085C90
:104AF000604902EB002028314880F48596E04FF4AD
:104B00007A70FEF771FAF4855B48A52101700321E4
:104B100041702021817080F8039004714471847188
:104B2000C471047230620920F0845548016802E0C3
:104B300072E00EE010E041F0400101606420FEF7F9
:104B400053FA4C48001F04708BF800402C726DE043
:104B50004FE08AF80090D0E7F4856C7064214248F9
:104B6000FBF72FFC85F81090298B6A8B474E891A2A
:104B700029837E21317080217170454948463C4A25
:104B80000978B170A221F17006213171697B7171D0
:104B9000B0710020103A3318115C401CC0B2D971BA
:104BA0001028F8D317213948FBF7C4FC000AF07528
:104BB00017213648FBF7BEFC30767F20DFF8D48023
:104BC0007076012240213448C8F82060FBF714FFBA
:104BD0001A21A8F826103148C16841F04001C1608F
:104BE000A87BE97B884221D37C7504218AF80010D8
:104BF0001CE0F485821D87F815908A5C3A700022CB
:104C0000084405E0D11DBB18415C521C5970D2B25A
:104C100039789142F6D809E016480C380078012816
:104C200004D19BF80010491C8BF800106878052807
:104C30007FF43EAE687B0128FAD19AF8000090B16B
:104C4000D046012846D00228F2D1287C0128EFD195
:104C500007485830FCF7AAFF288B4FF400618842C0
:104C600060D369835FE01BE0B41A00206425002054
:104C7000DC2300204400002080120020F4250020C6
:104C80000C4C0040000000200B000020181B0020EE
:104C9000080000203C260020000C0140005000408D
:104CA0004948A5220270032242702022827002220B
:104CB000C270047144718471444AC47104721062F8
:104CC0000920D0844248026842F0400202608AF81B
:104CD0000090EDE53C4EA520072130700320707058
:104CE0002020B070F120F07034717471B4713046CE
:104CF000FBF720FC000AF07107213046FBF71AFC95
:104D00003072324809210662C1843148016841F09D
:104D100040010160022188F8001085F81090E88AAF
:104D20002883C5E56883E88A410501D0C00A02E00E
:104D3000FF2101EBD020244EE873A5203070032022
:104D400070702020B070F020F07034716A8B214BAD
:104D5000901C010A7171B071A97BF171E87B30720E
:104D6000002009E000EBC12C06EB00081CF803C092
:104D7000401C88F809C080B29042F3D3124916480B
:104D80000931FDF77FFA144913486839FCF7E8FE4A
:104D9000688B093081B20C48FBF7CCFB010A688BA9
:104DA00032180930517281B20748FBF7C3FB698B97
:104DB00072180B31907205480662C184044801687C
:104DC00041F04001016073E580120020F4250020CD
:104DD0000C4C00400000020834240020D0E90132CD
:104DE00001699A60D0E901235A604A68824201D180
:104DF00082684A60002202610868401E08600868F4
:104E000070470000044908680A688069D26A096826
:104E1000C2F138028A617047D8000020034B03605A
:104E200003F15C0008608020106070479C2D00201A
:104E3000044B036003F15C0008604FF48070106065
:104E400070470000F82F002000F070BA00F1080150
:104E50004FF0FF32C0E90112C16001610021016021
:104E6000704700210161704730B50B685A1C02D0B1
:104E700000F1080202E0026904E022465468256855
:104E80009D42FAD953684B6099608A60516008610D
:104E90000168491C016030BD42684A6093688B60BC
:104EA00093685960916008610168491C016070470E
:104EB000502080F31188BFF34F8FBFF36F8F0A49E3
:104EC0004868401C486001280CD10848006810F070
:104ED000FF0F07D0502080F31188BFF34F8FBFF32F
:104EE0006F8FFEE7704700004401002004ED00E0F2
:104EF0000849486828B1401E486001D180F31188F4
:104F00007047502080F31188BFF34F8FBFF36F8F2E
:104F1000FEE700004401002070B5002827D0144DA2
:104F2000A0F108046168E868014207D1502080F3CD
:104F30001188BFF34F8FBFF36F8FFEE722683AB13E
:104F4000502080F31188BFF34F8FBFF36F8FFEE7C0
:104F50008143616000F08CF96068696808446860AA
:104F60002046FEF75BFBBDE8704000F0A9BE70BDB7
:104F70002C0100204FF0E0200021016181610549F2
:104F80004FF47A720968B1FBF2F1491E41610721C1
:104F900001617047D400002010B5FBF76FF911498B
:104FA00010280ED300F1E02090F8F0030A78904228
:104FB00007D2502080F31188BFF34F8FBFF36F8F5C
:104FC000FEE709480068896800F4E060884207D974
:104FD000502080F31188BFF34F8FBFF36F8FFEE730
:104FE00010BD0000440100200CED00E010B5084B9E
:104FF000002200BF53F832401CB1521C082AF9D3DA
:1050000010BD43F8321003EBC201486010BD000030
:105010008027002070B515460E460446FFF748FF6E
:1050200094F944100020491C01D184F8440094F9FB
:105030004510491C01D184F84500FFF759FFA06BCA
:1050400028B92A46314604F1240000F051F82046E0
:10505000BDE87040FEF77CBC10B5020014D00F48CC
:10506000806B38B1502080F31188BFF34F8FBFF3AE
:105070006F8FFEE700F0FCF800211046FEF7F2F813
:1050800000F01EFE002807D105494FF0805008604F
:10509000BFF34F8FBFF36F8F10BD0000D80000200B
:1050A00004ED00E002498A6A026049694160704784
:1050B000D80000200149012048627047D800002034
:1050C00010B50C4650B1094909681831FFF7CCFEFC
:1050D0002046BDE810400121FEF7C4B8502080F3FF
:1050E0001188BFF34F8FBFF36F8FFEE7D80000200A
:1050F00070B514460D4668B10A4909681831FFF7C2
:10510000CBFE0CB14FF0FF3521462846BDE870407C
:10511000FEF7A8B8502080F31188BFF34F8FBFF37C
:105120006F8FFEE7D800002010B51446030011D0A1
:105130001048826BB2B1026841F000419161016890
:1051400018461831FFF7A8FE2046BDE8104001219F
:10515000FEF788B8502080F31188BFF34F8FBFF35C
:105160006F8FFEE7502080F31188BFF34F8FBFF39E
:105170006F8FFEE7D800002070B5194DAA6BF2B111
:1051800041F000410160C4680CB3FFF727FE201D09
:10519000FFF724FEE06AA969884200D9A861114995
:1051A00000EB800001EB8000211DFFF775FEE06A37
:1051B0002968C96A884201D90120686270BD5020FF
:1051C00080F31188BFF34F8FBFF36F8FFEE750203E
:1051D00080F31188BFF34F8FBFF36F8FFEE700009E
:1051E000D8000020C027002030B587B000240394E9
:1051F00005AA04A903A80494FFF710FEDDE9030142
:105200000094CDE90110002315A11748059A00F07C
:105210003CFC164D002868631FD000F0B3FD012848
:1052200009D0401C19D1502080F31188BFF34F8F53
:10523000BFF36F8FFEE7502080F31188BFF34F8FCD
:10524000BFF36F8F4FF0FF3028630120E8616C617E
:1052500007B0BDE8304000F03BB907B030BD0000FA
:1052600049444C4500000000FD340108D8000020EE
:105270000248816B491C816370470000D800002000
:10528000164810B5816B11B10121416210BD00219A
:1052900041628169124A01E0B9B1491E01EB810303
:1052A00052F82330002BF7D001EB810302EB83028D
:1052B00002F1080453685B685360A34201D15B6844
:1052C0005360DA680260816110BD502080F311885C
:1052D000BFF34F8FBFF36F8FFEE70000D8000020B1
:1052E000C027002070B52020FEF768FB040005D021
:1052F0000025201D2560FFF7A9FD2577204670BDFC
:1053000038B558B120210446002000912060201DAE
:10531000FFF79CFD01202077204638BD502080F308
:105320001188BFF34F8FBFF36F8FFEE72DE9F04178
:105330000027884604000AD05FEA18600FD050208A
:1053400080F31188BFF34F8FBFF36F8FFEE75020BC
:1053500080F31188BFF34F8FBFF36F8FFEE7261DD9
:1053600004F10C05FFF784FF2168F06841EA0801A9
:10537000216017E0D0E9001601F07F425301236855
:1053800021F07F4102D40B4203D10AE031EA03034A
:1053900007D1D20100D50F43216841F00071FFF71A
:1053A000EBFE3046A842E5D12068B843206000F00B
:1053B00087FC2068BDE8F08113460A460146014893
:1053C00000F044BD494E01082DE9F0479A46DDF84A
:1053D000209090460D4604004FF0000709D0280E9B
:1053E0000FD0502080F31188BFF34F8FBFF36F8F22
:1053F000FEE7502080F31188BFF34F8FBFF36F8F0C
:10540000FEE71DB100F06CFB40B112E0502080F3CC
:105410001188BFF34F8FBFF36F8FFEE7B9F1000F15
:1054200007D0502080F31188BFF34F8FBFF36F8FE9
:10543000FEE7FFF71DFF2668524629463046FEF775
:105440006BFA30B1B8F1000F1AD02068A843206081
:1054500016E0B9F1000F13D0B8F1000F01D04FF0F2
:105460008077BAF1000F01D047F0806745EA070165
:105470004A46201DFFF758FE00F022FC18B10AE052
:1054800000F01EFC1FE011494FF080500860BFF390
:105490004F8FBFF36F8FFFF7B5FC0646800110D426
:1054A000FFF706FD2668524629463046FEF734FAD5
:1054B00028B1B8F1000F02D02068A8432060FFF7A0
:1054C00017FD26F07F463046BDE8F08704ED00E08A
:1054D0001CB5264908780190FF20087008788DF8DF
:1054E00000009DF800009DF8002000F0F0009042C0
:1054F00007D0502080F31188BFF34F8FBFF36F8F19
:10550000FEE79DF800001A4B00F0500018700720CD
:10551000986005E09DF8002052008DF80020401EA4
:105520009DF800201206F5D49860032807D050207B
:1055300080F31188BFF34F8FBFF36F8FFEE74FF4F7
:1055400040709860019808700A48016841F4700141
:105550000160016841F070410160FFF70BFD002020
:105560005860FAF755FE00201CBD000000E400E082
:105570004401002020ED00E038B5049D18B153B17E
:10558000CAB181B120E0502080F31188BFF34F8F62
:10559000BFF36F8FFEE7502080F31188BFF34F8F6A
:1055A000BFF36F8FFEE7502080F31188BFF34F8F5A
:1055B000BFF36F8FFEE739B1502080F31188BFF33E
:1055C0004F8FBFF36F8FFEE750241C46012384F8F2
:1055D00046302B460094FDF7C1FF204638BD000041
:1055E00070B50D46040025D0FFF762FCD4E90F200A
:1055F000216802FB001161600021A1632168A160A4
:105600000A46D4E90F01401E00FB0121E16021465A
:105610004FF0FF3001F8440F487004F110008DB1D5
:10562000FFF714FC04F12400FFF710FCFFF760FC07
:10563000012070BD502080F31188BFF34F8FBFF35E
:105640006F8FFEE721690029F0D000F001FB0028F0
:10565000ECD004494FF080500860BFF34F8FBFF388
:105660006F8FE3E704ED00E02DE9FF4782B01D46B0
:105670008A464FF00008040003D0BAF1000F08D0AA
:1056800011E0502080F31188BFF34F8FBFF36F8F6D
:10569000FEE7206C38B1502080F31188BFF34F8FA4
:1056A000BFF36F8FFEE7022D0AD1E06B012807D010
:1056B000502080F31188BFF34F8FBFF36F8FFEE749
:1056C00000F00EFA3F4F4FF000094FF0805648B9F6
:1056D000049838B1502080F31188BFF34F8FBFF387
:1056E0006F8FFEE7FFF7E4FBA06BE16B884207D307
:1056F000022D05D00498D0B1B8F1000F1AD01EE0E9
:105700002A4651462046FDF782FE616A19B104F12E
:10571000240000F09DFA20B13E60BFF34F8FBFF32D
:105720006F8FFFF7E5FB012006B0BDE8F087FFF7BC
:10573000DFFB22E06846FFF7B5FC4FF00108FFF7FA
:10574000D7FBFFF795FDFFF7B3FB94F94400401C2E
:1057500001D184F8449094F94500401C01D184F8AB
:105760004590FFF7C5FB04A9684600F027F930B162
:105770002046FEF7EDF800F0A3FA0020D4E7FFF78B
:1057800097FBA06BE16B884213D1FFF7B1FB04F1EB
:1057900010000499FFF794FC2046FEF7D9F800F0BA
:1057A0008FFA00289ED13E60BFF34F8FBFF36F8FFB
:1057B00098E7FFF79DFB2046FEF7CAF800F080FA55
:1057C00090E7000004ED00E02DE9F0471F46904609
:1057D0008946040003D0B9F1000F08D011E0502031
:1057E00080F31188BFF34F8FBFF36F8FFEE7206CFC
:1057F00038B1502080F31188BFF34F8FBFF36F8F04
:10580000FEE7022F0AD1E06B012807D0502080F379
:105810001188BFF34F8FBFF36F8FFEE7FFF7BCFB1D
:105820005020EFF3118680F31188BFF34F8FBFF341
:105830006F8FA06BE16B884206D3022F04D000204B
:1058400086F31188BDE8F08794F945503A464946F9
:105850002046FDF7DCFD681C04D06D1C84F8455023
:105860000120EDE7606A0028FAD004F1240000F07E
:10587000EFF90028F4D0B8F1000FF1D00121C8F8F9
:105880000010EDE72DE9F747002683B08A460400B3
:1058900003D0BAF1000F08D011E0502080F3118836
:1058A000BFF34F8FBFF36F8FFEE7206C38B15020EE
:1058B00080F31188BFF34F8FBFF36F8FFEE700F0C7
:1058C0000FF9DFF8F4804FF000094FF0805748B926
:1058D000059838B1502080F31188BFF34F8FBFF384
:1058E0006F8FFEE7FFF7E4FAA56BC5B1514620467E
:1058F000FDF77AFD6D1EA563206950B104F110001B
:1059000000F0A6F928B1C8F80070BFF34F8FBFF3BD
:105910006F8FFFF7EDFA012006B0BDE8F08705981C
:1059200008B11EB106E0FFF7E3FA27E06846FFF78B
:10593000B9FB0126FFF7DCFAFFF79AFCFFF7B8FA8C
:1059400094F94400401C01D184F8449094F9450036
:10595000401C01D184F84590FFF7CAFA05A96846B2
:1059600000F02CF8002820460AD0FDF7F1FF00F0E7
:10597000A7F92046FDF794FE0028B3D00020CBE71E
:10598000FDF78EFE90B104F124000599FFF798FB16
:105990002046FDF7DDFF00F093F90028A2D1C8F8FA
:1059A0000070BFF34F8FBFF36F8F9BE72046FDF76B
:1059B000CFFF00F085F995E704ED00E02DE9F04117
:1059C0000C46050011D0C4B1FFF772FA174B5A69A3
:1059D0006E682068911B471C17D02F689B6A9F42F6
:1059E00019D0964217D8012410E0502080F3118876
:1059F000BFF34F8FBFF36F8FFEE7502080F3118806
:105A0000BFF34F8FBFF36F8FFEE70024FFF770FAED
:105A10002046BDE8F081884205D9401A206028461A
:105A2000FFF740FBF1E700202060DCE7D800002012
:105A30002DE9FF5F8346DDE90E87994616468A46C3
:105A40009000FDF7BBFF05001CD05C20FDF7B6FF02
:105A5000040014D00020256384F85900CDE90240E9
:105A6000CDE900874B46324651465846FDF787FD43
:105A70002046FDF725FC012004B0BDE8F09F284634
:105A8000FFF74AFA4FF0FF30F6E7F0B585B0DDE9F1
:105A90000B640A9DA6B1DCB15C2700972663022641
:105AA00084F85960002604AFCDE90246CDE90057DD
:105AB000FDF765FD2046FDF703FC049805B0F0BD39
:105AC000502080F31188BFF34F8FBFF36F8FFEE735
:105AD000502080F31188BFF34F8FBFF36F8FFEE725
