:020000040801F1
:10000000C0230020450101081D2E0108D12101084F
:10001000192E0108190401084533010800000000E9
:100020000000000000000000000000009D2E0108FC
:10003000A9050108000000004D2E0108B92E010895
:100040005F0101085F0101085F0101085F0101080C
:100050005F0101085F0101085F0101085F010108FC
:100060005F0101085F0101085F0101085F010108EC
:100070005F0101085F0101085F0101085F010108DC
:100080005F0101085F0101085F0101085F010108CC
:100090005F0101085F0101085F0101085F010108BC
:1000A0005F0101085F0101085F0101085F010108AC
:1000B000312F0108412F01085F0101085F0101088C
:1000C0005F0101085F0101085F0101085F0101088C
:1000D0005F010108BD3201085F0101085F010108ED
:1000E0005F0101085F0101085F0101085F0101086C
:1000F0005F0101085F0101085F0101085F0101085C
:100100005F0101085F0101085F0101085F0101084B
:100110005F010108913001085F0101085F010108DA
:100120005F0101085F0101085F0101085F0101082B
:10013000DFF80CD000F080F800480047D13D0108FE
:10014000C02300200648804706480047FEE7FEE738
:10015000FEE7FEE7FEE7FEE7FEE7FEE7FEE7FEE777
:100160001D2F01083101010840EA01039B0703D05C
:1001700009E008C9121F08C0042AFAD203E011F8E6
:10018000013B00F8013B521EF9D27047D2B201E0A8
:1001900000F8012B491EFBD270470022F6E710B58C
:1001A00013460A4604461946FFF7F0FF204610BDE5
:1001B000421C10F8011B0029FBD1801A70479623BE
:1001C0000022114600F009B80029A8BF7047401C62
:1001D000490008BF20F00100704710B4B0FA80FC5D
:1001E00000FA0CF050EA010404BF10BC704749B19A
:1001F000CCF1200421FA04F411FA0CF118BF01210A
:1002000021430843A3EB0C01CB1D4FEA00614FEAE9
:10021000102042BF002010BC704700EBC3501044B8
:100220000029A4BF10BC7047401C490008BF20F043
:10023000010010BC70470000064C074D06E0E06866
:1002400040F0010394E8070098471034AC42F6D31D
:10025000FFF772FFA8B40208C8B4020870B58C1882
:1002600010F8015B15F0070301D110F8013B2A11CA
:1002700006D110F8012B03E010F8016B01F8016BB7
:100280005B1EF9D12B0705D40023521E0DD401F8B3
:10029000013BFAE710F8013BCB1A921C03E013F87C
:1002A000015B01F8015B521EF9D5A142D8D30020B1
:1002B00070BD0000012884BF6FF00100704710B5C9
:1002C00040F20001C2F2000151F8201041F2285220
:1002D00000EBC000C2F2000202EBC00442F8301092
:1002E00002F0F4FF204602F0EDFC002818BF6FF08A
:1002F000030010BD80B500F01DFD80BD80B540F24B
:100300008030C2F20000016811B10139016001D0F2
:10031000002080BD01F05EFF41F27050C2F200008B
:1003200000F00EFD002818BF6FF0070080BD000030
:1003300080B540F28032C2F2000241F2705045F6C0
:1003400000011368C2F20000C4F200010160581CF1
:10035000106033B941F27050C2F2000000F00EFD9F
:1003600008B1002080BD01F04DFF41F27050C2F293
:10037000000002F023FC002818BF6FF0070080BDCA
:1003800080B584B09C460B4601464FF480500290E5
:1003900041F270500092C2F200001A461023CDF8CC
:1003A00004C000F0BBFD70B141F27050C2F2000019
:1003B00000F0E2FC6FF06501042808BF6FF0030154
:1003C000084604B080BD002004B080BD80B584B074
:1003D0009C460B4601464FF48050029041F270500B
:1003E0000092C2F200001A461023CDF804C000F0BB
:1003F000FFFE70B141F27050C2F2000000F0BCFC90
:100400006FF00301042808BF6FF06501084604B0CF
:1004100080BD002004B080BDFEE70000E9B110B54A
:100420004BF27C2C4BF27C3E421EFF20C0F6020CAD
:10043000C0F6020EFF2300BF12F8014F013984EA13
:1004400003041CF8043083EA00031EF80400F3D10F
:100450001902BDE8104008437047FF204FF47F4168
:100460000843704700281CBF6FF00100704780B53B
:1004700040F25C30C2F200000068026940F258307D
:10048000C2F20000006890476FF0040101EAE070DA
:1004900080BD000000281CBF6FF00100704780B5D0
:1004A00040F25C30C2F200000068C26840F258308E
:1004B000C2F20000006890476FF0040101EAE070AA
:1004C00080BD000080B540F25C32C2F2000252F8FA
:1004D000202040F25833C2F20003D26953F82000C2
:1004E000904741F21851C2F200010860002818BF7D
:1004F0006FF0040080BD000000281CBF6FF00100F9
:10050000704780B503F040FD03F066F8002818BF7F
:100510004FF0FF3080BD000000281CBF6FF00100CD
:10052000704780B540F25C30C2F20000006882681B
:1005300040F25830C2F20000006890476FF00401AA
:1005400001EAE07080BD000000281CBF6FF00100D0
:10055000704780B540F25C30C2F200000068026A69
:1005600040F25830C2F20000006890476FF004017A
:1005700001EAE07080BD000000281CBF6FF00100A0
:10058000704780B540F25C30C2F200000068416AFA
:1005900040F25830C2F20000006888476FF0040152
:1005A00001EAE07080BD000070470000EFF31080AA
:1005B00072B600BFFEE7000041F2A060C2F2000088
:1005C0000021C16142F21000C4F20200016841F052
:1005D00004010160016841F04001016070470000C2
:1005E00041F2A061C2F200010022CA6142F2100190
:1005F000C4F202010A6842F002020A604860086818
:1006000040F040000860704741F2A062C2F2000270
:100610000023D36142F21002C4F20202136843F0D5
:10062000010313600180704742F20C00C4F2020023
:100630000168C90641F2A061C2F2000101D40022A2
:1006400004E0CA6942F00202CA61102203685B0733
:1006500005D5CB6942F0040243F00103CB61036985
:10066000DB0707D0CB6943F00403CB61016921F0BC
:100670000101016102607047F0B581B042F20C06E1
:100680000446C4F2020600F055FB3168C90715D1D3
:100690003068800644BF202030603068C00608D42F
:1006A0003069C00705D13068400702D4002001B08E
:1006B000F0BDFFF7B9FF012001B0F0BD0546671C92
:1006C00004D044B9032001B0F0BD00BF3068C007BA
:1006D000DED0002FFAD000F02DFB401BA042F5D950
:1006E000F0E70000014690F82100022813D10868C5
:1006F000D1E90FC3026822F00E020260026822F004
:1007000001020260012000FA03F2CCF8042081F813
:100710002100002002E0042088630120002281F8EB
:100720002020704780B590F82110022927D1026857
:1007300040F2040C1368C4F2020C23F00E031360A1
:1007400013680CF17C018A4223F0010111601BD96E
:1007500040F20841C4F202018A4248D040F21C41F2
:10076000C4F202018A4246D040F23041C4F2020192
:100770008A4244D14FF48073CCF8003458E004210D
:1007800081630121084680BD4321C4F202018A42EF
:100790000EDD6B21C4F202018A421BDC4421C4F24B
:1007A00002018A4239D05821C4F202018A4231E062
:1007B0000821C4F202018A4232D01C21C4F2020193
:1007C0008A4232D03021C4F202018A4222D14FF44F
:1007D00080722BE06C21C4F202018A4222D0802177
:1007E000C4F202018A4215D14FF080721EE001234B
:1007F000CCF800341CE01023CCF8003418E00CF5E1
:1008000088614FF480338A4208BF4FF48053CCF89C
:1008100000340DE04FF4803208E04FF4805205E0E0
:10082000012203E04FF4801200E01022CCF80020F7
:10083000012180F82110426B002180F820100AB1BC
:1008400090470021084680BD80B541F20C00C4F2FB
:1008500002004FF0FF3100224160426001600260FF
:1008600000F0D6FD002080BDB0B5044600F062FA6D
:10087000054640F24000C2F200000078611C18BF3B
:10088000044400BF00F056FA401BA042FAD3B0BDAA
:100890002DE9F04141F2A068C2F2000898F8182052
:1008A000012A04BF0220BDE8F081054601202E6820
:1008B00088F818004CF250300C46FFF7DDFE022E8F
:1008C00002D120B1012037E080B1012034E0FFF7F0
:1008D00073FE4CF25030FFF7CFFE42F21001C4F22B
:1008E00002010A6822F004020A6025E04FF0FF309E
:1008F0002060D5E9026006EBC020864219D242F2A0
:100900001007C4F2020700BF3046FFF769FE4CF241
:100910005030FFF7B1FE396821F00201396050B95B
:10092000D5E9021206F5006601EBC2218E42EBD337
:1009300002E0012000E02660002188F81810BDE8E0
:10094000F081000042F21001C4F20201086840F098
:10095000800200200A6070472DE9F04F81B01C46EC
:1009600041F2A063C2F2000392461A7E012A03D12B
:10097000022001B0BDE8F08F8146012018764CF2CC
:1009800050300E46FFF778FEB0BB4D4642F21007DE
:10099000B9F1020F18BF0425C4F20207B9F1010F23
:1009A00008BF4D4600214FF020096FF01F0B4FF09C
:1009B000000800BF0A01A9EB011304FA03F32AFAA5
:1009C00002F206EB41001A430BEB0111002958BF5C
:1009D00024FA01F291B2FFF717FE4CF25030FFF704
:1009E0004BFE396821F00101396028B908F101088E
:1009F0005FFA88F18D42DDD841F2A0620021C2F297
:100A00000002117601B0BDE8F08F000042F2040050
:100A1000C4F20200C16809065CBF0020704740F2C2
:100A20002311C4F26751016048F6AB11CCF6EF51C7
:100A30000160C068C0F3C010704700002DE9F04F9E
:100A400082B0002971D0A0F18042A2F584324FEA31
:100A5000B22241F600430092C4F2010306226FF075
:100A60001F0501274FF00F0E984208BF0522019283
:100A70001CE000BF0246B4F5807F24BF2E4604323E
:100A8000D2F800C00EFA06F32CEA030C042303FA92
:100A900006F64CEA06031360C268A243C26031FA4C
:100AA00007F207F1010705F104053ED07B1E012284
:100AB00002FA03F616EA0104F1D040F20042C4F251
:100AC00001024FEA930BA2F57E7C5CF82B9005F1B6
:100AD0002006009A06F00C0A019B0EFA0AF8052A75
:100AE00038BF134609EA080903FA0AF39945C1D148
:100AF00040F20043C4F201031A6840F20C49A243D9
:100B00001A605A68C4F20109A2435A60D9F8002059
:100B1000A243C9F800209A68A2439A605CF82B208F
:100B200022EA08024CF82B20A4E702B0BDE8F08FBF
:100B30002DE9F04F83B00C68002C00F0EA80A0F1A2
:100B40008042A2F5843240F2004E4FEAB22241F6D2
:100B50000047C4F2010E0092C4F2010706220025EC
:100B60004FF001094FF0000B4FF0000AB84208BFE8
:100B70000522019209E000BF0C680BF1010B34FA69
:100B80000BF205F1040500F0C48009FA0BF814EA31
:100B9000080CF1D04C684FF6FF72C1F2100294427B
:100BA00010DC122C50D8DFE804F0330A41454F4FD7
:100BB0004F4F4F4F4F4F4F4F4F4F4F484C00D1F873
:100BC0000CA041E04FF6FF72C1F2210294420FDC0B
:100BD0000022C1F2110294421AD00022C1F2120284
:100BE000944215D00022C1F22102944210D02BE091
:100BF0000022C1F2220294420AD00022C1F2310244
:100C0000944205D00022C1F2320294421CD100BFAE
:100C10008C6844B1012C14BFC0F81480C0F8108057
:100C20004FF0080A10E04FF0040A0DE0CC6804F120
:100C3000080A09E04FF0000A06E0CC6804F1040A53
:100C400002E0CC6804F10C0A2C460746BCF5807F14
:100C500024BF203C04373A680F2303FA04F6B2435A
:100C60000AFA04F422433A60CA79D2067FF584AFC7
:100C700041F21804C4F2020422684FF6084842F018
:100C8000010222602268CFF6FF7802F00102029290
:100C9000029A2BF00302724452F8084005F00C0649
:100CA00003FA06F7009BBC43019F052B38BF1F4684
:100CB00007FA06F6344342F808404C6840F20C4606
:100CC000E202DEF8082054BF22EA0C0742EA0C07D1
:100CD000C4F20106A202CEF80870326854BF22EABC
:100CE0000C0742EA0C07A2033760DEF8042054BF69
:100CF00022EA0C0742EA0C07E203CEF80470DEF8A1
:100D0000002054BF22EA0C0242EA0C02CEF8002076
:100D100032E703B0BDE8F08FC26802EA01039143F5
:100D200041EA034101617047002A08BF09040161DB
:100D30007047000041F6DC00C2F200000068704716
:100D4000002804BF0120704710B50446242084F811
:100D50003D002068016821F001010160204600F09B
:100D6000DDFA0020206484F83D00206384F83E0012
:100D700084F83C0010BD0000006C704790F83D0006
:100D800070470000F0B581B0B0B3044690F83D0064
:100D900028B9002084F83C00204600F0C1FA242045
:100DA00084F83D002068016821F0010101600168BC
:100DB00041F400410160016821F40041016000F04C
:100DC0004FFC48F28041C0F21E0140F600126568F7
:100DD00088424FF00001C0F23D0248F2A16C4FF092
:100DE000000338BF01219042C0F2010C38BF01233B
:100DF000654538BF0B4613B1012001B0F0BD4DF67B
:100E00008361C4F21B31A0FB011221684FEA924EAC
:100E10004B684FF4967623F03F0343EA92434B60CE
:100E200044F6D3530F6A0EFB06F6C1F26203A6FB2B
:100E3000033627F03F03B709654538BF970C7A1C86
:100E40001A430A62CA6948F2A0674CF6FF73C0F2FF
:100E50000107BD4222EA030C0AD801386A00B0FB40
:100E6000F2F001306FF31F30042898BF04202BE00C
:100E7000A368A0F1010E9BB119206843BEFBF0F0FE
:100E80000422013062F31F30000512D09BB11920FB
:100E90006843BEFBF0F00422013062F31F3011E022
:100EA00005EB4500BEFBF0F001306FF31F3000058D
:100EB000ECD1012008E005EB4500BEFBF0F001306D
:100EC0006FF31F3040F4004040EA0C00C86108682E
:100ED000D4E9072320F0C000104318430860886855
:100EE00048F2FF3204F10C0790438CCF18431043B3
:100EF000A6698860C86820F0FF0038433043C860A6
:100F0000086840F00100086000202021206484F877
:100F10003D10206384F83E0001B0F0BD2DE9F0479C
:100F200084B0044600201F4616460D460390FFF786
:100F300001FF94F83D1020290FD102218146C0F213
:100F40001001204601221923CDF8009001F0C6FAC5
:100F500018B994F83C00012803D1022004B0BDE880
:100F6000F0870121226884F83C101368DDE90D0840
:100F70000C99DB0703D1136843F001031360136876
:100F800023F400631360222284F83D20402284F879
:100F90003E200022226461626085608D29462085A2
:100FA0000020CFF6FF70E062204632463B46CDF887
:100FB0000080CDF8049001F075F918B1012004B05B
:100FC000BDE8F087208D022810D0012824D0002809
:100FD00038D1002002902068416902918169029114
:100FE0000299016841F40071016037E020680168EE
:100FF00041F400610160EFF3108072B600200290AE
:10100000206841690291816902910299016821F485
:101010008061016062B621E02068016821F480618E
:101020000160EFF3108072B60020029020684169E1
:101030000291816902910299016841F40071016095
:1010400062B60BE02068016841F480610160002114
:10105000029141690291806902900298208D0028D6
:1010600000F0AC80042740F2040A4BF28956C0F22B
:101070000107C2F2000AC1F2F846232517E0204614
:1010800041464A4601F0C0FA002897D12068616ABB
:1010900000690870606A218D01306062481E2085F9
:1010A000608D01386085208D002800F0878003283E
:1010B00047D8022861D00128E1D0204639460022D5
:1010C0004346CDF8009001F009FA00287FF476AF8E
:1010D0002068016821F480610160EFF3108072B62E
:1010E0002068616A00690870606A218D01300139E9
:1010F00060622185618D01396185DAF80010C908C7
:10110000A1FB0612110A6943039100BF039901393B
:101110000391039900295CD021684A695207F5D5EB
:101120000A6842F400720A6009690170606A218DE0
:1011300001306062481E2085608D0138608562B68E
:10114000A4E7204641464A4601F05EFA00287FF4B3
:1011500035AF2068616A00690870606A228D0130CD
:10116000013A606222852168628D013A62854A698E
:10117000520798D5096901708CE72046394600224C
:101180004346CDF8009001F0A9F900287FF416AF8E
:10119000EFF3108072B62068616A026842F4007250
:1011A000026000690870606A218D01306062481E2B
:1011B0002085608D0138608562B667E7202084F85D
:1011C0003D00002084F83E0084F83C0004B0BDE8F7
:1011D000F08700202021206384F83D1084F83E0031
:1011E000216C41F02001216462B684F83C00E5E600
:1011F0002DE9F04383B0994616460F460446FFF7A3
:1012000099FD94F83D1020290ED102210546C0F227
:101210001001204601221923009501F05FF918B949
:1012200094F83C00012803D1022003B0BDE8F0830C
:101230000121226884F83C101368DDE90B080A9943
:10124000DB0703D1136843F001031360136823F431
:1012500000631360212284F83D20402284F83E2060
:101260000022226461626085608D394620850020FD
:10127000CFF6FF70E062204632464B46CDF8008044
:10128000019501F095F830B3012003B0BDE8F0837B
:10129000204641462A4601F0F3F928BB606A2168DE
:1012A000034613F8012B0A61228D6362571E2785BE
:1012B000638D3F04A3F1010363854B6918BF13F0ED
:1012C000040308D0437802300B616062901E2085D1
:1012D000608D01386085208D0028D9D12046414697
:1012E0002A4601F0C5F840B1206C0428CCD1206812
:1012F000016841F400710160C6E72068016841F4AB
:1013000000710160202084F83D00002084F83E0038
:1013100084F83C0003B0BDE8F08300007047000093
:101320007047000040F2400041F6DC01C2F20000CC
:10133000C2F2000100780A6810440860704700009B
:1013400080B542F20000C4F20200016841F01001D1
:101350000160032000F09CF80F2000F005F800F079
:1013600059F8002080BD0000B0B586B041F21C01E4
:10137000C4F202010A68044642F001020A600968E8
:1013800001A801F0010101910199694600F040F9BD
:10139000049D002D18BF012500F062F94DF6836110
:1013A000A840C4F21B31A0FB01014FF0FF3000EB5D
:1013B000914141F2C450C2F200004FF0804240F22D
:1013C000E7330025C0E90021C0E9025305618561CA
:1013D00000F070FB0546C0B941F2C450C2F20000F3
:1013E00000F0B8FB054680B91C2000F03DF80F2C3A
:1013F0000AD81C202146002200F03AF840F24400AE
:10140000C2F20000046000E00125284606B0B0BD2D
:101410007047000082B041F21800C4F20200016877
:10142000022241F001010160016801F00101019116
:101430000199416841F080514160406800F080505E
:10144000009000980420C4F20100016862F31A6160
:10145000016002B07047000080B502F01BFA80BD49
:1014600080B502F027FA80BD80B502F037FA80BD62
:1014700070B514460D46064602F040FA294622464B
:1014800001F0CEFC0146304602F040FA70BD00008B
:1014900080B502F04DFA80BD02F05AFA2DE9F04312
:1014A00081B0002800F0898042F20008C4F20208EE
:1014B0000446D8F800000D4600F0070088420CD220
:1014C000D8F8000020F007002843C8F80000D8F83A
:1014D000000000F00700A8426FD1206841F2040923
:1014E0008107C4F2020917D5410705D5D9F80010C4
:1014F00041F4E061C9F80010010705D5D9F80010E2
:1015000041F46051C9F80010D9F80010A26821F028
:10151000F0011143C9F80010C00745D1D8F8000008
:1015200000F00700A8420CD9D8F8000020F007000E
:101530002843C8F80000D8F8000000F00700A842CF
:101540003BD12068410707D5D9F80010E26821F4A3
:10155000E0611143C9F80010000708D5D9F8000070
:10156000216920F4605040EAC100C9F8000000F091
:101570009BF8D9F8001045F24872C1F30311C0F688
:101580000102515C40F2040220FA01F140F24400F1
:10159000C2F200000068C2F200021160FFF7E4FE30
:1015A000002001B0BDE8F0836068022809D001285E
:1015B00029D159F8041C890307D4012001B0BDE8E2
:1015C000F08359F8041C8901F7D5D9F8001021F0EF
:1015D00003010843C9F80000FFF7ACFB064641F2DF
:1015E000883700BFD9F80000616800F00C00B0EB4C
:1015F000810F93D0FFF79EFB801BB842F2D90320E6
:1016000001B0BDE8F08359F8041C8907D5D5DCE7A3
:101610000F22026041F20402C4F20202136803F0D6
:1016200003034360136803F0F0038360136803F45B
:10163000E063C36012684FF4E06303EAD202026120
:1016400042F20000C4F20200006800F007000860E7
:101650007047000040F20400C2F2000000687047CA
:1016600080B5FFF7F7FF41F20401C4F202010968F7
:1016700045F25872C1F30221C0F60102515CC84024
:1016800080BD000080B5FFF7E5FF41F20401C4F220
:101690000201096845F25872C1F3C221C0F6010285
:1016A000515CC84080BD000041F2040CC4F2020C41
:1016B000DCF8003003F00C00082841F20020C0F2F2
:1016C0007A0018BF7047C3F383420AA18A5CD9032A
:1016D00005D440F60010C0F23D0050437047DCF8DE
:1016E000001008A3C1F34041595C5043B0FBF1F036
:1016F000704700BF02030405060708090A0B0C0D1A
:101700000E0F1010010200002DE9F04182B00028F8
:1017100000F0C4800446007841F20006C007C4F21D
:10172000020643D0706800F00C00042817D07068DF
:1017300000F00C00082802D17068C0030FD465685F
:101740002DB1B5F5A02F10D0B5F5803F11D0306880
:1017500020F480303060306820F480200CE0306865
:10176000800323D5606808BB98E0306840F480208F
:101770003060306840F480303060FFF7DBFA002DD5
:10178000054610D03068800310D4FFF7D3FA401B11
:101790006428F7D904E100BFFFF7CCFA401B6428A6
:1017A0004FF0030077D830688003F5D420788007A5
:1017B00018D5706810F00C0F07D0706800F00C009E
:1017C000082826D17068C00323D43068800702D56A
:1017D0002069012862D13068616920F0F80040EA90
:1017E000C1003060207800073DD5A06938B30020E3
:1017F000C4F242200121C0F88014FFF79BFA05468D
:10180000706A80072DD4FFF795FA401B0228F7D99C
:10181000C6E02069002840F20000C4F2422000F037
:10182000968001210160FFF785FA05463068800740
:10183000D1D4FFF77FFA401B0228F7D9B0E000208F
:10184000C4F242200021C0F88014FFF773FA054665
:10185000706A800707D5FFF76DFA401B0228F7D999
:101860009EE001F0F5FA207840071BD4E5698DB1C0
:10187000706800F00C00082847D1012D0ED0706868
:10188000216A00F480328A4208D1616A00F4701043
:10189000884203D1002002B0BDE8F081012002B0EF
:1018A000BDE8F081F06910F0805808D1F06940F08F
:1018B0008050F061F06900F080500190019847F28B
:1018C0000007C4F200073868C00510D4386840F437
:1018D00080703860FFF72EFA054600BF3868C005F3
:1018E00005D4FFF727FA401B6428F7D958E0E568CC
:1018F0001DB1052D3CD0012D3ED0306A20F00100F5
:101900003062306A20F0040039E00027C4F2422738
:1019100000203866FFF70EFA022D05460CD100BFF5
:101920003068800154D5FFF705FA401B02284FF0BC
:101930000300F5D9AFE700BF30688001AAD5FFF7F3
:10194000F9F9401B02284FF00300F5D9A3E7002165
:101950000160FFF7EFF90546306880077FF542AF79
:10196000FFF7E8F9401B02284FF00300F4D992E793
:10197000306A40F004003062306A40F001003062AA
:10198000FFF7D8F9002D054641F2883714D000BF83
:10199000306A800713D4FFF7CDF9401BB842F7D95E
:1019A000032002B0BDE8F081FFF7C4F9401BB84244
:1019B0004FF003003FF66FAF306A8007F4D4B8F100
:1019C000000F7FF453AFF06920F08050F0614DE7D5
:1019D000206AB0F5803F05D17168A26821F400311A
:1019E000114371607168626A21F4741110430843F5
:1019F000706001203866FFF79DF904463068800169
:101A00003FF548AFFFF796F9001B02284FF003009F
:101A1000F4D940E7704700007047000010B590F817
:101A20003C20012A4FF0020241D0012380F83C30D3
:101A300080F83D200268D2F804E0D2F808C00C68B3
:101A40002EF07003234340F6FF34C4F20004A24298
:101A500053600FDCB2F1804F1ED040F20043C4F25D
:101A600000039A4218D040F60003C4F200039A42E1
:101A700012D016E040F60043C4F200039A420BD0A5
:101A800043F20043C4F201039A4205D042F60043F8
:101A9000C4F201039A4204D149682CF0800319432F
:101AA00091600121002280F83D1080F83C20104612
:101AB00010BD0000002804BF0120704710B5044687
:101AC00090F83D0028B9002084F83C00204600F042
:101AD0001FF8022084F83D002068211D01F034FA2F
:101AE000012084F8460084F83E0084F83F0084F822
:101AF000400084F8410084F8420084F8430084F8F0
:101B0000440084F8450084F83D00002010BD00002A
:101B100080B582B0006840F20041C4F20001884202
:101B200001D002B080BD41F21C00C4F20200016885
:101B3000002241F00201016000680F2100F0020064
:101B4000019001981D20FFF793FC1D20FFF78CFCEE
:101B500002B080BD90F83D1001291CBF01207047E4
:101B6000022180F83D10006840F6FF32C168C4F2DF
:101B70000002904241F00101C1600FDCB0F1804FE2
:101B80001ED040F20041C4F20001884218D040F655
:101B90000001C4F20001884212D018E040F6004172
:101BA000C4F2000188420BD043F20041C4F20101AB
:101BB000884205D042F60041C4F20101884206D1B4
:101BC000816801F00701062904BF00207047016801
:101BD00041F00101016000207047000001460068EB
:101BE00041F21113C26822F00102C260026A1A4275
:101BF00008D1026A40F244431A4203D1026822F03B
:101C0000010202600122002081F83D20704700009F
:101C100010B5044690F83C0001284FF0020008BFC0
:101C200010BD012284F83C2084F83D0020684FF666
:101C3000777382689A4382600A684F2A0FDC1F2AF2
:101C400022DD202A23D0302A21D0402A4DD14B68D2
:101C5000CA68194601F0F8F9206840213BE06F2A74
:101C600017DDB2F5005F20D0B2F5805F2AD0702A70
:101C70003BD1D1E9012CCB68614601F0D1F9206854
:101C8000816841F077011AE00AB1102A2DD111467E
:101C900021E0502A18D0602A27D14B68CA6819461B
:101CA00001F0E4F92068602115E0D1E9012CCB684E
:101CB000614601F0B5F92068816841F48041816096
:101CC00000200BE0002009E04B68CA68194601F0CB
:101CD000BBF92068502101F0AFF90020012184F800
:101CE0003D10002184F83C1010BD0120F6E70000F3
:101CF0007047000010B5044600680169890744BFB9
:101D0000C1685FEA817138D420680169490744BF1E
:101D1000C1685FEA41713CD420680169090744BF8A
:101D2000C1685FEA017141D420680169C90644BFF6
:101D3000C1685FEAC16145D420680169C9071CBF59
:101D4000C1685FEAC1714AD120680169090644BFD0
:101D5000C1685FEA016149D420680169490644BF4E
:101D6000C1685FEA416148D420680169890644BFBF
:101D7000C1685FEA816147D410BD6FF00201016163
:101D8000012121778069800745D02046FFF7B0FF09
:101D900047E06FF00401016102212177806910F4AE
:101DA000407F41D02046FFF7A3FF43E06FF00801DA
:101DB000016104212177C06980073ED02046FFF7EA
:101DC00097FF40E06FF01001016108212177C069A1
:101DD00010F4407F3AD02046FFF78AFF3CE06FF0D6
:101DE00001010161204600F03FF8ADE76FF080018E
:101DF00001612046FFF70EFEAEE76FF04001016182
:101E0000204600F039F8AFE76FF02001016120466D
:101E1000FFF702FE10BD204600F022F8204600F039
:101E200021F8002020776FE7204600F019F82046BF
:101E300000F018F8002020776EE7204600F010F838
:101E4000204600F00FF8002020776DE7204600F0D4
:101E500007F8204600F006F8002020776CE7000025
:101E6000704700007047000080B50068B0F1804FF7
:101E700008BFFFF757FA80BD7047000070470000A9
:101E800070470000B0B582B0036804461868D9688E
:101E90005A6900F02F05202D01F0200505D125B14C
:101EA000204601F035F902B0B0BD5FEA007C1EBFEC
:101EB00002F0010E01F4907212EB0E024AD1226B75
:101EC0000840C1063DD5012A3BD100200190186889
:101ED00001905868019001985869400642D4A08D3D
:101EE000E18DE28D002A1CBF401A5FEA004101D15A
:101EF00002B0B0BD216851E8031F226821F490713F
:101F000042E80313002BF5D1216851E8051F226830
:101F100021F0010142E80513002BF5D1202184F8BE
:101F200042100021216300BF216851E8031F22688D
:101F300021F0100142E80313002BF5D10221616367
:101F400054E0010658D44006D2D5204601F0D4F81A
:101F500002B0B0BDC20718BF11F4807251D1420760
:101F600055D45BE0E06B016849688AB2002ABFD0B3
:101F7000A38D9A42BCD2E1858069202831D000BF70
:101F8000206850E8030F216820F4807041E80302C4
:101F9000002AF5D1206850E8050F216820F00100E3
:101FA00041E80502002AF5D1206850E8050F2168B4
:101FB00020F0400041E80502002AF5D1202084F8F5
:101FC00042000020206300BF206850E8030F216812
:101FD00020F0100041E80302002AF5D1E06BFEF783
:101FE00081FB02206063A08DE18D401A81B2204602
:101FF000FFF744FF02B0B0BD204601F035F902B052
:10200000B0BD626C42F001026264420706D5BEF1C7
:10201000000F03D0626C42F002026264820706D5B0
:10202000BEF1000F03D0626C42F004026264BCF1A6
:10203000000F06D55EEA050203D0626C42F008028A
:102040006264626C002A3FF453AF0840800602D5F8
:10205000204601F05DF820684069616C00F04000A6
:1020600001F00801401827D0204601F01DF8206833
:10207000406940061BD500BF206850E8050F216865
:1020800020F0400041E80502002AF5D1E06B70B174
:1020900043F29901C0F601014163FEF743FB0028BA
:1020A0003FF426AFE06B416B884702B0B0BD2046DD
:1020B000FFF7E6FE02B0B0BD2046FFF7E1FE0020CC
:1020C000606402B0B0BD0000002804BF012070476A
:1020D00010B5044690F8410028B9002084F840006B
:1020E000204600F021F8242084F841002068C168CF
:1020F00021F40051C160204601F06EF820680169AA
:1021000021F490410161416921F02A014161C168D6
:1021100041F40051C16000202021606484F8411026
:1021200084F84210606310BD70B586B045F20005BA
:102130000068C4F200050026A842CDE904660396B3
:10214000029601D006B070BD41F21800C4F2020040
:10215000416802AC41F480114160416801F4801192
:1021600001910199016841F010010160016801F0DD
:10217000100101910199016841F02001016000689E
:10218000214600F02000019001984FF48050029009
:10219000022003900320059005F54040FEF7C8FC9F
:1021A0000420CDE9020605F5444021460496FEF7D9
:1021B000BFFC352000210022FFF75AF93520FFF738
:1021C00053F906B070BD0000704700007047000072
:1021D000FEE7000010B541F21C00C4F202000168E5
:1021E00040F6004421F48001C4F20104016020465D
:1021F0004FF48061FEF722FC20464FF40061FEF7A9
:102200001DFC10BD2DE9F04186B041F21806C4F264
:102210000206306840F6004440F008003060306844
:10222000C4F2010400F00800029002984FF48060AC
:1022300002AD02904FF01208032720462946CDF840
:102240000C800597FEF774FC4FF40060CDE902089E
:10225000204629460597FEF76BFC706840F4800025
:102260007060706800F480000190019806B0BDE8CD
:10227000F08100000268516949054FF000010FD557
:102280006FF4806353612022016380F83D2080F861
:102290003E10026C42F00402026480F83C100121FE
:1022A000084670472DE9F04782B0044600680E46A4
:1022B0000168DDF828A041F4806101600168DDF863
:1022C0002C9041F480711D461746016020464FF066
:1022D000011100225346CDF8009000F0FFF850B1F4
:1022E00020680068C00544BF4FF4007020640320DC
:1022F00002B0BDE8F08740F202082068C0F2010891
:1023000006F0FE0606612046414652464B4600F066
:102310002FF948BB0020019020684A46416901918D
:102320008069514601900198204600F0A9F998B9BA
:10233000012D08D02068390A0161204651464A46DD
:1023400000F09EF940B92068F9B20161204651467B
:102350004A4600F095F958B1206C042804D1206851
:10236000016841F400710160012002B0BDE8F0870E
:10237000206800220168534641F4807101602046C4
:102380004FF00111CDF8009000F0A8F80028A7D177
:10239000206846F0010101612046414652464B4605
:1023A00000F0E6F8002818BF012002B0BDE8F08771
:1023B0002DE9F04383B0044600680D4601680A9F8A
:1023C0000B9E41F4807199469046016020464FF083
:1023D000011100223B46009600F080F850B12068C1
:1023E0000068C00544BF4FF400702064032003B0B0
:1023F000BDE8F083206805F0FE0101610221C0F212
:10240000010120463A46334600F0B2F818B10120E7
:1024100003B0BDE8F0830020029020683246416995
:1024200002918069394602900298204600F028F90E
:1024300040B1206C0428EAD12068016841F40071A1
:102440000160E4E7B9F1010F0AD020684FEA1821D2
:10245000016120463946324600F012F90028E8D1E1
:1024600020685FFA88F10161002003B0BDE8F083C5
:10247000F0B581B004460068406940071AD415469B
:102480000E464F1C08E000BF20684069400714D585
:102490002068406940070DD42046FFF7EBFEC8B91D
:1024A000002FF5D0FEF746FC002EEDD0401BB042C9
:1024B000EED9E9E7002001B0F0BD00202021206323
:1024C00084F83D1084F83E00216C41F02001216425
:1024D00084F83C00012001B0F0BD00002DE9F04778
:1024E000DDF8208099461646044601F47F078DB238
:1024F00003F1010A0EE000BF2068B7F5803F14BF6A
:102500001830143000682840401BB0FA80F04009B1
:10251000B0421DD02068B7F5803F14BF183014308A
:1025200000682840401BB0FA80F04009B0420CD14E
:10253000BAF1000FEED0FEF7FDFBB9F1000FDBD0D2
:10254000A0EB08004845E5D9D6E70020BDE8F087B4
:1025500000202021206384F83D1084F83E00216C87
:1025600041F02001216484F83C000120BDE8F0879F
:102570002DE9F04104460068984643698FB203EAAA
:102580000701B94202D10020BDE8F0814169490547
:1025900017D41646551C00BF5DB1FEF7CBFB1EB12C
:1025A000A0EB0800B04204D9206840693840B84226
:1025B0001ED1206841693940B942E4D041694905DA
:1025C000EAD5016841F4007101606FF480614161F6
:1025D00000202021206384F83D1084F83E00216C07
:1025E00041F00401216484F83C000120BDE8F08141
:1025F00000202021206384F83D1084F83E00216CE7
:1026000041F02001EEE7000070B504460068154671
:1026100050F8143F5A0615D40E4608E02068406969
:1026200040061DD5206850F8141F49060AD40168D9
:10263000C90609D4FEF77EFB002EEFD0401BB04246
:10264000F0D9EBE7002070BD6FF0100101600020B1
:102650002021206384F83D1084F83E00216C09E0BD
:1026600000202021206384F83D1084F83E00216C76
:1026700041F02001216484F83C00012070BD00007D
:10268000F0B581B004460068406900061AD41546CA
:102690000E464F1C08E000BF20684069000614D5B4
:1026A0002068406900060DD42046FFF7E3FDC8B955
:1026B000002FF5D0FEF73EFB002EEDD0401BB042C0
:1026C000EED9E9E7002001B0F0BD00202021206311
:1026D00084F83D1084F83E00216C41F02001216413
:1026E00084F83C00012001B0F0BD00002DE9F0416C
:1026F00082B041F20C60C2F2000001686FF001028A
:102700000A61FFF76BFA41F25466C2F20006F08DDF
:1027100041F225580028C2F200084FF0000561D0B0
:1027200041F24377C2F20007002404E00134F08D47
:10273000E5B2A84256D9B06A3978425D28448A4247
:1027400010D14378032B02D18378002B43D08A42E7
:1027500008D14378062B05D18378012B02D1C378A9
:10276000002B3CD0102A07D14378032B04D1837867
:10277000012B01D1C37883B37E2AD7D142788A4214
:10278000D4D181788029D1D1C178A129CED1017944
:102790000129CBD1C1797F29C8D10521FDF73EFEA2
:1027A000B16AC0F3072329444A799A42BED1897994
:1027B000C0B28142BAD1FEF747F84FF0FF30FEF7C2
:1027C0004FFE4FF0FF30FEF747FEEFF3108072B67A
:1027D000FEF762FE06E0012002E0032000E0022096
:1027E00088F8000098F80000032878D0022800F04C
:1027F000B580012840F01981B06A06212844FDF710
:102800000DFEB16AC3B22944CA799A4240F00D81E3
:102810008A79C0F30720824240F00781487941F26B
:102820004371C2F20001097841F61204C2F20004B9
:1028300041F24975217003214000C2F20005617028
:1028400041F2C1612870A070E01CC2F20001802238
:10285000FDF78AFC41F21850C2F20000006884F8CB
:10286000830041F22450C2F20000017840F2480097
:10287000C2F20000006884F8841004F1850101F0C0
:10288000ADFB40F6B000C2F200008268D0E9001053
:10289000C4F89520C4F891002878C4F88D10C11CA4
:1028A0002046FDF7BBFD297800BA2144000CA1F8B1
:1028B000030040F60040C4F201004FF48071012291
:1028C0003462FEF731FA28780530F08445F20C00C6
:1028D000C4F20000016841F040010160A5E0B06A67
:1028E00006212844FDF79AFDB16AC3B22944CA798A
:1028F0009A4240F09A808979C0F30720814240F0E3
:10290000948041F2437141F6120440F21030C2F259
:102910000001C2F20004C0F201000978206000202A
:102920002071617120460621FDF778FD00BA000C88
:10293000E08040F60040C4F201004FF480710122B3
:102940003462FEF7F1F90820F08445F20C00C4F27D
:102950000000016841F04001016066E0B06A0621B4
:102960002844FDF75BFDB16AC3B22944CA799A4293
:102970005BD18979C0F30720814256D1EFF31080F3
:1029800072B6FEF743F840F27030C2F20000002148
:102990004FF600080160C0F603080121C0E902817A
:1029A00001A9FDF775FF4FF47A70FDF765FEB06A77
:1029B0006C1D025D012041460023FDF7CDFF4FF461
:1029C0007A70FDF759FEFDF7BDFF41F24377C2F281
:1029D000000762B6387841F61205C2F20005287089
:1029E0004FF48370B16AC5F80100085D0621687173
:1029F0002846FDF713FD00BA000CE88040F60040C1
:102A0000C4F201004FF4807101223562FEF78CF9A7
:102A10000820F08445F20C00C4F20000016841F087
:102A20004001016098F8000038700020F08502B085
:102A3000BDE8F081F0B581B045F20400C4F20000B9
:102A400050F8044C066841F254656106C2F2000574
:102A500003D4A00622D401B0F0BDE98C51B1296A9B
:102A60004A1C2A6209780160E88C0138E884A006D3
:102A7000F1D513E08168002221F0400181604BF61E
:102A8000FC3108444FF480710027FEF74DF941F204
:102A90002550C2F200000770A006DCD541F20C649C
:102AA000C2F2000420686FF001010161016120465B
:102AB000FFF794F8A86AE98D4A1CEA854654E88D28
:102AC000A98D0F398142DCBF0020E88520680021F4
:102AD00041622046FFF73EF801B0F0BDF0B585B089
:102AE000002641F21800CDE90366CDE90166C4F283
:102AF0000200016840F6004441F0200101600168D5
:102B0000C4F2010401F02001009100990168002243
:102B100041F00801016001684FF4A04501F008018F
:102B200000910099016841F004010160016801F021
:102B3000040100910099016841F0100101600068F2
:102B40004FF4A04100F01000009000982046FEF7DE
:102B5000EBF80195022001AD01270490204629469B
:102B6000CDE90276FDF7E4FF4FF40050019000201C
:102B7000C1F21100CDE9020620462946FDF7D8FF33
:102B80004FF48070CDE901070326204629460397BC
:102B90000496FDF7CDFF0820A4F58064CDE9010778
:102BA00020462946CDE90376FDF7C2FF20460821DD
:102BB0000122FEF7B9F805B0F0BD000080B545F67A
:102BC0000001C4F2000148F2A06200234FF4804CDF
:102BD000C0F2010280E80E00C0E9033CC0E9053301
:102BE000C0E90733FEF7CEF8002818BF012080BDEA
:102BF00080B586B041F20C6040F200420021C2F282
:102C00000000C4F2000241F61F434FF0130CCDE95F
:102C10000411CDE90211CDE90011C0E90023C0E99A
:102C2000021C01618161FEF745FFC0B94FF480507D
:102C3000029041F20C60C2F2000002A9FEF7E8FF28
:102C400068B90020CDE9000041F20C60C2F200003A
:102C50006946FEF7E3FE002804BF06B080BDFDF71D
:102C6000A5FC000080B50120FDF7FEFD00F042F854
:102C700080BD000000F054F8B0B545F20C05C4F278
:102C8000000541F25464A5F10C00C2F200044FF4B7
:102C9000E13100220C2384E807002046C4E9032226
:102CA000C4E90532E261FFF70FFA48B9286820F05D
:102CB000400028602068C16841F02001C160B0BDBB
:102CC000FDF774FC80B543F60001C4F20101002356
:102CD0004FF00C0C4FF4E13280E80E00C0E90333F2
:102CE000C0E905C3C361FFF7EFF9002818BF012051
:102CF00080BD000080B50020FDF7DCFA0020FDF764
:102D0000FBFB41F24471C2F20001086041F2145130
:102D1000C2F200010028086008BF80BDFEE7000085
:102D200082B001A900204FF00009FDF7F5FB40F249
:102D30006031C2F200010020FDF7ACFB40F28831A7
:102D4000C2F2000103200F22C1E900020020C1E904
:102D50000229C1F81090FDF785FB00200121FDF745
:102D6000F3FB41F2447740F6000440F2AC3541F207
:102D7000205641F2245A41F21C5BC2F20007C4F211
:102D80000104C2F20005C2F20006C2F2000AC2F259
:102D9000000B4FF00508386020460821FDF7BCFF06
:102DA00000202946FDF78EFB411D38600ED0811CA6
:102DB00024D00028F0D12846CBF80090C6F8009027
:102DC0008AF8009001F072F8E6E700BF3068411C15
:102DD0000528316009DB0020FDF7CEFB6420FDF7FC
:102DE00043FD00200121FDF7AFFB30680728D3DB4E
:102DF00002208AF8000007203060CDE7DBF80000F1
:102E0000411C0528CBF80010C6DB01208AF8000021
:102E1000CBF80080C0E70000FEE70000FEE70000FE
:102E200000F0070080F00703042B28BF04234FF0B5
:102E3000FF3C03380CFA03F338BF0020994381406C
:102E40000CFA00F022EA00000843704770470000C7
:102E500081B040F20400C2F20000006844F6D35191
:102E6000C1F26201A0FB0101480A009000BF009876
:102E7000411E00280091F9D101B0704780B5D0F80B
:102E800008C000880123E047C0B280BD80B5D0F8FB
:102E900008C000889BB2E047C0B280BD7047000008
:102EA000002908BF7047002283581BBA83500432A0
:102EB0008A42F9D3704700007047000070B590B0A7
:102EC00006AC20462821FDF768F9012006900A90FB
:102ED0004FF4E01000254FF4803102260F90204679
:102EE0000595CDE90355CDE90155CDE90715CDE9A6
:102EF0000D61FEF709FC78B90F20CDE901064FF40A
:102F00008060CDE9040501A802210395FEF7C6FA09
:102F1000002804BF10B070BDFDF748FB4EF6085006
:102F20000021CEF20000C0F60101016070470000F0
:102F300080B541F2C450C2F20000FEF7DBFE80BD56
:102F400080B5FFF7D3FB80BD10B540F6FF3E0368A8
:102F5000C4F2000E43F2004C7045C4F2010C20DCB8
:102F6000B0F1804F2BD040F20042C4F200029042F8
:102F700025D040F60002C4F2000290421FD07045F6
:102F800023DCB0F1804F2ED040F20042C4F20002A8
:102F9000904228D040F60002C4F20002904222D0B3
:102FA00025E040F60042C4F20002904207D060459E
:102FB00005D042F60042C4F201029042DFD14A68D5
:102FC00023F0700313437045DBDD40F60042C4F28A
:102FD0000002904207D0604505D042F60042C4F29C
:102FE0000102904203D1CA6823F44073134323F0D3
:102FF00080024B69D1F800E08C681A43604502609A
:10300000C462C0F828E005D042F60042C4F20102D2
:10301000904201D1096901630121416110BD0000A5
:10302000D0F808C011432CF47F4C41EA032141EA57
:103030000C01816070470000826822F07002114329
:1030400041F0070181607047D0F820C0036A23F087
:1030500001030362836923F0F00343EA02122CF0B8
:103060000A0319438261016270470000D0F820C052
:10307000036A23F010030362836923F4704343EA75
:1030800002322CF0A00343EA011182610162704711
:1030900080B5FFF7CFFC80BD80B5406A0021C185B7
:1030A000C184FEF7EDFE80BD016851E8031F026890
:1030B00021F4907142E80313002BF5D1016851E827
:1030C000051F026821F0010142E80513002BF5D12C
:1030D000016B01290AD100BF016851E8031F026892
:1030E00021F0100142E80313002BF5D1202180F8D4
:1030F000421000210163704780B50168CA6822F060
:103100004002CA60202180F84110FFF75FF880BDBF
:1031100080B582B090F8421022291ED18268B2F5A3
:10312000805F02D1016900294AD0816AB2F5805FCF
:1031300007D00AB9026922B10268526802F07F0220
:1031400001E0026852680A700121826A11448162BA
:10315000C18D01390A04C18501D002B080BD01686A
:10316000CA6822F02002CA60CA6822F48072CA606B
:103170004A6922F001024A61202180F842100021B0
:103180004163026B012A23D1016300BF016851E84A
:10319000031F026821F0100142E80313002BF5D150
:1031A00001680A68D20606D5002201920A680192D7
:1031B000496801910199818DFEF760FE02B080BDE2
:1031C0000168826A49686FF35F2111800221BCE7C0
:1031D000FEF7FAFF02B080BD10B504460068D4E9DE
:1031E00002C22369016921F44051114301616169FF
:1031F00043EA0C021143C26841F20C639A43114343
:10320000C1604169A26921F44071114343F6000293
:10321000C4F201029042416102D0FEF721FA01E0BE
:10322000FEF730FA6268192148439100B0FBF1F0D3
:1032300048F21F51C5F2EB11A0FB01235A096FF0B0
:10324000630302FB0300322303EB0010A0FB010128
:10325000F02303EA5113206803EB0212C1F3431178
:103260001144816010BD000090F84110212923D144
:103270008168B1F5805F01D1016931B1016A0268ED
:103280004B1C03620978516007E0016A036831F85A
:10329000022B6FF35F225A600162C18C01390A046C
:1032A000C18418BF70470068C16821F08001C16007
:1032B000C16841F04001C1607047000080B541F233
:1032C0002850C2F20000FEF7DDFD80BDB0B584B02D
:1032D00041F21800C4F20200016840F6000441F413
:1032E000804101600168C4F2010401F48041009151
:1032F000009901686D4641F00401016000682946AB
:1033000000F00400009000984FF40070009002203C
:103310000190032003902046FDF70AFC4FF48060E3
:1033200000900020CDE9010020462946FDF700FC71
:10333000252000210022FEF79BF82520FEF794F8B7
:1033400004B0B0BDFEE700002DE9F04182B00D46AB
:10335000014600284FF0020018BF002D02D102B034
:10336000BDE8F081286801F11808FF2805D1404622
:10337000002101F073FE00283BE00DF107014046FB
:1033800001F05CFA9DF8070040F6BC014FF0000C1C
:10339000C2F20001D8B19DF807002CCD4FF0010E0C
:1033A000012898BF704600EB4000870000200026EF
:1033B0000C180B500C30A672874206F1010684F8F7
:1033C00008E0627284F80BC06560F1D100E000266D
:1033D00006EB460001EB8000827A42F080028272A6
:1033E000404601F0E3FD05464046012101F036FE6E
:1033F000284318BF012002B0BDE8F0812DE9F04359
:1034000081B0044600284FF0020040D00D4600294C
:103410003DD02F78D5E901897B1E032B0CD80020E5
:1034200001221021DFE803F012020E2D00200122FC
:10343000032710215AB30AE00220002100270022AE
:103440002AB304E00020012740210122FAB104F14F
:103450001806304601F008FF78B93046394601F0C9
:10346000C9FE50B93046414601F048FE28B95FFA1E
:1034700089F1304601F0A8FE60B1012001B0BDE83D
:10348000F0830020012203274021002ADFD101B070
:10349000BDE8F083D5E90301002818BF012084F8B6
:1034A00054090020002918BF012184F8551901B0E2
:1034B000BDE8F0830420704710B548B1044690F889
:1034C0005009012802D16068804718B1012010BD61
:1034D000022010BD002084F8500910BD02460028CB
:1034E0004FF0020018BF002900D170471089086012
:1034F0000020704700284FF0020018BF002900D1BB
:103500007047402201230020C1E90023C1E90203E2
:1035100070470000B0B505460C460220002D4FF064
:10352000000118BF002C12D149B195F852090021B1
:103530000128284608BF41F2883101F0F5FC002837
:1035400018BFB0BD2846214601F08AF9B0BD95F8F4
:103550005119B1FA81F04009002918BF0121002951
:10356000EDD0E2E710B582B00C46014600284FF0DE
:10357000020018BF002C01D102B010BD01F11800EB
:103580000DF1070101F02CF89DF8071000281CBF71
:1035900001200021C9B2216002B010BD10B5C0B138
:1035A000044690F8500900281CBF012010BD04F10A
:1035B000180001F02BFA00284FF0010018BF10BDD1
:1035C000002184F85009002084F85519C4F85119D5
:1035D00010BD022010BD000070B588B05220ADF8BB
:1035E000100040F23130C0F60100029040F2FD20A0
:1035F000C0F60100039040F2CD30C0F60100059006
:1036000040F28130C0F60100069040F2F52040F60D
:10361000BC34C0F60100C2F20004079002A92046A3
:1036200000F08EF890B940F25C3540F20800C2F22A
:103630000005C2F2000040F258362860C2F20006CF
:1036400001A92046346000F03FF800B36FF0040594
:1036500018342046372104224FF4167300F0D0FCB2
:1036600090B941F6B045C2F2000500BF2046294698
:1036700000F058FF0028F9D140F24C01C2F20001DD
:10368000204601F07BFC0025284608B070BD01985B
:103690004FF20C01884213D12868016830688847CE
:1036A0000028D3D1286840F29C31C2683068C2F249
:1036B000000190470546002818BF6FF00405C7E7D2
:1036C0006FF00605C4E70000F0B581B00C46014676
:1036D00000208DF803008DF8020000294FF0020051
:1036E00018BF002C01D101B0F0BD01F1180528462A
:1036F00047F6FF710022002700F0B6F806460DF1EC
:10370000030228460021FFF7B9FB06430DF1020230
:1037100028460121FFF7B2FB0643284647F6FF7112
:10372000022200F0A1F830439DF803109DF802201A
:1037300014BF012042EA0127276001B0F0BD00005C
:1037400080B500284FF0020218BF002901D11046B1
:1037500080BDD1E90023D1E903CE43600B89C0E9E4
:1037600003CE0381D1F814C00B89C0F814C00383C1
:10377000D1E9033C49690260C0E9073C41621AB1E2
:1037800090470246104680BD0122104680BD0000D1
:10379000B0B558B1CDB204461830294601F094FCBA
:1037A000002812BF012025810020B0BD0220B0BD3D
:1037B00050B1012908D880B51830C9B201F0BEFC5B
:1037C000002818BF012080BD02207047B0B5A8B105
:1037D000044618300D4601F019FE00284FF0010094
:1037E00018BFB0BD691E032984F8510908D8DFE865
:1037F00001F0020C0E1440F201100AE00220B0BDEC
:10380000002084F851090220B0BD012001E04FF4EE
:103810008070A4F852090020B0BD0020A4F852091D
:10382000B0BD000010B550B1044690F8510920B168
:1038300004F1180001F0BCFE18B1012010BD0220F7
:1038400010BD002084F8510910BD000070B5044679
:10385000C0680D4680470646E0688047801BA84246
:10386000FAD3002070BD000080B582B0D0F804C04B
:1038700000888DF807200DF107020123E047C0B250
:1038800002B080BD80B5D0F804C000889BB2E0478C
:10389000C0B280BD002848BF704700F01F01012260
:1038A00002FA01F14EF280224009CEF2000242F803
:1038B00020107047002848BF704700F01F01012208
:1038C00002FA01F14EF280124009CEF2000242F8F3
:1038D0002010BFF34F8FBFF36F8F7047002848BF92
:1038E000704700F01F01012202FA01F14EF20012AE
:1038F0004009CEF2000242F8201070474EF60C50FC
:10390000CEF200000068C0F3022070474EF6145358
:1039100000F00F02CEF2000309011A4400F16043E7
:10392000B0F1FF3FC8BF03F564421170704700005B
:103930004EF60C51CEF200010A684FF6FF031A4012
:1039400060F30A2242F0806040F0FD70086070472A
:103950004EF60C50BFF34F8FCEF2000001680422E8
:1039600001F4E061C0F2FA5211430160BFF34F8FDE
:1039700000BFFDE72DE9F04F81B0DDF82C9000F598
:10398000A2679A460D46064607EB020B00244FF04D
:10399000000807E09BF800000A9908F101080840B8
:1039A00048451AD0304651463A462B46FFF76EFA44
:1039B000044330460A21FFF749FFB8F1C80F44EA33
:1039C000000408D2042DE5D396F812057F28E1D330
:1039D00044F0420401E044F00104E0B201B0BDE86B
:1039E000F08F0000F0B581B0044600F5A265002616
:1039F000002700BF20464FF430512A460423FFF72A
:103A000045FA064320460A21FFF720FFC72F46EA62
:103A1000000609D894F812057F2805D294F81105FC
:103A200001370328E6D101E046F04206F0B201B0CA
:103A3000F0BD00002DE9F04182B0044600270DF1F1
:103A400007050DF106080026204606212A46FFF745
:103A500015FA9DF907100743B1F1FF3F09DC204635
:103A600007214246FFF70AFA9DF806100743C907E7
:103A70000CD120460121FFF7E9FEB6F5F97F05D804
:103A80009DF80700013610F00100DDD0F8B202B059
:103A9000BDE8F0812DE9F0419AB000270DF16701F2
:103AA0000446CDE9167700F0C9FE80464BF28C4003
:103AB000C0F60200D0E90012C3688068CDE9121296
:103AC00045F2D46101AECDE91403C0F601013046E0
:103AD00044226761FCF748FB9DF8670012994FEAA2
:103AE000001C02E00137112F1AD056F82730002BA6
:103AF0001CBF21FA07F35FEAC373F3D036F82750EF
:103B000005F00F035A1E0B2A8FBF2B094CEA030244
:103B100026F82720434362691A4404326261E1E7D0
:103B2000606901A91830606120464DF68012442377
:103B300000F090FC616940EA080512201691179088
:103B400016A920464DF66812082300F083FC0543B1
:103B500012A920464DF67012102300F07BFC28437A
:103B60001AB0BDE8F08100002DE9F04FE7B000F594
:103B7000A2650E46044600F5A46700F12001284620
:103B80004FF4F472FCF7F0FA102E76D141F20800EF
:103B900040F20F41C0F21070C0F204013960786049
:103BA00028464FF4F47104970595FFF779F90DF164
:103BB0009C0A04F24C5150464FF480720391FCF77A
:103BC000D3FA07AE04F5CA6130468022069402910A
:103BD000FCF7CAFAAAF1080CA6F1020E4FF0000990
:103BE00000257146604600BF50F8084F4768D0E98D
:103BF00008B83C445C444444A4084AF8054074199D
:103C0000775FB4F90220B4F91030B4F912403A44A5
:103C10001A44224402EB927292080435102D21F8C6
:103C2000022FE1D109F101090CF1400C20360AF113
:103C3000100AB9F1040F0EF1080ED1D107AD05F14C
:103C400020006021FCF7A9FA27AC04F14000C02154
:103C5000FCF7A3FA039821464FF48072FCF784FA2C
:103C6000029829468022FCF77FFA059D4FF4F471F3
:103C70002846FFF715F9069C049F0020211891F8AB
:103C800018250130B0F5F27F81F81025F6D140F209
:103C90000310CEF201404FF07061C7E97410204666
:103CA00042F618612A464FF4F473FFF7EBFD054620
:103CB000FF20032700902046042101224FF43053B7
:103CC0000197FFF757FE284367B0BDE8F08F00006B
:103CD0002DE9F04FC3B000F5A26A0E46834600F509
:103CE000027150464FF44272FCF73EFA102E57D143
:103CF00041F2080140F20F420BF5A360C0F21071CF
:103D0000C1F20472C0E9002147F600024FF00061E1
:103D1000C0F60002C0E9062150464FF44271FFF799
:103D2000BFF80BF244580DF10C09484641464FF4D8
:103D30008072FCF719FAA9F1080C00214A4600BF6D
:103D40000023604650F8087F4568D0E908462F44B4
:103D500027443744BF0842F823700133042BF1D1C4
:103D600001310CF1400C042902F11002E8D109F1F3
:103D70004000C021FCF711FA404649464FF48072DA
:103D8000FCF7F2F950464FF44271FFF789F84FF60D
:103D9000A040C0F20100CBF844060020CBF8880513
:103DA000584642F6F84152464FF44273FFF76AFD17
:103DB0000546FF20032700905846042101224FF4B6
:103DC00030530197FFF7D6FD284343B0BDE8F08F8D
:103DD00062B6FDF7B5FAFFF771F841F2546141F2AE
:103DE0004A70C2F20001C2F20000886241F612007D
:103DF000C2F2000008620020C822C885C8848A85F3
:103E00008A844FF2E87140F6B002C1F6FF71C2F247
:103E1000000200BF435C135401300C28FAD14FF666
:103E20000004C0F60304FEF759FEFEF7E1FEFEF7BC
:103E300023FF40F60000C4F2010008210022002602
:103E4000FCF772FFFEF70EFF207841F24375C2F2D5
:103E500000050228287025D001272F70EFF310806D
:103E600072B6FCF7D3FD40F2703040F28431C2F2FA
:103E70000000C2F200010660C0E90247FCF708FD3D
:103E80004FF47A70FCF7F8FB2A78012021460023D2
:103E9000FCF762FD4FF47A70FCF7EEFBFCF752FD85
:103EA00062B600BFFEF7E6FEFCE7000070B583B027
:103EB00000210091029102993F2962DC41F2C16226
:103EC0004FF0070CC2F2000203234FF0E80E011D71
:103ED000E72405E0029D08350295029D402D50DA49
:103EE000CDF804C0019D002D20D5F3E7029D019E71
:103EF000354405EB850501EB85056D68009E2D0AAF
:103F00009555029D019E354405EB850501EB850520
:103F10006D68009E16447570009D02350095019DE8
:103F2000013D0195019DB5F1FF3FD3DD029D019E4D
:103F3000354405EB850500EB85056D68D5B1029D1F
:103F4000019E354405EB850500EB8505ED68002DE8
:103F5000CCD0029D019E354405EB850500EB85051F
:103F6000ED68052DC2D0009D5355009D15446C7021
:103F7000D2E700BF009D5355009D154485F801E030
:103F8000CAE703B070BD000010B540F60044C4F2AB
:103F9000010420464FF480410022FCF7C5FE0220B8
:103FA000FCF762FC20464FF480410122FCF7BCFE86
:103FB0000220FCF759FC20464FF480510022FCF708
:103FC000B3FE0220FCF750FC20464FF48051012242
:103FD000FCF7AAFE0220FCF747FC10BDB0B50D4669
:103FE0000446FCF7E5F80128B8BFB0BD691E621EA3
:103FF00012F8013F013801F8013FF9D1B0BD0000CE
:104000002DE9F0438BB004464FF440700A90ADF8B0
:1040100016100DF1270120468DF81520ADF812304D
:1040200000F00CFC05460DF12601204600F0E6FBF1
:10403000054307A9204600F0BDFA054309A920461B
:1040400000F0AEFC05430DF12501204600F0C0FC58
:10405000054306A9204600F0C9FC05430DF12301E4
:10406000204600F0D9FB9DF81510054301390F29B2
:1040700000F2A580BDF816000138622800F29F808A
:10408000BDF81200A0F51670B0F5166F00F297801B
:104090002046402101F0E8F840EA050604F5A26553
:1040A00045F26071C0F6010128464FF47672FCF7C4
:1040B0005BF8204642F628412A464FF47673FFF714
:1040C000E1FB06432046FFF78DFCBDF816100643C2
:1040D0000801BDF81210ADF816008800ADF8120006
:1040E00002270DF112004FF00009CDE9000720462C
:1040F000294645F270420823CDF8089000F08AF96D
:1041000006430DF11600CDE900072046294645F289
:1041100070420823029700F07DF9064304200DF158
:1041200015010127009102902046294645F2704270
:104130000823019700F06EF906432046FFF7AAFC1A
:1041400006430AAA204642F6FC710423FFF79AFBB5
:1041500006432046FFF746FC064304F5027803E0D9
:10416000FF260027012F2CD1204600212A460423B8
:10417000FEF78CFE94F810150643FF2910D094F832
:1041800012057F28EDD394F91305B0F1FF3FE8DC69
:10419000E16940464FF44272FBF7E6FFE1E700BFFA
:1041A0001FFA89F000091828DAD82046322109F1CF
:1041B0000109FFF74BFB0643012FD5D001E045F085
:1041C0007F0604F5A2654BF23421C0F602012846B1
:1041D0004822FBF7C9FF204642F6B8712A46482319
:1041E000FFF750FB06432046FFF7FCFB0643204643
:1041F00042F604412A464FF44373FEF747FE46EA6F
:10420000000504F5027004F5A3614FF44072FBF75A
:10421000ABFF40F20010C0F203404FF07061A269A2
:10422000C4F80815C4F80C05204642F634414FF492
:104230007373FFF727FB05432046FFF7D3FB0543C6
:104240009DF8271041F24170C2F2000001709DF804
:10425000260041F22652C2F2000210709DF825009D
:1042600041F24872C2F2000210709DF8240041F23F
:104270004272C2F2000210709DF8230041F2C06247
:10428000C2F200021070079841F29C62C2F2000272
:104290001060069841F6B872C2F2000210604FF446
:1042A000C8700690204600F0DFFF9DF826100543F9
:1042B000204600F089FF07990543204600F01EFFC5
:1042C0009DF824100543204601F042F89DF8251082
:1042D0000543204601F060F8054320464FF4C871BD
:1042E00001F076F89DF823100543204600F082FF88
:1042F0002843C0B20BB0BDE8F0830000B0B50C4657
:1043000000F5A262002104230546FEF7BFFD95F8E3
:104310001015FF2910D02A7C91420DD095F8111567
:10432000052909D195F8121501F00501052903D1D8
:1043300095F81315C9060BD495F91315B1F1FF3F84
:1043400002DC95F8121508430021C0B22170B0BDFF
:104350000121217095F81015C0B22974B0BD00007C
:104360002DE9F04786B0064640F20020C0F6000076
:1043700005904FF0706004900020B3F5836F4FF00C
:10438000FF0A039042D8100A8DF80C0018098DF826
:104390000E0018011D46884603F10C098DF80D200A
:1043A0008DF80F0003AA304642F6F4710C23FFF794
:1043B00069FA04460320CDE900A030460421012219
:1043C0004FF430530127FFF7D5FA40EA040A06F507
:1043D000A264304642F6044122464B46FEF756FDA3
:1043E0004AEA000A1FFA89F12046FEF759FD6DB12D
:1043F00028B2012806F21350A8F10101C8BF2F46C8
:1044000010F8012F013F01F8012FF9D1504606B0F5
:10441000BDE8F0872DE9F04F81B0DDE90A98DDF8BD
:1044200030B01C4615460E460746FFF799FF8246F8
:1044300006EB0B0049464246FBF796FE38463146EE
:104440002A46234600F006F840EA0A0001B0BDE81B
:10445000F08F00002DE9F04F87B0B3F5836F01D9DD
:10446000FF265BE003F1080906464FEA1920059094
:1044700003F10C00069042F6F470C01A049018097B
:1044800088460390084619461C4617464FEA122BE9
:104490004FEA031AFEF704FD601E00B200280FD495
:1044A00023B29A1943444FF0FF3102F21352013BF9
:1044B00013F80159013800B2884202F80159F7DCBB
:1044C000039806F5A26286F81205A0184FF07061F5
:1044D000416040F205110181059980F80B908172CD
:1044E0000498069B81B2304686F810B586F811759F
:1044F00086F813A5FFF7C6F90746FF2003250090AD
:104500003046042101224FF430530195FFF732FA6F
:1045100040EA070640462146FEF7C2FC304607B097
:10452000BDE8F08FF0B581B00D460DF103010446F2
:1045300000F084F906462046402100F095FE40EA4E
:10454000060704F5A2664BF23421C0F6020130469C
:104550004822FBF709FE204642F6B871324648234E
:10456000FFF790F907432046FFF73CFA0743204640
:1045700042F6044132464FF44373FEF787FC47EAA4
:10458000000604F5A36128464FF44072FBF7ECFDEA
:1045900040F20010C0F20340C5F804034FF0706011
:1045A0009DF80310C5F80003204600F05DFE30437F
:1045B00001B0F0BDB0B50C4600F5A26145F25C4219
:1045C00014230546FFF7CCFED5F8101544F6D35258
:1045D000C1F26202A1FB021291092160B0BD00008C
:1045E00070B582B00D4647F6FF7100220446FFF712
:1045F0003BF906460DF1070220460921FEF73EFC75
:104600009DF807100643042904D00020022918BF92
:10461000FF2600E001202870204647F6FF710222A5
:10462000FFF722F9304302B070BD00002DE9F04FD2
:1046300089B0436900F5A2670E4600213A46044658
:10464000FEF724FC019094F81005A18A20743846E6
:10465000FEF726FC6069112878D306F551700890A2
:1046600006F54170079006F53170069006F5117059
:10467000059006F5A270049006F582700390301D37
:1046800010274DF6C33B4DF657084EF243094EF244
:10469000440502900BE000F2145108985246FBF7D3
:1046A00063FD07EB0A006169071D8F424ED2E019D6
:1046B000B0F8101501F00F02931E4FEA111AB0F86E
:1046C00012150B2B38BF02FB0AFA59450EDC414587
:1046D0001ADC45F2B44291422CD045F2D0429142CC
:1046E000DFD100F214510298D8E700BF494517DC2A
:1046F0004DF6C432914221D04DF644729142D0D150
:1047000000F214510598C9E74DF658029142C2D003
:104710004DF684329142C4D100F214510398BDE7A2
:10472000A9420FD04EF284029142BAD100F2145144
:104730000798B3E790F81C053070B2E700F2145107
:104740000498ABE700F214510698A7E7301D00214A
:1047500050F82120D20A40F8212001314029F7D118
:104760004FF6806206F531700021CFF6FF7200BF70
:1047700000EB410333F9807CC7F341752F443FB20E
:10478000BF0823F8807C435C5B08435400EB810343
:104790009F580131FF0A40299F50E9D10020FF2195
:1047A000321892F804310130002B08BF82F804134C
:1047B0004028F5D148F2010206F554700021C8F2F4
:1047C000000200BF50F82130A3FB0237FB0B40F87A
:1047D000213001312029F5D16069B4F81815204441
:1047E000B0F80C050904000409BA00BA8142019826
:1047F00018BF40F0020009B0BDE8F08FB0B50C461C
:1048000000F5A26145F2584204230546FFF7A8FDD2
:1048100095F811152170B0BDB0B50C4600F5A26138
:104820004AF6305208230546FFF79AFD95F8111510
:10483000012918BF03212170B0BD0000B0B50C469E
:1048400000F5A26145F2504208230546FFF788FDB6
:1048500095F8101595F8112551432170B0BD000051
:104860002DE9F04F89B0054600284FF0020000F016
:104870008F800C46002900F08B8005F118070DF1A0
:1048800023013846FFF7DAFF40B941F6E006C2F2ED
:10489000000638463146FFF7C9FE18B1012009B0BD
:1048A000BDE8F08F9DF82310002908460291216091
:1048B00071D004F11400049006F5A27000950690E2
:1048C00006F5417006F511750022A2460790019485
:1048D00017E000BF0498039A143004900698013240
:1048E000043006900798019C01300790029841F629
:1048F000E0060AF1140A824205F10205C2F200063E
:1049000045D0B01890F80411039202EB820204EB38
:104910008202117190F804110029DBD000F5827930
:104920000098039990F854B990F8556941F6E00061
:10493000C2F2000000EB8100DDF810800430002797
:10494000059010E0069850F82700FBF738FC48F86F
:10495000040B0798C05D00F0D9FAE06099F80000F8
:1049600001378742B6D235F917000AEB8704BBF14D
:10497000010FA06004D105980068FBF720FC00E05F
:104980000020012E48F8040CDCD00020DFE70020D6
:1049900009B0BDE8F08F002009B0BDE8F08F00003D
:1049A000B0B50C4600F5A2614AF6D8621023054660
:1049B000FFF7D6FC95F81D156422514348F2810299
:1049C000C8F28002A1FB0212D1092170B0BD000023
:1049D000B0B50C4600F5A2614AF6646204230546B0
:1049E000FFF7BEFC95F810152170B0BDB0B50C46B0
:1049F00000F5A2614AF6945210230546FFF7B0FC79
:104A0000D5F81015C90A2160B0BD00002DE9F043AA
:104A100085B004464FF00110039045F6047045F64A
:104A20003831C0F60100C0F60101C4E906100020CB
:104A3000012784F83409204647F6FF7100220297C7
:104A4000FEF712FF05462046092104224FF0040913
:104A5000FEF70AFF054320460F214022FEF704FF20
:104A6000054320460A210322FEF7FEFE05430DF111
:104A70001302204647F6FF71FEF700FA0543204671
:104A80000C210122FEF7F0FE0543204640F2011101
:104A90000022FEF7E9FE054320464FF48171002213
:104AA000FEF7E2FE054320464FF485710122FEF732
:104AB000DBFE0543204644F202010122FEF7D4FE4C
:104AC0000543204644F202010022FEF7CDFE0543D5
:104AD00020464FF485710322FEF7C6FE05432046AB
:104AE00040F203110122FEF7BFFE054320460C21D0
:104AF0000022FEF7B9FE054320460F214322FEF7B0
:104B0000B3FE054320460121FEF7A0FE05432046E3
:104B10000F214022FEF7A8FE054320460A2101226C
:104B2000FEF7A2FE054320466421FEF78FFE0543F3
:104B3000204647F6FF710022FEF796FE0543FF264A
:104B4000204601210022062300960197FEF712FF5E
:104B5000284340F0D78120460E210122FEF784FE33
:104B60000546204647F6FF7102224FF00208FEF785
:104B70007BFE0543204647F6FF710122FEF774FED7
:104B80000543204606210122FEF76EFE054320461E
:104B90000121002221230096CDF80490FEF7EAFEC1
:104BA0000543204647F6FF710022FEF75DFE45EA09
:104BB00000060DF11305204647F6FF712A46FEF761
:104BC0005DF9064320460C210122FEF74DFE064307
:104BD000204647F6FF710022FEF746FE06432046B8
:104BE00040F201110022FEF73FFE064320464FF43B
:104BF00081710022FEF738FE064320464FF485718E
:104C00000122FEF731FE0643204644F20201012252
:104C1000FEF72AFE0643204644F202010022FEF778
:104C200023FE064320464FF4857103224FF003090B
:104C3000FEF71AFE0643204640F203110122FEF75A
:104C400013FE0643204644F20F010022FEF70CFE3D
:104C50000643204640F21A214322FEF705FE064392
:104C6000204640F21A210322FEF7FEFD06432046AD
:104C700040F21A210122FEF7F7FD0643204640F2DA
:104C80001A210022FEF7F0FD0643204640F21921CA
:104C90000022FEF7E9FD0643204640F21B210022D8
:104CA000FEF7E2FD0643204647F6FF710022FEF7BD
:104CB000DBFD0643204647F6FF712A46FEF7DEF885
:104CC0000643204647F6FF710122FEF7CDFD06435D
:104CD000204620210722FEF7C7FD0643204620215B
:104CE0000622FEF7C1FD0643204647F6FF71092262
:104CF000FEF7BAFD46EA000746F20C26C0F60106AA
:104D00002046002132464FF40043FEF7BBFD074327
:104D1000204647F6FF710A22FEF7A6FD074306F577
:104D20000042204600214FF40043FEF7ABFD07434D
:104D3000204647F6FF710B22FEF796FD074306F566
:104D40008032204600214FF4A043FEF79BFD47EA46
:104D50000006204647F6FF710122FEF785FD064357
:104D6000204647F6FF710122FEF77EFD06432046EE
:104D700006210322FEF778FD064320460521FEF7B3
:104D800065FD0643204647F6FF710022FEF76CFDE5
:104D90000643204647F6FF712A46FEF76FF80643A2
:104DA00020460C210122FEF75FFD0643204647F610
:104DB000FF710022FEF758FD064320464FF48A712A
:104DC0000022FEF751FD0643204640F21511002255
:104DD000FEF74AFD064320464FF48B714222FEF750
:104DE00043FD0643204640F217110022FEF73CFD2A
:104DF000064320460B210022FEF736FD06432046DF
:104E000047F6FF712A46FEF739F846EA00052046C4
:104E10000C210022FEF728FD054320460B2101222C
:104E2000FEF722FD05432046FEF704FE284369D124
:104E3000204647F6FF710222FEF716FD4BF20C22C8
:104E40000546C0F60202204642F6D8712823FEF736
:104E500019FD0543FF262046042100224FF430535C
:104E60000096CDF80480FEF785FD45EA000704F5BD
:104E7000A265204642F604412A464FF4F673FEF737
:104E800005F8074304F1200029464FF4F472FBF7BC
:104E90006BF920461021FEF767FE45F6047147EADC
:104EA000000504F50270C0F601014FF44272FBF7F1
:104EB0005BF920461021FEF70BFFA269054320464F
:104EC00042F634414FF47373FEF7DCFC0543204691
:104ED000042101224FF430530096CDF80490FEF7E0
:104EE00049FD054303A920464DF680320423FFF710
:104EF000B1FA054302A920464DF664120423FFF7D8
:104F0000A9FA2843C0B205B0BDE8F08301460928DC
:104F10004FF0000018BF052900D17047002904BFD9
:104F2000FF207047084670472DE9F04182B00546E2
:104F300000208DF80700C5B168690C468047064619
:104F400005F118070DF1070838464146FFF7D6F975
:104F50009DF8070001280CD068698047801BA0429B
:104F6000F2D3032002B0BDE8F081022002B0BDE818
:104F7000F081002002B0BDE8F081000070B582B081
:104F80000C460DF107010546FFF758FC064605F5EE
:104F9000027021464FF44272FBF7E6F89DF80710C5
:104FA000284600F061F9304302B070BD70B582B0A0
:104FB0000C46097A05464FF00530CDE90000002087
:104FC000013904E05A600C30B0F5407F33D012292B
:104FD000F9D8DFE801F0120B0A190A0A0A0B0A0ACB
:104FE0000A0A200A0A0A0A0A2700ECE722582318AC
:104FF0005E68D2022250F202E4E7225823185E686B
:1050000092002250B200DDE7225823185E68D201D8
:105010002250F201D6E7225823185E68120222506D
:105020003202CFE7225823185E68C2EB02422250B8
:10503000C6EB0642C6E7694628464BF6F01208233F
:10504000FFF708FA0646284621464BF2E8624FF47D
:105050004073FFF7FFF9304302B070BD70B586B002
:1050600004464FF001100490481EB0FA80F04FF053
:105070000C014FEA501008BF04218DF811008DF883
:10508000171004F5A265042004A90026CDE900103C
:10509000204629464BF2E06208230296FFF7BAF950
:1050A000064601200DF117014FF0110CCDE900105B
:1050B0002046294645F288421423CDF808C0FFF760
:1050C000A9F9304306B070BD70B50C4647F6FF71C4
:1050D00000220546FEF7C8FB0646C4F347022846F1
:1050E0000421FEF7C1FB0643284647F6FF71022262
:1050F0002C80FEF7B9FB304370BD000080B584B052
:105100008A1E40F2E6339A42039102D97F2004B00E
:1051100080BD4FF47A725143042203AB039100F532
:10512000A2614FF0000CCDE9003245F25C4214233D
:10513000CDF808C0FFF76EF904B080BDF0B583B0BC
:105140000E460DF10B010446FFF74AFA9DF80B10CD
:105150000546B14234D07EB1012E29D1204647F612
:10516000FF710022FEF780FB06462046092104223B
:10517000FEF77AFB01270CE0204647F6FF7100227C
:105180000027FEF771FB0646204609210222FEF7A2
:105190006BFB46EA050141EA00050120009020462C
:1051A0000121002206230197FEF7E4FB054300E0FE
:1051B000FF25204647F6FF710222FEF755FB054307
:1051C000284603B0F0BD000080B584B04FF0010C5C
:1051D0000DF10F028DF80F1000F5A261CDE9002C42
:1051E00045F258420423CDF808C0FFF713F904B084
:1051F00080BD0000F0B581B00446002004F5A26532
:105200000F460090204629464AF630520823FFF701
:10521000A7F8032F06460AD0012F11D1012084F8E8
:105220001105032084F813050020009009E00320F5
:1052300084F81105022084F813050120009000E095
:105240007F26204629464AF630520823FFF702F906
:1052500040EA0605694620464DF664120423FFF72E
:10526000F9F8284301B0F0BD2DE9F0410C46402982
:10527000054629D0102C5ED105F5A2662846314698
:105280004AF638521023FFF76BF80746402085F89E
:10529000140585F81605042085F8190528463146B9
:1052A0004AF638521023FFF7D5F840EA0708284697
:1052B000314645F2504208230827FFF751F848EAE3
:1052C000000840F2044026E005F5A2662846314673
:1052D0004AF6385210234FF01008FFF741F80746FE
:1052E000012085F81905284631464AF63852102320
:1052F00085F8148585F81685FFF7ACF8074328462E
:10530000314645F250420823FFF72AF847EA0008E1
:1053100040F608000427A5F810052846314645F256
:105320005042082385F8147585F81575FFF792F833
:1053300048EA000600E07F2628462146FEF714FCD6
:10534000064328462146FEF7C3FC3043BDE8F08102
:10535000632984BF7F20704780B584B048F21F5214
:10536000C1EB0121C5F2EB12A1FB0212510901228E
:105370000DF10F038DF80F1000F5A2614FF00D0C29
:10538000CDE900324AF6D8621023CDF808C0FFF705
:1053900041F804B080BD000080B584B04A1E012AE7
:1053A0008DF80F1011D801220DF10F0300F5A26145
:1053B0004FF0000CCDE900324AF664620423CDF8C8
:1053C00008C0FFF727F804B080BD7F2004B080BD7F
:1053D00080B584B042F210729142039102D97F20CD
:1053E00004B080BDC902042203AB039100F5A261A1
:1053F0004FF0000CCDE900324AF694521023CDF85C
:1054000008C0FFF707F804B080BD00002DE9F043A5
:1054100097B004464FF44070002613900DF15B01E5
:105420002046CDE91466FFF709FA8046FF20207474
:105430004BF27C40C0F60200D0E90012C3688068DD
:10544000CDE90F12CDE9110345F21870C0F6010045
:1054500090E88E0000F1100ED0F81C900391049299
:105460000593D0E90812C36A806A9EE82050CDE90E
:105470000C20CDE90A910F989DF85B10CDE9075CEF
:105480000E9300F668704FEA011C03AB6661069745
:10549000CDF824E00F9002E001360C2E1AD053F81C
:1054A0002670002F1CBF20FA06F75FEAC777F3D0FB
:1054B00033F8267007F00F056A1E0B2A8FBF3D09CF
:1054C0004CEA050223F826204D4362692A4404323F
:1054D0006261E1E7606903A91830606120464DF61A
:1054E00080123023FEF7B6FF616940EA08050D20FF
:1054F0001491159014A920464DF668120823FEF762
:10550000A9FF05430FA920464DF670121023FEF7A0
:10551000A1FF0543204647F6FF710022FEF7A4F9DC
:105520000543204609210522FEF79EF90543204642
:1055300047F6FF710222FEF797F9054313AA2046AA
:1055400042F6FC710423FEF79DF90543FF20032773
:1055500000902046042101224FF430530197FEF7BA
:1055600009FA45EA000604F5A2652046294645F2F7
:1055700040420C23FEF7F4FEB4F8181562694FF0B0
:10558000FF378A4208BF46EA0007204629464EF206
:10559000C4020823FEF7E4FE94F8161538430029E8
:1055A00018BF40F00300C0B217B0BDE8F0830000A0
:1055B000F0B583B0044600208DF80B00019001AADD
:1055C000204642F6FC710423FDF760FC019940F28D
:1055D000FF429142054630D094F8340901282CD17D
:1055E000204647F6FF7100220027FEF73DF90543EC
:1055F000204615211622FEF737F9054320461421CF
:105600000122FEF731F905430DF10B069DF90B0060
:10561000002812D4204606213246FDF72FFC054310
:1056200020460A21FEF712F90543B7F5FA7F07F184
:105630000107EBD39DF80B0005430DF10B0220464B
:105640000621FDF71BFC9DF90B100543B1F1FF3F4F
:105650000DDC0DF10B0220460721FDF70FFC9DF834
:105660000B10054301F0FE00842818BF0D432046AF
:1056700047F6FF710022FEF7F7F805432046142194
:105680000022FEF7F1F80543204615210022FEF71F
:10569000EBF80543204609210422FEF7E5F805430F
:1056A000204647F6FF710222FEF7DEF82843C0B21B
:1056B00003B0F0BD02E008C8121F08C1002AFAD1E9
:1056C00070477047002001E001C1121F002AFBD182
:1056D000704700000D00000040000054C000D89F3B
:1056E0004001E49F4000F89F0404FC9F0001FCA0DF
:1056F00000010CA1C0001CA1020928A1400048A281
:1057000081004CA2810054A281005CA2810064A2AD
:1057100084006CA282008CA20D000000C000B45472
:105720004000C0540401D0540404D055010484DB6B
:105730000404C4DB0204C4DE020444DF010444E0C8
:10574000010484E0C00858D80000000000000000F8
:105750000102030406070809000000000102030417
:10576000545000800004080800000404AD3000809C
:105770000301060300000100AD38010001E0014013
:10578000001000100100010000000001545800400A
:10579000041A0200545C01400001005100000FA0F7
:1057A0000FA003E802801F40000005005470008035
:1057B000032003200000000854780100011B002191
:1057C0000033000002000001040108025488014077
:1057D00000000000000000000000000000000000C9
:1057E00000000800AD48010001F4000003060010AD
:1057F0000808080800000008AD60010000000080F3
:1058000000000000201F01F400001D0AAD700080A0
:1058100008001F4000000001AD78008000A00320B8
:1058200000010190AD80004000002800AD840080A0
:105830000000320003200000AD8C00800258FF38C9
:105840000000000CAD94010000019000FFFFFC007F
:105850000000040000000100ADA400C00480061A8E
:105860000080058000000106ADB000C00480061A6B
:105870001900058000000190ADBC0440000000004C
:1058800000000000001200250000000600000005D6
:105890000000000500000006000000040000000FEA
:1058A0000000005A00000000000000090B0C0B0B68
:1058B000030311050101010100000000000D0000BB
:1058C000AE00010400000004000000080000000A0F
:1058D0000000000C0000000D0000000E0000000899
:1058E0000000000800000010000000100000002070
:1058F00000000020000000060000050A02000C085D
:1059000000000000AE400040000000FFAE44004038
:1059100000100401AE48004000001000AE4C0040F2
:1059200000000001AE5001400000001404002800F7
:1059300003206C000000000000000000AE64004086
:1059400000000001AED8010000C805DC00000CCD4D
:105950000104000000012601B5500282A3E8A3B8AB
:10596000A438A428A648A448A788A748AC10A790A4
:1059700099BC99B49AFC9ABC000000000000000099
:105980000000000000000000000000000000000017
:105990000000000000000000000000000000000007
:1059A000000000000000000000000000B5A002821E
:1059B00000880300008200820404040800800401BF
:1059C0000902090804040080040104010000000029
:1059D00000000000000000000000000000000000C7
:1059E00000000000000000000000000000000000B7
:1059F00000000000000000000000000000000000A7
:105A0000B5F0004000040000B39C01004000051EFA
:105A1000021B087C8000120100010800B6C000C013
:105A2000000060000000200000000000AEA8004060
:105A300000000405AEAC008001000100000200007F
:105A4000AEB4004000000000AEB8008100000000CD
:105A500000000000AEC00081000000000000000057
:105A6000AEC800810801010800000008AED0008126
:105A70000108080800000001B5F4008000000000E3
:105A800000000000B5FC00800000000000000000E5
:105A9000B604004000000000B6080044000000000A
:105AA000000000000000000000000000B6180044E4
:105AB00000000000000000000000000000000000E6
:105AC000B6280044000000000000000000000000B4
:105AD00000000000B6380044000000000000000094
