:020000040801F1
:1000000098130020CD010108292E01088928010834
:10001000252E010871040108253E0108000000009A
:1000200000000000000000000000000099380108F6
:10003000B5050108000000002D2E01089B380108BD
:10004000E7010108E7010108E7010108E7010108EC
:10005000E7010108E7010108E7010108E7010108DC
:10006000E7010108E7010108E7010108E7010108CC
:10007000E7010108E7010108E7010108210501087E
:1000800031050108E7010108E7010108E70101085E
:10009000E7010108E7010108E7010108E70101089C
:1000A000E7010108E7010108E7010108E70101088C
:1000B000E7010108E701010815390108E701010816
:1000C000E7010108E7010108E7010108E70101086C
:1000D000E7010108E7010108E7010108E70101085C
:1000E000E7010108E7010108E7010108E70101084C
:1000F000E7010108E7010108E7010108E70101083C
:10010000E7010108E7010108E7010108E70101082B
:10011000E70101081F3D0108E70101082539010831
:100120004105010851050108610501087105010833
:1001300000F002F800F03AF80AA090E8000C8244BF
:100140008344AAF10107DA4501D100F02FF8AFF29C
:10015000090EBAE80F0013F0010F18BFFB1A43F0A5
:10016000010318475447000074470000103A24BFA9
:1001700078C878C1FAD8520724BF30C830C144BF0C
:1001800004680C607047000000230024002500264E
:10019000103A28BF78C1FBD8520728BF30C148BFEA
:1001A0000B6070471FB51FBD10B510BD00F08AF879
:1001B0001146FFF7F7FF03F02BFF00F0A8F803B498
:1001C000FFF7F2FF03BC00F0AFF8000009488047DA
:1001D00009480047FEE7FEE7FEE7FEE7FEE7FEE729
:1001E000FEE7FEE7FEE7FEE704480549054A064B41
:1001F000704700000539010831010108980D002001
:1002000098130020980F0020980F0020B2F12003CF
:100210000AD5C2F1200320FA02F001FA03F321FA11
:1002200002F140EA0300704721FA03F04FF00001A9
:10023000704710B5431C02E010F8011B71B1810733
:10024000FAD14FF0013202C88C1A8C4314EAC21161
:10025000F9D0C01A0A0603D0C01E10BDC01A10BDC6
:100260000A0401D0801E10BD0902FCD0401E10BD42
:100270004FF0000200B5134694469646203922BF3F
:10028000A0E80C50A0E80C50B1F12001BFF4F7AF8A
:10029000090728BFA0E80C5048BF0CC05DF804EB6C
:1002A000890028BF40F8042B08BF704748BF20F8DA
:1002B000022B11F0804F18BF00F8012B70477047D8
:1002C00070477047754600F02BF8AE46050069464A
:1002D000534620F00700854618B020B5FFF784FF8D
:1002E000BDE820404FF000064FF000074FF0000837
:1002F0004FF0000B21F00701AC46ACE8C009ACE8B8
:10030000C009ACE8C009ACE8C0098D46704710B51B
:100310000446AFF300802046BDE81040FFF74FBF12
:1003200000487047380D002001491820ABBEFEE799
:10033000260002007047000010B51548007880B90B
:10034000062003F003F84FF47A7003F089FD0620CD
:1003500002F0FCFF0F4803F083FD01200C490870F8
:1003600014E00B480078012809D1062003F022F898
:10037000084803F075FD02200549087006E00448AE
:100380000078022802D100200149087010BD000049
:100390000000002040420F001CB52C4800680128D6
:1003A00002DB00202949086028480068002848D15D
:1003B00027480068052804DD25480068B0F5C87F97
:1003C00004DB244800684042224908602048006855
:1003D0002049096808441E49086008460068B0F5CD
:1003E000C87F02DB4FF4C870086019480068052810
:1003F00002DC05201649086017481849CDE90010AD
:100400001348008882B2164B1648018816480088A7
:1004100003F03AFD00240AE0E0B20F490B780F49DF
:100420000A780F49097803F085F9601C84B2062C1C
:10043000F2DB03F015FA03F087F8012003490860A6
:1004400000BF0A4803F00CFD1CBD00000C0000209A
:1004500010000020140000202800002027000020A9
:10046000260000202000002022000020A08601009D
:1004700000BFFEE770B502460C46FF25FF2309E0EA
:1004800012F8010B80EA05010648405C80EA03058A
:100490000548435C201EA4F10106B4B2F0D143EA42
:1004A000052070BD7F4601087F47010810B51B4835
:1004B00000780B3811282FD2DFE800F0090C0F1359
:1004C000162E2E2E2E17181B1E2124272A0003F06D
:1004D00097F921E0FFF760FF1EE0062002F06AFFB7
:1004E0001AE0FFF729FF17E016E015E002F0A0FC84
:1004F00012E002F005FD0FE002F068FD0CE002F0F2
:10050000CBFD09E002F034FE06E002F09DFE03E0C0
:10051000062002F04FFF00BF00BF10BD1D000020ED
:1005200010B5024800F0FCF810BD00008C09002056
:1005300010B5024800F0F4F810BD0000D00900200A
:1005400010B5024800F0ECF810BD0000E00A0020F1
:1005500010B5024800F0E4F810BD00009C0A00202D
:1005600010B5024800F0DCF810BD0000240B00209C
:1005700010B5034800F0D4F8024800F0D1F810BDDF
:10058000580A0020140A002030B590F84050012489
:10059000AC40C56B6C60046863604468102C04D187
:1005A0000468A2600468E16003E00468A160046874
:1005B000E26030BD704772B600BFFEE70021074A17
:1005C000D1610749096941F00401054A11611146E9
:1005D000096941F04001116170470000180D0020C9
:1005E000002002400021074AD1610749096941F012
:1005F0000201054A116111464861096941F0400153
:1006000011617047180D0020002002400022054BA8
:10061000DA61054A126942F00102034B1A61018056
:1006200070470000180D00200020024000201E49E5
:10063000C96801F0100139B11C49C96941F00201D2
:100640001A4AD16140F010001749C96801F004014D
:1006500039B11649C96941F00101144AD16140F02C
:1006600004001149C96901F0010169B10F49C96963
:1006700041F004010D4AD16100BF0B49C96921F065
:100680000101094AD16100BF00BF40F20111884257
:1006900006D10549C96921F00101034AD16101E090
:1006A0000149C86000BF704700200240180D0020BB
:1006B00070B5044600F032FD054609E0601C38B113
:1006C00024B100F02BFD401BA04201D9032070BDD6
:1006D0001248C06800F001000028EFD10F48C06840
:1006E00000F0200020B100BF20200C49C86000BFEE
:1006F0000A48C06800F0100048B90848C06900F016
:10070000010020B90548C06800F0040018B1FFF7E7
:100710008DFF0120DBE70020D9E700000020024028
:1007200070B50446E06B05682068066894F84010D0
:10073000042088402840002875D006F004000028D6
:10074000FAD02068006800F0200028B9206800680E
:1007500020F0040021680860D5492068884254D9F7
:10076000D34978392068884201D1042049E0D04932
:1007700064392068884201D1402042E0CC49503998
:100780002068884201D100153BE0C9493C39206806
:10079000884202D14FF4804033E0C54928392068AF
:1007A000884202D14FF480202BE0C14914392068DF
:1007B000884202D14FF4800023E0BD49206888427E
:1007C00001D1C0041DE0BB492068884201D104204A
:1007D00017E0B84914312068884201D1402010E068
:1007E000B44928312068884201D1001509E0B14997
:1007F0003C312068884202D14FF4804001E04FF440
:100800008020AC49091F086054E0A9497839206864
:10081000884201D104204AE0A54964392068884211
:1008200002D1402043E04CE0A14950392068884281
:1008300001D100153BE09E493C392068884202D135
:100840004FF4804033E09A4928392068884202D129
:100850004FF480202BE0964914392068884202D159
:100860004FF4800023E092492068884201D1C004FF
:100870001DE090492068884201D1042017E08D498D
:1008800014312068884201D1402010E08949283184
:100890002068884201D1001509E086493C31206872
:1008A000884202D14FF4804001E04FF4802080491B
:1008B00080394860E06A002802D02046E16A884713
:1008C000F4E094F84010022088402840002871D0BD
:1008D00006F002000028FAD02068006800F020002E
:1008E00040B92068006820F00A00216808600120F3
:1008F00084F821006E492068884254D96C497839BF
:100900002068884201D1022049E0694964392068A1
:10091000884201D1202042E0654950392068884250
:1009200001D140153BE062493C392068884202D140
:100930004FF4005033E05E4928392068884202D1E4
:100940004FF400302BE05A4914392068884202D114
:100950004FF4001023E056492068884201D18004FA
:100960001DE054492068884201D1022017E0514916
:1009700014312068884201D1202010E04D492831EF
:100980002068884201D1401509E04A493C3120687D
:10099000884202D14FF4005001E04FF40030454945
:1009A000091F086054E0424978392068884202D122
:1009B00002204AE057E03E4964392068884201D16C
:1009C000202042E03A4950392068884201D1401540
:1009D0003BE037493C392068884202D14FF400504F
:1009E00033E0334928392068884202D14FF400307F
:1009F0002BE02F4914392068884202D14FF40010AF
:100A000023E02B492068884201D180041DE0294958
:100A10002068884201D1022017E02649143120685D
:100A2000884201D1202010E02249283120688842E4
:100A300001D1401509E01F493C312068884202D1AC
:100A40004FF4005001E04FF40030194980394860FC
:100A500000BF002084F8200000BFA06A30B3204609
:100A6000A16A884722E094F8401008208840284076
:100A7000E0B106F00800C8B12068006820F00E0060
:100A80002168086094F8401001208840E16B4860BC
:100A90000120A06384F8210000BF002084F820001A
:100AA00000BF206B10B12046216B884770BD00004D
:100AB00080000240080402400146002209B90120DA
:100AC00070471E4B086898420BD21D4B0868C01A2D
:100AD0001423B0FBF3F08000086419480838C86399
:100AE0000AE0164B0868C01A1423B0FBF3F080002C
:100AF000086412480838C863022081F82100086899
:100B0000026843F6F0708243D1E901031843CB68D1
:100B100018430B6918434B6918438B691843CB6919
:100B2000184302430868026000208863012081F8AE
:100B30002100002081F8200000BFC1E70804024026
:100B4000080002402DE9F04104460D4616461F46B6
:100B50004FF0000800BF94F82000012802D10220C5
:100B6000BDE8F081012084F8200000BF94F8210046
:100B700001282CD1022084F821000020A0632068E5
:100B8000006820F00100216808603B463246294693
:100B90002046FFF7F9FCE06A30B12068006840F0B9
:100BA0000E00216808600BE02068006820F0040057
:100BB000216808602068006840F00A002168086029
:100BC0002068006840F001002168086006E000BF6E
:100BD000002084F8200000BF4FF002084046BFE725
:100BE00010B54FF0FF300649086100200861401E33
:100BF000C8600020C86000F011FB002010BD00009C
:100C00000010024070B5044600F088FA06462546FA
:100C1000681C10B104480078054400BF00F07EFA5B
:100C2000801BA842FAD370BD3C0000202DE9F041A2
:100C300004460E460127002500BF2648007E0128F5
:100C400002D10220BDE8F08101202249087600BFD0
:100C50002068022813D14CF25030FFF729FD90BBD9
:100C60000120FFF7ABFC4CF25030FFF721FD0746A7
:100C70001948006920F004001749086123E04CF28C
:100C80005030FFF715FDF0B94FF0FF303060A56828
:100C900012E02846FFF7A6FC4CF25030FFF708FDA3
:100CA00007460D48006920F002000B4908610FB1AA
:100CB000356007E005F50065D4E9021001EBC020BE
:100CC000A842E6D800BF00BF00200249087600BF56
:100CD0003846B7E7180D002000200240034800699D
:100CE00040F0800001490861002070470020024068
:100CF0002DE9FE4F05468B461746984601260024EF
:100D00000020029000BF2448007E012802D102206A
:100D1000BDE8FE8F01202049087600BF4CF250301C
:100D2000FFF7C6FC064686BB012D02D101200290CA
:100D300006E0022D02D10220029001E00420029080
:100D400000241EE02201B946C24648465146FFF73C
:100D50005DFA80B20190022000FB04B0009001997E
:100D6000FFF754FC4CF25030FFF7A2FC06460B484C
:100D7000006920F001000949086106B104E0601C27
:100D8000C4B202988442DDDB00BF00BF00200249EC
:100D9000087600BF3046BBE7180D00200020024057
:100DA00000200849096901F0800151B10649054A4E
:100DB0005160064951601146096901F0800101B195
:100DC000012070470020024023016745AB89EFCD29
:100DD0002DE9F847024600239C467BE14FF00108CD
:100DE00008FA03F4D1F8008008EA0400A0427DD19B
:100DF000DFF8F4A2D1F80480A8EB0A09D0453AD074
:100E000014DCB8F1030F50D009DCB8F1000F31D079
:100E1000B8F1010F1CD0B8F1020F49D120E0B8F1B0
:100E2000110F18D0B8F1120F42D11EE0B9F5881F8A
:100E300025D006DCB9F5803F20D0B9F5801F37D129
:100E40001AE0B9F5001F18D0B9F5041F30D117E02A
:100E5000D1F80CC02DE0D1F80C8008F1040C28E08A
:100E6000D1F80C8008F1080C23E0D1F80C8008F1CF
:100E70000C0C1EE000BF00BF00BF00BF00BF00BFE2
:100E8000D1F80880B8F1000F02D14FF0040C0BE04C
:100E9000D1F80880B8F1010F03D14FF0080C1461AC
:100EA00002E04FF0080C546103E04FF0000C00E04A
:100EB00000BF00BFFF2801D8904601E002F10408FE
:100EC0004646FF2802D84FEA830803E0A3F108084A
:100ED0004FEA88084746D6F800804FF00F0909FA14
:100EE00007F928EA09080CFA07F900E07AE048EA6D
:100EF0000908C6F80080D1F8048008F08058B8F1DD
:100F0000805F6FD100BFDFF8E481D8F8188048F027
:100F10000108DFF8D891C9F81880C846D8F81880B9
:100F200008F00108CDF8008000BF00BF4FEAB938D3
:100F30004FEA930958F829504FEA83784FEA187915
:100F40004FF00F0808FA09F825EA0805DFF8A08134
:100F5000424502D14FF0000824E0DFF89881424575
:100F600002D14FF001081DE0DFF88C81424502D12B
:100F70004FF0020816E0DFF88481424502D14FF0BD
:100F800003080FE0DFF87881424502D14FF00408F2
:100F900008E0DFF87081424502D14FF0050801E01A
:100FA0004FF006084FEA83794FEA197908FA09F8F1
:100FB00048EA0505DFF850814FEA930948F82950BF
:100FC000D1F8048008F48018B8F5801F0BD1DFF841
:100FD0003C81D8F8008048EA0008DFF83091C9F871
:100FE00000800AE075E0DFF82481D8F8008028EA64
:100FF0000008DFF81891C9F80080D1F8048008F4DF
:101000000018B8F5001F0ED1DFF8008108F10408C0
:10101000D8F8008048EA0008DFF8F09009F10409E8
:10102000C9F800800DE0DFF8E48008F10408D8F882
:10103000008028EA0008DFF8D49009F10409C9F813
:101040000080D1F8048008F40038B8F5003F0ED1D4
:10105000DFF8B880A8F10408D8F8008048EA000852
:10106000DFF8A890A9F10409C9F800800DE0DFF8C5
:101070009C80A8F10408D8F8008028EA0008DFF86E
:101080008C90A9F10409C9F80080D1F8048008F413
:101090008038B8F5803F0ED1DFF87080A8F10808DD
:1010A000D8F8008048EA0008DFF86090A9F1080944
:1010B000C9F800800DE0DFF85480A8F10808D8F8DE
:1010C000008028EA0008DFF84490A9F10809C9F86F
:1010D00000805B1CD1F8008028FA03F8B8F1000FFB
:1010E0007FF47CAEBDE8F8870000111000100240CC
:1010F00000080140000C01400010014000140140B4
:1011000000180140001C0140080001400804014093
:101110000AB1016101E00B040361704701480068F6
:101120007047000034000020034800680349097834
:101130000844014908607047340000203C0000204A
:1011400010B50848006840F0100006490860032008
:1011500000F012F90F2000F007F800F061F800200D
:1011600010BD0000002002402DE9F04188B0044687
:101170000027B846002600BF2348C06940F004009D
:101180002149C8610846C06900F00400019000BF11
:1011900000BF02A903A800F0EBF9069F1FB900F0F9
:1011A0000FFA054602E000F00BFA45001748B5FBC0
:1011B000F0F0A0F1010816481649086040F2E73146
:1011C0001448C160C0F80480002101618160816120
:1011D00000F00AFD064696B90E4800F093FE06465A
:1011E0006EB91E2000F07AF8102C07D2002221469A
:1011F0001E2000F083F80848046000E00126304615
:1012000008B0BDE8F08100000010024040420F002D
:1012100000080040CC0C002038000020704700007F
:1012200008B500BF1148806940F001000F4988618E
:101230000846806900F00100009000BF00BF00BFB9
:101240000846C06940F08050C8610846C06900F097
:101250008050009000BF00BF00BF0549486820F0E3
:10126000E06040F00070486000BF08BD0010024020
:101270000000014010B501460846002807DB00F0D9
:101280001F0301229A40034B440943F8242000BF66
:1012900010BD000080E200E010B5014608460028BD
:1012A00017DB00F01F0301229A400B4B440943F85F
:1012B000242000BF00BF00BFBFF34F8F00BF00BF9F
:1012C00000BF00BF00BF00BFBFF36F8F00BF00BFF4
:1012D00000BF00BF10BD000080E100E001460846ED
:1012E000002809DB00F01F0301229A4043099B00FC
:1012F00003F1E023C3F8002100BF70472DE9F05F40
:1013000080460D461646002702F08EFD07463946F8
:101310002A46334601F00700C0F1070ABAF1040F6C
:1013200002D94FF0040A01E0C0F1070AD14600F1EA
:10133000040ABAF1070F02D24FF0000A01E0A0F14F
:10134000030AD4464FF0010A0AFA09FAAAF1010A7F
:101350000AEA020A0AFA0CFA4FF0010B0BFA0CFB2C
:10136000ABF1010B0BEA030B4AEA0B0421464046A2
:1013700002F062FDBDE8F09F00BF00F00702064BDF
:1013800019684FF6FF031940044B0B4343EA02214F
:10139000014B196000BF70470CED00E00000FA053A
:1013A00000BF00BF00BF00BF00BFBFF34F8F00BF33
:1013B00000BF00BF0948006800F4E0600849084326
:1013C000001D0649086000BF00BF00BFBFF34F8F7C
:1013D00000BF00BF00BF00BF00BFFDE70CED00E095
:1013E0000000FA0570B504460D460CB9012070BD29
:1013F0005A48006800F00700A8420ED2574800681B
:1014000020F007002843554908600846006800F0AE
:101410000700A84201D00120E9E7207800F002008F
:1014200002281DD1207800F00400042805D14C4882
:10143000406840F4E0604A494860207800F00800C5
:10144000082805D14648406840F460504449486047
:101450004348406820F0F000A168084340494860D4
:10146000207800F0010078B36068012806D13C487C
:10147000006800F4003090B90120B8E760680228E5
:1014800006D13748006800F0007040B90120AEE78F
:101490003348006800F0020008B90120A7E730488F
:1014A000406820F00300616808432D494860FFF759
:1014B00035FE064609E0FFF731FE801B41F2883118
:1014C000884202D9032092E707E02548406800F0EF
:1014D0000C006168B0EB810FEDD12048006800F08E
:1014E0000700A8420ED91D48006820F007002843D5
:1014F0001A4908600846006800F00700A84201D0B9
:10150000012074E7207800F00400042807D1144873
:10151000406820F4E060E1680843114948602078A1
:1015200000F00800082808D10D48406820F46050F9
:10153000216940EAC1000A49486000F061F80849A1
:101540004968C1F30311074A515CC8400649086065
:1015500006480068FFF708FE002048E70020024028
:10156000001002409148010840000020380000208F
:101570000F2202600D4A526802F0030242600B4AD9
:10158000526802F0F0028260084A526802F4E06297
:10159000C260064A526802F46052D2080261044AEC
:1015A000126802F007020A60704700000010024053
:1015B0000020024001480068704700004000002001
:1015C00000B5FFF7F7FF04494968C1F30221034A58
:1015D000515CC84000BD000000100240A148010855
:1015E00000B5FFF7E7FF04494968C1F3C221034A88
:1015F000515CC84000BD000000100240A148010835
:1016000070B500210022002400230020134D6968DA
:1016100001F00C05F5B1042D02D0082D19D101E01F
:101620000F4819E00F4DC1F38346AB5D01F48035DF
:1016300055B10A4D6D68C5F340450B4E725D084DBE
:101640005D43B5FBF2F402E0084D03FB05F42046D0
:1016500002E000BF024800BF00BF70BD00100240A2
:1016600000127A007F4801088F48010800093D00F8
:10167000F8B504460CB90120F8BD207800F001004F
:10168000002878D0F848406800F00C0004280CD0FE
:10169000F548406800F00C00082811D1F248406875
:1016A00000F48030B0F5803F0AD1EF48006800F4C4
:1016B000003000285FD0606800285CD10120DBE7A3
:1016C00000BF6068B0F5803F06D1E748006840F48D
:1016D0008030E549086028E0606858B9E248006851
:1016E00020F48030E04908600846006820F480203B
:1016F00008601AE06068B0F5A02F0BD1DA480068E6
:1017000040F48020D84908600846006840F48030E2
:1017100008600AE0D448006820F48030D2490860AC
:101720000846006820F48020086000BF606888B127
:10173000FFF7F4FC054606E0FFF7F0FC401B6428C9
:1017400001D9032098E7C848006800F40030002859
:10175000F2D010E0FFF7E2FC054606E0FFF7DEFC02
:10176000401B642801D9032086E7BF48006800F4C5
:1017700000300028F2D1207800F00200022857D172
:10178000B948406800F00C0050B1B748406800F01C
:101790000C00082818D1B448406800F4803098B98B
:1017A000B148006800F0020020B12069012801D092
:1017B000012061E7AC48006820F0F800616940EA68
:1017C000C100A949086033E02069E8B10120A749B8
:1017D0000860FFF7A3FC054606E0FFF79FFC401BEF
:1017E000022801D9032047E79F48006800F0020063
:1017F0000028F2D09C48006820F0F800616940EAB7
:10180000C1009949086013E0002098490860FFF77B
:1018100085FC054606E0FFF781FC401B022801D944
:10182000032029E79048006800F002000028F2D168
:10183000207800F0080008282DD1A069B8B1012057
:101840008B490860FFF76AFC054606E0FFF766FC77
:10185000401B022801D903200EE78348406A00F0AC
:1018600002000028F2D0012001F05CFD13E000200E
:101870007F490860FFF752FC054606E0FFF74EFC83
:10188000401B022801D90320F6E67748406A00F0A1
:1018900002000028F2D1207800F00400042873D15F
:1018A00000277148C06900F0805070B900BF6E48D1
:1018B000C06940F080506C49C8610846C06900F0BA
:1018C0008050009000BF00BF01276A48006800F404
:1018D0008070B0B96748006840F48070654908605E
:1018E000FFF71CFC054606E0FFF718FC401B6428C8
:1018F00001D90320C0E65F48006800F4807000282A
:10190000F2D000BFE068012806D15748006A40F0D5
:1019100001005549086227E0E06858B95248006A5A
:1019200020F00100504908620846006A20F00400D7
:10193000086219E0E06805280BD14B48006A40F0C6
:101940000400494908620846006A40F00100086244
:101950000AE04548006A20F0010043490862084651
:10196000006A20F00400086200BFE068A0B1FFF741
:10197000D5FB054609E0FFF7D1FB401B41F288315A
:10198000884202D9032077E622E03748006A00F057
:1019900002000028EFD012E0FFF7C0FB054608E088
:1019A000FFF7BCFB401B41F28831884201D903207C
:1019B00062E62D48006A00F002000028F0D1012FF5
:1019C00005D12948C06920F080502749C86100BF6F
:1019D000E069C8B32448406800F00C00082860D0D3
:1019E000E069022848D1002020490866FFF796FBED
:1019F000054606E0FFF792FB401B022801D90320B1
:101A00003AE61948006800F000700028F2D1206A18
:101A1000B0F5803F07D11448406820F40030A16839
:101A2000084311494860D4E9080108430E49496850
:101A300021F4741108430C49486001200B490866E1
:101A4000FFF76CFB054607E03DE0FFF767FB401B37
:101A5000022801D903200FE60348006800F0007057
:101A60000028F2D02FE000000010024000004242A7
:101A70008004424200700040002014490866FFF7CD
:101A80004DFB054606E0FFF749FB401B022801D944
:101A90000320F1E50E48006800F000700028F2D144
:101AA00011E0E069012800D1E6E50948466806F43E
:101AB0008031206A814204D106F47011606A81424B
:101AC00001D00120D8E50020D6E500000000424208
:101AD000001002407047704710B50346002200BF57
:101AE00093F83C00012801D1022010BD012083F8A9
:101AF0003C0000BF22F0FF00CC6840EA040222F460
:101B000040708C6840EA040222F480604C6840EA2D
:101B1000040222F400600C6840EA040222F48050BF
:101B20000C6940EA040222F400504C6940EA0402C5
:101B300022F48040CC6940EA04021868426400BF85
:101B4000002083F83C0000BF00BFCEE730B502465E
:101B50000B4600BF92F83C00012801D1022030BDA5
:101B6000012082F83C0000BF022082F83D0010688E
:101B700044681068816824F0700418680443106891
:101B80004460144D1068A84213D0134D1068A84249
:101B90000FD01068B0F1804F0BD0104D1068A842E4
:101BA00007D00F4D1068A84203D00E4D1068A84210
:101BB00005D121F08001586801431068816001203F
:101BC00082F83D0000BF002082F83C0000BF00BF4B
:101BD000C5E70000002C0140003401400004004033
:101BE00000080040000C004010B504460CB901206C
:101BF00010BD94F83D0028B9002084F83C00204630
:101C000000F026F8022084F83D00211D206801F034
:101C10008DFE012084F8460000BF84F83E000121BB
:101C20003F200155402001554120015500BF00BF14
:101C3000012084F8420043200155442001554520ED
:101C4000015500BF012084F83D000020D0E70000CE
:101C500038B504462068B0F1804F29D100BF9B48B9
:101C6000C06940F001009949C8610846C06900F0A8
:101C70000100009000BF00BF954896490860102001
:101C800048600021934881608021C1608900016122
:101C90008900416100218161C161FEF70DFF08B13A
:101CA000FEF789FC00BF8B496162084644620BE184
:101CB0008949206888422ED100BF8448C06940F01D
:101CC00002008249C8610846C06900F00200009025
:101CD00000BF00BF7E481430804908601020486073
:101CE00000217E4881608021C160890001618900F6
:101CF000416100218161C161FEF7DEFE08B1FEF79E
:101D00005AFC00BF754961620846446200BF00BFCB
:101D1000A1634462D8E07249206888427DD100BF47
:101D20006A48C06940F008006849C8610846C0694F
:101D300000F00800009000BF00BF6A486A490860D0
:101D4000102048600021684881608021C1608900BE
:101D500001618900416100218161C161FEF7ACFE32
:101D600008B1FEF728FC00BF5F4961620846446283
:101D700000BF5C4814385D490860102048600021AD
:101D80005A4881608021C1608900016189004161F8
:101D900000218161C161FEF78FFE08B1FEF70BFCE7
:101DA00000BF5249A1620846446200BF4D483C381A
:101DB0004F4908601020486000214D488160802113
:101DC000C160890001618900416100218161C161B7
:101DD000FEF772FE08B1FEF7EEFB00BF4449E16278
:101DE0000846446200BF00BF2062446200BF3D4815
:101DF0005038404908601020486000213D4881600B
:101E00008021C160890001618900416100218161F7
:101E1000C161FEF751FE18B100E00BE0FEF7CBFB0D
:101E200000BF344921630846446200BF00BFA1637C
:101E3000446249E030492068884216D100BF2348F7
:101E4000C06940F020002149C8610846C06900F01F
:101E50002000009000BF00BF002202213720FFF7C2
:101E60004DFA3720FFF73AFA2EE0244920688842DD
:101E70002AD100BF1548806940F400501349886199
:101E80000846806900F40050009000BF00BF15486C
:101E900028381B49086010204860002118488160DC
:101EA0008021C16089000161890041610021816157
:101EB000C161FEF701FE08B1FEF77DFB00BF1049CE
:101EC00061620846446200BF38BD00000010024055
:101ED000580002408C09002000040040D009002076
:101EE000000C004058040240140A0020580A002048
:101EF0009C0A0020E00A0020001400400034014049
:101F0000240B0020014691F83D00012801D001205A
:101F10007047022081F83D000868C06840F0010069
:101F20000B68D860164B0868984213D0154B0868A8
:101F300098420FD00868B0F1804F0BD0124B086860
:101F4000984207D0114B0868984203D0104B08689C
:101F500098420CD10868806800F00702062A0CD06D
:101F60000868006840F001000B68186005E0086828
:101F7000006840F001000B6818600020C8E700000E
:101F8000002C0140003401400004004000080040E3
:101F9000000C004001460868C06820F001000A6893
:101FA000D06000BF0868006A41F21112104050B9B9
:101FB0000868006A9210104028B90868006820F08C
:101FC00001000A68106000BF012081F83D00002078
:101FD00070472DE9F04104460D46002700BF94F8F4
:101FE0003C00012802D10220BDE8F081012084F8E4
:101FF0003C0000BF022084F83D002068866826F07F
:10200000770626F47F46206886602868502833D0FB
:102010000CDC202850D004DC00284BD0102851D1F3
:1020200049E0302849D040284CD139E060282DD0F3
:10203000702807D0B0F5805F03D0B0F5005F41D1C4
:102040000DE041E0D5E902136A68206801F050FD17
:102050002068866846F077062068866034E0D5E917
:1020600002136A68206801F043FD2068806840F42C
:1020700080402168886027E0EA686968206801F08C
:1020800027FE5021206801F03EFD1DE0EA686968E6
:10209000206801F030FE6021206801F034FD13E07B
:1020A000EA686968206801F013FE4021206801F0A9
:1020B0002AFD09E000BF00BF00BF2968206801F0C9
:1020C00022FD01E0012700BF00BF012084F83D0090
:1020D00000BF002084F83C0000BF384684E770470A
:1020E000704710B5044620680069C0F34000D8B1BD
:1020F0002068C068C0F34000B0B16FF002002168F2
:102100000861012020772068806900F0030018B181
:102110002046FFF7E5FF05E0204600F03FF92046A6
:1021200000F0F3F90020207720680069C0F38000F8
:10213000D8B12068C068C0F38000B0B16FF004006F
:1021400021680861022020772068806900F44070CF
:1021500018B12046FFF7C4FF05E0204600F01EF945
:10216000204600F0D2F90020207720680069C0F3F3
:10217000C000D8B12068C068C0F3C000B0B16FF033
:10218000080021680861042020772068C06900F0F9
:10219000030018B12046FFF7A3FF05E0204600F03A
:1021A000FDF8204600F0B1F9002020772068006992
:1021B000C0F30010D8B12068C068C0F30010B0B1FF
:1021C0006FF0100021680861082020772068C0693E
:1021D00000F4407018B12046FFF782FF05E020466A
:1021E00000F0DCF8204600F090F90020207720680D
:1021F000006900F0010058B12068C06800F00100DB
:1022000030B16FF0010021680861204600F09AFAB1
:1022100020680069C0F3C01058B12068C068C0F3DE
:10222000C01030B16FF08000216808612046FFF7D0
:1022300051FC20680069C0F3801058B12068C06864
:10224000C0F3801030B16FF0400021680861204673
:1022500000F084FA20680069C0F3401058B120688B
:10226000C068C0F3401030B16FF0200021680861F1
:102270002046FFF730FC10BD10B586B004460020A4
:1022800002900390049005902068B0F1804F22D115
:1022900000BF3B48806940F0040039498861084626
:1022A000806900F00400019000BF00BF4FF40040BF
:1022B000029002200390059002A93248FEF788FDA3
:1022C00000BF3149486820F4407040F0E06040F4BD
:1022D0008070486052E02D492068884217D100BFC5
:1022E0002748806940F004002549886108468069D4
:1022F00000F00400019000BF00BF402002900220C7
:102300000390059002A91F48FEF762FD36E02049C0
:102310002068884217D100BF1948806940F0040046
:10232000174988610846806900F00400019000BFE9
:1023300000BF0F20029002200390059002A91148CF
:10234000FEF746FD1AE013492068884216D100BF07
:102350000B48806940F0100009498861084680698F
:1023600000F01000019000BF00BF4020029002204A
:102370000390059002A90848FEF72AFD06B010BD9B
:10238000001002400008014000000140000400402D
:10239000000C0040003401400010014070472DE95E
:1023A000F04104460D461646002700BF94F83C0055
:1023B000012802D10220BDE8F081012084F83C0010
:1023C00000BF36B1042E1BD0082E31D00C2E5ED1AA
:1023D00045E02946206801F09FFB2068806940F0B5
:1023E0000800216888612068806920F00400216865
:1023F000886120688069296908432168886148E00C
:102400002946206801F0C0FB2068806940F4006024
:10241000216888612068806920F480602168886173
:1024200020688069296940EA01202168886130E0DC
:102430002946206801F0E6FB2068C06940F00800EA
:102440002168C8612068C06920F004002168C86163
:102450002068C069296908432168C86119E02946D4
:10246000206801F00BFC2068C06940F4006021681E
:10247000C8612068C06920F480602168C861206854
:10248000C069296940EA01202168C86101E001278B
:1024900000BF00BF00BF002084F83C0000BF3846EA
:1024A00089E710B504460CB9012010BD94F83D0031
:1024B00028B9002084F83C00204600F025F80220CE
:1024C00084F83D00211D206801F030FA012084F8D5
:1024D000460000BF84F83E0001213F200155402006
:1024E00001554120015500BF00BF012084F8420082
:1024F00043200155442001554520015500BF0120CE
:1025000084F83D000020D0E7704770477047000016
:102510002DE9F04704460D4616461F464FF00008C9
:1025200015B994F83E000BE0042D02D13F20005D68
:1025300006E0082D02D14020005D01E04120005D51
:10254000022801D1BDE8F08715B994F83E000BE0F0
:10255000042D02D13F20005D06E0082D02D140206D
:10256000005D01E04120005D012818D106B10FB9DE
:102570000120E7E71DB9022084F83E0011E0042D98
:1025800003D102213F2001550BE0082D03D1022188
:102590004020015505E002214120015501E00120C4
:1025A000D0E735B1042D1FD0082D38D00C2D6CD1BB
:1025B00050E05C49606A81625B49606AC1625B4964
:1025C000606A0163216801F134023B463146606A6A
:1025D000FEF7B8FA08B10120B4E72068C06840F4FB
:1025E00000702168C86053E04E49A06A81624E497C
:1025F000A06AC1624D49A06A0163216801F13802F5
:102600003B463146A06AFEF79DFA08B1012099E7E2
:102610002068C06840F480602168C86038E04149A3
:10262000E06A81624049E06AC1624049E06A016350
:10263000216801F13C023B463146E06AFEF782FA2E
:1026400008B101207EE72068C06840F4006021687E
:10265000C8601DE03349206B81623349206BC16241
:102660003249206B0163216801F140023B4631464B
:10267000206BFEF767FA08B1012063E72068C068A5
:1026800040F480502168C86002E04FF0010800BFAC
:1026900000BFB8F1000F42D101222946206801F0A5
:1026A00093F923492068884203D022492068884250
:1026B00001D1012000E0002028B12068406C40F4E6
:1026C0000040216848641A492068884213D019499B
:1026D000206888420FD02068B0F1804F0BD0164997
:1026E0002068884207D015492068884203D01449E1
:1026F000206888420DD12068806800F00709B9F190
:10270000060F0CD02068006840F0010021680860C6
:1027100005E02068006840F001002168086040463C
:1027200010E70000EB390108533A0108933A010819
:10273000002C01400034014000040040000800402B
:10274000000C004010B5044603492068884201D1BE
:10275000FEF7EAFC10BD000000080040704710B50D
:1027600004460CB9012010BDA06900B100E000BF13
:1027700094F8410028B9002084F84000204600F079
:1027800029F8242084F841002068C06820F4005013
:102790002168C860204601F0C7FA2068006920F46B
:1027A0009040216808612068406920F02A00216873
:1027B00048612068C06840F400502168C86000206B
:1027C0006064202084F8410084F8420000206063A7
:1027D00000BFC8E710B586B0044600200290039001
:1027E0000490059024492068884242D100BF2348C4
:1027F000C06940F480102149C8610846C06900F4EE
:102800008010019000BF00BF00BF0846806940F003
:10281000100088610846806900F01000019000BF38
:1028200000BF00BF0846806940F02000886108466C
:10283000806900F02000019000BF00BF8814029062
:10284000022003900320059002A90D48FEF7C0FA6C
:102850000420029000200390049002A90948FEF78A
:10286000B7FA002201213520FEF748FD3520FEF79A
:1028700035FD06B010BD00000050004000100240C1
:10288000001001400014014000BFFEE710B56FF0DA
:1028900001000449096808610248FFF77BFB01F069
:1028A00069FC10BDFC08002070B5002424480468B1
:1028B0004068C5B204F04000E8B12248C08C00284E
:1028C0000EDD2048006A00781D4948601D48006AF6
:1028D000401C1C4908620846C08C401EC8840AE09F
:1028E0001748C06820F040001549C86000228915CB
:1028F0001548FEF70DFC04F0200000B36FF0010056
:102900001249096808611149096808610F48FFF711
:1029100041FB0F480F49097845540E480078401C88
:102920000C49087008460078B82801DD00200870BE
:1029300000200649096848620448FFF7E3FA70BDC1
:1029400000500040680B0020000C0140FC080020F3
:10295000B00B00201C00002008B500BF25484069CE
:1029600040F00200234948610846406900F0020037
:10297000009000BF00BF00BF0846406940F0010062
:1029800048610846406900F00100009000BF00BFA8
:10299000002211460F20FEF7B1FC0F20FEF79EFC2F
:1029A000002211461020FEF7A9FC1020FEF796FC2D
:1029B000002211463820FEF7A1FC3820FEF78EFCDD
:1029C000002211463920FEF799FC3920FEF786FCDB
:1029D000002211463A20FEF791FC3A20FEF77EFCD9
:1029E000002211463B20FEF789FC3B20FEF776FCD7
:1029F00008BD00000010024000B585B00020019025
:102A000002900390049000BF2348806940F02000AA
:102A1000214988610846806900F02000009000BFCD
:102A200000BF00BF0846806940F004008861084686
:102A3000806900F00400009000BF00BF00BF08469E
:102A4000806940F0100088610846806900F010003D
:102A5000009000BF00BF00BF0846806940F008003A
:102A600088610846806900F00800009000BF00BF40
:102A7000002289150948FEF74BFB4FF48070019046
:102A800001200290002003900220049001A9034835
:102A9000FEF79EF905B000BD00100240000C014099
:102AA00000B58DB0002009900A900B900C90079013
:102AB00008901C216846FDF7DBFB4FF080401F4962
:102AC00008600020486000211C4881605921C160D5
:102AD000002101618161FFF787F808B1FDF76BFD07
:102AE0004FF48050099009A91448FFF772FA08B111
:102AF000FDF761FD1148FFF7D4FC08B1FDF75BFD60
:102B000000200790089007A90C48FFF71FF808B1AC
:102B1000FDF751FD6020009000200190029004908C
:102B2000002269460548FFF73AFC08B1FDF743FD6E
:102B30000248FFF7A1FB0DB000BD000024080020F3
:102B400000B58DB0002009900A900B900C90079072
:102B500008901C216846FDF78BFB1F481F49086041
:102B60000020486000211D4881605921C16000217A
:102B700001618161FFF738F808B1FDF71CFD4FF4E2
:102B80008050099009A91548FFF723FA08B1FDF70D
:102B900012FD1248FFF785FC08B1FDF70CFD00207F
:102BA0000790089007A90D48FEF7D0FF08B1FDF780
:102BB00002FD60200090002001900290049000220D
:102BC00069460648FFF7EBFB08B1FDF7F4FC034844
:102BD000FFF752FB0DB000BD000400406C08002060
:102BE00000B58DB0002009900A900B900C900790D2
:102BF00008901C216846FDF73BFB2B482B490860D9
:102C0000002048600021294881605921C1600021CD
:102C100001618161FEF7E8FF08B1FDF7CCFC4FF4DC
:102C20008050099009A92148FFF7D3F908B1FDF7B1
:102C3000C2FC1E48FFF735FC08B1FDF7BCFC0020C4
:102C40000790089007A91948FEF780FF08B1FDF723
:102C5000B2FC6020009000200190029004900022BD
:102C600069461248FFF79BFB08B1FDF7A4FC04225C
:102C700069460E48FFF793FB08B1FDF79CFC08225C
:102C800069460A48FFF78BFB08B1FDF794FC0C225C
:102C900069460648FFF783FB08B1FDF78CFC034843
:102CA000FFF7EAFA0DB000BD000C0040B4080020A8
:102CB0001CB50020009001900E480F490860642068
:102CC000486000210C48816041F61F41C16000212D
:102CD0008161FEF789FF08B1FDF76DFC00200090CF
:102CE000019069460448FEF731FF08B1FDF763FC27
:102CF0001CBD000000140040FC08002000B595B089
:102D0000002011901290139014900F9010901C219D
:102D100008A8FDF7ADFA20216846FDF7A9FA2A4870
:102D20002A49086000204860002128488160592114
:102D3000C1600021016141618161FEF755FF08B169
:102D4000FDF739FC4FF48050119011A91F48FFF78F
:102D500040F908B1FDF72FFC1C48FFF7A2FB08B1B2
:102D6000FDF729FC00200F9010900FA91748FEF7DF
:102D7000EDFE08B1FDF71FFC6020089000200990CF
:102D80000A900B900C900D900E90002208A90F480D
:102D9000FFF705FB08B1FDF70EFC00200090019045
:102DA0000290039004904FF400500590002007908B
:102DB00069460648FEF790FE08B1FDF7FCFB0348A4
:102DC000FFF75AFA15B000BD003401404409002055
:102DD00010B51248124908604FF41650486000219F
:102DE0000F488160C16001610C2141610021816156
:102DF000C161FFF7B4FC08B1FDF7DDFB0748C0680F
:102E000020F040000549C86005480068C06840F0EF
:102E1000200003490968C86010BD00000050004050
:102E2000680B002000BFFEE700BFFEE77047000010
:102E300038B5062000F08AFA4FF47A7001F010F8E5
:102E4000062000F083FA4FF47A7001F009F80024AC
:102E50000CE0E0B224490A88ADF8002089788DF8AA
:102E60000210009900F0C2FB601C84B2072CF0DB5A
:102E700000F0F6FC1D4800F0F3FFC0231C4A0021BF
:102E80001C48FFF745FB194800F0EAFFC023184A29
:102E900000211948FFF73CFB144800F0E1FFC02374
:102EA000134A0C211548FFF733FB104800F0D8FFF8
:102EB000C0230F4A08211148FFF72AFB0B4800F0F6
:102EC000CFFFC0230A4A04210C48FFF721FB074823
:102ED00000F0C6FFC023064A00210848FFF718FB90
:102EE000024800F0BDFF38BD6A46010840420F00AD
:102EF00044000020440900206C080020B408002091
:102F000038B5062000F022FA4FF47A7000F0A8FFDE
:102F1000062000F01BFA4FF47A7000F0A1FF0024A5
:102F20000CE0E0B223490A88ADF8002089788DF8DA
:102F30000210009900F05AFB601C84B2062CF0DBF2
:102F400000F08EFCC0231C4A00211C48FFF7E0FA69
:102F50001B4800F085FFC023174A00211948FFF7DE
:102F6000D7FA174800F07CFFC023134A0C211648FB
:102F7000FFF7CEFA124800F073FFC0230E4A082173
:102F80001148FFF7C5FA0E4800F06AFFC0230A4A4D
:102F900004210D48FFF7BCFA094800F061FFC02387
:102FA000054A00210848FFF7B3FA054800F058FF2A
:102FB00038BD00006A460108440000204409002092
:102FC00040420F006C080020B408002038B50620ED
:102FD00000F0BCF94FF47A7000F042FF062000F0D8
:102FE000B5F94FF47A7000F03BFF00240CE0E0B23A
:102FF00023490A88ADF8002089788DF802100099DD
:1030000000F0F4FA601C84B2062CF0DB00F028FC1F
:10301000C0231C4A00211C48FFF77AFA4FF47A704B
:1030200000F01EFFC023174A00211848FFF770FA6E
:10303000174800F015FFC023124A0C211548FFF76E
:1030400067FA134800F00CFFC0230E4A082111480C
:10305000FFF75EFA0E4800F003FFC023094A04217F
:103060000C48FFF755FA0A4800F0FAFEC023054A5B
:1030700000210848FFF74CFA054800F0F1FE38BD82
:103080006A46010844000020440900206C08002022
:1030900040420F00B408002038B5062000F056F971
:1030A0004FF47A7000F0DCFE062000F04FF94FF488
:1030B0007A7000F0D5FE00240CE0E0B226490A88C0
:1030C000ADF8002089788DF80210009900F08EFA92
:1030D000601C84B2062CF0DB00F0C2FB4FF47A7067
:1030E00000F0BEFEC0231D4A00211D48FFF710FA64
:1030F0004FF47A7000F0B4FEC023184A002119483A
:10310000FFF706FA4FF47A7000F0AAFEC023134AC4
:103110000C211548FFF7FCF9144800F0A1FEC0236C
:103120000E4A08211048FFF7F3F9104800F098FE06
:10313000C0230A4A04210C48FFF7EAF90B4800F0C3
:103140008FFEC023054A00210748FFF7E1F9074831
:1031500000F086FE38BD00006A46010844000020E9
:10316000440900206C080020B408002040420F00F1
:1031700038B5062000F0EAF84FF47A7000F070FEDF
:10318000062000F0E3F84FF47A7000F069FE0024A6
:103190000CE0E0B226490A88ADF8002089788DF865
:1031A0000210009900F022FA601C84B2062CF0DBB9
:1031B00000F056FB4FF47A7000F052FEC0231D4A17
:1031C00000211D48FFF7A4F94FF47A7000F048FE83
:1031D000C023184A00211948FFF79AF94FF47A7072
:1031E00000F03EFEC023134A0C211548FFF790F96A
:1031F0004FF47A7000F034FEC0230E4A08211048C4
:10320000FFF786F90F4800F02BFEC023094A04217E
:103210000B48FFF77DF90B4800F022FEC023054A5A
:1032200000210748FFF774F9064800F019FE38BD81
:103230006A46010844000020440900206C08002070
:10324000B408002040420F0038B5062000F07EF898
:103250004FF47A7000F004FE062000F077F84FF487
:103260007A7000F0FDFD00240CE0E0B227490A88E6
:10327000ADF8002089788DF80210009900F0B6F9B9
:10328000601C84B2062CF0DB00F0EAFA4FF47A708E
:1032900000F0E6FDC0231E4A00211E48FFF738F962
:1032A0004FF47A7000F0DCFDC023194A00211A485F
:1032B000FFF72EF94FF47A7000F0D2FDC023144AC4
:1032C0000C211648FFF724F94FF47A7000F0C8FD7E
:1032D000C0230F4A08211148FFF71AF94FF47A70FA
:1032E00000F0BEFDC0230A4A04210C48FFF710F984
:1032F0000B4800F0B5FDC023054A00210748FFF741
:1033000007F9074800F0ACFD38BD00006A46010827
:1033100044000020440900206C080020B40800206C
:1033200040420F0008B508490968C9084FF47A728D
:10333000B1FBF2F14143009100BF00BF00994A1E6A
:1033400000920029F9D108BD4000002038B505469B
:1033500000240CE0E0B209490A88ADF80020897821
:103360008DF80210009900F041F9601C84B2AC4263
:10337000F0DB00F075FA00F0B9F838BD79460108C5
:1033800038B5054600240CE0E0B209490A88ADF8DA
:10339000002089788DF80210009900F079F9601CFE
:1033A00084B2AC42F0DB00F069FA00F011F938BDEC
:1033B0007946010838B5054600240CE0E0B2094919
:1033C0000A88ADF8002089788DF80210009900F085
:1033D0000DF9601C84B2AC42F0DB00F041FA00F061
:1033E00085F838BD6A46010838B5054600240CE06A
:1033F000E0B209490A88ADF8002089788DF80210FA
:10340000009900F045F9601C84B2AC42F0DB00F09A
:1034100035FA00F0DDF838BD6A46010838B50546D2
:1034200000240CE0E0B209490A88ADF80020897850
:103430008DF80210009900F0D9F8601C84B2AC42FB
:10344000F0DB00F00DFA00F051F838BD67460108D6
:1034500038B5054600240CE0E0B209490A88ADF809
:10346000002089788DF80210009900F011F9601C95
:1034700084B2AC42F0DB00F001FA00F0A9F838BDEC
:103480006746010838B5054600240CE0E0B209495A
:103490000A88ADF8002089788DF80210009900F0B4
:1034A000A5F8601C84B2AC42F0DB00F0D9F900F062
:1034B0001DF838BD6446010838B5054600240CE007
:1034C000E0B209490A88ADF8002089788DF8021029
:1034D000009900F0DDF8601C84B2AC42F0DB00F033
:1034E000CDF900F075F838BD6446010810B5C02369
:1034F000114A00211148FFF70BF8C0230E4A04219E
:103500000E48FFF705F8C0230B4A08210B48FEF7C9
:10351000FFFFC023084A0C210848FEF7F9FFC0232B
:10352000054A00210648FEF7F3FFC023024A0021A6
:103530000448FEF7EDFF10BD44000020B408002051
:103540006C0800204409002010B50620FDF75AFB46
:10355000C0231B4A00211B48FEF7DAFF0520FDF7B8
:1035600051FBC023164A00211748FEF7D1FF052062
:10357000FDF748FBC023124A00211448FEF7C8FF9C
:103580000520FDF73FFBC0230D4A04210F48FEF73D
:10359000BFFF0520FDF736FBC023094A0C210B486D
:1035A000FEF7B6FF0520FDF72DFBC023044A0821D6
:1035B0000648FEF7ADFF0520FDF724FB10BD000017
:1035C000440000206C08002044090020B4080020BA
:1035D00010B54FF49C73034A00210348FEF798FF8F
:1035E00010BD0000440300202408002013B502464B
:1035F000072A00DD1CBD002013E09DF80510C0F176
:1036000007040123A340194009B1282100E0192132
:1036100002EB42031D4C04EB431343F82010411C02
:10362000C8B20828E9DB082013E09DF80410C0F1B7
:103630000F040123A340194009B1282100E01921FA
:1036400002EB4203114C04EB431343F82010411CDE
:10365000C8B21028E9DB102013E09DF80610C0F175
:1036600017040123A340194009B1282100E01921C2
:1036700002EB4203054C04EB431343F82010411CBA
:10368000C8B21828E9DB00BFB4E7000044000020FE
:1036900013B502460C2A00DD1CBD002013E09DF886
:1036A0000510C0F107040123A340194009B12821E6
:1036B00000E0192102EB42031D4C04EB431343F8D5
:1036C0002010411CC8B20828E9DB082013E09DF84F
:1036D0000410C0F10F040123A340194009B12821AF
:1036E00000E0192102EB4203114C04EB431343F8B1
:1036F0002010411CC8B21028E9DB102013E09DF80F
:103700000610C0F117040123A340194009B1282174
:1037100000E0192102EB4203054C04EB431343F88C
:103720002010411CC8B21828E9DB00BFB4E7000034
:1037300044030020F0B50446072C00DDF0BD002056
:1037400011E0C0F107060125B54015400DB128254F
:1037500000E0192504EB44061B4F07EB461646F81C
:103760002050451CE8B20828EBDB082011E0C0F12E
:103770000F060125B5400D400DB1282500E01925A3
:1037800004EB4406104F07EB461646F82050451C44
:10379000E8B21028EBDB102011E0C0F1170601257C
:1037A000B5401D400DB1282500E0192504EB440665
:1037B000054F07EB461646F82050451CE8B218287E
:1037C000EBDB00BFBAE700004400002038B5054637
:1037D00000240CE0E0B209490A88ADF8002089789D
:1037E0008DF802100099FFF753FF601C84B2AC42C1
:1037F000F0DB00F043F8FFF7EBFE38BD7C46010834
:1038000010B51548007880B90620FFF79FFD4FF4EA
:103810007A7000F025FB0620FFF798FD0F4800F0B6
:103820001FFB01200C49087014E00B4800780128A8
:1038300009D10620FFF726FE084800F011FB022000
:103840000549087006E004480078022802D10020EB
:103850000149087010BD00000100002040420F0027
:10386000002005E00022044941F82020411CC8B294
:103870001828F7DB70470000E4020020002005E074
:103880000022044941F82020411CC8B21828F7DB67
:1038900070470000C40700207047704700B58FB024
:1038A000282105A8FCF7E4FC14216846FCF7E0FC9D
:1038B0000120059000040690002007900120099047
:1038C00002200C90C1030D914FF4E0110E9105A858
:1038D000FDF7CEFE08B1FCF76EFE0F20009002202F
:1038E0000190002002904FF480600390002004902B
:1038F00002216846FDF776FD08B1FCF75CFE0FB0CB
:1039000000BD00000148024908607047000001083E
:1039100008ED00E010B50248FEF7E3FB10BD000023
:10392000CC0C002010B5FEF7B1FF10BD10B5026839
:10393000204B98420ED0204B98420BD0B0F1804FD4
:1039400008D01E4B984205D01D4B984202D01D4B0B
:10395000984203D122F070024B681A43154B9842EB
:103960000ED0154B98420BD0B0F1804F08D0134BBE
:10397000984205D0124B984202D0124B984203D184
:1039800022F44072CB681A4322F080034C6943EA68
:10399000040202608B68C3620B688362054B984225
:1039A00002D0054B984201D10B69036301234361A7
:1039B00010BD0000002C0140003401400004004014
:1039C00000080040000C004030B501F01F05012444
:1039D00004FA05F3046A9C430462046A01F01F05BB
:1039E00002FA05F52C43046230BD70B505466C6AD9
:1039F000606AA84207D101202077A86918BB01207E
:103A000084F83E001FE0A06AA84207D10220207778
:103A1000A869C0B901213F20015514E0E06AA8421D
:103A200007D104202077A86968B9012140200155F9
:103A300009E0206BA84206D108202077A86910B9B8
:103A40000121412001552046FEF75FFD002020772F
:103A500070BD70B505466C6A606AA84202D101204B
:103A6000207710E0A06AA84202D1022020770AE065
:103A7000E06AA84202D10420207704E0206BA8422B
:103A800001D1082020772046FEF740FD0020207756
:103A900070BD70B505466C6A606AA84204D1012009
:103AA000207784F83E001DE0A06AA84205D10220DC
:103AB000207701213F20015514E0E06AA84205D19A
:103AC000042020770121402001550BE0206BA84203
:103AD00005D10820207701214120015502E0012075
:103AE00084F83D002046FEF7FAFA0020207770BDEA
:103AF00030B50C46816821F47F4142EA0325254315
:103B00002943816030BD0A46816821F0700142F08E
:103B1000070319438160704730B5026A056A25F0D2
:103B2000010505624368846924F0700424F00304ED
:103B30000D682C4322F002028D682A43104DA842E2
:103B400000D103E00F4DA84206D100BF22F00802C9
:103B5000CD682A4322F00402094DA84202D0094D43
:103B6000A84207D123F4807323F400734D692B43DB
:103B70008D692B43436084614D684563026230BDAB
:103B8000002C01400034014030B5026A056A25F07E
:103B9000100505624368846924F4E04424F4407409
:103BA0000D6844EA052422F020028D6842EA0512DD
:103BB000124DA84200D103E0114DA84207D100BF29
:103BC00022F08002CD6842EA051222F040020B4D3D
:103BD000A84202D00A4DA84209D123F4806323F4FD
:103BE00000634D6943EA85038D6943EA85034360B9
:103BF00084614D688563026230BD0000002C014085
:103C00000034014030B5026A056A25F4807505620A
:103C10004368C46924F0700424F003040D682C4345
:103C200022F400728D6842EA0522124DA84200D1AA
:103C300003E0114DA84207D100BF22F40062CD6815
:103C400042EA052222F480620A4DA84202D00A4DBF
:103C5000A84209D123F4805323F400534D6943EA69
:103C600005138D6943EA05134360C4614D68C5635C
:103C7000026230BD002C01400034014030B5036ABF
:103C8000056A25F4805505624468C26922F4E04261
:103C900022F440720D6842EA052223F400538D6835
:103CA00043EA0533084DA84202D0084DA84204D18A
:103CB00024F480444D6944EA85144460C2614D682F
:103CC0000564036230BD0000002C01400034014057
:103CD00030B50B461446026A056A25F001050562F7
:103CE000816921F0F00141EA041122F00A021A432D
:103CF0008161026230BD30B50B461446026A056A26
:103D000025F010050562816921F4704141EA043112
:103D100022F0A00242EA03128161026230BD10B5B6
:103D2000FEF7C2FD10BD000070B5044621680969A8
:103D300021F44051E2681143226811612269A168AF
:103D40001143626941EA02052168C96841F20C62C7
:103D5000914329432268D1602168496921F4407167
:103D6000A2691143226851612D4A2168914202D112
:103D7000FDF736FC01E0FDF723FC00EBC00101EB91
:103D8000001162689200B1FBF2F100EBC00202EB9D
:103D9000001263689B00B2FBF3F26423B2FBF3F200
:103DA00002EBC20303EB0212A1EB8201322202EB0F
:103DB00001116422B1FBF2F101F0F00100EBC0024D
:103DC00002EB001263689B00B2FBF3F26423B2FBC8
:103DD000F3F201EB021200EBC00101EB001163688A
:103DE0009B00B1FBF3F100EBC00303EB001366682B
:103DF000B600B3FBF6F36426B3FBF6F303EBC3069E
:103E000006EB0313A1EB8301322303EB01116423BF
:103E1000B1FBF3F101F00F0111442268916070BD14
:103E20000038014000BFFEE702480068C0F30220EE
:103E3000704700000CED00E010B5002804DB0A0715
:103E4000130E054A135406E00A07140E034A00F045
:103E50000F031B1FD45410BD00E400E018ED00E078
:103E60000021084A11600AE006490968814205D22A
:103E700004490968491C034A116000E000E0F3E7C7
:103E800000BF7047180000202DE9F04F0646DDE91D
:103E900009454FF0A70A96FBFAFA1FFA8AF84FF085
:103EA000A70A96FBFAFB0AFB1B6A0AEB4A0A4FF6C3
:103EB000FF7B0BEA4A09C1F57A7A0AFB02FA4FF452
:103EC0007A7B9AFBFBFA1FFA8AF009FB01FA9AFB4C
:103ED000FBFACAF57A7A0AFB02FA9AFBFBFA1FFA96
:103EE0008AF7C9F57A7A0AFB01FA9AFBFBFACAF556
:103EF0007A7A0AFB02FA9AFBFBFA1FFA8AFCB8F1FB
:103F0000060F18D2DFE808F003182D42576CC2EBF9
:103F1000022A4FF47A7B9AFBFBFA83F800A0CCEBE1
:103F20000C2A9AFBFBFA84F800A0C0EB002A9AFB4B
:103F3000FBFA85F800A068E0C7EB072A4FF47A7B0C
:103F40009AFBFBFA83F800A0C2EB022A9AFBFBFA69
:103F500084F800A0C0EB002A9AFBFBFA85F800A0C9
:103F600053E0C0EB002A4FF47A7B9AFBFBFA83F80C
:103F700000A0C2EB022A9AFBFBFA84F800A0CCEB6B
:103F80000C2A9AFBFBFA85F800A03EE0C0EB002A61
:103F90004FF47A7B9AFBFBFA83F800A0C7EB072A61
:103FA0009AFBFBFA84F800A0C2EB022A9AFBFBFA08
:103FB00085F800A029E0CCEB0C2A4FF47A7B9AFB21
:103FC000FBFA83F800A0C0EB002A9AFBFBFA84F806
:103FD00000A0C2EB022A9AFBFBFA85F800A014E0CD
:103FE000C2EB022A4FF47A7B9AFBFBFA83F800A01B
:103FF000C0EB002A9AFBFBFA84F800A0C7EB072A63
:104000009AFBFBFA85F800A000BF00BFBDE8F08F67
:104010001CB562B6FDF794F8FFF740FCFEF7ECFC28
:10402000FEF79AFCFEF73CFDFEF78AFDFEF7D8FD91
:10403000FEF73EFEFEF762FEFEF7CAFE002007E036
:104040004149014491F8E817404A1154411CC8B253
:104050000C28F5DB3E48FFF703FF0C20FFF7C4F9FF
:104060003B48FFF7FDFEFEF7E3FE0620FFF76EF983
:104070000C20FFF785F93748FFF7F2FE0620FFF71F
:1040800001FA0C20FFF718FA3248FFF7E9FE062084
:10409000FFF75CF90C20FFF773F92E48FFF7E0FEFD
:1040A0000620FFF7BBF90C20FFF7D2F92948FFF7EC
:1040B000D7FE0620FFF74AF90C20FFF761F92548E3
:1040C000FFF7CEFE0620FFF775F90C20FFF78CF9FD
:1040D0002048FFF7C5FE20482049214B0022CDE9AA
:1040E00000103C21FF2000F017FA1E4800781E49FE
:1040F000087028E01C480078052822D005201A49BD
:10410000087072B6FCF74CFE00201849086015488C
:1041100088600120C86016491448FCF787FD4FF4F9
:104120007A70FCF7C5FA1048027800230D49012087
:10413000FCF7DEFD4FF47A70FCF7BAFAFCF7CEFD1F
:1041400062B6FCF7B3F9D5E700F0FF1F920C002030
:10415000A086010040420F00240000202000002023
:104160002200002000F8030829000020780C00201D
:104170002C0000202DE9F041002400250026002716
:1041800000BFA9E1B82C01DDBDE8F081D848005D91
:10419000D849097888427DD1D549601C085C10282F
:1041A000F9D1A01C085C0028F5D1E01C085C0028AF
:1041B000F1D1201D085C0028EDD1601D085C0328AA
:1041C000E9D1A01D085C0628E5D108190D21FCF7EE
:1041D00051F905462E12EFB2C54904F10D00085CF5
:1041E000B04272D104F10E00085CB842F9D100204F
:1041F000C14908700520C14908701020487000208E
:104200008870C870087103204871062088710020EA
:10421000C871B74904F10800085CB8490872002069
:104220004872B34904F10A00085CB449887200205E
:10423000C872AF4904F10C00085CB04908730D3135
:10424000AF48006800F0FFF91521AC48FCF712F9FF
:1042500005462E12EFB2A94846758775A94908622E
:1042600001221102A848FCF753FF1720A549C88472
:10427000A648C06840F04000A449C8609C4904F1C9
:104280000800085C38B1012806D0022808D00328AD
:104290000ED109E061E00BE00C20FFF797FA07E090
:1042A0000C20FFF7A1F803E00C20FFF705F900BF91
:1042B00000BF8F4904F10A00085C05281EDA04F1EA
:1042C0000A00085C062818D200E0EFE0DFE800F002
:1042D0000304080C101410E00B20874908700CE050
:1042E0000C208549087008E00620FFF763F804E019
:1042F0000E208149087000E000BF2DE07C4904F1E8
:104300000A00085C052827D104F10C00085C072886
:1043100021D2DFE800F004080C1014181C0015204E
:104320007549087017E016207349087013E01720CC
:10433000714908700FE018206F4908700BE01920D0
:104340006D49087007E01A206B49087003E00620E9
:10435000FFF730F800BF00BFC3E06548005D7E286E
:1043600001D1012000E00020614A611C515C614ADA
:104370001278914201D1012100E0002108405C4AFD
:10438000A11C515C802901D1012100E000210840DD
:10439000574AE11C515CA12901D1012100E0002113
:1043A0000840534A211D515C012900D100E0002141
:1043B00008404F4AE11D515C7F2901D1012100E0F5
:1043C0000021084030B34A4908190521FCF752F88A
:1043D0000612474908190521FCF74CF8C7B24449B1
:1043E000601D085CB04275D1A01D085CB84271D157
:1043F000C8213F48FBF73CFFFCF7F2FB4FF0FF30D2
:10440000FCF74AFF4FF0FF30FCF734FF72B6FCF7C1
:10441000C7FF66E03648005D36490978884259D1C1
:104420003349601C085C032854D1A01C085CE8BB1D
:10443000E01C085C04284DD108190621FCF71AF885
:1044400005462E12EFB22A49A01D085CB04240D1A9
:10445000E01D085CB8423CD14FF00008601D085CCC
:104460004FEA400823480078244908700320487028
:1044700081F80280002006E025490A5CC11C1F4B20
:104480005A54411CC8B20C28F6DB08F1030081B273
:104490001A48FBF7EFFF05462E12EFB2174908F155
:1044A00003000E54401C0F54084600E012E015496A
:1044B0000862012211021448FCF72AFE08F10500E7
:1044C0001049C8841148C06840F040000F49C860D6
:1044D00000BF06E0601CC4B20E4800788442FFF6BC
:1044E00051AE00BF00200B49087000BF4CE6000031
:1044F000B00B0020290000201D0000209E0C002091
:1045000030000020680B0020000C014000500040EB
:10451000920C00201C0000202DE9F04F07468C462D
:104520009146DDE909684FF47A7B07FB0BFB4FF0FE
:10453000FF0E9BFBFEFB1FFA8BF24FF47A7B0CFB0A
:104540000BFB9BFBFEFB1FFA8BF04FF47A7B09FB06
:104550000BFB9BFBFEFB1FFA8BF1824205DD8A42BF
:1045600001DD934606E08B4604E0884201DD834688
:1045700000E08B465C46824205DA8A4201DA9346C5
:1045800006E08B4604E0884201DA834600E08B4671
:10459000DA46A4EB0A0B1FFA8BF525B94FF0000B96
:1045A000A3F800B031E0944212D1A0EB010BCBEBA9
:1045B0000B1B4FEA8B0B9BFBF5FBA3F800B088426B
:1045C00023DAB3F800B00BF5B47BA3F800B01CE01D
:1045D00084420CD1A1EB020BCBEB0B1B4FEA8B0BF4
:1045E0009BFBF5FB0BF1780BA3F800B00DE08C42C0
:1045F0000BD1A2EB000BCBEB0B1B4FEA8B0B9BFB06
:10460000F5FB0BF1F00BA3F800B0B3F800B04FF4DA
:104610007A7E0BFB0EFB4FF4B47E9BFBFEFBA3F8F4
:1046200000B024B94FF0000BA6F800B007E04FF43B
:104630007A7B05FB0BFB9BFBF4FBA6F800B0A8F80C
:104640000040BDE8F08F70B504460D462046FBF7EC
:10465000F0FD0646002002E0215C2954401CB042D7
:10466000FADB70BDFA000000FA000000FA00FFFF5C
:10467000FF00DCF0F0007F6A00000000FFFFFF0099
:10468000C1814001C0804101C0804100C181400121
:10469000C0804100C1814000C1814001C080410112
:1046A000C0804100C1814000C1814001C080410003
:1046B000C1814001C0804101C0804100C1814001F1
:1046C000C0804100C1814000C1814001C0804100E3
:1046D000C1814001C0804101C0804100C1814000D2
:1046E000C1814001C0804101C0804100C1814001C1
:1046F000C0804100C1814000C1814001C0804101B2
:10470000C0804100C1814000C1814001C0804100A2
:10471000C1814001C0804101C0804100C181400091
:10472000C1814001C0804101C0804100C181400180
:10473000C0804100C1814000C1814001C080410072
:10474000C1814001C0804101C0804100C181400160
:10475000C0804100C1814000C1814001C080410151
:10476000C0804100C1814000C1814001C080410042
:10477000C1814001C0804101C0804100C181400031
:10478000C0C101C30302C2C60607C705C5C404CC25
:104790000C0DCD0FCFCE0E0ACACB0BC90908C8D855
:1047A0001819D91BDBDA1A1EDEDF1FDD1D1CDC1415
:1047B000D4D515D71716D6D21213D311D1D010F0E5
:1047C0003031F133F3F23236F6F737F53534F43C65
:1047D000FCFD3DFF3F3EFEFA3A3BFB39F9F8382835
:1047E000E8E929EB2B2AEAEE2E2FEF2DEDEC2CE455
:1047F0002425E527E7E62622E2E323E12120E0A0C5
:104800006061A163A3A26266A6A767A56564A46CA4
:10481000ACAD6DAF6F6EAEAA6A6BAB69A9A86878D4
:10482000B8B979BB7B7ABABE7E7FBF7DBDBC7CB494
:104830007475B577B7B67672B2B373B17170B050A4
:104840009091519353529296565797559594549CE4
:104850005C5D9D5F9F9E5E5A9A9B5B9959589888B4
:104860004849894B8B8A4A4E8E8F4F8D4D4C8C44D4
:104870008485458747468682424383418180400242
:10488000030405060708090A0B0C0D0E0F10100192
:1048900002000000000000000001020304060708F7
:1048A0000900000000010203040000002D56322E12
:1048B000302E303200000000D848010800000020EF
:1048C000440000006C0101081C490108440000205C
:1048D00054130000880101080000000000000000DF
:1048E00000000000000000000000000014000000B4
:1048F00000000000000000000000000000000000B8
:104900000001000000000000AC48010800000000A9
:0C49100010000000010000000024F40072
:0400000508010131BC
:00000001FF
